:100000000C94C8030C94E5030C94E5030C94E503ED
:100010000C94E5030C948F290C9456130C94E5036F
:100020000C94E5030C94E5030C94E5030C94EA1599
:100030000C94E5030C9418170C94E5030C94E50359
:100040000C94E5030C94E5030C94E5030C94E50390
:100050000C9404130C94C3120C94E5030C94E50364
:100060000C94E5030C94E5030C94E5030C94E50370
:10007000881B881B881B9F1BB41BBD1BC61BCF1B6B
:10008000D81BEF1BFB1B041C0D1C161C281C3C1C46
:100090004E1C641C761C7F1C881C911C9C1CA51C7F
:1000A000AE1CB71C084AD73B3BCE016E84BCBFFDDB
:1000B000C12F3D6C74319ABD56833DDA3D00C77F38
:1000C00011BED9E4BB4C3E916BAAAABE00000080D1
:1000D0003F05A84CCDB2D44EB93836A9020C50B960
:1000E000918688083CA6AAAA2ABE000000803F0D7F
:1000F0000A002C0057506F732C002C002C4D506FB1
:10010000732C004A6F6700436865636B00416C6144
:10011000726D00486F6D6500486F6C640052756EBB
:100120000051756575650049646C65000D0A003DF8
:1001300000244E005D0D0A00204600205400204D92
:100140003800204D3900204D3500204D3400204D21
:100150003300204D3200204D3100204D300020472B
:1001600039340020473933002047393100204739DE
:1001700030002047323100204732300020473139EB
:1001800000204731380020473137002047005B47C7
:100190003830005B4733005B4732005B4731005B20
:1001A0004730005D0D0A002C005B4739323A005D94
:1001B0000D0A002C0033303A0032383A0035393A13
:1001C0000035383A0035373A0035363A0035353A99
:1001D0000035343A005B470020285A207363616C75
:1001E000696E6720746F207265647563652066654B
:1001F0006564290D0A0020285A207A65726F2067ED
:10020000617567652C206D6D290D0A2432353D001E
:1002100020285A207A65726F2070756C6C2D6F667D
:10022000662C206D6D290D0A2432343D002028688B
:100230006F6D696E672070756C6C2D6F66662C2013
:100240006D6D290D0A2432333D002028686F6D69D9
:100250006E67206465626F756E63652C206D7365D3
:1002600063290D0A2432323D002028686F6D696EC3
:1002700067207365656B2C206D6D2F6D696E290D80
:100280000A2432313D002028686F6D696E67206650
:100290006565642C206D6D2F6D696E290D0A243201
:1002A000303D00290D0A2431393D002028686F6D4A
:1002B000696E672064697220696E76657274206D5C
:1002C00061736B2C20696E742025002028686F6D87
:1002D000696E67206379636C652C20626F6F6C298F
:1002E0000D0A2431383D00202868617264206C6951
:1002F0006D6974732C20626F6F6C290D0A2431377D
:100300003D002028696E76657274207374657020D4
:10031000656E61626C652C20626F6F6C290D0A241A
:1003200031363D0020286175746F207374617274DA
:100330002C20626F6F6C290D0A2431353D00202876
:100340007265706F727420696E636865732C2062C9
:100350006F6F6C290D0A2431343D0020286E2D6406
:100360006563696D616C732C20696E74290D0A24B4
:1003700031333D0020286E2D61726320636F7272ED
:10038000656374696F6E2C20696E74290D0A2431BF
:10039000323D0020286172632C206D6D2F736567DC
:1003A0006D656E74290D0A2431313D0020286A756F
:1003B0006E6374696F6E20646576696174696F6ECF
:1003C0002C206D6D290D0A2431303D0020286163F9
:1003D00063656C65726174696F6E2C206D6D2F732F
:1003E00065635E32290D0A24393D00202873746547
:1003F000702069646C652064656C61792C206D7374
:100400006563290D0A24383D00290D0A24373D0073
:1004100020287374657020706F727420696E766521
:100420007274206D61736B2C20696E74202500201E
:100430002864656661756C74207365656B2C206D2E
:100440006D2F6D696E290D0A24363D0020286465E4
:100450006661756C7420666565642C206D6D2F6D0A
:10046000696E290D0A24353D0020287374657020BB
:1004700070756C73652C2075736563290D0A2434BF
:100480003D0020287A2C20737465702F6D6D290D26
:100490000A24333D002028792C20737465702F6D59
:1004A0006D290D0A24323D002028782C20737465B4
:1004B000702F6D6D290D0A24313D0024303D00243C
:1004C00024202876696577204772626C20736574F2
:1004D00074696E6773290D0A24232028766965776D
:1004E000202320706172616D6574657273290D0A35
:1004F00024472028766965772070617273657220C1
:100500007374617465290D0A244E20287669657715
:10051000207374617274757020626C6F636B7329E1
:100520000D0A24783D76616C7565202873617665C7
:10053000204772626C2073657474696E67290D0AB6
:10054000244E783D6C696E65202873617665207352
:1005500074617274757020626C6F636B290D0A246C
:10056000432028636865636B2067636F6465206D53
:100570006F6465290D0A245820286B696C6C206112
:100580006C61726D206C6F636B290D0A2448202802
:1005900072756E20686F6D696E67206379636C6534
:1005A000290D0A7E20286379636C6520737461725B
:1005B00074290D0A2120286665656420686F6C64C3
:1005C000290D0A3F202863757272656E742073745A
:1005D00061747573290D0A6374726C2D782028720A
:1005E00065736574204772626C290D0A000D0A4715
:1005F00072626C20302E38632F6A6F67205B27246D
:100600002720666F722068656C705D0D0A005D0DB5
:100610000A0044697361626C656400456E61626CD6
:1006200065640043617574696F6E3A20556E6C6F36
:10063000636B656400272448277C2724582720748F
:100640006F20756E6C6F636B0052657365742074F8
:100650006F20636F6E74696E7565005B002E204DB0
:10066000506F733F0D0A0041626F7274206475729F
:10067000696E67206379636C650048617264206C01
:10068000696D697400414C41524D3A20000D0A00D9
:100690004C696E65206F766572666C6F7700416C91
:1006A00061726D206C6F636B0042757379206F729D
:1006B0002071756575656400454550524F4D207237
:1006C000656164206661696C2E205573696E6720D0
:1006D00064656661756C74730056616C7565203C69
:1006E000203320757365630056616C7565203C206E
:1006F000302E300053657474696E672064697361CD
:10070000626C656400496E76616C69642073746123
:1007100074656D656E74004D6F64616C2067726FF7
:1007200075702076696F6C6174696F6E00496E76C2
:10073000616C69642072616469757300556E7375CC
:1007400070706F727465642073746174656D656E2A
:100750007400457870656374656420636F6D6D61C6
:100760006E64206C657474657200426164206E75FD
:100770006D62657220666F726D6174006572726F72
:10078000723A20006F6B0D0A004A6F670D0A000075
:1007900011241FBECFEFD0E1DEBFCDBF11E0A0E03E
:1007A000B1E0EEE1F0E702C005900D92A030B10794
:1007B000D9F71BE0A0E0B1E001C01D92A63DB10752
:1007C000E1F70E94E7030C940D380C9400001F938E
:1007D0000E9493120E94E81D0E94EA16789480E11C
:1007E000EEECF9E0DF011D928A95E9F781E0809354
:1007F000CE098093CF0911E08091CE09882351F171
:100800000E94FF120E94C1250E9426120E94AE156E
:100810000E9454120E947B120E9417270E947E3071
:100820000E94BC160E94DA261092CE091092D009BE
:100830008091B70B81FF02C01093DD098091CF0931
:10084000863021F482E00E94362B04C01092CF093A
:100850000E94F3130E94A8300E9492130E945D151B
:10086000CBCF8091D00984FD15C08091D0098061E3
:100870008093D0090E945B120E9480128091CF0960
:100880008350833038F48091D00980628093D009FE
:100890000E94D0160895EF92FF920F931F93CF936B
:1008A000DF937B018C0120E030E040EA51E40E94BC
:1008B000DF360E94E7340E947E34EB010E94A425BB
:1008C000C801B70120E030E04AE754E40E94DF3677
:1008D0007B018C0182E390E0C89FB001C99F700D3D
:1008E000D89F700D112480E090E00E94AA349B01F3
:1008F000AC01C801B7010E9430330E94E7340E9466
:100900007E34DC01CB010E94902600E911E00EC08C
:100910000E9492138091CE09882351F484EF91E0D4
:10092000F8013197F1F70197D9F72197209781F7CF
:10093000DF91CF911F910F91FF90EF9008954F920B
:100940005F926F927F928F92AF92BF92CF92DF921F
:10095000EF92FF920F931F93DF93CF9300D000D0BD
:10096000CDB7DEB72B013C0129833A834B835C83EF
:100970008091CF098730F9F00E9492138091CE09BF
:100980008823C9F40E946E1E8823B1F7C301B20107
:1009900029813A814B815C810E94FF218091CF099E
:1009A000882319F482E08093CF098091DD098823A0
:1009B00011F00E9467160F900F900F900F90CF913B
:1009C000DF911F910F91FF90EF90DF90CF90BF903C
:1009D000AF908F907F906F905F904F9008952F927F
:1009E0003F924F925F926F927F928F929F92AF92BF
:1009F000BF92CF92DF92EF92FF920F931F9385E009
:100A00008093CF0980916C00817F80936C000E945D
:100A100046290E9492138091CE09882309F087C04D
:100A20008CE0E1EDF9E0DF011D928A95E9F70E9483
:100A3000DA261092CF092091B80B27FD02C06FEF84
:100A400001C061E025FD03C0DD24DA9402C0DD248D
:100A5000D39423FD03C0CC24CA9402C0CC24C394F5
:100A6000E090C30BF090C40B0091C50B1091C60B26
:100A7000772767FD7095872F972F0E94AC34A801C8
:100A800097010E94DF361B012C016D2D772767FD32
:100A90007095872F972F0E94AC34A80197010E9470
:100AA000DF363B014C016C2D772767FD7095872F52
:100AB000972F0E94AC34A80197010E94DF367B017A
:100AC0008C01A090BD0BB090BE0BC090BF0BD0901E
:100AD000C00BC201B101A401930188240E949F04AC
:100AE0000E9467160E94A4251092D1091092D20983
:100AF0001092D3091092D4091092D5091092D609F8
:100B00001092D7091092D8091092D9091092DA09D7
:100B10001092DB091092DC090E94DA268091B70B53
:100B200083FF05C080916C008E6080936C001F91E4
:100B30000F91FF90EF90DF90CF90BF90AF909F907C
:100B40008F907F906F905F904F903F902F9008957F
:100B50002F923F924F925F926F927F928F929F92CD
:100B6000AF92BF92CF92DF92EF92FF920F931F93BB
:100B7000DF93CF93CDB7DEB7CE54D0400FB6F89405
:100B8000DEBF0FBECDBF3C017EAF6DAF21965FAF24
:100B90004EAF219722962FAF229723960FAF239720
:100BA0002496EFAE24972896ACAEBDAECEAEDFAEA7
:100BB000289729968FAE2997E22EFF24EE0CFF1C72
:100BC000EE0CFF1C4E0D5F1D5CAF4BAFDA012D909C
:100BD0003D904D905C90FC01EE0DFF1DC201B101F6
:100BE00020813181428153810E94313369AB7AABDC
:100BF0008BAB9CAB10E0000F111F000F111F219653
:100C0000EEADFFAD2197E00FF11FFAAFE9AFA08085
:100C1000B180C280D380F301E00FF11FC601B5019E
:100C200020813181428153810E9431336DA77EA79B
:100C30008FA798AB24962FAD2497E22FF0E0EE0F0C
:100C4000FF1FEE0FFF1F6E0E7F1ED3018D919D9132
:100C50000D90BC91A02D8DAB9EABAFABB8AF2DADC1
:100C60003EADE20FF31F60817181828193812DA9D6
:100C70003EA94FA958AD0E94303369A77AA78BA728
:100C80009CA7D201C101B0588DA39EA3AFA3B8A762
:100C9000A6019501505829A33AA34BA35CA34DADDF
:100CA0005EADE40EF51ED7016D917D918D919C9105
:100CB00029A93AA94BA95CA90E9430333B014C01F8
:100CC000EDADFEAD0E0F1F1FD8016D917D918D9181
:100CD0009C912DA53EA54FA558A90E9430335B01DC
:100CE0006C016DA17EA18FA198A5A60195010E941E
:100CF000DF367B018C0169A17AA18BA19CA1A401A3
:100D000093010E94DF369B01AC01C801B7010E942C
:100D100030331B012C016DA17EA18FA198A5A401E8
:100D200093010E94DF367B018C0169A17AA18BA11E
:100D30009CA1A60195010E94DF369B01AC01C80170
:100D4000B7010E9431339B01AC01C201B1010E9485
:100D5000A4335B016C01A8968FADA897882399F006
:100D6000C601B50120E030E040E050E00E940D36C1
:100D70008823ECF0C601B5012BED3FE049EC50E4CF
:100D80000E94303312C0C601B50120E030E040E0DF
:100D900050E00E940A34181654F0C601B5012BED3C
:100DA0003FE049EC50E40E9431335B016C01C60125
:100DB000B501A7962CAD3DAD4EAD5FADA7970E9496
:100DC000DF3629A53AA54BA55CA50E941A367B0102
:100DD0008C0120E030E040E050E00E940A3488239B
:100DE00009F4D5C1C801B7012091AB0B3091AC0B10
:100DF0004091AD0B5091AE0B0E9411340E94E7342C
:100E00000E947E3478A36F8F2996BFAD2997BB23AC
:100E1000A1F080E090E00E94AA349B01AC012896EA
:100E20006CAD7DAD8EAD9FAD28970E94DF362896C4
:100E30006CAF7DAF8EAF9FAF28972F8D38A1B901D2
:100E400080E090E00E94AA347B018C01C601B501CC
:100E5000A80197010E9411346B8F7C8F8D8F9E8F1C
:100E600069A57AA58BA59CA5A80197010E941134BC
:100E70006F8B788F898F9A8F6B8D7C8D8D8D9E8DEA
:100E800020E030E040E05FEB0E94DF362B8D3C8DB0
:100E90004D8D5E8D0E94DF3620E030E040E85FE35C
:100EA0000E9431336B8B7C8B8D8B9E8B24963FAD58
:100EB0002497E32FF0E0EE0FFF1FEE0FFF1FCE0190
:100EC0000196E80FF91F2DA93EA94FA958AD20831F
:100ED00031834283538341E050E05E874D8766242F
:100EE0002296BFAD2297AB2FB0E0AA0FBB1FAA0F6F
:100EF000BB1FA80FB91F2B96BFAFAEAF2B97239682
:100F00003FAD2397232F30E0220F331F220F331FD3
:100F1000280F391F2D963FAF2EAF2D972F96FFAF7D
:100F2000EEAF2F970EC1262D332727FD30958091E8
:100F3000D50B90E0281739070CF046C06DA17EA1B3
:100F40008FA198A52B8D3C8D4D8D5E8D0E94DF3637
:100F50007B018C0169A17AA18BA19CA12B893C8981
:100F60004D895E890E94DF369B01AC01C801B70143
:100F70000E9431337B018C016DA17EA18FA198A5C8
:100F80002B893C894D895E890E94DF365B016C01AB
:100F900069A17AA18BA19CA12B8D3C8D4D8D5E8D7D
:100FA0000E94DF369B01AC01C601B5010E943033BF
:100FB0006DA37EA38FA398A76394C701D80189A3CB
:100FC0009AA3ABA3BCA361C04D855E85BA0180E046
:100FD00090E00E94AA342B8D3C8D4D8D5E8D0E9439
:100FE000DF367B018C01C8010E940E346F87788B3D
:100FF000898B9A8BB701C8010E9462373B014C0173
:10100000ABADBCADED90FD900D911C9117FB109513
:1010100017F91095E9ADFAAD2080318042805380F8
:10102000C801B7012F85388949895A890E94DF365E
:101030005B016C01C201B101A40193010E94DF3682
:101040009B01AC01C601B5010E9431336DA37EA3A3
:101050008FA398A7C801B701A40193010E94DF36AE
:101060007B018C01C201B1012F85388949895A89D8
:101070000E94DF369B01AC01C801B7010E943033EA
:1010800069A37AA38BA39CA3662469A97AA98BA9D7
:101090009CA92DA13EA14FA158A50E9431332B96AA
:1010A000AEADBFAD2B976D937D938D939C931397AE
:1010B0006DA57EA58FA598A929A13AA14BA15CA1F8
:1010C0000E9431332D96EEADFFAD2D976083718375
:1010D000828393832F96AEADBFAD2F976D917D9197
:1010E0008D919C912F89388D498D5A8D0E94313375
:1010F0002F96EEADFFAD2F9760837183828393832C
:1011000069817A818B819C812D813E814F815885B7
:10111000E984FA840B851C852896ACACBDACCEACBA
:10112000DFAC289729968FAC29970E949F04809165
:10113000CE09882361F52D853E852F5F3F4F3E8781
:101140002D874D855E858F8D98A14817590708F426
:10115000EACEADADBEAD6D917D918D919C91139711
:1011600014962D913D914D915C9117971896ED90A5
:10117000FD900D911C911B972896ACACBDACCEACEC
:10118000DFAC289729968FAC29970E949F04C25BF9
:10119000DF4F0FB6F894DEBF0FBECDBFCF91DF910A
:1011A0001F910F91FF90EF90DF90CF90BF90AF9085
:1011B0009F908F907F906F905F904F903F902F9077
:1011C0000895AF92BF92CF92DF92EF92FF920F936A
:1011D0001F9359016A010E94AC342091940B309105
:1011E000950B4091960B5091970B0E941134609390
:1011F000EB097093EC098093ED099093EE09C60119
:10120000B5010E94AC342091980B3091990B40911C
:101210009A0B50919B0B0E9411346093EF097093CD
:10122000F0098093F1099093F209C801B7010E9477
:10123000AC3420919C0B30919D0B40919E0B5091B2
:101240009F0B0E9411346093F3097093F40980930B
:10125000F5099093F6091F910F91FF90EF90DF90A1
:10126000CF90BF90AF9008950F931F93CF93DF93CC
:10127000EC018B01D9018C91FA01E80FF11DE0819D
:10128000EE23B1F0E883E154EA3110F082E00EC0C1
:101290008C918F5F8C93CA01B901A8010E94D5255A
:1012A000892B19F021E030E005C081E08093DF094F
:1012B00020E030E0C901DF91CF911F910F91089597
:1012C0002F923F924F925F926F927F928F929F9256
:1012D000AF92BF92CF92DF92EF92FF920F931F9344
:1012E000DF93CF93CDB7DEB7C754D0400FB6F89495
:1012F000DEBF0FBECDBF4C018091CF09863019F4FF
:101300008CE00C940C1219828CE0FE013796DF0100
:10131000482F1D924A95E9F7FE017396DF011D9251
:101320008A95E9F71092DF0924961FAE1EAE249726
:1013300022961FAE229721961FAE219712E0612EB2
:10134000712C6C0E7D1EB3E04B2E512C4C0E5D1E8D
:101350001E010894211C311CA3E0AA2ECC24C394A6
:10136000F2E0BF2ED6C1EB80FC800D811E81C8014A
:10137000B7010E94AD370E9479349B014A814734FE
:1013800021F04D3409F0C5C153C16E317105C9F169
:101390006F317105D4F46431710584F461317105E4
:1013A000B4F56430710569F1653071051CF477237B
:1013B0005CF525C06A30710511F523C066317105F1
:1013C0007CF16C317105D9F41CC06C3571058CF45D
:1013D0006A357105FCF46C3371053CF466337105B4
:1013E00014F56533710559F40CC06035710539F495
:1013F0000BC06C35710529F06F35710574F0DD2473
:1014000014C0DD24D39411C0E2E0DE2E0EC073E0E0
:10141000D72E0BC064E0D62E08C056E0D52E05C0EE
:1014200047E0D42E02C099E0D92E2531310509F4C8
:1014300094C026313105A4F52430310509F467C084
:1014400025303105A4F42130310509F465C022307E
:10145000310524F4232B09F45CC03AC12230310554
:1014600009F45DC02330310509F032C15BC022317F
:10147000310509F461C0233131054CF42A303105BE
:1014800009F443C02131310509F022C14EC0233196
:10149000310509F458C02431310509F019C15AC089
:1014A0002035310509F496C021353105ACF42533DA
:1014B000310509F485C0263331054CF42C31310552
:1014C00009F44EC02E31310509F002C149C02C3358
:1014D00031050CF0FDC079C02C35310509F484C00C
:1014E0002D3531054CF42A35310509F477C02B35FB
:1014F000310509F0EDC075C02D35310509F492C0F4
:101500002E35310509F0E4C090C0B2E087C0E1E0BB
:101510004EC01092E009DEC0C092E009DBC0B0927C
:10152000E009D8C0A092E009D5C01092F809C09295
:10153000F909B092FA09CEC0B092F8091092F909EF
:10154000C092FA09C7C0C092F809B092F909109286
:10155000FA09C0C0C092E209BDC01092E209BAC047
:10156000C801B70120E030E040E251E40E94DF36DC
:101570000E94AD370E947934F1E069317F0791F024
:1015800041E06A3174072CF46851714009F0A0C041
:101590000BC081E06C32780749F06D52714009F060
:1015A00097C009C0A4E035C0B3E038C0E5E021969B
:1015B000EFAF21978FC0F6E02196FFAF21978AC049
:1015C00041E022964FAF229785C0822F86538093A9
:1015D000FB0980C054E05093E0097CC0C092E3094D
:1015E00079C01092E30976C0C801B70120E030E06D
:1015F00040E251E40E94DF360E94AD370E94793408
:1016000083E06839780749F06959734009F060C090
:10161000A8E02196AFAF21975DC0B7E02196BFAF9C
:10162000219758C0C092E10955C01092E10952C0FB
:101630006630710534F4633071055CF4772334F45B
:1016400003C06E31710511F0DD2405C085E0D82E90
:1016500002C008E0D02E2430310569F12530310573
:1016600084F421303105B1F1223031051CF4232BF3
:10167000C9F02EC022303105C1F02330310541F5CB
:1016800017C028303105F1F02930310524F4253018
:101690003105F1F414C029303105B9F02E3131058E
:1016A000B9F403C0C092E40915C0B092E40912C0B5
:1016B000C092E5090FC0EFEFE093E5090BC010926F
:1016C000E50908C0C092E60905C01092E60902C00B
:1016D000A092DF09DD20E9F021E030E002C0220F16
:1016E000331FDA94E2F724968EAD9FAD24978223C0
:1016F0009323892B21F0F5E0F093DF090AC02496AB
:101700004EAD5FAD2497422B532B24965FAF4EAF67
:101710002497C301B201A40191010E943409892BCD
:1017200009F021CE8091DF09882309F075C619825E
:10173000772425961FAE259726961FAE269750E84C
:1017400027965FAF27976FEB28966FAF28970F2EDE
:10175000F0E02F2EF0E03F2EF0E04F2EF0E05F2E75
:10176000F02D2CAE3DAE4EAE5FAE1BAE5E010894CA
:10177000A11CB11C13E0C12EB6E0DB2E52C11A81B0
:101780001F347CF41D340CF04CC11C340CF080C0B0
:1017900019340CF05AC01634E9F0173409F023C19B
:1017A00040C1143509F4AFC0153554F4123509F4AD
:1017B0007EC013350CF097C0103509F014C172C00B
:1017C000193509F4D2C01A3509F4E8C0183509F002
:1017D0000AC1B2C0EB80FC800D811E81C801B70137
:1017E00020E030E040E050E00E940A34181614F087
:1017F000D092DF098091E109882381F08091E2098C
:10180000882309F402C1C801B70123E333E34BEC99
:1018100051E40E94DF367B018C01F7C08091E20920
:10182000882351F0C801B70123E333E34BEC51E4C3
:101830000E94DF367B018C01E092E709F092E80913
:101840000093E9091093EA09D0C02B813C814D81B6
:101850005E818091E209882351F0CA01B90123E336
:1018600033E34BEC51E40E94DF369B01AC01E12FE6
:10187000FF27E7FDF095E954F040EE0FFF1FEE0F54
:10188000FF1FEA0DFB1D228B338B448B558BADC0A4
:101890006B817C818D819E810E94AD370E947E3458
:1018A0006BAFA3C02B803C804D805E809EC08B813F
:1018B0009C81AD81BE818CAF9DAFAEAFBFAF80913B
:1018C000E209882309F491C06CAD7DAD8EAD9FAD6A
:1018D00023E333E34BEC51E40E94DF366CAF7DAF82
:1018E0008EAF9FAF82C06B817C818D819E8120E015
:1018F00030E040E050E00E940A3488230CF075C0CC
:10190000D092DF0972C0EB80FC800D811E81C8017E
:10191000B70120E030E040E050E00E940A34882324
:1019200014F4D092DF09C801B7010E94AD370E94BC
:101930007E346093F70959C02B813C814D815E81D3
:101940008091E209882351F0CA01B90123E333E30E
:101950004BEC51E40E94DF369B01AC012F833887AA
:1019600049875A8791E0792A40C02B813C814D817B
:101970005E818091E209882351F0CA01B90123E315
:1019800033E34BEC51E40E94DF369B01AC012B8723
:101990003C874D875E87A2E07A2A27C02B813C8155
:1019A0004D815E818091E209882351F0CA01B9011D
:1019B00023E333E34BEC51E40E94DF369B01AC019F
:1019C000CA01B9012091CF0B3091D00B4091D10BBE
:1019D0005091D20B0E94DF366F87788B898B9A8B60
:1019E000B4E07B2A02C0C092DF0925962FAD25976F
:1019F00026963FAD269727964FAD279728965FAD41
:101A00002897C901DA017C018D012596EFAE259753
:101A10002696FFAE269727960FAF279728961FAFDB
:101A20002897CE010296BE016D5F7F4FA4019501FC
:101A30000E943409892B09F0A2CEB72C25962FAD30
:101A4000259726963FAD269727964FAD2797289640
:101A50005FAD2897C901DA018FAB98AFA9AFBAAFD4
:101A60008091DF09882309F0D7C48091CF0987309E
:101A700041F08091E5090E945F128091E6090E9481
:101A800082122496EEADFFAD2497F1FF13C08E01B4
:101A9000015E1F4F8091FB09B8010E94BD1D882384
:101AA00009F4B9C4ACEFB9E0F8018CE001900D92F3
:101AB0008150E1F72196FFAD2197F43009F469C117
:101AC000F53048F4F23079F1F33008F0B6C0F13077
:101AD00009F0B7C110C021964FAD2197463009F4E7
:101AE00058C1463008F4A9C0473009F45FC14830F6
:101AF00009F0A7C19FC1C201B10120E030E040E080
:101B000050E00E940A34882324F486E08093DF09A1
:101B100098C18091CF09873009F493C1C201B10106
:101B20000E944B048EC15BAD523011F0543149F428
:101B3000C201B1010E94AD370E947934673071054E
:101B400020F083E08093DF097EC1772021F48BAD04
:101B5000823009F42DC1161617062CF44B01089497
:101B60008108910804C08091FB09882E9924582C83
:101B70008E01015E1F4F882DB8010E94BD1D882374
:101B800009F449C4EBEEAE2EE9E0BE2E77E0C72E95
:101B9000D12CCC0EDD1E780100E010E0672C7724FC
:101BA000C301002E02C0959587950A94E2F780FF45
:101BB00020C09BAD943199F4D5016D917D918D91AB
:101BC0009C91F60120813181428153810E94303302
:101BD000D7016D937D938D939C9313970AC0F60163
:101BE00080819181A281B381F70180839183A28357
:101BF000B3830F5F1F4F44E050E0A40EB51EC40E28
:101C0000D51EE40EF51E0330110551F68E01015E5E
:101C10001F4F852DB8010E94B21D8091FB0990E0F5
:101C20008815990509F00FC1ACEFB9E0F8018CE017
:101C300001900D928150E1F706C1772009F478C038
:101C40008E01095F1F4F6BEEE62E69E0F62ECC2465
:101C5000DD24A72CBB24C5010C2C02C095958795CB
:101C60000A94E2F780FF35C08091E3098823F9F0F8
:101C7000D70151966D917D918D919C9154975D9670
:101C80002D913D914D915C9190970E9431339B0134
:101C9000AC01F80160817181828193810E943133AE
:101CA000D8016D937D938D939C9313971CC0F8017D
:101CB0006081718182819381D7012D913D914D91F8
:101CC0005C910E943133F801608371838283938336
:101CD0000AC0F70180819181A281B381F8018083DC
:101CE0009183A283B3830894C11CD11C0C5F1F4F46
:101CF00044E050E0E40EF51E53E0C516D10409F0AF
:101D0000AACF6F81788589859A852B853C854D85FD
:101D10005E85EF84F88809891A89A090A60BB09097
:101D2000A70BC090A80BD090A90B88240E949F04F9
:101D3000BE01655D7F4F21968FAD2197853011F4EF
:101D400087E001C086E00E94BD1D882309F463C3BB
:101D50006BA57CA58DA59EA52FA538A949A95AA933
:101D6000EBA8FCA80DA91EA9A090A60BB090A70BEC
:101D7000C090A80BD090A90B88240E949F04ABEEC2
:101D8000B9E0FE01BB968CE001900D928150E1F725
:101D90005AC021969FAD2197963011F487E001C07B
:101DA00086E06BEE79E00E94B21D4BC0772021F4F3
:101DB00086E08093DF0948C00BEE19E057E0C52E9E
:101DC000D12CCC0EDD1EEE24FF24A72CBB24C50194
:101DD0000E2C02C0959587950A94E2F780FF1CC0EF
:101DE000D8016D917D918D919C91139751962D9174
:101DF0003D914D915C9154970E943033F6012081C2
:101E00003181428153810E943033D8015D966D93B8
:101E10007D938D939C9390970894E11CF11C0C5F2B
:101E20001F4FE4E0F0E0CE0EDF1EF3E0EF16F1040A
:101E300071F609C08CE0E8E0FAE0DF011D928A95B6
:101E4000E9F7B72C01C0BB242396BFAD2397B2FDA1
:101E500003C0BB2009F4CBC28091E109882399F02B
:101E60006FA978AD89AD9AAD20E030E040E050E058
:101E70000E940A3488233CF48091E009843019F0F0
:101E800086E08093DF092296EFAD2297EE2339F0AA
:101E90008091E009823018F086E08093DF0980911C
:101EA000DF09882309F0B8C28E01095F1F4F4BEE8E
:101EB000E42E49E0F42ECC24DD248B2C9924C4019B
:101EC0000C2C02C0959587950A94E2F780FF3BC0E1
:101ED0002296FFAD2297FF2309F03FC08091E309CE
:101EE0008823F9F0D70151966D917D918D919C9148
:101EF00054975D962D913D914D915C9190970E94E4
:101F000031339B01AC01F801608171818281938141
:101F10000E943133D8016D937D938D939C931397D9
:101F20001CC0F8016081718182819381D7012D915C
:101F30003D914D915C910E943133F8016083718332
:101F4000828393830AC0F70180819181A281B3814A
:101F5000F80180839183A283B3830894C11CD11CB0
:101F60000C5F1F4F44E050E0E40EF51E53E0C51631
:101F7000D10409F0A4CF8091E009843048F4823084
:101F800008F05EC0882359F0813009F023C220C0D8
:101F9000843009F01FC2BB2009F41CC299C0BB20C9
:101FA00009F496C06F81788589859A852B853C8553
:101FB0004D855E85EF84F88809891A89A090A60B63
:101FC000B090A70BC090A80BD090A90B882435C067
:101FD000BB2009F47DC06F81788589859A852B8522
:101FE0003C854D855E85EF84F88809891A89809043
:101FF000E1098820A1F4A091E7092596AFAF2597C4
:10200000B091E8092696BFAF2697E091E909279697
:10201000EFAF2797F091EA092896FFAF289725960A
:10202000EFAD25972696FFAD26972796AFAD27975C
:102030002896BFAD28975F016D010E949F04CAC119
:1020400081E090E00090FA0902C0880F991F0A947D
:10205000E2F780958B21E1F16CAD7DAD8EAD9FAD4A
:1020600020E030E040E050E00E940A348823A1F5EF
:10207000E091F809F0E0EE0FFF1FEE0FFF1F8E0159
:102080000F5F1F4FE00FF11F628973898489958963
:1020900020E030E040E050E00E940A348823E1F480
:1020A0008091F90990E0880F991F880F991F080FF8
:1020B000191FD80152966D917D918D919C915597E4
:1020C00020E030E040E050E00E940A34882321F410
:1020D00086E08093DF097EC16CAD7DAD8EAD9FAD96
:1020E00020E030E040E050E00E940A348E010F5FB3
:1020F0001F4F882309F4F5C0E091F809F0E0EE0FD6
:10210000FF1FEE0FFF1FD801AE0FBF1FE551F64FA7
:1021100016966D917D918D919C91199720813181B9
:10212000428153810E9430331B012C01E091F90957
:10213000F0E0EE0FFF1FEE0FFF1F0E0F1F1FE55108
:10214000F64FD80116966D917D918D919C911997BE
:1021500020813181428153810E9430333B014C0107
:102160008CE0FE017396DF011D928A95E9F76CAD54
:102170007DAD8EAD9FAD20E030E040E850E40E94A0
:10218000DF362CAD3DAD4EAD5FAD0E94DF367B013D
:102190008C01C201B101A20191010E94DF369B01B5
:1021A000AC01C801B7010E9430337B018C01C4012E
:1021B000B301A40193010E94DF369B01AC01C80169
:1021C000B7010E9430337B018C0120E030E040E019
:1021D00050E00E940A34882324F484E08093DF09CD
:1021E0001BC1C801B7010E946C377B018C01C20181
:1021F000B101A40193010E941A369B01AC0117FBA7
:10220000109517F91095C801B7010E9411346B01A0
:102210007C018091E009833021F4F7FAF094F7F81B
:10222000F0946CAD7DAD8EAD9FAD20E030E040E030
:1022300050E00E940A3488236CF4F7FAF094F7F81F
:10224000F0944CAD5DAD6EAD7FAD70584CAF5DAFF1
:102250006EAF7FAF0091F809A02EBB24AA0CBB1C67
:10226000AA0CBB1C8E010F5F1F4FA00EB11EC40134
:10227000B301A70196010E94DF369B01AC01C201A8
:10228000B1010E94303320E030E040E05FE30E9483
:10229000DF36D50152966D937D938D939C93559720
:1022A0008091F90990E0880F991F880F991F080FF6
:1022B000191FC201B101A70196010E94DF369B01DF
:1022C000AC01C401B3010E94313320E030E040E0B2
:1022D0005FE30E94DF36F801628B738B848B958BF2
:1022E00023C0E091F809F0E0EE0FFF1FEE0FFF1F93
:1022F000E00FF11F62897389848995892091F9091A
:1023000030E0220F331F220F331F020F131FD8019B
:1023100052962D913D914D915C9155970E941A36A0
:102320006CAF7DAF8EAF9FAF9091E0092091F8091F
:102330000091F909E090FA098090E1098820A1F460
:10234000B091E7092596BFAF2597E091E809269659
:10235000EFAF2697F091E9092796FFAF27974091B5
:10236000EA0928964FAF289700D000D00F92EDB71A
:10237000FEB731964CAD5DAD6EAD7FADADB7BEB7BE
:1023800011964D935D936D937C93149780E09230FA
:1023900009F481E084838BEE99E0BE01695F7F4F91
:1023A000AE014D5E5F4F25963FAD25972696EFAD6A
:1023B00026972796FFAD27972896AFAD2897A32E8F
:1023C000BE2ECF2EDA2E0E94A8050F900F900F90F0
:1023D0000F900F908091DF098823F1F4ABEEB9E004
:1023E000FE0137968CE001900D928150E1F78091CB
:1023F000E409882369F00E94A4251092DD098091E8
:10240000E409823019F40E94310402C01092E409F8
:102410008091DF0901C08AE0C95BDF4F0FB6F894F5
:10242000DEBF0FBECDBFCF91DF911F910F91FF9007
:10243000EF90DF90CF90BF90AF909F908F907F9064
:102440006F905F904F903F902F900895EFEDF9E0DF
:1024500085E3DF011D928A95E9F78091A20B9091A7
:10246000A30BA091A40BB091A50B8093E7099093C7
:10247000E809A093E909B093EA091092F80991E0FC
:102480009093F90982E08093FA099093E30980918F
:10249000FB09BF01635E7F4F0E94BD1D882319F4B5
:1024A0008AE00E94602B0895109200013F9A47989D
:1024B0001092DE09089547981092DE0908951F933F
:1024C000182F282F332727FD30958091000190E0A9
:1024D0002817390771F00E94A425112329F0479A83
:1024E00081E08093DE0903C047981092DE091093C3
:1024F00000011F910895109201013E9A4698089597
:10250000469808951F93182F80910101181749F0DC
:102510000E94A425113011F4469A01C046981093E8
:1025200001011F910895E0ECF0E080818D7F8083B0
:102530001092C50083E38093C400E1ECF0E0808159
:1025400080618083808188608083808180688083CF
:102550000895282FE09104019E2F9F5F04C0809171
:10256000D00984FD0FC0809105019817C1F3F0E0F8
:10257000EC56F54F2083909304018091C100806256
:102580008093C10008951F920F920FB60F921124ED
:102590008F939F93EF93FF9390910501E92FF0E0C4
:1025A000EC56F54F80818093C6009F5F90930501A4
:1025B00080910401981729F48091C1008F7D809348
:1025C000C100FF91EF919F918F910F900FBE0F90DF
:1025D0001F9018959091030180910201891711F4C1
:1025E0008FEF0895E92FF0E0EC5EF54F8081E92F41
:1025F000EF5FE03809F4E0E0E09303010895809193
:1026000002018093030108951F920F920FB60F925B
:1026100011242F933F934F935F936F937F938F93E7
:102620009F93AF93BF93EF93FF932091C600213206
:10263000A1F0223218F42831B9F413C02F3319F065
:102640002E3791F404C08091D009816003C080913D
:10265000D00982608093D00918C08091D009886029
:10266000F9CF0E94310411C0E09102019E2F9F5FBB
:10267000903809F490E080910301981731F0F0E070
:10268000EC5EF54F208390930201FF91EF91BF9193
:10269000AF919F918F917F916F915F914F913F91FA
:1026A0002F910F900FBE0F901F9018951F920F92B1
:1026B0000FB60F9211242F933F934F935F936F9315
:1026C0007F938F939F93AF93BF93EF93FF9386B1C5
:1026D00090E08095909587709070892B91F030995B
:1026E00003C00E9431040DC0319904C08091D0090B
:1026F000886005C0329905C08091D00982608093BE
:10270000D009FF91EF91BF91AF919F918F917F91F0
:102710006F915F914F913F912F910F900FBE0F904E
:102720001F901895CF93DF938091D009882309F4E7
:1027300057C08091D009C82FD0E0CE01807690702C
:10274000892BE9F086E08093CF09C6FF10C08FEF98
:102750000E94633081E00E94362B8091D0098F7EE9
:102760008093D0098091D00984FFFCCF03C08EEF05
:102770000E9463308091D0098F798093D009C4FF83
:1027800004C081E08093CE092BC0C0FF07C00E9427
:10279000BB2B8091D0098E7F8093D009C3FF07C0E7
:1027A0000E9471168091D009877F8093D009C2FF63
:1027B00007C00E947B168091D0098B7F8093D0093F
:1027C000C1FF0EC00E9467168091B70B81FF03C046
:1027D00081E08093DD098091D0098D7F8093D009BD
:1027E000DF91CF91089580E066E071E00E94291E9C
:1027F000882369F080910601882361F086E091E0EA
:102800000E941F2B86E091E00E94600901C08AE0CF
:102810000E94602B81E066E071E00E94291E8823FF
:1028200021F48AE00E94602B08958091060188239C
:1028300051F086E091E00E941F2B86E091E00E941B
:1028400060090E94602B0895DF92EF92FF920F9330
:102850001F93DF93CF93CDB7DEB729970FB6F894C8
:10286000DEBF0FBECDBF7C01FC018081843209F048
:1028700009C181E089838181873481F1883474F4CE
:102880008432C1F0853234F4882389F0833209F030
:1028900097C01AC0833409F093C02AC08E3409F45B
:1028A00069C08835F1F1883409F08AC04CC00E94B3
:1028B0002C2BF3C082E08983F7018281882309F001
:1028C000E6C00E94DB2EE9C082E08983F7018281A5
:1028D000882309F0DCC00E941D2EDFC082E08983BE
:1028E000F7018281882309F0D2C00E94312DD5C022
:1028F00082E08983F7018281882309F0C8C0809132
:10290000CF09873021F40E94310485E007C0882375
:1029100009F0BFC087E08093CF0984E00E94362B86
:10292000BCC082E08983F7018281882309F0AFC0AF
:102930008091CF09863009F0B0C083E00E94362B29
:102940001092CF09AAC08091B70B84FD02C017E096
:10295000A5C08091CF09882319F0863009F099C06D
:102960000E94EF048091CE09882309F096C00E944E
:10297000F31393C082E08983F7018281882319F0E1
:10298000DD24D3941EC080E0B7010E94291E882355
:1029900029F080E0B7010E94F82D03C08AE00E9470
:1029A000602B81E0B7010E94291E882321F48AE070
:1029B0000E94602B72C081E0B7010E94F82D6DC0AB
:1029C000DD24C7018E010F5F1F4FB801AE014E5FBE
:1029D0005F4F0E94D525892B09F45DC09981F701CD
:1029E000E90FF11D80818D3309F051C0892F8F5F70
:1029F0008983DD2041F1482F50E02981822F90E02A
:102A0000FC01E41BF50BEE0DFF1DD701A80FB91F4C
:102A10008C9180838C912F5F2983882371F7C70164
:102A20000E946009182F8823C9F56A817B818C81F7
:102A30009D810E94AD370E947E34DC01CB01B7013D
:102A40000E941E1E2BC0C701B801AE014A5F5F4F36
:102A50000E94D525892BF9F08981E80EF11CF70138
:102A600080818823A1F46A817B818C819D810E9471
:102A70007934DC01CB014E815F81688579850E94C4
:102A8000711B03C0C7010E946009182F07C013E023
:102A900005C01BE003C011E001C010E0812F2996A2
:102AA0000FB6F894DEBF0FBECDBFCF91DF911F915F
:102AB0000F91FF90EF90DF9008951F9311E046C0B3
:102AC0002A3011F02D30B1F40E9492138091CE097A
:102AD000882309F041C0E0913801EE2349F0F0E08D
:102AE000EA5FFE4F108286E091E00E94241417C036
:102AF00080E015C080913901882319F0293231F521
:102B000012C0213218F12F3209F1283219F4109332
:102B100039011CC090913801913340F08DE00E9442
:102B2000602B109238011092390110C0822F81560B
:102B3000E92FF0E09F5F8A3120F4EA5FFE4F2052D8
:102B400002C0EA5FFE4F2083909338010E94EA1290
:102B5000282F8F3F09F0B4CF1F91089510923801AC
:102B6000109239010E94312B87B1887F87B988B1D3
:102B7000876088B9EDE6F0E0808187608083E8E6D1
:102B8000F0E0808184608083089544988091B70B41
:102B900082FF02C0289A01C028988091CF09833013
:102BA000C1F48091AA0B809361018091A10B90E008
:102BB000A0E0B0E00297A109B109880F991FAA1FF0
:102BC000BB1F81958093600180916F00826080932C
:102BD0006F0008951F920F920FB60F9211248F93DA
:102BE0009F939BB18091AA0B84759B7A892B8BB99B
:102BF0001092B1009F918F910F900FBE0F901F9078
:102C000018959B01AC01203283E0380780E048072B
:102C100080E0580720F420E233E040E050E060E03C
:102C200070E788E399E30E94EB37C901DA0180304D
:102C300020E0920721E0A20720E0B20730F4BC01B7
:102C40009C0140E050E091E02FC0803020E09207EE
:102C500028E0A20720E0B207A0F423E0B695A795EC
:102C6000979587952A95D1F7BC019C0140E050E0EB
:102C7000A3E0220F331F441F551FAA95D1F792E0FE
:102C800013C0F6E0B695A79597958795FA95D1F775
:102C9000BC019C0140E050E0E6E0220F331F441FDE
:102CA000551FEA95D1F793E080918100887F982B9A
:102CB00090938100709389006093880020934E0167
:102CC00030934F01409350015093510108958091EA
:102CD000CF09823029F483E08093CF090E94C51583
:102CE00008958091CF09833029F484E08093CF093F
:102CF0001092DD090895E0915E01F0915F01309737
:102D0000C1F1658576858785908920914A0130914A
:102D10004B0140914C0150914D01621B730B840B90
:102D2000950B0E94AF2110925601109257011092FC
:102D300058011092590160E070E080E090E00E943C
:102D4000011680E091E7A2E0B0E0809352019093F9
:102D50005301A0935401B093550110924A0110926F
:102D60004B0110924C0110924D0182E08093CF09EB
:102D700008951092CF09089584E2EAE3F1E0DF01BB
:102D80001D928A95E9F760E273E080E090E00E948E
:102D9000011610925F0110925E0110926201089577
:102DA000449A80916F008D7F80936F009091D30B38
:102DB0009F3F21F48091D00985FF0BC0892F90E0BF
:102DC0000E9490268091B70B82FF02C02898089538
:102DD000289A08958AB18C6F8AB98BB183709091CB
:102DE000AA0B892B8BB9209AE1E8F0E080818F7ED5
:102DF0008083808188608083E0E8F0E080818D7F3F
:102E0000808380818E7F808380818F7380838081A7
:102E10008F7C80831092B0001092B100E0E7F0E068
:102E20008081816080830E94C5150E94D01608951C
:102E30001F920F920FB60F921124EF92FF920F93F1
:102E40001F932F933F934F935F936F937F938F9332
:102E50009F93AF93BF93CF93DF93EF93FF938091B3
:102E60006201882309F06EC39BB120916101822F1A
:102E7000887A9775892B8BB98BB18B7A822B8BB91A
:102E8000809160018093B20082E08093B10081E084
:102E900080936201789480915E0190915F01892B0B
:102EA00009F07FC00E945B1EEC0190935F0180934C
:102EB0005E01009709F46EC08091CF098330D1F490
:102EC0006BA17CA18DA19EA16093560170935701C7
:102ED00080935801909359010E94011680E091E778
:102EE000A2E0B0E08093520190935301A09354016B
:102EF000B09355012BA53CA54DA55EA5DA01C901EE
:102F0000B595A79597958795820F931FA41FB51F19
:102F100080935A0190935B01A0935C01B0935D0193
:102F20002D853E854F855889DA01C901B595A7954C
:102F300097958795B095A095909581959F4FAF4FA8
:102F4000BF4F80933A0190933B01A0933C01B09313
:102F50003D0180933E0190933F01A0934001B093C7
:102F600041018093420190934301A0934401B093A7
:102F70004501209346013093470140934801509307
:102F8000490110924A0110924B0110924C0110928B
:102F90004D0107C00E94D0168091D00984608093B3
:102FA000D009E0915E01F0915F01309709F4C1C250
:102FB00020812093610140913A0150913B01609141
:102FC0003C0170913D0181819281A381B481480FC0
:102FD000591F6A1F7B1F40933A0150933B01609336
:102FE0003C0170933D011416150616061706C4F52C
:102FF0002064209361018091460190914701A09146
:103000004801B0914901481B590B6A0B7B0B409357
:103010003A0150933B0160933C0170933D0127FFBF
:103020000CC08091D1099091D209A091D309B0919F
:10303000D4090197A109B1090BC08091D1099091E0
:10304000D209A091D309B091D4090196A11DB11D57
:103050008093D1099093D209A093D309B093D40956
:1030600040913E0150913F016091400170914101BA
:1030700085819681A781B085480F591F6A1F7B1FE4
:1030800040933E0150933F01609340017093410192
:103090001416150616061706D4F520916101206155
:1030A000209361018091460190914701A0914801D0
:1030B000B0914901481B590B6A0B7B0B40933E01B1
:1030C00050933F01609340017093410125FF0CC074
:1030D0008091D5099091D609A091D709B091D809CE
:1030E0000197A109B1090BC08091D5099091D6092A
:1030F000A091D709B091D8090196A11DB11D809367
:10310000D5099093D609A093D709B093D8094091D7
:1031100042015091430160914401709145018185C4
:103120009285A385B485480F591F6A1F7B1F409362
:10313000420150934301609344017093450114167A
:10314000150616061706D4F5209161012460209318
:1031500061018091460190914701A0914801B09191
:103160004901481B590B6A0B7B0B4093420150935A
:103170004301609344017093450123FF0CC080918B
:10318000D9099091DA09A091DB09B091DC09019786
:10319000A109B1090BC08091D9099091DA09A091D8
:1031A000DB09B091DC090196A11DB11D8093D909FD
:1031B0009093DA09A093DB09B093DC0920914A01CE
:1031C00030914B0140914C0150914D012F5F3F4F89
:1031D0004F4F5F4F20934A0130934B0140934C0176
:1031E00050934D0185859685A785B08928173907A5
:1031F0004A075B0708F097C18091CF09843009F036
:103200005BC020914E0130914F014091500150918F
:1032100051018091520190915301A0915401B091BC
:103220005501280F391F4A1F5B1F2093520130930D
:1032300053014093540150935501213002EE300761
:1032400004E0400700E0500708F473C12050324EFC
:103250004440504020935201309353014093540115
:1032600050935501209156013091570140915801DA
:103270005091590163A574A585A596A5621773079A
:103280008407950740F00E94D0168091D009846091
:103290008093D0094EC179018A01E61AF70A080B1A
:1032A000190BC801B701E0925601F0925701009343
:1032B0005801109359016CC087A590A9A1A9B2A982
:1032C000281739074A075B0708F065C020914E01AF
:1032D00030914F0140915001509151018091520124
:1032E00090915301A0915401B0915501280F391FBD
:1032F0004A1F5B1F209352013093530140935401A6
:1033000050935501213002EE300704E0400700E001
:10331000500708F40EC12050324E444050402093D4
:10332000520130935301409354015093550183A5AA
:1033300094A5A5A5B6A520915601309157014091BD
:10334000580150915901820F931FA41FB51F8093FC
:10335000560190935701A0935801B093590127A9A2
:1033600030AD41AD52AD82179307A407B50740F0C9
:1033700020935601309357014093580150935901BF
:1033800060915601709157018091580190915901B7
:103390000E940116CEC083A994A9A5A9B6A9281791
:1033A00039074A075B0708F4A2C0281739074A07FC
:1033B0005B0779F5209156013091570140915801F2
:1033C0005091590187A990ADA1ADB2AD2817390729
:1033D0004A075B0729F480E091E7A2E0B0E010C063
:1033E00080E092EEA4E0B0E02091520130915301D0
:1033F0004091540150915501821B930BA40BB50BC6
:103400008093520190935301A0935401B0935501BE
:1034100090C020914E0130914F0140915001509148
:1034200051018091520190915301A0915401B091AA
:103430005501280F391F4A1F5B1F209352013093FB
:1034400053014093540150935501213012EE31073E
:1034500014E0410710E0510708F46BC02050324ED1
:103460004440504020935201309353014093540103
:1034700050935501209156013091570140915801C8
:103480005091590180915A0190915B01A0915C018A
:10349000B0915D0182179307A407B50748F483A58F
:1034A00094A5A5A5B6A5281B390B4A0B5B0B04C038
:1034B0005695479537952795209356013093570198
:1034C000409358015093590127A130A541A552A519
:1034D0008091560190915701A0915801B0915901E6
:1034E00082179307A407B50708F04ACF41CF27A951
:1034F00030AD41AD52AD8091560190915701A091F0
:103500005801B091590182179307A407B50789F0B4
:10351000209356013093570140935801509359011D
:10352000CA01B90135CF10925F0110925E010E946D
:103530004C1E809161019091AA0B892780936101B3
:1035400010926201FF91EF91DF91CF91BF91AF9106
:103550009F918F917F916F915F914F913F912F91AB
:103560001F910F91FF90EF900F900FBE0F901F9043
:103570001895F999FECF92BD81BD81E08FBB80B5D2
:103580000895F894F999FECF92BD81BD81E08FBB7B
:1035900040B54627842F992787FD9095262F30E048
:1035A00082239323892B39F06F3F19F060BD84E0AB
:1035B00006C084E104C0442321F060BD84E28FBBD7
:1035C000F99A789408958F929F92AF92BF92CF927A
:1035D000DF92EF92FF920F93DF93CF9300D0CDB79E
:1035E000DEB75C016B017A014A0100E01EC00023D6
:1035F00019F021E030E008C0202F332727FD309557
:103600002227330F221F3327F60161916F01062F06
:10361000020F9C012F5F3F4F3A8329830E94C11AFA
:1036200008948108910889819A8181149104F9F69E
:10363000C7018A0D9B1D602F0E94C11A0F900F9029
:10364000CF91DF910F91FF90EF90DF90CF90BF90DF
:10365000AF909F908F900895CF93DF93EC01FB0183
:103660009A0190E0B1E019C0F999FECFF2BDE1BD39
:10367000BFBBA0B5992319F081E090E008C0892F65
:10368000992787FD90958827990F881F992731964C
:103690009A2F980FA993215030402115310521F719
:1036A000460F571FF999FECF52BD41BD81E08FBB38
:1036B00080B520E030E0981711F421E030E0C90136
:1036C000DF91CF91089580E090E065E00E94C11AFB
:1036D00081E090E064E97BE042E450E00E94E31A7C
:1036E0000895EF92FF920F931F93CF93DF93EC0116
:1036F0007A018B01FC018A31910540F4E85CFF4FAF
:10370000EE0FFF1F0590F491E02D099486E03AC179
:10371000CB01BA0120E030E040E050E00E940A34E2
:10372000181614F088E02EC1CC0FDD1FCC0FDD1F62
:10373000CC56D44FE882F9820A831B8320C1CB0187
:10374000BA0120E030E040E450E40E940A348823CB
:1037500014F489E017C1C801B7010E9442370E94E2
:103760007E346093A10B0BC14093A20B5093A30B2B
:103770006093A40B7093A50B02C14093A60B5093CA
:10378000A70B6093A80B7093A90BF9C0CB01BA01EA
:103790000E94AD370E947E346093AA0BF0C0CB012B
:1037A000BA010E9442370E947E346093D30BE7C077
:1037B000CB01BA0120E030E040E752E40E94DF365E
:1037C00020E030E040E752E40E94DF366093AF0B28
:1037D0007093B00B8093B10B9093B20BD0C0DB0110
:1037E000CA01BF778093B30B9093B40BA093B50B32
:1037F000B093B60BC4C04093AB0B5093AC0B60932B
:10380000AD0B7093AE0BBBC0CB01BA010E94423727
:103810000E947E346093D50BB2C0CB01BA010E94E6
:1038200042370E947E346093D40BA9C0CB01BA0109
:1038300020E030E040E050E00E940A34882321F08C
:103840008091B70B816011C08091B70B8E7F0DC046
:10385000CB01BA0120E030E040E050E00E940A34A1
:10386000882331F08091B70B82608093B70B87C0BB
:103870008091B70B8D7FF9CFCB01BA0120E030E00A
:1038800040E050E00E940A34882321F08091B70B79
:103890008460EBCF8091B70B8B7FE7CFCB01BA0170
:1038A00020E030E040E050E00E940A34882321F01C
:1038B0008091B70B886003C08091B70B877F80939E
:1038C000B70B0E9417275BC0CB01BA0120E030E0A4
:1038D00040E050E00E940A34882321F08091B70B29
:1038E0008061C3CF8091B70B8F7EBFCFCB01BA0170
:1038F0000E94AD370E947E346093B80B40C0409365
:10390000B90B5093BA0B6093BB0B7093BC0B37C0D1
:103910004093BD0B5093BE0B6093BF0B7093C00BD5
:103920002EC0CB01BA010E9442370E947E347093B0
:10393000C20B6093C10B23C04093C30B5093C40BC5
:103940006093C50B7093C60B1AC04093C70B50937E
:10395000C80B6093C90B7093CA0B11C04093CB0B7B
:103960005093CC0B6093CD0B7093CE0B08C040935B
:10397000CF0B5093D00B6093D10B7093D20B0E945E
:10398000631B80E0DF91CF911F910F91FF90EF902B
:103990000895882309F462C080E090E0A0EAB2E4D0
:1039A0008093940B9093950BA093960BB093970BE9
:1039B0008093980B9093990BA0939A0BB0939B0BC9
:1039C0008DE495E5A5EDB2E480939C0B90939D0B5F
:1039D000A0939E0BB0939F0B8AE08093A10B80E095
:1039E00090E0A8ECB3E48093A20B9093A30BA09378
:1039F000A40BB093A50B80E090E4ACE9B5E4809310
:103A0000A60B9093A70BA093A80BB093A90B80E0F3
:103A100098ECAFE2B9E48093AF0B9093B00BA09316
:103A2000B10BB093B20B8DEC9CECACE4BEE3809395
:103A3000AB0B9093AC0BA093AD0BB093AE0B88E0A7
:103A40008093AA0B8DEC9CECACECBDE38093B30BA4
:103A50009093B40BA093B50BB093B60B86E1809313
:103A6000B70B80EA8093B80B80E090E0A8ECB2E45A
:103A70008093B90B9093BA0BA093BB0BB093BC0B84
:103A800080E090E8ABEBB4E48093BD0B9093BE0B69
:103A9000A093BF0BB093C00B84E690E09093C20B51
:103AA0008093C10B20E030E040EA50E42093C30B48
:103AB0003093C40B4093C50B5093C60B80E090E04D
:103AC000A0E0B0E08093C70B9093C80BA093C90B04
:103AD000B093CA0B80E090E0A0E2B1E48093CB0BFE
:103AE0009093CC0BA093CD0BB093CE0B2093CF0B28
:103AF0003093D00B4093D10B5093D20B99E190931C
:103B0000D30B82E08093D40B9093D50B0E94631B60
:103B1000089580E090E00E94B91A853079F484E934
:103B20009BE061E070E042E450E00E942C1B20E04A
:103B3000892B09F421E081E0282712C0853078F430
:103B400084E99BE061E070E043E250E00E942C1BBE
:103B5000892B29F080E00E94C91C21E001C020E0EF
:103B6000822F08959DE0899FC001112480509E4FAF
:103B70004CE050E00E94E31A08950F931F93CF93F7
:103B8000DF93162F072F9DE0899FE0011124C0507D
:103B9000DE4F862F972FBE014CE050E00E942C1B79
:103BA000892B11F081E00FC0E12FF02F8CE0DF01B5
:103BB0001D928A95E9F7CE01612F702F4CE050E0FD
:103BC0000E94E31A80E0DF91CF911F910F91089539
:103BD000EF92FF921F93DF93CF93CDB7DEB72C9771
:103BE0000FB6F894DEBF0FBECDBF0E94891D88239B
:103BF00041F48AE00E94602B81E00E94C91C0E946F
:103C0000DB2E10E07E010894E11CF11C812FB7012E
:103C10000E94BD1D882319F48AE00E94602B1F5F5B
:103C20001830A1F72C960FB6F894DEBF0FBECDBFAB
:103C3000CF91DF911F91FF90EF90089593E3899FBB
:103C4000C001112480509D4F42E350E00E94E31ACE
:103C500008950F931F93CF93DF938B0193E3899F75
:103C6000E0011124C050DD4FCB01BE0142E350E022
:103C70000E942C1B892B11F081E009C0F8011082F1
:103C8000CE01B80142E350E00E94E31A80E0DF91E8
:103C9000CF911F910F9108959091AF098091B00934
:103CA000981741F08091B0098F5F843209F480E069
:103CB0008093B00908959091AF098091B009981749
:103CC00019F420E030E008C09091B0098BE3989F90
:103CD000900111242D593E4FC90108959091B009CA
:103CE00020E08091B109981709F421E0822F08950E
:103CF000EF92FF920F931F936093B2097093B309F1
:103D00008093B4099093B5092093B6093093B7090D
:103D10004093B8095093B909E092BA09F092BB09EF
:103D20000093BC091093BD091F910F91FF90EF9074
:103D300008958F929F92AF92BF92CF92DF92EF92AF
:103D4000FF920F931F93CF93DF93EC016B010097CA
:103D500009F460C08AA1882309F05CC0ED88FE8860
:103D60000F89188DFB01B588A6889788808CC801BB
:103D7000B7012B2D3A2D492D582D0E940A34882346
:103D80000CF048C0C801B701A80197010E94DF36B6
:103D90007B018C016091AF0B7091B00B8091B10BE6
:103DA0009091B20B905820E030E040E050EC0E943F
:103DB000DF362D8D3E8D4F8D58A10E94DF369B0141
:103DC000AC01C801B7010E9431330E946C377B01FE
:103DD0008C016B2D7A2D892D982D9701A8010E94B9
:103DE0000A34882324F4EB2CFA2C092D182D6B2D82
:103DF0007A2D892D982D9701A8010E940A348823D5
:103E000049F0C701D801F601858B968BA78BB08F3F
:103E100081E081A3DF91CF911F910F91FF90EF90EF
:103E2000DF90CF90BF90AF909F908F9008952F928A
:103E30003F924F925F926F927F928F929F92AF923A
:103E4000BF92CF92DF92EF92FF920F931F93DF9377
:103E5000CF93CDB7DEB768970FB6F894DEBF0FBE2D
:103E6000CDBF1C016A017B0128013901DC01D79615
:103E70006D917D918D919C91DA970E94AA344B01AE
:103E80005C01A70196010E94DF360E94F7330E9471
:103E90007E347B018C01F10163A374A385A396A3F7
:103EA000C501B401A30192010E94DF360E94F733DD
:103EB0000E947E3469877A878B879C87D101979689
:103EC0006D937D938D939C939A979B966D917D9125
:103ED0008D919C919E9722E330E040E050E00E945B
:103EE000CC370E94AC3420E030E040E752E40E943E
:103EF000DF360E9479342B013C01C801B7010E94D2
:103F0000AA347B018C01C301B2010E94AC346D83E1
:103F10007E838F839887C501B401A50194010E9417
:103F2000DF365B016C01C801B701A80197010E944F
:103F3000DF366D877E878F87988B6D817E818F813D
:103F400098859B01AC010E943133698B7A8B8B8BF6
:103F50009C8BC601B5012D853E854F8558890E94F1
:103F6000303329893A894B895C890E9411340E9437
:103F7000F7330E94793469837A838B839C836985C4
:103F80007A858B859C850E94AA349B01AC010E9496
:103F9000DF366D8B7E8B8F8B988FA60195010E94EB
:103FA00030337B018C017094609450944094411C98
:103FB000511C611C711CC301B2010E94AC349B01F5
:103FC000AC010E9431339B01AC01C801B7010E94D2
:103FD00011340E94E734F101A584B684C784D088E7
:103FE0008601750129813A814B815C81E21AF30ACD
:103FF000040B150B0E947934A8019701261B370B7F
:10400000480B590BDA01C90157FF4AC0C601B50177
:104010000E94AC349B01AC0169897A898B899C89A7
:104020000E94DF362D853E854F8558890E943033AA
:104030002D893E894F89588D0E9431337B018C0137
:104040006D817E818F81988520E030E040E850E4EA
:104050000E94DF369B01AC01C801B7010E941134F8
:104060000E94F7330E947934AC01CB01DA01BC0124
:10407000CD0197FF04C060E070E080E090E06983CC
:104080007A838B839C83A616B706C806D90624F4C8
:10409000A982BA82CB82DC8280E090E0A0E0B0E02E
:1040A00029813A814B815C81F10127A730AB41AB7B
:1040B00052AB820F931FA41FB51F83AB94ABA5AB6C
:1040C000B6AB68960FB6F894DEBF0FBECDBFCF91EA
:1040D000DF911F910F91FF90EF90DF90CF90BF90F5
:1040E000AF909F908F907F906F905F904F903F9098
:1040F0002F9008952F923F924F925F927F928F92CE
:104100009F92AF92BF92CF92DF92EF92FF920F9366
:104110001F93CF93DF93D090AF098091AF0B909115
:10412000B00BA091B10BB091B20B1C012D0157FA4D
:10413000509457F8509400E010E0C0E0D0E0BB2469
:10414000B3943BE3C32E72C0DD2011F424E2D22EDF
:10415000DA94209709F463C00115110509F45FC0D2
:10416000A98C9A8C8B8C7C8C6D897E898F89988D9B
:104170002A2D392D482D572D0E940A34882309F401
:104180004EC08AA1882309F041C0F801E588F6886D
:104190000789108D6A2D792D882D972DA8019701FB
:1041A0000E940D36181694F5C801B701A8019701B1
:1041B0000E94DF367B018C01C201B10120E030E0BA
:1041C00040E050EC0E94DF362D8D3E8D4F8D58A182
:1041D0000E94DF369B01AC01C801B7010E94313358
:1041E0000E946C37162F072FF82EE92E6A2D792D95
:1041F000882D972D212F302F4F2D5E2D0E940A34B0
:1042000087FD04C0A12E902E8F2C7E2C8A2D992DF7
:10421000A82DB72D8D8B9E8BAF8BB88FB9A2DC9C50
:10422000C00111248E01EC01CD59DE4F8091B009FF
:10423000D81609F089CFF090B00920E030E000E016
:1042400010E09BE3E92E11C0FE9CE0011124CD5942
:10425000DE4FC901B801AE010E94991EF394F4E249
:10426000FF1609F4FF2498018E018091AF09F8161A
:1042700059F7C901B80140E050E00E94991E7090C2
:10428000B009C0E0D0E08BE3582E35C0759C4001EA
:10429000112483E691E0880E991E209731F189A1BF
:1042A000882321F4F40181A18823F9F0E988FA88B0
:1042B0000B891C896D897E898F89988DA80197014A
:1042C0000E9411345B016C01F4016589768987894C
:1042D000908DA80197010E9411348B019C01CE01A1
:1042E000B601A5010E94171F19A27394F4E27F166C
:1042F00009F47724E4018091AF09781639F6E9884A
:10430000FA880B891C896D897E898F89988DA8010F
:1043100097010E9411345B016C0160E070E080E065
:1043200090E0A80197010E9411348B019C01CE01FD
:10433000B601A5010E94171F19A2DF91CF911F910D
:104340000F91FF90EF90DF90CF90BF90AF909F9034
:104350008F907F905F904F903F902F900895AF92F5
:10436000BF92CF92DF92EF92FF920F931F93CF9362
:10437000DF935B016C019091B0098BE3989FE001A2
:104380001124CD59DE4FC601B5010E94AC342D8DEC
:104390003E8D4F8D58A10E94DF367B018C016D85CB
:1043A0007E858F8598890E94AC349B01AC01C80141
:1043B000B7010E9411346D8F7E8F8F8F98A3AD86C9
:1043C000BE86CF86D88A80E090E0A0E0B0E08D8BFA
:1043D0009E8BAF8BB88F898F9A8FAB8FBC8F1AA2B1
:1043E00081E089A30E947A20DF91CF911F910F91E4
:1043F000FF90EF90DF90CF90BF90AF9008952F92F5
:104400003F924F925F926F927F928F929F92AF9264
:10441000BF92CF92DF92EF92FF920F931F93DF93A1
:10442000CF93CDB7DEB7AF970FB6F894DEBF0FBE10
:10443000CDBF29013A01ADA2BEA2CFA2D8A689A6BE
:104440003091AF092BE3329F1001112423E631E0B4
:10445000220E331E2091940B3091950B4091960BB8
:104460005091970B0E94DF360E94AF3669837A83A2
:104470008B839C83C301B2012091980B3091990BDF
:1044800040919A0B50919B0B0E94DF360E94AF36F1
:104490006D837E838F839887C801B70120919C0B21
:1044A00030919D0B40919E0B50919F0B0E94DF36E7
:1044B0000E94AF3669877A878B879C87D1011C92CF
:1044C00029813A814B815C818091B2099091B30935
:1044D000A091B409B091B509281739074A075B07BD
:1044E0001CF480E8F10180832D813E814F81588545
:1044F0008091B6099091B709A091B809B091B90916
:10450000281739074A075B0724F4D1018C91806290
:104510008C9329853A854B855C858091BA09909169
:10452000BB09A091BC09B091BD09281739074A07FA
:104530005B0724F4F10180818860808329813A81BE
:104540004B815C818091B2099091B309A091B4092B
:10455000B091B509281B390B4A0B5B0B57FF07C0FD
:1045600050954095309521953F4F4F4F5F4FD1016A
:1045700011962D933D934D935C931497AD80BE801F
:10458000CF80D8848091B6099091B709A091B809DD
:10459000B091B909A81AB90ACA0ADB0AF101A582C1
:1045A000B682C782D086D7FE0BC088279927DC0148
:1045B0008A199B09AC09BD0985839683A783B087B7
:1045C00029853A854B855C858091BA099091BB0914
:1045D000A091BC09B091BD09281B390B4A0B5B0B9C
:1045E00057FF07C050954095309521953F4F4F4F4D
:1045F0005F4FD10119962D933D934D935C931C977A
:104600001596ED90FD900D911C91189711968D9136
:104610009D910D90BC91A02D8E159F05A007B1070F
:1046200010F4D801C70182179307A407B50710F447
:10463000DA01C901F10185879687A787B08B0097BA
:10464000A105B10509F467C269817A818B819C81DA
:104650002091B2093091B3094091B4095091B50944
:10466000621B730B840B950B0E94AC342091940B4E
:104670003091950B4091960B5091970B0E941134FD
:1046800069A37AA38BA39CA3C601B5010E94AC3495
:104690002091980B3091990B40919A0B50919B0B64
:1046A0000E9411346D8F7E8F8F8F98A369857A85D4
:1046B0008B859C852091BA093091BB094091BC093A
:1046C0005091BD09621B730B840B950B0E94AC3497
:1046D00020919C0B30919D0B40919E0B50919F0B14
:1046E0000E941134698F7A8F8B8F9C8F69A17AA178
:1046F0008BA19CA19B01AC010E94DF367B018C0148
:104700006D8D7E8D8F8D98A19B01AC010E94DF364F
:104710009B01AC01C801B7010E9431337B018C01C0
:10472000698D7A8D8B8D9C8D9B01AC010E94DF364B
:104730009B01AC01C801B7010E9431330E946C3764
:104740007B018C01D1015D966D937D938D939C933C
:10475000909760E070E080E89FE3A80197010E94D5
:1047600011343B014C01B9A5BB2349F46DA17EA1D5
:104770008FA198A5A40193010E94DF360AC060E0D2
:1047800070E080E89FE32DA13EA14FA158A50E94B3
:1047900011345B016C01C801B701A60195010E94AB
:1047A000DF366AA77BA78CA79DA7F101618B728B6F
:1047B000838B948B65857685878590890E94AC3440
:1047C0007B018C01A60195010E94DF360E94F73320
:1047D0000E947E34D101D7966D937D938D939C93E7
:1047E000DA97C801B701A40193010E94DF36209136
:1047F000AF0B3091B00B4091B10B5091B20B0E94B6
:10480000DF3620E030E84BE355E40E9411340E948B
:10481000F7330E947934F10163A774A785A796A79F
:1048200069A17AA18BA19CA1A40193010E94DF360A
:104830007B018C016D877E878F87988B6D8D7E8D38
:104840008F8D98A1A40193010E94DF365B016C015A
:10485000698B7A8B8B8B9C8B698D7A8D8B8D9C8DE4
:10486000A40193010E94DF363B014C016D8B7E8BCE
:104870008F8B988F9091AF098091B009981709F4A8
:10488000BDC0F091CA09FEA72091CB092FA7509077
:10489000CC094090CD096F2F722F852D942D20E0EB
:1048A00030E040E050E00E940D3618160CF0A6C033
:1048B0006091BE097091BF098091C0099091C109B2
:1048C0009058A80197010E94DF367B018C0160910E
:1048D000C2097091C3098091C4099091C509A601CC
:1048E00095010E94DF369B01AC01C801B7010E940F
:1048F00030337B018C01C401B3012091C609309192
:10490000C7094091C8095091C9090E94DF369B012F
:10491000AC01C801B7010E9430337B018C0123E355
:1049200033E343E75FE30E940A3488230CF066C058
:104930006EA57FA5852D942D2AA53BA54CA55DA52B
:104940000E940A3487FD08C08AA59BA5ACA5BDA519
:104950008EA79FA75A2E4B2EC801B70123E333E33E
:1049600043E75FEB0E940D3618160CF04CC060E078
:1049700070E080E89FE3A80197010E94303320E0B7
:1049800030E040E05FE30E94DF360E946C375B015D
:104990006C016091AF0B7091B00B8091B10B909155
:1049A000B20B2091B30B3091B40B4091B50B5091E9
:1049B000B60B0E94DF36A60195010E94DF367B010F
:1049C0008C0160E070E080E89FE3A60195010E9401
:1049D00030339B01AC01C801B7010E9411340E9421
:1049E0006C377B018C016EA57FA5852D942D9701D9
:1049F000A8010E940A3487FD06C009C0EE24FF24E6
:104A000000E010E004C0EEA4FFA4052D142DC701A2
:104A1000D801F101818F928FA38FB48F6091AF0B7A
:104A20007091B00B8091B10B9091B20B905820E037
:104A300030E040E050EC0E94DF36D1015D962D91D0
:104A40003D914D915C9190970E94DF3620E030E0DF
:104A500040E050E00E9431330E946C37D62EC72EC2
:104A6000B82EA92EB701C8012D2D3C2D4B2D5A2D46
:104A70000E940A3487FD04C0ED2CFC2C0B2D1A2D4E
:104A8000C701D801F101858B968BA78BB08F618907
:104A90007289838994892D2D3C2D4B2D5A2D0E948E
:104AA0000A3418162CF081E0D10192968C9302C042
:104AB000F10112A281E0D10191968C93AEEBB9E0A5
:104AC000FE013D968CE001900D928150E1F7F101DD
:104AD00081899289A389B4898093CA099093CB096B
:104AE000A093CC09B093CD098091B1098093AF090F
:104AF0008091AF098F5F843209F480E08093B1091F
:104B0000A2EBB9E0FE0131968CE001900D9281504C
:104B1000E1F70E947A20AF960FB6F894DEBF0FBE81
:104B2000CDBFCF91DF911F910F91FF90EF90DF905C
:104B3000CF90BF90AF909F908F907F906F905F903D
:104B40004F903F902F9008951F931BE306C00E9443
:104B500092138091CE09882391F49091AF098091AE
:104B6000B009981741F08091B009819FC0011124CC
:104B70008D599E4F61F78091CF09833041F31F918A
:104B800008958091AF098093B0098091AF098F5F3C
:104B9000843209F480E08093B1098CE1E2EBF9E022
:104BA000DF011D928A95E9F708956F927F928F92A7
:104BB0009F92AF92BF92CF92DF92EF92FF920F93AC
:104BC0001F93CF93DF934C013B015A01FB0180817E
:104BD000F401E80FF11DEF0189918D3229F48181F3
:104BE0002196CC24C39405C08B3211F48181219687
:104BF000CC2420E030E040E050E0DD24E0E070E054
:104C0000682F60536A30F8F4EF5FE930C0F4711137
:104C1000DA94DA01C901F2E0880F991FAA1FBB1FBD
:104C2000FA95D1F7280F391F4A1F5B1F220F331F38
:104C3000441F551F260F311D411D511D09C07723EB
:104C400039F4D39405C06E3F29F4772319F471E049
:104C50008991D6CFEE2319F420E030E051C0CA018B
:104C6000B9010E94AA347B018C0120E030E040E0D1
:104C700050E00E940A34882369F42BC0C801B701B0
:104C80002AE037ED43E25CE30E94DF367B018C01D2
:104C9000F2E0DF0E8FEFD8168CF3D81659F4C80166
:104CA000B7012DEC3CEC4CEC5DE30E94DF367B0160
:104CB0008C010FC0DD2069F0C801B70120E030E0B1
:104CC00040E251E40E94DF367B018C01DA941D142E
:104CD0009CF3CC2049F0D801C701B058F50180837E
:104CE0009183A283B38305C0F501E082F182028340
:104CF0001383882D80958C0FF301808321E030E0B1
:104D0000C901DF91CF911F910F91FF90EF90DF903C
:104D1000CF90BF90AF909F908F907F906F900895AD
:104D200020EA3FE004C0F9013197F1F701970097BD
:104D3000D1F708951F93A0EABFE040E951E015E3E1
:104D400035E031C06A3071058105910540F4232FAB
:104D50002A95F1F7615070408040904024C064363D
:104D600071058105910540F4212F2A95F1F76A50CC
:104D700070408040904017C0683E23E0720720E0FA
:104D8000820720E0920740F4FA013197F1F7645668
:104D900070408040904007C0FD013197F1F7685E98
:104DA000734080409040611571058105910551F671
:104DB0001F910895EF92FF920F931F936091D10975
:104DC0007091D2098091D3099091D4092091D5098D
:104DD0003091D6094091D7095091D809E090D9096E
:104DE000F090DA090091DB091091DC090E94781E2D
:104DF0006091D1097091D2098091D3099091D40921
:104E00002091D5093091D6094091D7095091D80900
:104E1000E090D909F090DA090091DB091091DC09E2
:104E20000E94E1081F910F91FF90EF90089584B1C7
:104E3000817F84B985B1817F85B98091B70B83FF6C
:104E400009C080916C008E6080936C008091680036
:104E5000826008C080916C00817F80936C0080919B
:104E600068008D7F8093680008952F923F924F9243
:104E70005F926F927F928F929F92AF92BF92CF92EA
:104E8000DF92EF92FF920F931F93DF93CF93CDB7F3
:104E9000DEB7A9970FB6F894DEBF0FBECDBF8EA3C5
:104EA0006FA348A738014901FE0131968CE0DF016C
:104EB0001D928A95E9F70EA100FD02C010E00FC017
:104EC0006091940B7091950B8091960B9091970B3C
:104ED0000E94AF3669837A838B839C8311E001FF44
:104EE0000FC01F5F6091980B7091990B80919A0B86
:104EF00090919B0B0E94AF366D837E838F83988742
:104F000002FF0FC01F5F60919C0B70919D0B809101
:104F10009E0B90919F0B0E94AF3669877A878B8793
:104F20009C8789859A85AB85BC852D803E804F8086
:104F30005884281639064A065B0610F41C012D0118
:104F400089819A81AB81BC81281639064A065B06A5
:104F500010F41C012D01612F70E080E090E00E94B0
:104F6000AA340E946C375B016C01C201B1010E943E
:104F7000AA34A60195010E9411347B018C01209175
:104F8000AF0B3091B00B4091B10B5091B20B0E941E
:104F9000DF3620E030E84BE355E40E9411340E94F4
:104FA000F7330E947E346AA37BA38CA39DA3C40124
:104FB000B301A60195010E94DF369B01AC01C80137
:104FC000B7010E94DF369B01AC0160EC71EE84E614
:104FD0009CE40E9411340E94AF367B018C01B8EF33
:104FE000EB16B4E2FB06B1E00B07B0E01B0718F4C8
:104FF0005701680107C038EFA32E34E2B32E31E029
:10500000C32ED12C2091B80B287A8091AA0B282787
:1050100029A33FA1332319F488EA282729A3D20121
:10502000C101B695A7959795879566247724430186
:10503000681A790A8A0A9B0A8091A10BB601A50118
:10504000481B5109610971094D8B5E8B6F8B788FFD
:105050006D8E7E8E8F8E98A2698E7A8E8B8E9C8EB0
:10506000198A1A8A1B8A1C8A60E177E280E090E044
:105070006D877E878F87988B70E489A1872789A7A2
:1050800033B198A5992311F4AEE03A27BEA1B0FF41
:105090001AC089819A81AB81BC81680E791E8A1EF3
:1050A0009B1E16141704180419046CF431FF02C077
:1050B00029A504C02EA12E7F2EA329A16218730852
:1050C0008408950801C029A14EA141FF29C08D8106
:1050D0009E81AF81B8854D8D5E8D6F8D78A1480F13
:1050E000591F6A1F7B1F4D8F5E8F6F8F78A3141619
:1050F000150616061706A4F432FF03C050E1252753
:1051000003C06EA16D7F6EA38D8D9E8DAF8DB8A1F6
:1051100082199309A409B5098D8F9E8FAF8FB8A30B
:105120009EA192FF29C089859A85AB85BC85498D52
:105130005A8D6B8D7C8D480F591F6A1F7B1F498FBD
:105140005A8F6B8F7C8F1416150616061706C4F43B
:1051500033FF03C054E0252703C06EA16B7F6EA30D
:10516000898D9A8DAB8DBC8D82199309A409B509DF
:10517000898F9A8FAB8FBC8F9EA1992309F46DC044
:105180008091D00984FD69C08BB124758B7A282B5E
:105190002BB96091A10B70E080E090E00E949A260C
:1051A000A9A1ABB96D897E898F89988D0E949A26B5
:1051B000EA14FB040C051D0508F062CF2D853E8521
:1051C0004F8558892A0D3B1D4C1D5D1D2D873E873F
:1051D0004F87588B21326EE4360760E0460760E067
:1051E000560708F44DCF20523E44404050402D8792
:1051F0003E874F87588B89899A89AB89BC892AA1B8
:105200003BA14CA15DA1820F931FA41FB51F898BE9
:105210009A8BAB8BBC8B60E077E883E993E02989BC
:105220003A894B895C890E94EB37C901DA015C013C
:105230006D01AE14BF04C006D10610F45701680119
:105240008091A10BB601A501481B510961097109A3
:105250004D8B5E8B6F8B788F13CFA9960FB6F8941A
:10526000DEBF0FBECDBFCF91DF911F910F91FF9099
:10527000EF90DF90CF90BF90AF909F908F907F90F6
:105280006F905F904F903F902F9008950F931F93D2
:105290000E94C5150091BD0B1091BE0B2091BF0B54
:1052A0003091C00B84E061E040E00E94352700911E
:1052B000BD0B1091BE0B2091BF0B3091C00B82E053
:1052C00061E040E00E9435270091BD0B1091BE0BBC
:1052D0002091BF0B3091C00B81E061E040E00E9463
:1052E00035278091C10B9091C20B0E9490260091AE
:1052F000B90B1091BA0B2091BB0B3091BC0B87E01E
:1053000060E041E00E9435278091C10B9091C20B73
:105310000E9490260E94D0161F910F9108951F920F
:105320000F920FB60F9211242F933F934F935F93D9
:105330006F937F938F939F93AF93BF93EF93FF935D
:105340008091CF09863059F08091D00985FD07C042
:105350000E9431048091D00980648093D009FF912C
:10536000EF91BF91AF919F918F917F916F915F91DD
:105370004F913F912F910F900FBE0F901F90189556
:105380008F929F92AF92BF92CF92DF92EF92FF9255
:105390000F931F93DF93CF93CDB7DEB72A970FB646
:1053A000F894DEBF0FBECDBF7B018C0120E030E062
:1053B00040E050E00E940A3488233CF48DE20E94D1
:1053C000A91217FB109517F91095A090D40BDA2CA1
:1053D0000CC0C801B70120E030E048EC52E40E9464
:1053E000DF367B018C018EEFD80EE1E0ED1588F3FE
:1053F000A0FE0AC0C801B70120E030E040E251E45D
:105400000E94DF367B018C01C801B70120E030E04B
:1054100040E05FE30E9431330E9479346B017C01EC
:105420009E012F5F3F4FF901EA0DF11D8EE280834F
:10543000BB2449011EC0BA1409F4B39484010B0DB6
:10544000111DC701B6012AE030E040E050E00E94A3
:10545000EB37605DF8016083B394C701B6012AE0C1
:1054600030E040E050E00E94EB37C901DA016C0106
:105470007D01C114D104E104F104E9F606C0FC0188
:10548000EB0DF11D2083B39403C0CE01019620E300
:10549000BA14A8F3BA1489F48B2D8F5FFE01E80FBC
:1054A000F11D90E39183B82EB39407C0FE01EB0D7C
:1054B000F11D80810E94A912BA94BB20B9F72A96E7
:1054C0000FB6F894DEBF0FBECDBFCF91DF911F9115
:1054D0000F91FF90EF90DF90CF90BF90AF909F9093
:1054E0008F9008958F929F92BF92CF92DF92EF920A
:1054F000FF920F931F93DF93CF93CDB7DEB72A9719
:105500000FB6F894DEBF0FBECDBF7B018C0197FFB5
:105510000BC08DE20E94A91210950095F094E094C2
:10552000E11CF11C011D111D67017801C114D1049A
:10553000E104F10421F480E30E94A9122FC0BB24EE
:105540004E010894811C911C84010B0D111DC70193
:10555000B6012AE030E040E050E00E94EB37605DA9
:10556000F8016083B394C701B6012AE030E040E05F
:1055700050E00E94EB37C901DA016C017D01C114D2
:10558000D104E104F10401F707C0FE01EB0DF11DA8
:1055900080810E94A912BA94BB20B9F72A960FB64F
:1055A000F894DEBF0FBECDBFCF91DF911F910F9159
:1055B000FF90EF90DF90CF90BF909F908F900895D5
:1055C0000F931F93DF93CF93CDB7DEB728970FB616
:1055D000F894DEBF0FBECDBF982FFE0131969E011D
:1055E000275F3F4F892F817081939695E217F307CC
:1055F000C9F78E01085F1F4FF8018081805D0E940E
:10560000A912015010400C171D07B1F728960FB6CC
:10561000F894DEBF0FBECDBFCF91DF911F910F91E8
:105620000895CF93DF93EC0102C00E94A912FE01FE
:10563000219684918823C9F7DF91CF910895CF9364
:10564000DF93EC0103C021960E94A9128881882370
:10565000D1F7DF91CF9108958FEB94E00E94112B49
:1056600008958DEE95E00E94112B08951F93182F39
:105670008BE596E00E94112B133091F0143028F442
:10568000113041F01230B1F408C0143061F015301F
:1056900089F40CC089E496E00BC085E396E008C06D
:1056A00083E296E005C08BE196E002C082E196E0DD
:1056B0000E94112B8EE096E00E94112B1F910895FD
:1056C0001F93182F882319F484E897E050C08CE7C3
:1056D00097E00E94112B173091F1183070F41330BD
:1056E00011F1143028F41130C1F01230F1F518C066
:1056F0001530F9F0163000F519C01A3049F11B3099
:1057000028F41830F9F0193081F51FC01C3031F140
:105710001C3008F11D3049F524C08AE697E023C00B
:1057200082E597E020C08CE397E01DC08DE297E012
:105730001AC087E197E017C085E097E014C084EFB6
:1057400096E011C088EE96E00EC089ED96E00BC0A1
:1057500088EB96E008C089EA96E005C08EE996E0FD
:1057600002C080E996E00E94112B8DE896E00E942D
:10577000112B1F9108958F929F92BF92CF92DF922B
:10578000EF92FF920F931F93DF93CF93CDB7DEB7C6
:1057900068970FB6F894DEBF0FBECDBFDE0111963D
:1057A000E1EDF9E08CE001900D928150E1F78091FC
:1057B000CF098430D9F0853038F4823089F08330D5
:1057C00090F4882351F022C08630B1F0863088F002
:1057D0008730A9F08830D1F415C087E291E014C079
:1057E00081E291E011C08DE191E00EC088E191E08D
:1057F0000BC083E191E008C08DE091E005C087E037
:1058000091E002C083E091E00E94112B8CEF90E0C8
:105810000E94112B8DE0C82ED12CCC0EDD1E8601EE
:10582000BB24EE24FF244E010894811C911CF4013A
:10583000EE0DFF1D60817181828193810E94AC34E5
:10584000F701EC56F44F20813181428153810E944F
:105850001134F8016083718382839383F2E0BF1671
:1058600079F42091CF0B3091D00B4091D10B509116
:10587000D20B0E941134F801608371838283938379
:105880008091B70B80FF10C0F80160817181828127
:1058900093812BE832E441E25DE30E94DF36F801B8
:1058A0006083718382839383F80161917191819107
:1058B00091918F010E94C0298AEF90E00E94112BE4
:1058C000B39484E090E0E80EF91E93E0B91609F075
:1058D000AECF84EF90E00E94112B0CEF19E0FF2473
:1058E0008091B70B80FF49C0E2E0FE1659F5609148
:1058F000040A7091050A8091060A9091070A209186
:10590000100A3091110A4091120A5091130A0E9414
:1059100031332BE832E441E25DEB0E94DF36209127
:10592000CF0B3091D00B4091D10B5091D20B0E94F4
:1059300011349B01AC016D897E898F89988D0E94FD
:10594000313342C0F8016081718182819381248565
:105950003585468557850E9431332BE832E441E294
:105960005DEB0E94DF369B01AC01F6016081718125
:10597000828193810E94313340C0F2E0FF1649F5E5
:105980006091040A7091050A8091060A9091070AB5
:105990002091100A3091110A4091120A5091130A75
:1059A0000E9431332091CF0B3091D00B4091D10B1D
:1059B0005091D20B0E9411349B01AC016D897E89FC
:1059C0008F89988D0E9430336D8B7E8B8F8B988F53
:1059D00019C0F801608171818281938124853585A8
:1059E000468557850E9431339B01AC01F6016081E9
:1059F0007181828193810E943033F60160837183CB
:105A000082839383F60160817181828193810E94F8
:105A1000C029F2E0FF1621F082EF90E00E94112BE6
:105A2000F39484E090E0C80ED91E0C5F1F4F93E002
:105A3000F91609F055CF8FEE90E00E94112B689671
:105A40000FB6F894DEBF0FBECDBFCF91DF911F918F
:105A50000F91FF90EF90DF90CF90BF909F908F902D
:105A600008958091E009823091F0833028F48823F2
:105A700041F08130B1F408C0833061F0843089F4A2
:105A80000CC08FE991E00BC08BE991E008C087E979
:105A900091E005C083E991E002C08EE891E00E94A8
:105AA000112B8BE891E00E94112B6091FB0970E0B3
:105AB0006A5C7F4F882777FD8095982F0E94722A15
:105AC0008091F809882351F48091F909813019F403
:105AD00086E891E005C081E891E002C08CE791E0A2
