:100000000C94FB030C9418040C9418040C9418041E
:100010000C9418040C94A22A0C94B1370C94180474
:100020000C9418040C9418040C9418040C941804E0
:100030000C9418040C94B71D0C9418040C94180418
:100040000C9460160C9418040C9446160C94180426
:100050000C94D8130C9493130C9418040C94180457
:100060000C9418040C9418040C9418040C941804A0
:100070000C9418040C9418040C941804622169213F
:100080006C216F2174217E218A21FF21FF21FF2114
:1000900094219721A021A921FF21FF21FF21FF21E8
:1000A000FF21FF21B321C121CF21D921DC21E5216D
:1000B000EE21F321084AD73B3BCE016E84BCBFFD45
:1000C000C12F3D6C74319ABD56833DDA3D00C77F28
:1000D00011BED9E4BB4C3E916BAAAABE00000080C1
:1000E0003F05A84CCDB2D44EB93836A9020C50B950
:1000F000918688083CA6AAAA2ABE000000803F3E3E
:100100000D0A002C4C696D3A002C52583A002C42D2
:1001100075663A002C002C57506F733A002C002C57
:100120004D506F733A003C446F6F72003C436865FA
:10013000636B003C416C61726D003C486F6D650003
:100140003C486F6C64003C52756E003C49646C65C1
:10015000003C5A65726F005D0D0A005B6563686F55
:100160003A20005D0D0A005B302E396A2E323031A4
:1001700035303831313A000D0A003D00244E005D23
:100180000D0A00204600205400204D3800204D3933
:1001900000204D3500204D3400204D3300204D32DD
:1001A00000204D3100204D300020473934002047D9
:1001B0003933002047393100204739300020473299
:1001C0003000204732310020473139002047313894
:1001D0000020473137002047004733382E0047388A
:1001E00030004733004732004731004730005B00A2
:1001F0005D0D0A005B544C4F3A005D0D0A002C0067
:100200005B4739323A005D0D0A002C003A0033306A
:10021000003238005B47005D0D0A003A002C005B9D
:100220005052423A00290D0A00206D617820747204
:100230006176656C2C206D6D0020616363656C2CAC
:10024000206D6D2F7365635E3200206D61782072C2
:100250006174652C206D6D2F6D696E002C20737498
:1002600065702F6D6D007A00790078002028003DC0
:100270000024002028686F6D696E672070756C6CB3
:100280002D6F66662C206D6D290D0A002028686F81
:100290006D696E67206465626F756E63652C206D95
:1002A000736563290D0A2432373D002028686F6D7D
:1002B000696E67207365656B2C206D6D2F6D696E9F
:1002C000290D0A2432363D002028686F6D696E675B
:1002D00020666565642C206D6D2F6D696E290D0A91
:1002E0002432353D00290D0A2432343D002028688F
:1002F0006F6D696E672064697220696E76657274CD
:10030000206D61736B3A002028686F6D696E6720FD
:100310006379636C652C20626F6F6C290D0A24323F
:10032000333D00202868617264206C696D697473C4
:100330002C20626F6F6C290D0A2432323D00202878
:10034000736F6674206C696D6974732C20626F6FB3
:100350006C290D0A2432313D0020287265706F72BD
:100360007420696E636865732C20626F6F6C290D51
:100370000A2432303D00202861726320746F6C655E
:1003800072616E63652C206D6D290D0A2431333D39
:100390000020286A756E6374696F6E2064657669E3
:1003A0006174696F6E2C206D6D290D0A2431323D08
:1003B00000290D0A2431313D0020287374617475C1
:1003C00073207265706F7274206D61736B3A0020D8
:1003D0002870726F62652070696E20696E76657232
:1003E000742C20626F6F6C290D0A2431303D00207F
:1003F000286C696D69742070696E7320696E76650A
:1004000072742C20626F6F6C290D0A24363D002017
:10041000287374657020656E61626C6520696E7604
:100420006572742C20626F6F6C290D0A24353D00B3
:10043000290D0A24343D00202864697220706F72EF
:100440007420696E76657274206D61736B3A002951
:100450000D0A24333D0020287374657020706F727C
:100460007420696E76657274206D61736B3A00203A
:1004700028737465702069646C652064656C6179AB
:100480002C206D736563290D0A24323D00202873EA
:100490007465702070756C73652C207573656329A5
:1004A0000D0A24313D0024303D00242420287669A3
:1004B0006577204772626C2073657474696E677328
:1004C000290D0A242320287669657720232070616E
:1004D00072616D6574657273290D0A244720287650
:1004E00069657720706172736572207374617465D9
:1004F000290D0A2449202876696577206275696C80
:100500006420696E666F290D0A244E20287669657D
:1005100077207374617274757020626C6F636B7393
:10052000290D0A24783D76616C7565202873617603
:1005300065204772626C2073657474696E67290D5B
:100540000A244E783D6C696E6520287361766520BB
:100550007374617274757020626C6F636B290D0A1D
:1005600024432028636865636B2067636F6465209C
:100570006D6F6465290D0A245820286B696C6C2006
:10058000616C61726D206C6F636B290D0A244820C9
:100590002872756E20686F6D696E67206379636C71
:1005A00065290D0A7E20286379636C652073746168
:1005B0007274290D0A2120286665656420686F6CB5
:1005C00064290D0A3F202863757272656E7420736A
:1005D0007461747573290D0A6374726C2D78202808
:1005E0007265736574204772626C290D0A000D0AEA
:1005F0004772626C20302E396A205B2724272066E0
:100600006F722068656C705D0D0A005D0D0A005206
:100610006573746F72696E672064656661756C746A
:10062000730050676D20456E6400436865636B20FE
:10063000446F6F720044697361626C656400456E5B
:1006400061626C65640043617574696F6E3A205530
:100650006E6C6F636B656400272448277C272458E1
:100660002720746F20756E6C6F636B005265736525
:100670007420746F20636F6E74696E7565005B0023
:100680000D0A00486F6D696E67206661696C0050E5
:10069000726F6265206661696C0041626F727420DE
:1006A000647572696E67206379636C6500536F6669
:1006B00074206C696D69740048617264206C696DA6
:1006C000697400414C41524D3A20000D0A00496EB8
:1006D00076616C69642067636F64652049443A0001
:1006E000556E646566696E65642066656564207232
:1006F00061746500556E737570706F7274656420F7
:10070000636F6D6D616E64004D6F64616C20677224
:100710006F75702076696F6C6174696F6E004C69DB
:100720006E65206F766572666C6F7700486F6D69D5
:100730006E67206E6F7420656E61626C6564004147
:100740006C61726D206C6F636B004E6F7420696416
:100750006C6500454550524F4D20726561642066BE
:1007600061696C2E205573696E67206465666175DA
:100770006C74730056616C7565203C203320757372
:1007800065630053657474696E67206469736162A0
:100790006C65640056616C7565203C203000496EC4
:1007A00076616C69642073746174656D656E740044
:1007B000426164206E756D62657220666F726D6154
:1007C0007400457870656374656420636F6D6D6156
:1007D0006E64206C6574746572006572726F723A33
:1007E00020006F6B0D0A003C4A6F67003C4A6F6740
:1007F000463E0D0A000011241FBECFEFD0E1DEBF40
:10080000CDBF11E0A0E0B1E0EEE0FCE702C0059052
:100810000D92A030B107D9F716E0A0E0B1E001C019
:100820001D92AE3FB107E1F70E941A040C94053EF9
:100830000C9400000E9460130E9464230E947316AF
:100840000E94693780E2ECE4F5E0DF011D928A95B1
:10085000E9F781E080934C0578948091E40684FF69
:1008600003C081E080934D050E94D3130E94FB12C8
:100870000E940F130E943B130E94ED290E945033E7
:100880000E94092E0E94B1280E94871D0E94EF231A
:100890000E94F41210924C0510924F0510925005D0
:1008A00010924E050E948C15DFCF80914F0584FD7C
:1008B00027C08FB7F89490914F05906190934F05A2
:1008C0008FBF0E9413130E943E1390914D05892FF4
:1008D0008C7021F480914E05813091F4943031F484
:1008E0009FB7F89480915005806205C09FB7F89437
:1008F000809150058860809350059FBF0E945B1DCA
:1009000008950E940B2A84E00E94072B82E00E9437
:10091000072B81E00E94072B0E94421480914C0516
:10092000882321F40E94F4120E94ED290895EF9289
:10093000FF920F931F93CF93DF937B018C018091E4
:100940004D05823009F447C0C801B70120E030E00E
:1009500040EA51E40E94CB3C0E946A3B0E94013B6A
:10096000EB010E947515C801B70120E030E04AE7AD
:1009700054E40E94CB3C7B018C0182E390E0C89F51
:10098000B001C99F700DD89F700D112480E090E0D8
:100990000E942D3B9B01AC01C801B7010E94B339F5
:1009A0000E946A3B0E94013BDC01CB010E947A2934
:1009B00000E911E00EC00E94421480914C0588238A
:1009C00051F484EF91E0F8013197F1F70197D9F7ED
:1009D0002197209781F7DF91CF911F910F91FF9081
:1009E000EF900895DF92EF92FF920F931F93CF93B2
:1009F000DF93EC017A018B01D22E8091E40685FF12
:100A000003C0CE010E94162A80914D05823099F0D4
:100A10000E94421480914C05882369F40E94E523CA
:100A2000882319F00E943914F3CFCE01B801A70131
:100A30002D2D0E947525DF91CF911F910F91FF9071
:100A4000EF90DF900895AF92BF92CF92DF92EF9236
:100A50000F931F93CF93DF93EC015A016B01122F79
:100A600080914D05823009F464C00E947515109282
:100A70006B05802F0E940C2E0E941F2E882351F0A0
:100A80009FB7F894809150058061809350059FBF77
:100A90000E94421480914C05882309F04AC0CE017F
:100AA000B601A501212F0E94F20481E080935E052A
:100AB0009FB7F89480914F05826080934F059FBF48
:100AC0000E94421480914C05882399F580914D0530
:100AD0008823B1F780915E058130A9F4EE2051F0B2
:100AE000EFE5F5E0DF011E978CE00D90019281505B
:100AF000E1F70CC09FB7F894809150058061809316
:100B000050059FBF03C081E080936B0510925E0586
:100B10000E94421480914C05882359F40E94871D3D
:100B20000E94B1280E94EF23CE0161E575E00E948A
:100B30009837DF91CF911F910F91EF90DF90CF9079
:100B4000BF90AF9008952F923F924F925F926F9215
:100B50007F928F929F92AF92BF92CF92DF92EF924D
:100B6000FF920F931F93DF93CF93CDB7DEB7EF972D
:100B70000FB6F894DEBF0FBECDBF9CAB8BAB7EAB88
:100B80006DAB3A010FAB18AF29AF3AAFCBAEDCAECD
:100B9000EDAEFEAEAFAE9924880C991C880C991C62
:100BA000880D991D9AAB89AB9A01280D391D38AB78
:100BB0002FA7D901AD90BD90CD90DC90C601B501B5
:100BC000E9A9FAA920813181428153810E94B43977
:100BD0006DA37EA38FA398A765966FAD6597462EEC
:100BE0005524440C551C440C551C2BA93CA9240D20
:100BF000351D3EA72DA7C301840D951D9CA78BA76E
:100C0000DC01ED90FD900D911C91C801B701F90137
:100C100020813181428153810E94B43969A37AA332
:100C20008BA39CA3D601C501B0588D8F9E8FAF8F2B
:100C3000B8A3D801C701B058898F9A8FAB8FBC8FEA
:100C4000ADA9BEA98A0E9B1EF401608171818281CB
:100C500093812DA13EA14FA158A50E94B3393B011C
:100C60004C012DA93EA9420E531ED2016D917D91DA
:100C70008D919C9129A13AA14BA15CA10E94B3390D
:100C80005B016C016D8D7E8D8F8D98A1A601950104
:100C90000E94CB3C7B018C01698D7A8D8B8D9C8D64
:100CA000A40193010E94CB3C9B01AC01C801B70198
:100CB0000E94B3391B012C016D8D7E8D8F8D98A103
:100CC000A40193010E94CB3C7B018C01698D7A8D3C
:100CD0008B8D9C8DA60195010E94CB3C9B01AC01A4
:100CE000C801B7010E94B4399B01AC01C201B10136
:100CF0000E94273A5B016C0167968FAD6797882346
:100D000099F0C601B5012DEB37E346E055EB0E94A3
:100D1000903C8823ECF0C601B5012BED3FE049EC97
:100D200050E40E94B33912C0C601B5012DEB37E380
:100D300046E055E30E948D3A181654F0C601B501FD
:100D40002BED3FE049EC50E40E94B4395B016C01AB
:100D5000E090E006F090E1060091E2061091E306D3
:100D60006FA978AD89AD9AAD9B01AC010E94B439F1
:100D7000A80197010E94B3399B01AC01C801B701DA
:100D80000E94CB3C0E94583D7B018C01C601B501FD
:100D900020E030E040E05FE30E94CB3C2FA938AD7B
:100DA00049AD5AAD0E94CB3C9F77A80197010E94A4
:100DB000943A0E946A3B0E94013B788F6F8B6115C9
:100DC000710509F487C1BFADBB2381F080E090E0DD
:100DD0000E942D3B9B01AC016BAD7CAD8DAD9EADFA
:100DE0000E94CB3C6BAF7CAF8DAF9EAF2F89388D0F
:100DF000B90180E090E00E942D3B7B018C01C6018F
:100E0000B501A80197010E94943A6B8B7C8B8D8B66
:100E10009E8B6696EFAD6697F0E0EE0FFF1FEE0F2C
:100E2000FF1F8BA99CA98E0F9F1F9AA789A7ADA909
:100E3000BEA9EA0FFB1F6081718182819381E9A5C0
:100E4000FAA520813181428153810E94B339A801E2
:100E500097010E94943A6F87788B898B9A8B6B8964
:100E60007C898D899E899B01AC010E94CB3C9B01B2
:100E7000AC0160E070E080E090E40E94B3395B0177
:100E80006C016B897C898D899E892BEA3AEA4AE25A
:100E90005EE30E94CB3C7B018C01C601B50120E0E2
:100EA00030E040E850E40E94B4399B01AC01C80135
:100EB000B7010E94CB3C6B877C878D879E87C601DC
:100EC000B50120E030E040E05FE30E94CB3C698365
:100ED0007A838B839C8321E030E03E832D839924A9
:100EE000F1C03BE0391508F446C06D8D7E8D8F8DC5
:100EF00098A12B853C854D855E850E94CB3C7B016E
:100F00008C01698D7A8D8B8D9C8D29813A814B81E5
:100F10005C810E94CB3C9B01AC01C801B7010E94DF
:100F2000B4397B018C016D8D7E8D8F8D98A12981C7
:100F30003A814B815C810E94CB3C5B016C01698DE5
:100F40007A8D8B8D9C8D2B853C854D855E850E9491
:100F5000CB3C9B01AC01C601B5010E94B3396D8F3A
:100F60007E8F8F8F98A39394C701D801898F9A8F12
:100F7000AB8FBC8F61C0AD81BE81BD0180E090E0D0
:100F80000E942D3B2B893C894D895E890E94CB3C78
:100F90007B018C01C8010E94913A6F837887898711
:100FA0009A87B701C8010E944E3D3B014C01EFA555
:100FB000F8A9E080F1800281138117FB109517F9E1
:100FC0001095ABA5BCA52D903D904D905C90C801AF
:100FD000B7012F81388549855A850E94CB3C5B013A
:100FE0006C01C201B101A40193010E94CB3C9B01A1
:100FF000AC01C601B5010E94B4396D8F7E8F8F8F11
:1010000098A3C801B701A40193010E94CB3C7B01C6
:101010008C01C201B1012F81388549855A850E9412
:10102000CB3C9B01AC01C801B7010E94B339698F69
:101030007A8F8B8F9C8F99246DA17EA18FA198A50B
:101040002D8D3E8D4F8D58A10E94B439E9A9FAA982
:10105000608371838283938369A17AA18BA19CA110
:10106000298D3A8D4B8D5C8D0E94B439ADA5BEA5FE
:101070006D937D938D939C931397E9A5FAA5608159
:101080007181828193812F85388949895A890E948B
:10109000B439A9A5BAA56D937D938D939C931397AD
:1010A0008BA99CA94BAD5CAD6DAD7EAD2FAD0E9403
:1010B000F20480914C058823B1F4ED81FE813196D4
:1010C000FE83ED832D813E818F89988D2817390706
:1010D00008F407CF8DA99EA94BAD5CAD6DAD7EAD7B
:1010E0002FAD0E94F204EF960FB6F894DEBF0FBE4C
:1010F000CDBFCF91DF911F910F91FF90EF90DF90C7
:10110000CF90BF90AF909F908F907F906F905F90A7
:101110004F903F902F9008952F923F924F925F9261
:101120006F927F928F929F92AF92BF92CF92DF92F7
:10113000EF92FF920F931F93DF93CF93CDB7DEB75C
:10114000A8970FB6F894DEBF0FBECDBF1C01EDEA25
:10115000F5E089E3DF011D928A95E9F73196AEE665
:10116000B5E08AE00D9001928150E1F71982662482
:101170001F8E1E8E77241CA2AA24BB2461E0462E5B
:10118000512C9924939452E0852EBAC2802F815419
:101190008A3118F081E00C94D5129F5F9983C101C8
:1011A000BE016F5F7F4FAE014E5F5F4F0E94C2284E
:1011B000882319F482E00C94D512CA80DB80EC807D
:1011C000FD80C701B6010E94993D0E94013B162F88
:1011D00070E0882777FD8095982F0E942F3B9B0118
:1011E000AC01C701B6010E94B33920E030E048EC01
:1011F00052E40E94CB3C0E942E3D0E94013B9B0189
:10120000073421F00D3409F099C14DC1183209F4A9
:1012100045C1193200F5143170F4113108F0E3C002
:10122000143009F449C0143008F495C01A3011F094
:101230000C94C41237C01C31A9F11D3128F41631A9
:1012400010F00C94C412FFC01E3161F1163211F07F
:101250000C94C41280C01D3309F41AC11E3388F4E3
:10126000153351F1163340F41B3209F4F5C0113334
:1012700011F00C94C412F0C01C3310F00C94C41282
:1012800002C11C3540F41A3508F0BDC0103511F00C
:101290000C94C41267C01C3529F01F3510F00C9453
:1012A000C412C8C02115310539F4BCA1BB2311F00B
:1012B0000C94C212E1E0ECA31C31A9F01D3128F41A
:1012C000143051F01A3069F40AC0153371F11C352D
:1012D00081F11E3131F418C09092AD0502C08092A8
:1012E000AD0580E0DCC02115310531F02A30310533
:1012F00011F00C94C41204C0F3E0F093AD0529C0C2
:1013000024E02093AD0525C02115310531F02A30A8
:10131000310511F00C94C41204C085E08093AD0532
:1013200018C096E09093AD0514C0A7E0A093AD055A
:10133000D8CF2115310531F02A30310511F00C9448
:10134000C41204C0B8E0B093AD0503C0E9E0E09377
:10135000AD0580E0E3C0FCA1FF2311F00C94C212A4
:1013600082E08CA3123089F0133028F4112351F05D
:10137000113069F40AC0163261F0103581F1133072
:1013800031F403C01092AE0502C01093AE0581E0A7
:1013900086C02E313105B1F02F31310530F42431C2
:1013A000310511F00C94C41209C02832310571F0D6
:1013B0002233310511F00C94C4120DC094E09093C7
:1013C000AE0507C0A5E0A093AE0503C0B6E0B0939C
:1013D000AE0581E0A3C0E7E0E093AE05FACFF8E008
:1013E000F093AE05D4CF123139F0133149F01131F9
:1013F00029F41092B20502C09092B20582E04FC06B
:101400008092B205FBCF6115710549F41A3519F4C4
:101410001092B10502C09092B10583E07FC06A309E
:10142000710511F00C94C4121A3511F00C94EE12DF
:101430000C94C4121D3519F49092AF0502C010929D
:10144000AF0585E02CC0143119F49092B00502C0AC
:101450001092B00586E023C08CA1882311F00C9473
:10146000C212113329F41092B30593E09CA309C072
:101470002A30310511F00C94C4129092B305A3E008
:10148000ACA388E04BC016531093B40589E007C0A5
:10149000672B11F40C94F1120C94C41287E0232BE7
:1014A000E9F10C94C612672B11F00C94C612163099
:1014B00018F41330C0F40AC0183010F40C94C4129D
:1014C0001A3008F11E3111F00C94C412123041F0A0
:1014D0001E3131F0112311F49092B5058BE01EC03E
:1014E0008092B505FBCF143039F0153041F0133040
:1014F00041F49092B70505C08092B70502C01092E2
:10150000B7058CE00BC0183019F0193031F403C066
:101510008092B60502C01092B6058DE0920102C01D
:10152000220F331F8A95E2F7C9018A219B21892B5B
:1015300011F00C94C812A22AB32AE2C0003509F4B3
:1015400072C00135BCF40A3409F443C00B343CF4D6
:10155000063449F1093411F00C94C4122EC00C3435
:1015600009F44FC00C340CF440C00E3411F00C944C
:10157000C4124BC00435A9F0053544F4023509F412
:101580005CC0033511F00C94C41261C0093509F434
:1015900074C00A3509F47DC0083511F00C94C412EA
:1015A00060C029E081C0C092B805D092B905E09230
:1015B000BA05F092BB0520E077C0C092BC05D0927E
:1015C000BD05E092BE05F092BF05B1E06B2A21E0B7
:1015D0006BC0C092C005D092C105E092C205F092E6
:1015E000C305E2E06E2A22E05FC0C092C405D0923B
:1015F000C505E092C605F092C705F4E06F2A23E026
:1016000053C01093C80524E04FC0C701B6010E9423
:10161000FC3A6093C9057093CA058093CB059093FB
:10162000CC0525E041C0C092CD05D092CE05E09218
:10163000CF05F092D00526E037C0C092D105D092F8
:10164000D205E092D305F092D40527E02DC0C092D8
:10165000D505D092D605E092D705F092D80528E0BE
:1016600023C0C092DA05D092DB05E092DC05F0924F
:10167000DD0521E0722A2AE017C0C092DE05D09273
:10168000DF05E092E005F092E10582E0782A2BE0A8
:101690000BC0C092E205D092E305E092E405F0921F
:1016A000E50594E0792A2CE08201022E02C0000FA9
:1016B000111F0A94E2F78E8D9F8D80239123892B31
:1016C00011F089E172C781E693E002C09595879594
:1016D0002A95E2F780FF0EC06A817B818C819D8113
:1016E00020E030E040E050E00E948D3A882314F47E
:1016F00084E05BC7AE8DBF8DA02BB12BBF8FAE8FAB
:101700009981F101E90FF11D0081002309F03ECD1F
:10171000772029F0BCA1BB2311F4E2E0ECA3FE8DFD
:10172000F5FF0FC08091C9059091CA05A091CB0526
:10173000B091CC0580589649A849B04014F08BE18F
:1017400034C78091AF05813039F48CA18230B1F576
:101750009E8D90FD33C01EC780916F05882371F563
:10176000AE8DA0FF1BC08091B005813039F560912E
:10177000B8057091B9058091BA059091BB0523E336
:1017800033E34BEC51E40E94CB3C6093B80570937B
:10179000B9058093BA059093BB0510C080917C0574
:1017A00090917D05A0917E05B0917F058093B8054D
:1017B0009093B905A093BA05B093BB05EE8DFF8D4C
:1017C000F0FD10C08091780590917905A0917A057F
:1017D000B0917B058093D5059093D605A093D7054E
:1017E000B093D8058091AD05813041F4FE8DF6FFB0
:1017F000D3C68E8D9F8D8F7B9F8F8E8F8091B205EC
:10180000882341F0813061F492E09BA31AA2A1E009
:10181000A9A30BC01BA2B1E0BAA3E2E0E9A305C0F3
:10182000F1E0FBA322E02AA319A28091B005813048
:1018300051F54AEDE42E45E0F42E00E010E0C72C0F
:10184000DD24C601002E02C0959587950A94E2F723
:1018500080FF10C0D7016D917D918D919C9123E304
:1018600033E34BEC51E40E94CB3CF701608371837E
:10187000828393830F5F1F4F84E090E0E80EF91E90
:1018800003301105F1F69CA1933049F48091B30522
:10189000813029F4A4E07A1611F085E286C6DE01D3
:1018A0001696E1E9F5E08CE001900D928150E1F7A8
:1018B000B1FE12C09091B405973008F06FC68091C8
:1018C0007405891749F0892FBE016A5F7F4F0E9416
:1018D0001222882309F464C68091AD05823021F07C
:1018E000883009F0FDC09AC0772009F45BC68E8D60
:1018F0009F8D80759070892B09F44EC66091CD053F
:101900007091CE058091CF059091D0050E94993DB0
:101910000E94013B673008F041C62091C805243180
:1019200031F0223009F030C6BE8DB7FD2DC66623DA
:1019300019F0615068A303C0E091B405E8A38E01DB
:101940000E5E1F4F88A1B8010E941222882309F45D
:1019500027C678013AED832E35E0932E25E8C22E76
:1019600025E0D22E00E010E0A72CBB24C501002EFC
:1019700002C0959587950A94E2F780FF3BC080915D
:10198000C805843169F5D6016D917D918D919C9149
:10199000139758962D913D914D915C915B970E94C4
:1019A000B339F40120813181428153810E94B339DE
:1019B000D7016D937D938D939C9313970230D1F44F
:1019C0002091A9053091AA054091AB055091AC0535
:1019D0000E94B339F70160837183828393830AC0C5
:1019E000F40180819181A281B381F7018083918389
:1019F000A283B3830F5F1F4F84E090E0E80EF91ECF
:101A0000880E991EC80ED91E0330110509F0AECFFD
:101A1000AE8DBF8DAF7ABF8FAE8F02C1772009F434
:101A2000C1C50AED15E095E8C92E95E0D92E86E0EE
:101A3000882E912C8C0E9D1EEE24FF24A72CBB24F7
:101A4000C5010E2C02C0959587950A94E2F780FF98
:101A50002CC0F6016081718182819381D4012D9126
:101A60003D914D915C910E94B339F8012081318103
:101A7000428153810E94B339D8016D937D938D9338
:101A80009C931397B2E0EB16D1F42091A905309105
:101A9000AA054091AB055091AC050E94B339F801FD
:101AA00060837183828393830AC0F601808D918D58
:101AB000A28DB38DF80180839183A283B3830894B0
:101AC000E11CF11C0C5F1F4F84E090E0C80ED91E92
:101AD000880E991E93E0E916F10409F0B1CF9FC07A
:101AE000ACA1A33009F47CC0772009F479C015E8D3
:101AF000C12E15E0D12E0AED15E0B6E0AB2EB12CCB
:101B0000AC0EBD1EEE24FF24872C9924C4010E2C9C
:101B100002C0959587950A94E2F780FD0BC0F60107
:101B200080819181A281B381F80180839183A28316
:101B3000B38346C08091AD05873009F441C08091E0
:101B4000B105882361F5D5016D917D918D919C91B1
:101B5000F601208D318D428D538D0E94B439D8010C
:101B60002D913D914D915C910E94B439F8016083B3
:101B7000718382839383F2E0EF1611F52091A9051A
:101B80003091AA054091AB055091AC050E94B43943
:101B9000D8016D937D938D939C93139711C0F80199
:101BA0006081718182819381D6012D913D914D910A
:101BB0005C910E94B439F8016083718382839383BE
:101BC0000894E11CF11C84E090E0C80ED91E0C5F63
:101BD0001F4FA80EB91E93E0E916F10409F096CF45
:101BE0008091AD05853049F0873099F08330B9F4A4
:101BF000772009F41CA286E004C0772009F41CA217
:101C000087E0BE016E5E7F4F0E941222882339F466
:101C1000C7C48091AE05823010F08EE1C6C418A210
:101C20001091AE05183049F4772009F45FC2ACA1D9
:101C3000A13009F45BC28FE1B8C4BCA1B23009F095
:101C400055C21123E9F06091B8057091B9058091F2
:101C5000BA059091BB0520E030E040E050E00E94E2
:101C60008D3A882309F496C4143030F4123060F4AD
:101C7000113009F03BC204C0183008F037C213C25B
:101C8000772009F432C232C2772009F48BC4FBA159
:101C9000EF2FF0E0F8A7EFA39AA1892F90E09EA381
:101CA0008DA381E090E08C010DA002C0000F111FF8
:101CB0000A94E2F70FA002C0880F991F0A94E2F776
:101CC000082B192B872D90E080239123892B11F469
:101CD00080E26BC4EFA1F8A5EE0FFF1FEE0FFF1F10
:101CE000DF01A259BA4FE355FA4F65A576A587A53E
:101CF00090A957962D913D914D915C915A970E94D4
:101D0000B3395B016C01EDA1FEA1EE0FFF1FEE0FD9
:101D1000FF1FDF01A259BA4FE355FA4F65A576A51B
:101D200087A590A957962D913D914D915C915A9719
:101D30000E94B3391B012C01AE8DA7FF02C105E83B
:101D400015E06AEDE62E65E0F62EF80160817181FE
:101D500082819381D7012D913D914D915C910E949B
:101D60008D3A882359F40C5F1F4FE4E0F0E0EE0E4B
:101D7000FF1EF5E001391F0741F716C48091B00539
:101D80008130B1F46091D1057091D2058091D30575
:101D90009091D40523E333E34BEC51E40E94CB3C18
:101DA0006093D1057093D2058093D3059093D405A9
:101DB000E090D105F090D2050091D3051091D405A3
:101DC000C801B70120E030E040E850E40E94CB3C7D
:101DD000A80197010E94CB3C7B018C01C601B50193
:101DE000A60195010E94CB3C9B01AC01C801B70143
:101DF0000E94B3397B018C01C201B101A2019101A2
:101E00000E94CB3C9B01AC01C801B7010E94B339D1
:101E10007B018C0120E030E040E050E00E948D3AF0
:101E2000882314F482E2C1C3C801B7010E94583D5F
:101E30007B018C01C601B501A20191010E94C42958
:101E40009B01AC0117FB109517F91095C801B7015C
:101E50000E94943A7B018C018091AE05833021F47D
:101E600017FB109517F910956090D1057090D20569
:101E70008090D3059090D405C401B30120E030E0F8
:101E800040E050E00E948D3A88237CF417FB1095C7
:101E900017F91095D401C301B0588093D1059093E0
:101EA000D205A093D305B093D4058E8D9F8D8F77E7
:101EB0009F8F8E8FAFA1B8A5AA0FBB1FAA0FBB1F04
:101EC000AF54BA4FB8A7AFA3C201B101A80197019F
:101ED0000E94CB3C9B01AC01C601B5010E94B33905
:101EE00020E030E040E05FE30E94CB3CEFA1F8A5AA
:101EF00063877487858796878DA19EA1880F991F18
:101F0000880F991F8F549A4F9EA38DA3C601B501C8
:101F1000A80197010E94CB3C9B01AC01C201B10119
:101F20000E94B43920E030E040E05FE30E94CB3C07
:101F3000ADA1BEA11B966D937D938D939C931E972F
:101F4000D5C0862C992408211921012B11F483E294
:101F50002CC3EE8DFF8DE17FFF8FEE8F8091B0055A
:101F6000813041F53CEBE32E35E0F32E00E010E04C
:101F7000C401002E02C0959587950A94E2F780FF70
:101F800010C0D7016D917D918D919C9123E333E336
:101F90004BEC51E40E94CB3CF70160837183828358
:101FA00093830F5F1F4F84E090E0E80EF91E03302B
:101FB0001105F1F6EFA0F8A4EE0CFF1CEE0CFF1CCF
:101FC000A1EBB5E0EA0EFB1EC601B501F7012385C2
:101FD0003485458556850E94B3395B016C010DA19E
:101FE0001EA1000F111F000F111F0F541A4FC20125
:101FF000B101D8011B962D913D914D915C911E9799
:102000000E94B3399B01AC01C601B5010E94C429ED
:102010005B016C01F7016385748585859685D80120
:102020001B962D913D914D915C911E970E94C42964
:102030003B014C016093D1057093D2058093D30589
:102040009093D405C601B501A40193010E94B33950
:102050007B018C01E89417F9C801B7012AE037ED3C
:1020600043EA5BE30E94903C18160CF03FC0C801A5
:10207000B70120E030E040E05FE30E94903C18169A
:102080000CF492C2C401B3012FE632E143E85AE3F3
:102090000E94CB3C9B01AC01C801B7010E94903C5F
:1020A000181624F581C2772009F47CC205E815E0F2
:1020B0008AEDE82E85E0F82EF80160817181828139
:1020C0009381D7012D913D914D915C910E948D3A64
:1020D000882361F40C5F1F4FE4E0F0E0EE0EFF1E7A
:1020E000F5E001391F0741F75FC21CA28E8D9F8D5D
:1020F0008E7D9C7F2CA1222321F08E8D9F8D8E7D45
:10210000907E892B11F084E250C28091C905909194
:10211000CA05A091CB05B091CC0580938105909321
:102120008205A0938305B09384058091AF058093C9
:102130006F058091B8059091B905A091BA05B0914D
:10214000BB0580937C0590937D05A0937E05B0939D
:102150007F05E090D505F090D6050091D705109148
:10216000D805609178057091790580917A059091F4
:102170007B05A80197010E948D3A8823C1F08091C8
:102180007705882321F0B801A7010E9422138091CE
:10219000D5059091D605A091D705B091D80580932B
:1021A000780590937905A0937A05B0937B0580918B
:1021B000D905809380059091B7058091770589179F
:1021C00079F0409178055091790560917A05709188
:1021D0007B05892F0E9422138091B7058093770594
:1021E0009091B60580917605891739F0892F0E9464
:1021F00046138091B605809376058091AD058130B8
:1022000051F46091CD057091CE058091CF059091EC
:10221000D0050E9497048091B20580937205809149
:10222000B005809370058CA18330D9F48091B305FB
:1022300080937305813049F48091E2059091E30524
:10224000A091E405B091E50504C080E090E0A0E035
:10225000B0E08093A9059093AA05A093AB05B09335
:10226000AC059091B40580917405891759F090934D
:102270007405A1E9B5E0FE0136968CE001900D925F
:102280008150E1F78091B105809371058091AD0592
:10229000853059F1863048F4833039F1843008F0C4
:1022A00044C0823009F05AC00AC0883009F445C0E1
:1022B000893009F44CC0863009F050C038C08E0116
:1022C0000E5E1F4F88A1B8010E94072280917405FD
:1022D00098A1891709F042C0A1E9B5E0F8018CE0A6
:1022E00001900D928150E1F739C0ACA1AA2349F0C9
:1022F0008AED95E040E050E060E87FEB20E00E944E
:10230000F2048E010E5E1F4FC80140E050E060E80D
:102310007FEB20E00E94F204A5E8B5E0F8018CE034
:1023200001900D928150E1F719C086E001C087E06D
:1023300065E875E00E94072211C0ADE9B5E0EAED5D
:10234000F5E08CE001900D928150E1F707C08CE040
:10235000EDE9F5E0DF011D928A95E9F78091AE0580
:1023600080936E05883009F4C2C0BCA1B23009F078
:10237000BEC0833009F44AC0843028F48130C1F0F3
:10238000823028F50DC0853009F47AC0853008F414
:1023900069C0863009F482C0873009F09FC08DC0C3
:1023A0008AED95E040E050E060E87FEB20E00CC073
:1023B00040917C0550917D0560917E0570917F056F
:1023C0008AED95E020916F050E94F20487C000D04D
:1023D0000F92EDB7FEB731960091D1051091D2055D
:1023E0002091D3053091D405C0907C05D0907D0517
:1023F000E0907E05F0907F058AA1ADB7BEB711963B
:102400008C9399A1918381E082831DC000D00F92AB
:10241000EDB7FEB731960091D1051091D20520910C
:10242000D3053091D405C0907C05D0907D05E09017
:102430007E05F0907F058AA1ADB7BEB711968C934B
:1024400099A19183128285E895E06AED75E04CEBE5
:1024500055E0A0906F058BA00E94A3050F900F90F0
:102460000F903CC040917C0550917D0560917E05A8
:1024700070917F058AED95E020916F0500E01BC00B
:1024800040917C0550917D0560917E0570917F059E
:102490008AED95E020916F0500E01CC040917C051D
:1024A00050917D0560917E0570917F058AED95E0E4
:1024B00020916F0501E0EE240FC040917C05509102
:1024C0007D0560917E0570917F058AED95E02091F4
:1024D0006F0501E0EE24E3940E942305A5E8B5E032
:1024E000EAEDF5E08CE001900D928150E1F78091EA
:1024F000B50580937505882309F457C00E947515AA
:1025000080917505813079F480914D058230B1F16B
:102510009FB7F89480914F05886080934F059FBFC7
:102520000E9442142BC081E080936E0510927205C8
:102530001092710510926F05109274051092770534
:102540001092760580914D058230A9F08E010A5FC8
:102550001F4F80E0B8010E941222882309F1A1E9EF
:10256000B5E0F8018CE001900D928150E1F70E94F6
:1025700013130E943E1387E00E944A2E10927505A5
:1025800080E013C088E111C084E10FC087E10DC075
:1025900085E10BC086E109C08CE107C08DE105C073
:1025A00087E003C08AE101C081E2A8960FB6F894E3
:1025B000DEBF0FBECDBFCF91DF911F910F91FF9076
:1025C000EF90DF90CF90BF90AF909F908F907F90D3
:1025D0006F905F904F903F902F90089584E00C94FF
:1025E0008E0A8AE00C948E0A85E895E061E575E034
:1025F0000E9498370895EEE6F5E08FE3DF011D9223
:102600008A95E9F780917405BF016D5D7F4F0E9447
:102610001222882319F487E00E94832E08953F9A9E
:102620003F9A479808954798089580936C058823AA
:1026300011F447980895813011F4479801C0479AE2
:10264000479A0895DF92EF92FF920F931F93D82E2F
:102650007A018B0180914D05823039F00E94751509
:102660008D2DB801A7010E9415131F910F91FF90A6
:10267000EF90DF9008953E9A469808954698089501
:10268000823011F4469A0895469808951F93182FA2
:1026900080914D05823039F00E947515123011F489
:1026A000469A01C046981F9108959091010180912A
:1026B0000001891710F0891B08958058891B08951F
:1026C000E0ECF0E08081826080831092C50080E1C0
:1026D0008093C400E1ECF0E08081806180838081A0
:1026E000886080838081806880830895282FE091AE
:1026F00002019E2F9F5F903431F490E004C08091DE
:102700004F0584FD0FC0809103019817C1F3F0E0DD
:10271000EA51FA4F2083909302018091C1008062B8
:102720008093C10008951F920F920FB60F9211244B
:102730008F939F93EF93FF9380910301E82FF0E035
:10274000EA51FA4F90819093C600982F9F5F903482
:1027500009F490E09093030180910201981729F405
:102760008091C1008F7D8093C100FF91EF919F9177
:102770008F910F900FBE0F901F90189590910101AF
:1027800080910001891711F48FEF0895E92FF0E08F
:10279000EA5DF94F8081E92FEF5FE03809F4E0E06E
:1027A000E093010108958091000180930101089553
:1027B0001F920F920FB60F9211242F933F934F93B6
:1027C0005F936F937F938F939F93AF93BF93EF9399
:1027D000FF939091C6009F3361F0903428F49831B4
:1027E00019F1913221F514C09034C1F09E37F9F4FB
:1027F00006C09FB7F89480914F05816005C09FB7D0
:10280000F89480914F05826080934F059FBF20C050
:102810009FB7F89480914F058860F6CF9FB7F894E2
:1028200080914F058062F0CF0E94550411C0E09165
:1028300000012E2F2F5F203809F420E08091010144
:10284000281731F0F0E0EA5DF94F90832093000102
:10285000FF91EF91BF91AF919F918F917F916F9178
:102860005F914F913F912F910F900FBE0F901F904E
:1028700018959FB7F89480914F05826080934F051B
:102880009FBF0895CF92DF92EF92FF920F931F9315
:10289000CF93DF93FF24F39428E0C22E90E2E92E39
:1028A00000E180E4D82E0E94653480915005882391
:1028B00081F1F0924D05182F81FF02C081E00FC019
:1028C00082FF02C082E00BC083FF02C083E007C02A
:1028D00084FF02C084E003C085FF03C085E00E943E
:1028E000223310FF0FC081E00E944A2E9FB7F89458
:1028F00080914F058F7E80934F059FBF80914F053C
:1029000084FFFCCF8FB7F89490915005109250053A
:102910008FBF10914F05112309F4C5C0C12FD0E01E
:1029200014FF04C081E080934C05D6C010FF0AC09C
:102930000E94EA2E9FB7F89480914F058E7F809376
:102940004F059FBFCE0188769070892B09F43DC05A
:1029500090914D05992349F0892F8C7771F198302A
:1029600021F40E949816F0924E0590914D059923FE
:1029700019F482E080934E05C6FF09C0983011F427
:10298000D0924D0580914E05886080934E05C3FF1F
:1029900006C080914D0585FD02C000934D05C5FF21
:1029A0000CC086E00E944A2E80914E0581FD146085
:1029B000846080934E05E0924D059FB7F894809116
:1029C0004F05877980934F059FBFC12FD0E011FF3E
:1029D0004AC0CE0188769070892BE9F580914D052B
:1029E000882331F08075B9F180914E0581FF33C0A5
:1029F00080914E0582FF1CC080917705882371F07D
:102A0000409178055091790560917A0570917B0528
:102A10000E94151380EA9FE00E947A298091760532
:102A2000882331F00E94401388EE93E00E947A29B7
:102A30000E94D423892B59F080914E0583FD07C055
:102A4000C0924D050E94BA160E94161602C010923E
:102A50004D0510924E059FB7F89480914F058D7FDC
:102A600080934F059FBFC2FF1EC080914D058073AC
:102A700071F080914E0582FF04C00E9413130E94E2
:102A80003E1380914E05826080934E0504C01092E3
:102A90004E0510924D059FB7F89480914F058B7F9E
:102AA00080934F059FBF80914D058C7711F00E9458
:102AB000BA1680914D05803251F480914E0581FF08
:102AC00006C00E947A37882311F400934D05809147
:102AD0004E05882309F0E7CEDF91CF911F910F912A
:102AE000FF90EF90DF90CF9008959FB7F89480917A
:102AF0004F05826080934F059FBF0E9442148091D2
:102B00004C05882341F40E94D423892BB1F780918E
:102B10004D05883091F308950F931F930E94452E21
:102B200080914D05813021F482E00E944A2E28C018
:102B30000E947A37882341F080914F05806280930C
:102B40004F050E94421402C010924D0584E091E0AE
:102B50000E94E93715C09A3011F09D3029F5E12F18
:102B6000F0E0EC5FFE4F10820E94421480914C0511
:102B7000882331F480910401882321F40E94832E5C
:102B800000E02BC0843229F484E091E00E941538E3
:102B9000F5CF80914D05813011F489E0EFCF84E0CD
:102BA00091E00E948C08EACF002331F0993239F588
:102BB000013029F500E023C0913208F19F32F9F08D
:102BC000983211F401E01BC09B3311F402E017C0EE
:102BD0001F3428F08BE00E94832E10E010C0892F54
:102BE0008156A12FB0E0E12FEF5F8A3120F4AC5F76
:102BF000BE4F905202C0AC5FBE4F9C931E2F0E94EE
:102C0000BE13982F8F3F09F0A6CF8FB7F8949091FD
:102C10004F05926090934F058FBF0E9442148091A0
:102C20004C05882361F31F910F9108958091E4066C
:102C300082FF02C0289A01C0289880914D058C70AF
:102C400021F18091F5018093DD018091F401809361
:102C5000DC012091D70630E040E050E0DA01C90104
:102C60000896A11DB11D880F991FAA1FBB1F819532
:102C70008093DB01220F331F441F551F219527BD71
:102C800080916F00826080936F0008951F920F9271
:102C90000FB60F9211248F939F9315BC8091A606B7
:102CA000882339F49BB18091F40184759B7A892B38
:102CB0008BB99F918F910F900FBE0F901F90189519
:102CC0001F920F920FB60F9211248F938091A60638
:102CD000882319F48091D9018BB98F910F900FBE81
:102CE0000F901F9018958AB184658AB9209A8AB18D
:102CF000886A8AB9E1E8F0E080818F7E80838081F4
:102D000088608083E0E8F0E080818C7F8083808130
:102D10008F708083EEE6F0E08081887F808314BC32
:102D200015BC80818160808380818260808308956A
:102D3000CF93DF93C091F701D091F8012097B9F0BC
:102D400081E08093FC0120911202309113024091A6
:102D5000140250911502CA01B9010E94CB3C698B43
:102D60007A8B8B8B9C8B1092F8011092F701DF917C
:102D7000CF9108952F923F924F925F926F927F92E0
:102D80008F929F92AF92BF92CF92DF92EF92FF927B
:102D90000F931F93DF93CF93CDB7DEB7E9970FB6AD
:102DA000F894DEBF0FBECDBF80914D05807709F44A
:102DB00026C66091120270911302809114029091C4
:102DC000150220E030E040E050E00E948D3A882378
:102DD00009F015C61BC68091F7019091F801892B67
:102DE00009F07EC20E94D4239093F8018093F701EA
:102DF000892B09F40BC68091FC01882319F01092ED
:102E0000FC01CAC08091FB018F5F8093FB0185307C
:102E100011F41092FB01E091FB0121E1E29FF0012E
:102E20001124EC5AFE4FF093FA01E093F90100915E
:102E3000F7011091F801D8018C91808311962D91A2
:102E40003D914D915C91149763E0220F331F441F15
:102E5000551F6A95D1F72183328343835483159696
:102E60002D913D914D915C91189793E0220F331F66
:102E7000441F551F9A95D1F7258336834783508782
:102E800019962D913D914D915C911C9783E0220FF5
:102E9000331F441F551F8A95D1F7218732874387F7
:102EA00054871D962D913D914D915C91509773E003
:102EB000220F331F441F551F7A95D1F72587368778
:102EC0004787508B1D966D917D918D919C91509768
:102ED0000E942D3B6093FD017093FE018093FF01E2
:102EE00090930002F80125A136A147A150A50E94A8
:102EF000943A9B01AC0160930102709302028093AB
:102F000003029093040260E070E080EA9FE30E9475
:102F1000943A60930502709306028093070290939F
:102F2000080280E090E0A0E0B0E080930902909376
:102F30000A02A0930B02B0930C0280914D0580779A
:102F4000E1F020911A0230911B0240911C02509135
:102F50001D022093120230931302409314025093E7
:102F60001502CA01B9010E94CB3CD80151966D935C
:102F70007D938D939C9354970FC0F801618972895A
:102F8000838994890E94583D6093120270931302C2
:102F9000809314029093150280E090E0A0E0B0E0EE
:102FA00080930E0290930F02A0931002B09311022F
:102FB0000091F7011091F801D80191968D919D91A2
:102FC0000D90BC91A02D88AB99ABAAABBBAB60E0D8
:102FD00070E080E09FE328A939A94AA95BA90E9473
:102FE000943A1B012C0180914D05807709F456C05D
:102FF000B2E0B0930D02F801A5A0B6A0C7A0D0A47E
:103000006188728883889488C201B101A401930108
:103010000E94CB3C9B01AC01C601B5010E94B339B3
:103020007B018C0120E030E040E050E00E948D3ACE
:103030008823FCF468A979A98AA99BA920E030E03B
:1030400040E050EC0E94CB3CA60195010E94CB3C95
:103050009B01AC01C401B3010E94B4390E94583DE8
:1030600060931A0270931B0280931C0290931D02BE
:1030700037C1E0920E02F0920F02009310021093FB
:10308000110280E090E0A0E0B0E080931A029093FB
:103090001B02A0931C02B0931D0222C110920D02CC
:1030A000F80185A196A1A7A1B0A580931E029093D7
:1030B0001F02A0932002B09321020E9453255B01BE
:1030C0006C0160931A0270931B0280931C02909310
:1030D0001D02A60195010E94CB3C3B014C012091B1
:1030E000F7013091F80139AF28AFD90195968D914C
:1030F0009D910D90BC91A02D8B8F9C8FAD8FBE8F1D
:10310000F9016189728983899489A40193010E94DC
:10311000B3399B01AC01C201B1010E94CB3C9B01C0
:10312000AC016B8D7C8D8D8D9E8D0E94B43920E01D
:1031300030E040E05FE30E94CB3C7B018C0120E06B
:1031400030E040E050E00E94903C18160CF0B4C013
:10315000C801B7012B8D3C8D4D8D5E8D0E948D3A3F
:1031600088230CF095C0A8ADB9AD5D966D917D91A9
:103170008D919C919097A40193010E94B3399B017A
:10318000AC01C201B1010E94CB3C6093220270935A
:1031900023028093240290932502A80197010E94A4
:1031A0008D3A88230CF047C0E8ADF9ADE58CF68C7C
:1031B000078D10A1C801B7010E94583D6093160207
:1031C000709317028093180290931902A8ADB9ADBD
:1031D0005196AD90BD90CD90DC905497C601B5014D
:1031E000A80197010E948D3A882321F4B1E0B093A1
:1031F0000D0276C0C801B701A60195010E94B3393E
:103200009B01AC01C201B1010E94CB3C9B01AC010E
:1032100060911E0270911F02809120029091210204
:103220000E94B33960931E0270931F0280932002A4
:103230009093210255C0E0921E02F0921F0200936B
:10324000200210932102E0922202F09223020093C6
:10325000240210932502E8ADF9AD21A132A143A1CA
:1032600054A1CA01B9010E94B439A80197010E9472
:10327000CB3CA40193010E94B4390E94583D609355
:10328000160270931702809318029093190228C0B7
:10329000F2E0F0930D028091120290911302A0913E
:1032A0001402B09115028093160290931702A09316
:1032B0001802B093190214C080E090E0A0E0B0E0E2
:1032C00080931E0290931F02A0932002B0932102CC
:1032D000A0921602B0921702C0921802D092190260
:1032E0008091F201B6E08B9FD0011124A755BE4F0B
:1032F000B9AFA8AF8091FB0112968C93E091F701D2
:10330000F091F801FA8FE98F85A196A1A7A1B0A548
:103310008D8B9E8BAF8BB88FBC01CD0120910502A8
:103320003091060240910702509108020E94B33981
:103330006CA37DA38EA39FA320E030E040E050E08B
:103340000E948D3A882344F480E090E0A0E0B0E051
:103350008CA39DA3AEA3BFA380911E0290911F02D8
:10336000A0912002B0912102898B9A8BAB8BBC8BF0
:103370008091160290911702A0911802B091190243
:103380008D879E87AF87B88B809122029091230210
:10339000A0912402B091250289879A87AB87BC87C8
:1033A00080910E0290910F02A0911002B091110233
:1033B0008D839E83AF83B88780911A0290911B0200
:1033C000A0911C02B0911D0289839A83AB83BC83B8
:1033D0008091120290911302A0911402B0911502F3
:1033E00088A399A3AAA3BBA390910D029F8FAD8838
:1033F000BE88CF88D88C8EE393ECAEE2B9E38CA77D
:103400009DA7AEA7BFA780E090E0A0E0B0E088A7AE
:1034100099A7AAA7BBA70F2EFEE36F2EF3EC7F2E72
:10342000FEE28F2EF9E39F2EF02D9F8D992321F040
:10343000913009F0B3C080C0C401B301A98DBA8D29
:1034400091962D913D914D915C9194970E94CB3C2A
:103450007B018C0120E030E040E05FE30E94CB3C48
:103460009B01AC0168A179A18AA19BA10E94B439FA
:103470009B01AC01C401B3010E94CB3C9B01AC0198
:10348000C601B5010E94B3395B016C0129893A89F3
:103490004B895C890E948D3A88230CF040C0698971
:1034A0007A898B899C8929853A854B855C850E9420
:1034B0008D3A882319F4B2E0BF8F02C0E1E0EF8FAC
:1034C0006D897E898F89988D29893A894B895C8994
:1034D0000E94B3399B01AC010E94B4397B018C017D
:1034E00068A179A18AA19BA12D853E854F85588928
:1034F0000E94B4399B01AC01C801B7010E94943A03
:103500003B014C01A988BA88CB88DC888D859E85D3
:10351000AF85B88988A399A3AAA3BBA3B0C068A1AB
:1035200079A18AA19BA1A80197010E94B43968A33F
:1035300079A38AA39BA3A3C06D857E858F85988977
:10354000A40193010E94CB3C9B01AC01C601B501D3
:103550000E94B3397B018C0129853A854B855C85B6
:103560000E948D3A87FD03C05701680188C0C601DB
:10357000B50129853A854B855C850E94B3392D8537
:103580003E854F8558890E94943A3B014C01A9849D
:10359000BA84CB84DC8492E09F8F71C0C401B301F4
:1035A000A98DBA8D91962D913D914D915C919497F5
:1035B0000E94CB3C7B018C0168A179A18AA19BA1CF
:1035C000A80197010E94903C1816ACF5C801B701FC
:1035D00020E030E040E05FEB0E94CB3C9B01AC017F
:1035E00068A179A18AA19BA10E94B4399B01AC0179
:1035F000C401B3010E94CB3C9B01AC01C601B501E3
:103600000E94B3391B012C012D813E814F815885C9
:103610000E94903C18167CF468A179A18AA19BA114
:10362000A80197010E94B33968A379A38AA39BA339
:103630006201510124C0C601B5012D813E814F8137
:1036400058850E94B3399B01AC010E94B4397B01BB
:103650008C0168A179A18AA19BA129813A814B8122
:103660005C810E94B4399B01AC01C801B7010E9482
:10367000943A3B014C01AD80BE80CF80D88468A5D0
:1036800079A58AA59BA5A40193010E94B43968A7D6
:1036900079A78AA79BA72CA53DA54EA55FA50E944B
:1036A0008D3A88232CF46CA57DA58EA59FA518C006
:1036B000C601B5012CA13DA14EA15FA10E94903C85
:1036C00018160CF56CA57DA58EA59FA52EE333ECF1
:1036D0004EE259E30E94B4396CA77DA78EA79FA73D
:1036E00028A539A54AA55BA50E94B3393B014C0129
:1036F000C601B5012D813E814F8158850E94903CC5
:1037000018160CF492CE88A199A1AAA1BBA180930E
:10371000120290931302A0931402B09315029F8D8E
:1037200090930D02C601B501209101023091020271
:1037300040910302509104020E94CB3C6CAB7DABE4
:103740008EAB9FAB0E947A3A1B012C016091FD0168
:103750007091FE018091FF01909100020E947A3ADF
:103760003B014C01A20191010E94B3390E94013B2F
:10377000A8ADB9AD6D937C93672BB1F580914D05E4
:10378000807791F180E090E0A0E0B0E080931202B9
:1037900090931302A0931402B09315028093090230
:1037A00090930A02A0930B02B0930C022092FD01A9
:1037B0003092FE014092FF01509200020091F70109
:1037C0001091F801C201B101209101023091020271
:1037D00040910302509104020E94943AF80165A3BB
:1037E00076A387A390A702C168A579A58AA59BA502
:1037F0002091090230910A0240910B0250910C0273
:103800000E94B4397B018C01C401B3012CA93DA9EC
:103810004EA95FA90E94B3399B01AC01C801B70151
:103820000E94943A7B018C01C201B1012CA93DA9EF
:103830004EA95FA90E94B339A80197010E94CB3C11
:103840006093090270930A0280930B0290930C021A
:10385000C801B70120EC31EE44E65EE40E94CB3CA7
:103860000E947A3A0E94013BAB01BC01403DF7E067
:103870005F07F0E06F07F0E07F0728F4A8ADB9AD6F
:1038800015961C9233C0403ABFE05B07B0E06B076F
:10389000B0E07B0728F421E0E8ADF9AD25830FC047
:1038A00040343FE1530730E0630730E0730710F422
:1038B000E2E001C0E3E0A8ADB9AD1596EC93A8AD88
:1038C000B9AD15962C911597022E04C07695679583
:1038D000579547950A94D2F78D919C91119702C004
:1038E000880F991F2A95E2F78D939C934030B0E0A2
:1038F0005B07B1E06B07B0E07B0728F4E8ADF9ADFA
:103900005483438308C0EFEFFFEFA8ADB9AD149621
:10391000FC93EE9313978091F3018093F2018F5FF4
:103920008093F301863011F41092F301C601B501C2
:1039300020910E0230910F0240911002509111021D
:103940000E94903C1816ACF4E091F701F091F80158
:10395000A5A2B6A2C7A2D0A68CA99DA9AEA9BFA9AF
:103960008093FD019093FE01A093FF01B0930002AC
:1039700046C0C601B50120E030E040E050E00E94C2
:10398000903C1816B4F580E090E0A0E0B0E08093A1
:10399000120290931302A0931402B0931502809325
:1039A000090290930A02A0930B02B0930C0220929A
:1039B000FD013092FE014092FF0150920002009101
:1039C000F7011091F801C201B1012091010230917B
:1039D000020240910302509104020E94943AD801DD
:1039E00095966D937D938D939C9398970E944A250D
:1039F0000DC01092F8011092F7010E94C02390911F
:103A0000F1018091F301981709F0E5C9E9960FB625
:103A1000F894DEBF0FBECDBFCF91DF911F910F9104
:103A2000FF90EF90DF90CF90BF90AF909F908F90DE
:103A30007F906F905F904F903F902F900895FF92EE
:103A40000F931F93CF93DF931092F4011092F5011F
:103A5000C0E0D0E00C2FFC2E8091D80690E00C2E18
:103A600002C0959587950A94E2F780FF08C01091EF
:103A7000F4018C2F0E949B20182B1093F40180914D
:103A8000D90690E002C095958795FA94E2F780FFF9
:103A900008C01091F501802F0E94A520182B1093CB
:103AA000F5012196C330D105A9F6DF91CF911F9181
:103AB0000F91FF90089580916F008D7F80936F002C
:103AC00080918100887F8160809381001092F6014F
:103AD0009091DA069F3F21F480915005882351F0A0
:103AE00080914D05843031F0892F90E00E947A2931
:103AF00091E001C090E08091E40682FF02C081E085
:103B00009827992311F0289A0895289808950E94DB
:103B10005B1D8BE2EBEFF1E0DF011D928A95E9F787
:103B200084E2EDECF1E0DF011D928A95E9F7109255
:103B3000F0011092EF011092F8011092F70110922B
:103B4000F1011092F20181E08093F3011092F601ED
:103B50000E941F1D8BB18B7A9091F401892B8BB938
:103B60008BB187759091F501892B8BB908951F92C0
:103B70000F920FB60F9211242F933F934F935F93A1
:103B80006F937F938F939F93AF93BF93CF93DF9365
:103B9000EF93FF938091A606882319F00E94653366
:103BA0000DC28091F601882309F008C29BB1809173
:103BB000DD01887A9775892B8BB98BB18B7A9091BF
:103BC000DC01892B8093D9018091DB0186BD82E0E5
:103BD00085BD81E08093F60178948091EF0190910A
:103BE000F001892B09F0A2C09091F1018091F201BE
:103BF000891709F490C09091F10186E0989FE00147
:103C00001124C755DE4FD093F001C093EF018B8193
:103C10009C819093890080938800888199819093FA
:103C2000EB018093EA019A818091EC01891761F19F
:103C30009093EC01E1E19E9FF0011124EC5AFE4FBC
:103C4000F093EE01E093ED0185859685A785B08917
:103C5000B695A795979587958093D5019093D601B2
:103C6000A093D701B093D8018093D1019093D20152
:103C7000A093D301B093D4018093CD019093CE0152
:103C8000A093CF01B093D001E091ED01F091EE014E
:103C90008091F501908189278093DD012D818181BB
:103CA0009281A381B481022E04C0B695A795979501
:103CB00087950A94D2F78093DE019093DF01A09359
:103CC000E001B093E10185819681A781B085022E44
:103CD00004C0B695A795979587950A94D2F78093D7
:103CE000E2019093E301A093E401B093E5018185A3
:103CF0009285A385B48504C0B695A79597958795B9
:103D00002A95D2F78093E6019093E701A093E8010A
:103D1000B093E9010BC00E945B1D9FB7F89480919E
:103D20004F05846080934F059FBF48C10E94252E98
:103D30001092DC012091DE013091DF014091E00121
:103D40005091E1018091CD019091CE01A091CF01E0
:103D5000B091D001280F391F4A1F5B1F2093CD015E
:103D60003093CE014093CF015093D001E091ED010B
:103D7000F091EE0185859685A785B0898217930716
:103D8000A407B507A8F580E48093DC0185859685B6
:103D9000A785B089281B390B4A0B5B0B2093CD01FB
:103DA0003093CE014093CF015093D001808187FFA3
:103DB0000CC08091510590915205A0915305B0918E
:103DC00054050197A109B1090BC08091510590914B
:103DD0005205A0915305B09154050196A11DB11D46
:103DE0008093510590935205A0935305B0935405C9
:103DF0002091E2013091E3014091E4015091E5010D
:103E00008091D1019091D201A091D301B091D401C0
:103E1000280F391F4A1F5B1F2093D1013093D20115
:103E20004093D3015093D40185859685A785B089A9
:103E300082179307A407B507B8F58091DC0180616C
:103E40008093DC0185859685A785B089281B390B71
:103E50004A0B5B0B2093D1013093D2014093D301E5
:103E60005093D401808185FF0CC0809155059091BD
:103E70005605A0915705B09158050197A109B109C0
:103E80000BC08091550590915605A0915705B091B2
:103E900058050196A11DB11D8093550590935605B7
:103EA000A0935705B09358052091E6013091E701A2
:103EB0004091E8015091E9018091D5019091D6019E
:103EC000A091D701B091D801280F391F4A1F5B1F5D
:103ED0002093D5013093D6014093D7015093D80158
:103EE00085859685A785B08982179307A407B507AE
:103EF000B8F58091DC0184608093DC01858596852E
:103F0000A785B089281B390B4A0B5B0B2093D50181
:103F10003093D6014093D7015093D801808183FF1D
:103F20000CC08091590590915A05A0915B05B09104
:103F30005C050197A109B1090BC0809159059091C9
:103F40005A05A0915B05B0915C050196A11DB11DBC
:103F50008093590590935A05A0935B05B0935C0537
:103F600080914D05843039F480915D059091DC019C
:103F700089238093DC018091EA019091EB01019704
:103F80009093EB018093EA01892B79F41092F00170
:103F90001092EF018091F1018F5F8093F101809188
:103FA000F101863011F41092F1018091F4019091A9
:103FB000DC0189278093DC011092F601FF91EF91DB
:103FC000DF91CF91BF91AF919F918F917F916F9131
:103FD0005F914F913F912F910F900FBE0F901F90C7
:103FE0001895F999FECF92BD81BD81E08FBB80B558
:103FF0000895F894F999FECF92BD81BD81E08FBB01
:1040000040B54627842F992787FD9095262F30E0CD
:1040100082239323892B39F06F3F19F060BD84E030
:1040200006C084E104C0442321F060BD84E28FBB5C
:10403000F99A789408958F929F92AF92BF92CF92FF
:10404000DF92EF92FF920F93DF93CF9300D0CDB723
:10405000DEB75C016B017A014A0100E01EC000235B
:1040600019F021E030E008C0202F332727FD3095DC
:104070002227330F221F3327F60161916F01062F8C
:10408000020F9C012F5F3F4F3A8329830E94F91F43
:1040900008948108910889819A8181149104F9F624
:1040A000C7018A0D9B1D602F0E94F91F0F900F9072
:1040B000CF91DF910F91FF90EF90DF90CF90BF9065
:1040C000AF909F908F900895CF93DF93EC01FB0109
:1040D0009A0190E0B1E019C0F999FECFF2BDE1BDBF
:1040E000BFBBA0B5992319F081E090E008C0892FEB
:1040F000992787FD90958827990F881F99273196D2
:104100009A2F980FA993215030402115310521F79E
:10411000460F571FF999FECF52BD41BD81E08FBBBD
:1041200080B520E030E0981711F421E030E0C901BB
:10413000DF91CF910895882311F480E408958130B0
:1041400011F084E0089580E10895882311F480E857
:104150000895813011F088E0089580E20895882361
:1041600011F482E00895813011F088E0089584E030
:10417000089580E090E00E94F11F893011F020E066
:104180000CC087EA96E061E070E04DE450E00E94E8
:10419000642020E0892B09F021E0822F089580E03F
:1041A00090E069E00E94F91F81E090E067EA76E024
:1041B0004DE450E00E941B200895CF92DF92EF92D1
:1041C000FF920F931F93082F6A017B01CB01BA0165
:1041D00020E030E040E050E00E948D3A882314F463
:1041E00084E00EC1043608F459C0045690E0033050
:1041F00008F04BC0913089F0913030F09230D1F01E
:10420000933009F0F8C031C0E02FF0E0EE0FFF1F4F
:10421000EE0FFF1FE955F94F08C0E02FF0E0EE0F59
:10422000FF1FEE0FFF1FED54F94FC082D182E282D3
:10423000F382E1C010E0000F111F000F111F0154A5
:10424000194FC701B60120E030E040E752E40E9478
:10425000CB3C20E030E040E752E40E94CB3CF80148
:104260006083718382839383C6C0E02FF0E0EE0FFA
:10427000FF1FEE0FFF1FE553F94FD701C601B058DE
:1042800080839183A283B383B6C00A3008F4B7C099
:104290009F5F943009F4B3C00A50A9CFC701B6019B
:1042A0000E94993D0E94013BE02FF0E0EC31F105C6
:1042B00008F0A5C0E25CFF4FEE0FFF1F0590F491E0
:1042C000E02D0994633010F486E09AC06093D7061D
:1042D00092C06093DA068FC06093D80602C06093E4
:1042E000D9060E941F1D87C0662321F08091E40635
:1042F000846009C08091E4068B7F05C0662331F09D
:104300008091E40680648093E40675C08091E406A1
:104310008F7BF9CF662321F08091E4068068F3CF8C
:104320008091E4068F77EFCF6093DB0664C0C09284
:10433000DC06D092DD06E092DE06F092DF065BC07E
:10434000C092E006D092E106E092E206F092E30627
:1043500052C0662321F08091E4068160D4CF809121
:10436000E4068E7FD0CF662341F08091E40684FD81
:1043700002C08AE045C08062C6CF8091E4068F7D8E
:10438000C2CF662321F08091E406886003C080914B
:10439000E406877F8093E4060E94ED292CC0662303
:1043A00021F08091E4068061AECF8091E4068F7C9D
:1043B000AACF6093E5061FC0C092E606D092E7063A
:1043C000E092E806F092E90616C0C092EA06D092A2
:1043D000EB06E092EC06F092ED060DC06093EE065F
:1043E0001092EF0608C0C092F006D092F106E0925B
:1043F000F206F092F3060E94CF2080E001C083E035
:104400001F910F91FF90EF90DF90CF9008959DE066
:10441000899FC001112480509E4F4CE050E00E94C3
:104420001B2008950F931F93CF93DF93162F072F11
:104430009DE0899FE0011124C050DE4F862F972F09
:10444000BE014CE050E00E946420892B11F081E015
:104450000FC0E12FF02F8CE0DF011D928A95E9F764
:10446000CE01612F702F4CE050E00E941B2080E0B5
:10447000DF91CF911F910F910895CF92DF92EF922C
:10448000FF920F931F93DF93CF93CDB7DEB72C9797
:104490000FB6F894DEBF0FBECDBFE82E80FFDAC0A6
:1044A0008AE08093D70689E18093DA061092D806D5
:1044B0001092D90623E02093DB068AE097EDA3EA69
:1044C000BCE38093DC069093DD06A093DE06B093F8
:1044D000DF068AE097EDA3EABBE38093E0069093C2
:1044E000E106A093E206B093E3062093E50680E0A0
:1044F00090E0A8E4B2E48093E6069093E706A093E8
:10450000E806B093E90680E090E0AAEFB4E4809377
:10451000EA069093EB06A093EC06B093ED0684E6D2
:1045200090E09093EF068093EE0680E090E0A0E8A4
:10453000BFE38093F0069093F106A093F206B09348
:10454000F30684E58093E40680E090E0A0EAB2E41C
:104550008093A7069093A806A093A906B093AA06F5
:104560008093AB069093AC06A093AD06B093AE06D5
:1045700080E595E5A5E0B4E48093AF069093B0069E
:10458000A093B106B093B20680E090E6AAEEB5E43F
:104590008093B3069093B406A093B506B093B60685
:1045A0008093B7069093B806A093B906B093BA0665
:1045B00080E090E8ABEBB4E48093BB069093BC063C
:1045C000A093BD06B093BE0680E09AEBABEDB9E4D4
:1045D0008093BF069093C006A093C106B093C20615
:1045E0008093C3069093C406A093C506B093C606F5
:1045F00080E098ECAFEAB8E48093C7069093C806D1
:10460000A093C906B093CA0680E090E0A6E1B4EC9E
:104610008093CB069093CC06A093CD06B093CE06A4
:1046200080E090E0A8E4B3EC8093CF069093D006AE
:10463000A093D106B093D20680E090E0A8E4B2EC5B
:104640008093D3069093D406A093D506B093D60654
:104650000E94CF20E1FE16C0FE0131968CE0DF0102
:104660001D928A95E9F700E012E06F01C801B601DA
:104670004CE050E00E941B20035F1F4FB2E0083661
:104680001B07A1F7E2FE0AC080E093E060E00E9411
:10469000F91F81E593E060E00E94F91FE3FE05C089
:1046A0008EEA93E060E00E94F91F2C960FB6F89412
:1046B000DEBF0FBECDBFCF91DF911F910F91FF9055
:1046C000EF90DF90CF9008950E94B920882341F4A5
:1046D00087E00E94832E8FEF0E943D220E94A4312A
:1046E0000895BC018EEA93E040E550E00E941B2053
:1046F0000895CF93DF93EC016EEA73E040E550E05C
:104700000E946420892B11F081E009C018828EEA92
:1047100093E0BE0140E550E00E941B2080E0DF9165
:10472000CF91089591E5899FC001112480509D4F3C
:1047300040E550E00E941B2008950F931F93CF93F4
:10474000DF938B0191E5899FE0011124C050DD4F7B
:10475000CB01BE0140E550E00E946420892B11F09E
:1047600081E009C0F8011082CE01B80140E550E0B7
:104770000E941B2080E0DF91CF911F910F9108953F
:104780002091080580910905821769F0922F9F5F9B
:10479000923109F490E080910B05281711F4909361
:1047A0000B059093080508959091080580910905DF
:1047B000891719F420E030E006C089E2989F900143
:1047C00011242A5D3D4FC901089520E0909108050C
:1047D00080910A05981709F421E0822F08958091AD
:1047E000510590915205A0915305B09154058093C5
:1047F0000C0590930D05A0930E05B0930F058091C5
:10480000550590915605A0915705B0915805809394
:10481000100590931105A0931205B0931305809194
:10482000590590915A05A0915B05B0915C05809364
:10483000140590931505A0931605B09317050895D8
:104840008091090590910805891710F0891B08953A
:104850008E5E891B08954F925F926F927F928F9226
:104860009F92AF92BF92CF92DF92EF92FF920F93FF
:104870001F93CF93DF9380910905882309F482E188
:10488000782E7A9460900B05761409F4F2C089E2D0
:10489000789E4001112486E292E0880E991EF40170
:1048A000A588B688C788D08C21A132A143A154A184
:1048B000CA01B9010E94B439F40125A136A147A16A
:1048C00050A50E94CB3C7B018C01B501C601A8011B
:1048D00097010E948D3A87FD04C0D801C701570196
:1048E0006D01C501D601F401818B928BA38BB48B32
:1048F000772011F432E1732E7A94761409F04EC0C9
:1049000080910805681609F050C00E9498164DC0A5
:10491000769CE0011124CA5DDD4F772011F422E17D
:10492000722E7A9480910805781611F40E949816D8
:10493000AD88BE88CF88D88C69897A898B899C8913
:10494000A60195010E948D3A882331F129A13AA14F
:104950004BA15CA1CA01B9010E94B4392DA13EA1AD
:104960004FA158A50E94CB3CF4012189328943898B
:1049700054890E94B4397B018C01A60195010E94E3
:104980008D3A88232CF4E98AFA8A0B8B1C8B04C09D
:10499000A98ABA8ACB8ADC8A4E0102C099E2692EC2
:1049A00080910B05781609F0B3CFA0900B05BA2CB7
:1049B000B394F2E1BF1609F4BB2489E2A89E8001FA
:1049C00011240A5D1D4F5090090589E2482E4CC004
:1049D000B49CE0011124CA5DDD4FF801C188D28882
:1049E000E388F48869887A888B889C88C701B60137
:1049F000A40193010E948D3A88231CF5F80121A19E
:104A000032A143A154A1CA01B9010E94B439F801ED
:104A100025A136A147A150A50E94CB3C9B01AC012A
:104A2000C701B6010E94B4397B018C01A401930136
:104A30000E948D3A88232CF4E98AFA8A0B8B1C8B0E
:104A4000AB2C69897A898B899C892D893E894F890C
:104A5000588D0E948D3A882309F4AB2CB394F2E16F
:104A6000BF1609F4BB248E01B51409F0B1CFA09292
:104A70000B05DF91CF911F910F91FF90EF90DF9089
:104A8000CF90BF90AF909F908F907F906F905F90EE
:104A90004F9008950E9498168091080580930B0509
:104AA0000E942B240895209108052F5F223109F4DC
:104AB00020E080910905281729F460E070E080E08B
:104AC00090E012C030E089E290E0289FF001299F39
:104AD000F00D389FF00D1124EA5DFD4F6189728958
:104AE000838994890E94583D08952F923F924F9256
:104AF0005F926F927F928F929F92AF92BF92CF926E
:104B0000DF92EF92FF920F931F93DF93CF93CDB776
:104B1000DEB7E6970FB6F894DEBF0FBECDBF9DA7F8
:104B20008CA74EA75FA768AB79AB2AAB909109051C
:104B300089E2989F4001112426E232E0820E931E02
:104B4000D4011D961D921D921D921C92509780E0DB
:104B500090E0A0E0B0E0F40185A396A3A7A3B0A7DE
:104B6000108289E996E7A6E9BEE781A392A3A3A3F1
:104B7000B4A327EA36E03C8F2B8F1E010894211C3A
:104B8000311C4CE0442E45E0542E9A8E898E1BA693
:104B900066247724ECA5FDA5E60DF71D60817181E3
:104BA00082819381AB8DBC8D2D913D914D915C9116
:104BB0000E94CB3C0E949B3C9B01AC01F1012083F5
:104BC000318342835383F20180819181A281B38139
:104BD000281B390B4A0B5B0B57FF07C050954095BC
:104BE000309521953F4F4F4F5F4FA98DBA8D11964C
:104BF0002D933D934D935C931497F4018585968591
:104C0000A785B089281739074A075B0710F49C016C
:104C1000AD01D4011D962D933D934D935C93509718
:104C2000F1016081718182819381D2012D913D9149
:104C30004D915C91621B730B840B950B0E942F3B73
:104C4000EB8DFC8D20813181428153810E94943A09
:104C50005B016C01EDE0F0E0EC0FFD1FE60DF71DD0
:104C6000608371838283938320E030E040E050E0F2
:104C70000E948D3A882344F4D4011C918BA50E9494
:104C8000A520182BF4011083D4019596ED90FD908A
:104C90000D911C919897C601B501A60195010E943E
:104CA000CB3C9B01AC01C801B7010E94B4397B0128
:104CB0008C01CB01D801F40185A396A3A7A3B0A7CB
:104CC000FBA5FF5FFBA724E030E0620E731E8B8D17
:104CD0009C8D04969C8F8B8F220E331E420E531E8A
:104CE000A98DBA8D1496BA8FA98FF33009F052CFDF
:104CF000B701C8010E94583D7B018C01F40165A3F6
:104D000076A387A390A785859685A785B089009708
:104D1000A105B10509F40CC26EA57FA588A999A9C2
:104D200020E030E040E050E00E948D3A88232CF4EF
:104D300089E996E7A6E9BEE71FC09AA9992361F021
:104D40006EA57FA588A999A9A80197010E94CB3CCF
:104D50006EA77FA788AB99AB6EA57FA588A999A9F7
:104D600020E030E040E85FE30E948D3A882344F47D
:104D700080E090E0A0E8BFE38EA79FA7A8ABB9AB07
:104D800060E070E080E89FE3A80197010E94943AF8
:104D90006FA378A789A79AA7DE011D96BAA3A9A336
:104DA000E8E1F5E0F8A3EF8F23EB36E03E8F2D8F9F
:104DB00080E090E0A0E0B0E08BA39CA3ADA3BEA3F5
:104DC000DE015996BEABADABE9A1FAA1E080F1805E
:104DD00002811381C801B70120E030E040E050E0DB
:104DE0000E948D3A882309F47CC0C801B7012FA125
:104DF00038A549A55AA50E94CB3C2B013C01A9A18D
:104E0000BAA16D937D938D939C93139760E070E0AE
:104E100080E89FE3A30192010E94943A5B016C0138
:104E2000E894D7F8C601B501ED8DFE8D2081318162
:104E3000428153810E94CB3C7B018C016EA57FA5F2
:104E400088A999A9A80197010E948D3A87FD04C0FD
:104E5000EEA6FFA608AB19ABD4019196BC91BBABF3
:104E6000F401F2A1FCABD40193962C909397949605
:104E70003C90C601B501ED8DFE8D248535854685B6
:104E800057850E94CB3C7B018C016BA97CA9C10199
:104E9000A80197010E948D3A87FD05C0D801C7017E
:104EA000EBAA9CAB1D018BA99CA9D101F40181A3A4
:104EB00092A3A3A3B4A3C301B201AF8DB8A12D9156
:104EC0003D914D915C910E94CB3C9B01AC016BA14B
:104ED0007CA18DA19EA10E94B3396BA37CA38DA35D
:104EE0009EA3E9A1FAA13496FAA3E9A32F8D38A1D4
:104EF0002C5F3F4F38A32F8F8D8D9E8D04969E8FF4
:104F00008D8FADA9BEA9EA17FB0709F05DCF90917F
:104F1000090580910805981751F480E090E0A0E021
:104F2000B0E0F401818B928BA38BB48B11C06BA189
:104F30007CA18DA19EA124EA30E74DE75FE30E94AA
:104F4000903C181654F480E090E0A0E0B0E0F4014A
:104F5000818F928FA38FB48F66C06BA17CA18DA12E
:104F60009EA124EA30E74DE75FEB0E94903C1816C3
:104F700044F084EA90E7ADE7BFEB8BA39CA3ADA31D
:104F8000BEA360E070E080E89FE32BA13CA14DA1AF
:104F90005EA10E94B33920E030E040E05FE30E9470
:104FA000CB3C0E94583D5B016C01D40191966D9100
:104FB0007D918D919C9194972091DC063091DD0636
:104FC0004091DE065091DF060E94CB3CA601950180
:104FD0000E94CB3C7B018C0160E070E080E89FE3A5
:104FE000A60195010E94B3399B01AC01C801B7012C
:104FF0000E94943A7B018C0120E030E040E050E0D8
:105000000E948D3A882354F40F2EF0E0EF2EF0E04A
:10501000FF2EF0E00F2FF0E01F2FF02DF401E18EB6
:10502000F28E038F148F6EA57FA588A999A99B0185
:10503000AC010E94CB3C7B018C01D4015D966D9349
:105040007D938D939C93909759965C9059975A961F
:105050004C905A975B963C905B975C962C90D090C6
:105060002405C0902505B0902605A09027052D2D7C
:105070003C2D4B2D5A2D0E948D3A87FD04C06D2C7E
:105080007C2CF50105C0D801C7013701FA2FEB2FA1
:10509000652D742D832D922D93014F2F5E2F0E942D
:1050A0008D3A88232CF4852D942DA32DB22D0EC07E
:1050B000C801B7012D2D3C2D4B2D5A2D0E948D3A44
:1050C00087FD06C08D2D9C2DAB2DBA2D7C018D0149
:1050D000F401E58AF68A078B108FA8E1B5E0FE019E
:1050E0003D968CE001900D928150E1F7F401858DA1
:1050F000968DA78DB0A18093240590932505A0934C
:105100002605B0932705ACE0B5E0FE0131968CE0B2
:1051100001900D928150E1F780910A058093090575
:105120008F5F823109F480E080930A050E942B246E
:10513000E6960FB6F894DEBF0FBECDBFCF91DF91DC
:105140001F910F91FF90EF90DF90CF90BF90AF90A5
:105150009F908F907F906F905F904F903F902F9097
:1051600008958CE1ECE0F5E0DF011D928A95E9F706
:10517000109208051092090581E080930A051092AB
:105180000B0508956F927F928F929F92AF92BF927C
:10519000CF92DF92EF92FF920F931F93CF93DF9303
:1051A0004C013B015A01FB018081F401E80FF11D24
:1051B000EF0189918D3229F481812196CC24C39409
:1051C00005C08B3211F481812196CC2420E030E09F
:1051D00040E050E0DD24E0E070E0682F60536A308A
:1051E000F8F4EF5FE930C0F47111DA94DA01C90123
:1051F000F2E0880F991FAA1FBB1FFA95D1F7280F5D
:10520000391F4A1F5B1F220F331F441F551F260FD4
:10521000311D411D511D09C0772339F4D39405C0B8
:105220006E3F29F4772319F471E08991D6CFEE23EC
:1052300011F480E050C0CA01B9010E942D3B7B01EE
:105240008C0120E030E040E050E00E948D3A88235D
:1052500069F42BC0C801B7012AE037ED43E25CE3F3
:105260000E94CB3C7B018C01F2E0DF0E8FEFD81661
:105270008CF3D81659F4C801B7012DEC3CEC4CEC7A
:105280005DE30E94CB3C7B018C010FC0DD2069F007
:10529000C801B70120E030E040E251E40E94CB3C7D
:1052A0007B018C01DA941D149CF3CC2049F0D801C9
:1052B000C701B058F50180839183A283B38305C0F1
:1052C000F501E082F18202831383882D80958C0F93
:1052D000F301808381E0DF91CF911F910F91FF90C7
:1052E000EF90DF90CF90BF90AF909F908F907F9086
:1052F0006F90089520EA3FE004C0F9013197F1F77B
:1053000001970097D1F708951F93A0EABFE040E905
:1053100051E015E335E031C06A3071058105910532
:1053200040F4232F2A95F1F761507040804090405F
:1053300024C0643671058105910540F4212F2A951A
:10534000F1F76A5070408040904017C0683E23E0FB
:10535000720720E0820720E0920740F4FA013197BB
:10536000F1F7645670408040904007C0FD013197CE
:10537000F1F7685E734080409040611571058105CA
:10538000910551F61F910895AF92BF92CF92DF928F
:10539000EF92FF920F931F937B018C0159016A01D9
:1053A000A80197010E94CB3C7B018C01C601B5018D
:1053B000A60195010E94CB3C9B01AC01C801B7013D
:1053C0000E94B4390E94583D1F910F91FF90EF90B9
:1053D000DF90CF90BF90AF90089584B1817F84B962
:1053E00085B18E6085B98091E40683FF09C0809104
:1053F0006C008E6080936C0080916800826008C0B1
:1054000080916C00817F80936C00809168008D7F1B
:10541000809368000895ECE6F0E08081817F8083CE
:10542000E8E6F0E080818D7F808308958F929F92DF
:10543000AF92BF92CF92DF92EF92FF920F931F93A2
:10544000CF93DF932091E506822E99242BECC22E78
:1054500026E0D22E5C01C0E0D0E0C4010C2E02C0D8
:10546000959587950A94E2F7F501E080F180028135
:10547000138180FF17C0C801B70120E030E040E091
:1054800050E00E948D3A87FD22C0F60120813181D3
:10549000428153815058C801B7010E94903C1816B0
:1054A000B4F038C0C801B70120E030E040E050E07F
:1054B0000E94903C18165CF0C801B701F6012081EB
:1054C0003181428153810E948D3A88231CF580915D
:1054D0004D05883091F49FB7F89480914F0588600E
:1054E00080934F059FBF0E94421480914C058823F2
:1054F000E1F480914D058823B1F70E9455049FB7D0
:10550000F894809150058560809350059FBF0E945C
:1055100042140BC0219684E090E0C80ED91EA80E5C
:10552000B91EC330D10509F098CFDF91CF911F91FB
:105530000F91FF90EF90DF90CF90BF90AF909F9032
:105540008F9008951F920F920FB60F9211242F93F0
:105550003F934F935F936F937F938F939F93AF93FB
:10556000BF93EF93FF9380914D05813071F080914F
:105570005005882351F40E9455049FB7F8948091F8
:1055800050058360809350059FBFFF91EF91BF91BD
:10559000AF919F918F917F916F915F914F913F91CB
:1055A0002F910F900FBE0F901F901895EF92FF92C2
:1055B0000F931F93CF93DF9313B11E708091E40676
:1055C00086FD02C08EE01827112311F400E017C0F9
:1055D00000E0C0E0D0E031E0E32EF12C8C2F0E94FF
:1055E000AF20812341F0C7010C2E02C0880F991F04
:1055F0000A94E2F7082B2196C330D10579F7802F62
:10560000DF91CF911F910F91FF90EF9008952F920E
:105610003F924F925F926F927F928F929F92AF9242
:10562000BF92CF92DF92EF92FF920F931F93DF937F
:10563000CF93CDB7DEB765970FB6F894DEBF0FBE38
:10564000CDBF8B8B80914C05882309F075C15BEC35
:10565000A52E56E0B52E6624772488249924CC24E0
:10566000DD242E010894411C511C3B89232F30E07E
:105670003D8B2C8B8C2D0E949B20F201EC0DFD1D8F
:1056800080838C899D890C2C02C0959587950A94FE
:10569000E2F780FF15C0F5016081718182819381FD
:1056A00020E030E040EC5FEB0E94CB3C7B018C01C2
:1056B000B301C401A80197010E94903C181624F47C
:1056C000C301D4017C018D010894C11CD11C24E0CC
:1056D00030E0A20EB31E33E0C316D10429F0D80186
:1056E000C70137014D01C6CFA090EA06B090EB0686
:1056F000C090EC06D090ED064424439463E0688BA0
:10570000CE01049661E575E00E9498378091E50628
:10571000E82FF0E0FA8BE98BDE01149641E5242EA8
:1057200045E0342EB101552450E020E030E037014F
:10573000480197FA909497F890948C899D89022E4D
:1057400002C0959587950A94E2F780FF28C0FB0177
:10575000108211821282138289899A89022E02C0D4
:10576000959587950A94E2F780FF03C0442019F0CD
:1057700008C0442031F0ED92FD920D931C931397D5
:1057800005C06D927D928D929C9213975F5FE1E0D0
:10579000F0E0EC0FFD1FE20FF31F8081582A2F5F0E
:1057A0003F4F14966C5F7F4F2330310531F6652FE4
:1057B00070E080E090E00E942D3B0E94583D7B010C
:1057C0008C0150925D050E94EF23C601B501A8012E
:1057D00097010E94CB3CAB01BC01CE01049620E0B6
:1057E0000E9475250E94BA160E941616442011F1D7
:1057F0000E94D62A20E030E0482F50E0E1E0F0E0BF
:10580000EC0FFD1FE20FF31FE081852D8E2359F071
:10581000BA01022E02C0759567950A94E2F760FFFF
:1058200002C0E0955E222F5F3F4F2330310531F7F4
:1058300050925D050E94BA1680914F058473D1F095
:1058400080914F05807341F4442009F070C00E949C
:10585000D62A7B89872329F00E9455040E9442148E
:105860006BC09FB7F89480914F058B7F80934F0555
:105870009FBF04C0852D847509F0B8CF0E94871D95
:105880000E94B1288091EE069091EF060E947A293D
:1058900081E04826C9F06091F0067091F106809190
:1058A000F2069091F30620E030E040EA50E40E94D6
:1058B000CB3C7B018C01A090E606B090E706C0903F
:1058C000E806D090E90610C0E090F006F090F106EE
:1058D0000091F2061091F306A090EA06B090EB0654
:1058E000C090EC06D090ED069889992319F091505C
:1058F000988B06CF20E030E08C899D89022E02C073
:10590000959587950A94E2F780FF05C0F101108212
:105910001182128213822F5F3F4F64E070E0260EE7
:10592000371E2330310541F70E94EF2305C08091D7
:105930004F0582FF96CF90CF65960FB6F894DEBFE5
:105940000FBECDBFCF91DF911F910F91FF90EF90D0
:10595000DF90CF90BF90AF909F908F907F906F908F
:105960005F904F903F902F9008958F929F92AF92AB
:10597000BF92CF92DF92EF92FF920F931F93DF932C
:10598000CF93CDB7DEB72A970FB6F894DEBF0FBE20
:10599000CDBF7B018C01A42E20E030E040E050E040
:1059A0000E948D3A88233CF48DE20E94761317FB07
:1059B000109517F91095DA2C0CC0C801B70120E03A
:1059C00030E048EC52E40E94CB3C7B018C018EEF2E
:1059D000D80EE1E0ED1588F3A0FE0AC0C801B701BA
:1059E00020E030E040E251E40E94CB3C7B018C019E
:1059F000C801B70120E030E040E05FE30E94B43925
:105A00000E94FC3A6B017C019E012F5F3F4FF90120
:105A1000EA0DF11D8EE28083BB2449011EC0BA1439
:105A200009F4B39484010B0D111DC701B6012AE0DE
:105A300030E040E050E00E94E33D605DF8016083AB
:105A4000B394C701B6012AE030E040E050E00E9484
:105A5000E33DC901DA016C017D01C114D104E10407
:105A6000F104E9F606C0FC01EB0DF11D2083B394AF
:105A700003C0CE01019620E3BA14A8F3BA1489F446
:105A80008B2D8F5FFE01E80FF11D90E39183B82EFF
:105A9000B39407C0FE01EB0DF11D80810E947613C7
:105AA000BA94BB20B9F72A960FB6F894DEBF0FBEA2
:105AB000CDBFCF91DF911F910F91FF90EF90DF90BD
:105AC000CF90BF90AF909F908F90089543E00E9439
:105AD000B52C08959B01AC018091E40680FF0AC0BB
