:100000000C94D2030C94EF030C94EF030C94EF03C5
:100010000C94EF030C9488290C944C130C94EF036C
:100020000C94EF030C94EF030C94EF030C94DE1587
:100030000C94EF030C9403170C94EF030C94EF0350
:100040000C94EF030C94EF030C94EF030C94EF0368
:100050000C94FA120C94B9120C94EF030C94EF0365
:100060000C94EF030C94EF030C94EF030C94EF0348
:100070000C94EF030C94EF030C94EF03891B891B82
:10008000891BA01BB51BBE1BC71BD01BD91BF01B9C
:10009000FC1B051C0E1C171C291C3D1C4F1C651C41
:1000A000771C801C891C921C9D1CA61CAF1CB81CB4
:1000B000084AD73B3BCE016E84BCBFFDC12F3D6CCF
:1000C00074319ABD56833DDA3D00C77F11BED9E435
:1000D000BB4C3E916BAAAABE000000803F05A84C15
:1000E000CDB2D44EB93836A9020C50B991868808E1
:1000F0003CA6AAAA2ABE000000803F0D0A002C00E0
:1001000057506F732C002C002C4D506F732C004AED
:100110006F6700436865636B00416C61726D0048F6
:100120006F6D6500486F6C640052756E00517565A7
:1001300075650049646C65000D0A003D00244E00A1
:100140005D0D0A00204600205400204D3800204D4F
:100150003900204D3500204D3400204D3300204D16
:100160003200204D3100204D30002047393400202E
:1001700047393300204739310020473930002047C4
:1001800032310020473230002047313900204731DA
:10019000380020473137002047005B473830005B8C
:1001A0004733005B4732005B4731005B4730005DFF
:1001B0000D0A002C005B4739323A005D0D0A002C15
:1001C0000033303A0032383A0035393A0035383A9F
:1001D0000035373A0035363A0035353A0035343A8D
:1001E000005B470020285A207363616C696E6720AA
:1001F000746F207265647563652066656564290D9A
:100200000A0020285A207A65726F20676175676539
:100210002C206D6D290D0A2432353D0020285A20EE
:100220007A65726F2070756C6C2D6F66662C206D10
:100230006D290D0A2432343D002028686F6D696EE7
:10024000672070756C6C2D6F66662C206D6D290DA6
:100250000A2432333D002028686F6D696E67206480
:1002600065626F756E63652C206D736563290D0A79
:100270002432323D002028686F6D696E67207365F7
:10028000656B2C206D6D2F6D696E290D0A2432313E
:100290003D002028686F6D696E6720666565642C77
:1002A000206D6D2F6D696E290D0A2432303D0029B5
:1002B0000D0A2431393D002028686F6D696E672072
:1002C00064697220696E76657274206D61736B2C3F
:1002D00020696E742025002028686F6D696E672084
:1002E0006379636C652C20626F6F6C290D0A243171
:1002F000383D00202868617264206C696D697473F0
:100300002C20626F6F6C290D0A2431373D002028A4
:10031000696E76657274207374657020656E6162B3
:100320006C652C20626F6F6C290D0A2431363D00FC
:1003300020286175746F2073746172742C20626F51
:100340006F6C290D0A2431353D0020287265706FCD
:10035000727420696E636865732C20626F6F6C29FC
:100360000D0A2431343D0020286E2D646563696DCB
:10037000616C732C20696E74290D0A2431333D00A1
:1003800020286E2D61726320636F727265637469D9
:100390006F6E2C20696E74290D0A2431323D0020C5
:1003A000286172632C206D6D2F7365676D656E74A7
:1003B000290D0A2431313D0020286A756E63746965
:1003C0006F6E20646576696174696F6E2C206D6D47
:1003D000290D0A2431303D002028616363656C6576
:1003E000726174696F6E2C206D6D2F7365635E3260
:1003F000290D0A24393D0020287374657020696432
:100400006C652064656C61792C206D736563290DC2
:100410000A24383D00290D0A24373D0020286C6944
:100420006D697420706F727420696E7665727420C5
:100430006D61736B2C2062696E2025002028646535
:100440006661756C74207365656B2C206D6D2F6D06
:10045000696E290D0A24363D0020286465666175A1
:100460006C7420666565642C206D6D2F6D696E2936
:100470000D0A24353D002028737465702070756C5A
:1004800073652C2075736563290D0A24343D0020A3
:10049000287A2C20737465702F6D6D290D0A243312
:1004A0003D002028792C20737465702F6D6D290D07
:1004B0000A24323D002028782C20737465702F6D3B
:1004C0006D290D0A24313D0024303D0024242028CC
:1004D00076696577204772626C2073657474696E03
:1004E0006773290D0A242320287669657720232045
:1004F000706172616D6574657273290D0A244720FD
:1005000028766965772070617273657220737461F3
:100510007465290D0A244E20287669657720737446
:10052000617274757020626C6F636B73290D0A249D
:10053000783D76616C756520287361766520477219
:10054000626C2073657474696E67290D0A244E7895
:100550003D6C696E652028736176652073746172E5
:1005600074757020626C6F636B290D0A2443202818
:10057000636865636B2067636F6465206D6F646596
:10058000290D0A245820286B696C6C20616C6172FB
:100590006D206C6F636B290D0A2448202872756EDC
:1005A00020686F6D696E67206379636C65290D0A39
:1005B0007E20286379636C65207374617274290DE1
:1005C0000A2120286665656420686F6C64290D0A1D
:1005D0003F202863757272656E7420737461747540
:1005E00073290D0A6374726C2D7820287265736507
:1005F00074204772626C290D0A000D0A4772626C02
:1006000020302E38632F6A6F672E32205B27242715
:1006100020666F722068656C705D0D0A005D0D0AC2
:100620000044697361626C656400456E61626C656B
:10063000640043617574696F6E3A20556E6C6F6328
:100640006B656400272448277C2724582720746F73
:1006500020756E6C6F636B00526573657420746FE8
:1006600020636F6E74696E7565005B002E204D50BF
:100670006F733F0D0A0041626F7274206475726976
:100680006E67206379636C650048617264206C69F1
:100690006D697400414C41524D3A20000D0A004CE6
:1006A000696E65206F766572666C6F7700416C616C
:1006B000726D206C6F636B0042757379206F7220CE
:1006C00071756575656400454550524F4D207265E2
:1006D0006164206661696C2E205573696E672064C1
:1006E000656661756C74730056616C7565203C209D
:1006F0003320757365630056616C7565203C20304E
:100700002E300053657474696E672064697361628A
:100710006C656400496E76616C6964207374617401
:10072000656D656E74004D6F64616C2067726F75E6
:10073000702076696F6C6174696F6E00496E7661C6
:100740006C69642072616469757300556E737570AD
:10075000706F727465642073746174656D656E7416
:1007600000457870656374656420636F6D6D616EBC
:1007700064206C657474657200426164206E756DEE
:1007800062657220666F726D6174006572726F725D
:100790003A20006F6B0D0A004A6F67460D0A004A47
:1007A0006F67000011241FBECFEFD0E1DEBFCDBFC9
:1007B00011E0A0E0B1E0EEEDF1E702C005900D928E
:1007C000A030B107D9F71BE0A0E0B1E001C01D9255
:1007D000A530B107E1F70E94F1030C94ED380C94B9
:1007E00000001F930E9489120E94E81D0E94D816E3
:1007F000789480E1EDEFF8E0DF011D928A95E9F74A
:1008000081E08093FD088093FE0811E08091FD084F
:10081000882361F10E94F5120E94C1250E941C12DA
:100820000E94A4150E944A120E9471120E9417276A
:100830000E9482300E94AA160E94D8160E94DA26D0
:100840001092FD081092FF088091E60A81FF02C015
:1008500010930C098091FE08863021F482E00E94FA
:100860002F2B04C01092FE080E94E9130E94AC30A6
:100870000E9488130E945315C9CF8091FF0884FD00
:1008800015C08091FF0880618093FF080E9451127B
:100890000E9476128091FE088350833038F4809154
:1008A000FF0880628093FF080E94BE160895EF92B1
:1008B000FF920F931F93CF93DF9320E030E04AE73E
:1008C00054E40E94BF377B018C010E94C7350E940F
:1008D0005E35EB010E94A425BE0180E090E00E94FD
:1008E0008A359B01AC01C801B7010E9410340E94F7
:1008F000C7350E945E35DC01CB010E94902600EADC
:100900001FE00AC00E94881321978091FD08882368
:1009100029F4C8010197F1F72097A1F7DF91CF9152
:100920001F910F91FF90EF9008954F925F926F92F9
:100930007F928F92AF92BF92CF92DF92EF92FF920F
:100940000F931F93DF93CF9300D000D0CDB7DEB7C6
:100950002B013C0129833A834B835C838091FE0801
:100960008730F9F00E9488138091FD088823C9F42C
:100970000E946E1E8823B1F7C301B20129813A811A
:100980004B815C810E94FF218091FE08882319F42D
:1009900082E08093FE0880910C09882311F00E9468
:1009A00055160F900F900F900F90CF91DF911F91E0
:1009B0000F91FF90EF90DF90CF90BF90AF908F900E
:1009C0007F906F905F904F9008952F923F924F923B
:1009D0005F926F927F928F929F92AF92BF92CF92CF
:1009E000DF92EF92FF920F931F9385E08093FE08B2
:1009F00080916C00817F80936C000E9447290E9447
:100A000088138091FD08882309F087C08CE0E0E01E
:100A1000F9E0DF011D928A95E9F70E94DA2610922B
:100A2000FE082091E70A27FD02C06FEF01C061E0D8
:100A300025FD03C0DD24DA9402C0DD24D39423FD18
:100A400003C0CC24CA9402C0CC24C394E090F20A20
:100A5000F090F30A0091F40A1091F50A772767FDE8
:100A60007095872F972F0E948C35A80197010E94BF
:100A7000BF371B012C016D2D772767FD7095872FE0
:100A8000972F0E948C35A80197010E94BF373B0128
:100A90004C016C2D772767FD7095872F972F0E944B
:100AA0008C35A80197010E94BF377B018C01A09073
:100AB000EC0AB090ED0AC090EE0AD090EF0AC201A5
:100AC000B101A401930188240E9495040E94551647
:100AD0000E94A425109200091092010910920209A7
:100AE0001092030910920409109205091092060948
:100AF00010920709109208091092090910920A0928
:100B000010920B090E94DA268091E60A83FF05C045
:100B100080916C008E6080936C001F910F91FF900C
:100B2000EF90DF90CF90BF90AF909F908F907F908D
:100B30006F905F904F903F902F9008952F923F922B
:100B40004F925F926F927F928F929F92AF92BF92DD
:100B5000CF92DF92EF92FF920F931F93DF93CF9389
:100B6000CDB7DEB7CE54D0400FB6F894DEBF0FBE7F
:100B7000CDBF3C017EAF6DAF21965FAF4EAF2197E9
:100B800022962FAF229723960FAF23972496EFAE8E
:100B900024972896ACAEBDAECEAEDFAE2897299690
:100BA0008FAE2997E22EFF24EE0CFF1CEE0CFF1CEB
:100BB0004E0D5F1D5CAF4BAFDA012D903D904D9017
:100BC0005C90FC01EE0DFF1DC201B101208131815D
:100BD000428153810E94113469AB7AAB8BAB9CABE1
:100BE00010E0000F111F000F111F2196EEADFFAD99
:100BF0002197E00FF11FFAAFE9AFA080B180C2806A
:100C0000D380F301E00FF11FC601B50120813181CE
:100C1000428153810E9411346DA77EA78FA798ABA4
:100C200024962FAD2497E22FF0E0EE0FFF1FEE0F7A
:100C3000FF1F6E0E7F1ED3018D919D910D90BC9173
:100C4000A02D8DAB9EABAFABB8AF2DAD3EADE20FDF
:100C5000F31F60817181828193812DA93EA94FA9E3
:100C600058AD0E94103469A77AA78BA79CA7D20120
:100C7000C101B0588DA39EA3AFA3B8A7A60195014B
:100C8000505829A33AA34BA35CA34DAD5EADE40E2F
:100C9000F51ED7016D917D918D919C9129A93AA95D
:100CA0004BA95CA90E9410343B014C01EDADFEAD97
:100CB0000E0F1F1FD8016D917D918D919C912DA5D7
:100CC0003EA54FA558A90E9410345B016C016DA18F
:100CD0007EA18FA198A5A60195010E94BF377B0137
:100CE0008C0169A17AA18BA19CA1A40193010E940E
:100CF000BF379B01AC01C801B7010E9410341B0132
:100D00002C016DA17EA18FA198A5A40193010E9441
:100D1000BF377B018C0169A17AA18BA19CA1A6019F
:100D200095010E94BF379B01AC01C801B7010E9429
:100D300011349B01AC01C201B1010E9484345B01FA
:100D40006C01A8968FADA897882399F0C601B501CC
:100D500020E030E040E050E00E94ED368823ECF0E7
:100D6000C601B5012BED3FE049EC50E40E94103480
:100D700012C0C601B50120E030E040E050E00E9422
:100D8000EA34181654F0C601B5012BED3FE049ECEA
:100D900050E40E9411345B016C01C601B501A796B5
:100DA0002CAD3DAD4EAD5FADA7970E94BF3729A5D5
:100DB0003AA54BA55CA50E94FA367B018C0120E088
:100DC00030E040E050E00E94EA34882309F4D5C1C5
:100DD000C801B7012091DA0A3091DB0A4091DC0AA0
:100DE0005091DD0A0E94F1340E94C7350E945E35A1
:100DF00078A36F8F2996BFAD2997BB23A1F080E020
:100E000090E00E948A359B01AC0128966CAD7DADC7
:100E10008EAD9FAD28970E94BF3728966CAF7DAFEF
:100E20008EAF9FAF28972F8D38A1B90180E090E059
:100E30000E948A357B018C01C601B501A80197018A
:100E40000E94F1346B8F7C8F8D8F9E8F69A57AA560
:100E50008BA59CA5A80197010E94F1346F8B788F18
:100E6000898F9A8F6B8D7C8D8D8D9E8D20E030E0EB
:100E700040E05FEB0E94BF372B8D3C8D4D8D5E8D2A
:100E80000E94BF3720E030E040E85FE30E94113469
:100E90006B8B7C8B8D8B9E8B24963FAD2497E32FA1
:100EA000F0E0EE0FFF1FEE0FFF1FCE010196E80FDF
:100EB000F91F2DA93EA94FA958AD20833183428344
:100EC000538341E050E05E874D8766242296BFAD94
:100ED0002297AB2FB0E0AA0FBB1FAA0FBB1FA80F12
:100EE000B91F2B96BFAFAEAF2B9723963FAD23977D
:100EF000232F30E0220F331F220F331F280F391FFB
:100F00002D963FAF2EAF2D972F96FFAFEEAF2F97B9
:100F10000EC1262D332727FD30958091040B90E0DC
:100F2000281739070CF046C06DA17EA18FA198A5A6
:100F30002B8D3C8D4D8D5E8D0E94BF377B018C01CA
:100F400069A17AA18BA19CA12B893C894D895E89DD
:100F50000E94BF379B01AC01C801B7010E94113448
:100F60007B018C016DA17EA18FA198A52B893C8965
:100F70004D895E890E94BF375B016C0169A17AA12E
:100F80008BA19CA12B8D3C8D4D8D5E8D0E94BF371A
:100F90009B01AC01C601B5010E9410346DA37EA374
:100FA0008FA398A76394C701D80189A39AA3ABA381
:100FB000BCA361C04D855E85BA0180E090E00E94CF
:100FC0008A352B8D3C8D4D8D5E8D0E94BF377B0108
:100FD0008C01C8010E94EE346F87788B898B9A8BC5
:100FE000B701C8010E9442383B014C01ABADBCAD1A
:100FF000ED90FD900D911C9117FB109517F9109530
:10100000E9ADFAAD2080318042805380C801B7013C
:101010002F85388949895A890E94BF375B016C0145
:10102000C201B101A40193010E94BF379B01AC0131
:10103000C601B5010E9411346DA37EA38FA398A7AA
:10104000C801B701A40193010E94BF377B018C0145
:10105000C201B1012F85388949895A890E94BF3759
:101060009B01AC01C801B7010E94103469A37AA3A7
:101070008BA39CA3662469A97AA98BA99CA92DA1FD
:101080003EA14FA158A50E9411342B96AEADBFAD25
:101090002B976D937D938D939C9313976DA57EA550
:1010A0008FA598A929A13AA14BA15CA10E94113456
:1010B0002D96EEADFFAD2D97608371838283938370
:1010C0002F96AEADBFAD2F976D917D918D919C9177
:1010D0002F89388D498D5A8D0E9411342F96EEAD8F
:1010E000FFAD2F97608371838283938369817A81B7
:1010F0008B819C812D813E814F815885E984FA84C2
:101100000B851C852896ACACBDACCEACDFAC28976B
:1011100029968FAC29970E9495048091FD08882319
:1011200061F52D853E852F5F3F4F3E872D874D858D
:101130005E858F8D98A14817590708F4EACEADADAA
:10114000BEAD6D917D918D919C91139714962D91CB
:101150003D914D915C9117971896ED90FD900D91F2
:101160001C911B972896ACACBDACCEACDFAC2897DD
:1011700029968FAC29970E949504C25BDF4F0FB66A
:10118000F894DEBF0FBECDBFCF91DF911F910F91BD
:10119000FF90EF90DF90CF90BF90AF909F908F9097
:1011A0007F906F905F904F903F902F900895AF92F7
:1011B000BF92CF92DF92EF92FF920F931F9359014C
:1011C0006A010E948C352091C30A3091C40A409173
:1011D000C50A5091C60A0E94F13460931A097093AF
:1011E0001B0980931C0990931D09C601B5010E943B
:1011F0008C352091C70A3091C80A4091C90A509194
:10120000CA0A0E94F13460931E0970931F098093EB
:10121000200990932109C801B7010E948C352091C3
:10122000CB0A3091CC0A4091CD0A5091CE0A0E944F
:10123000F1346093220970932309809324099093D9
:1012400025091F910F91FF90EF90DF90CF90BF90F5
:10125000AF9008950F931F93CF93DF93EC018B0111
:10126000D9018C91FA01E80FF11DE081EE23B1F074
:10127000E883E154EA3110F082E00EC08C918F5F78
:101280008C93CA01B901A8010E94D525892B19F0B8
:1012900021E030E005C081E080930E0920E030E0DD
:1012A000C901DF91CF911F910F9108952F923F9225
:1012B0004F925F926F927F928F929F92AF92BF9266
:1012C000CF92DF92EF92FF920F931F93DF93CF9312
:1012D000CDB7DEB7C754D0400FB6F894DEBF0FBE0F
:1012E000CDBF4C018091FE08863019F48CE00C943F
:1012F000021219828CE0FE013796DF01482F1D9201
:101300004A95E9F7FE017396DF011D928A95E9F788
:1013100010920E0924961FAE1EAE249722961FAE81
:10132000229721961FAE219712E0612E712C6C0E30
:101330007D1EB3E04B2E512C4C0E5D1E1E010894F9
:10134000211C311CA3E0AA2ECC24C394F2E0BF2EB2
:10135000D6C1EB80FC800D811E81C801B7010E94BF
:101360008D380E9459359B014A81473421F04D3414
:1013700009F0C5C153C16E317105C9F16F317105F5
:10138000D4F46431710584F461317105B4F56430CD
:10139000710569F1653071051CF477235CF525C092
:1013A0006A30710511F523C0663171057CF16C312D
:1013B0007105D9F41CC06C3571058CF46A35710562
:1013C000FCF46C3371053CF46633710514F5653338
:1013D000710559F40CC06035710539F40BC06C35DA
:1013E000710529F06F35710574F0DD2414C0DD241A
:1013F000D39411C0E2E0DE2E0EC073E0D72E0BC0F6
:1014000064E0D62E08C056E0D52E05C047E0D42EA5
:1014100002C099E0D92E2531310509F494C0263156
:101420003105A4F52430310509F467C025303105B4
:10143000A4F42130310509F465C02230310524F4CB
:10144000232B09F45CC03AC12230310509F45DC098
:101450002330310509F032C15BC02231310509F476
:1014600061C0233131054CF42A30310509F443C001
:101470002131310509F022C14EC02331310509F473
:1014800058C02431310509F019C15AC02035310541
:1014900009F496C021353105ACF42533310509F442
:1014A00085C0263331054CF42C31310509F44EC08A
:1014B0002E31310509F002C149C02C3331050CF041
:1014C000FDC079C02C35310509F484C02D353105B6
:1014D0004CF42A35310509F477C02B35310509F074
:1014E000EDC075C02D35310509F492C02E3531059A
:1014F00009F0E4C090C0B2E087C0E1E04EC01092B5
:101500000F09DEC0C0920F09DBC0B0920F09D8C02E
:10151000A0920F09D5C010922709C0922809B09255
:101520002909CEC0B092270910922809C092290932
:10153000C7C0C0922709B092280910922909C0C0DB
:10154000C0921109BDC010921109BAC0C801B701FB
:1015500020E030E040E251E40E94BF370E948D3825
:101560000E945935F1E069317F0791F041E06A311D
:1015700074072CF46851714009F0A0C00BC081E0E1
:101580006C32780749F06D52714009F097C009C07C
:10159000A4E035C0B3E038C0E5E02196EFAF219775
:1015A0008FC0F6E02196FFAF21978AC041E02296D6
:1015B0004FAF229785C0822F865380932A0980C01F
:1015C00054E050930F097CC0C092120979C0109268
:1015D000120976C0C801B70120E030E040E251E4D2
:1015E0000E94BF370E948D380E94593583E06839C8
:1015F000780749F06959734009F060C0A8E0219666
:10160000AFAF21975DC0B7E02196BFAF219758C01B
:10161000C092100955C01092100952C06630710571
:1016200034F4633071055CF4772334F403C06E3115
:10163000710511F0DD2405C085E0D82E02C008E058
:10164000D02E2430310569F12530310584F4213064
:101650003105B1F1223031051CF4232BC9F02EC025
:1016600022303105C1F02330310541F517C0283053
:101670003105F1F02930310524F425303105F1F43C
:1016800014C029303105B9F02E313105B9F403C049
:10169000C092130915C0B092130912C0C092140968
:1016A0000FC0EFEFE09314090BC01092140908C0AB
:1016B000C092150905C01092150902C0A0920E092A
:1016C000DD20E9F021E030E002C0220F331FDA9480
:1016D000E2F724968EAD9FAD249782239323892B26
:1016E00021F0F5E0F0930E090AC024964EAD5FADEF
:1016F0002497422B532B24965FAF4EAF2497C30100
:10170000B201A40191010E942A09892B09F021CE7E
:1017100080910E09882309F075C6198277242596D1
:101720001FAE259726961FAE269750E827965FAFE7
:1017300027976FEB28966FAF28970F2EF0E02F2E8C
:10174000F0E03F2EF0E04F2EF0E05F2EF02D2CAEBB
:101750003DAE4EAE5FAE1BAE5E010894A11CB11C47
:1017600013E0C12EB6E0DB2E52C11A811F347CF487
:101770001D340CF04CC11C340CF080C019340CF03A
:101780005AC01634E9F0173409F023C140C11435AA
:1017900009F4AFC0153554F4123509F47EC0133581
:1017A0000CF097C0103509F014C172C0193509F456
:1017B000D2C01A3509F4E8C0183509F00AC1B2C020
:1017C000EB80FC800D811E81C801B70120E030E074
:1017D00040E050E00E94EA34181614F0D0920E094E
:1017E00080911009882381F080911109882309F4E0
:1017F00002C1C801B70123E333E34BEC51E40E947B
:10180000BF377B018C01F7C080911109882351F00B
:10181000C801B70123E333E34BEC51E40E94BF3727
:101820007B018C01E0921609F092170900931809C8
:1018300010931909D0C02B813C814D815E8180912C
:101840001109882351F0CA01B90123E333E34BECBA
:1018500051E40E94BF379B01AC01E12FFF27E7FD58
:10186000F095E954F040EE0FFF1FEE0FFF1FEA0D59
:10187000FB1D228B338B448B558BADC06B817C81E0
:101880008D819E810E948D380E945E356BAFA3C012
:101890002B803C804D805E809EC08B819C81AD8181
:1018A000BE818CAF9DAFAEAFBFAF809111098823D1
:1018B00009F491C06CAD7DAD8EAD9FAD23E333E3F4
:1018C0004BEC51E40E94BF376CAF7DAF8EAF9FAF42
:1018D00082C06B817C818D819E8120E030E040E080
:1018E00050E00E94EA3488230CF075C0D0920E09B3
:1018F00072C0EB80FC800D811E81C801B70120E021
:1019000030E040E050E00E94EA34882314F4D092A2
:101910000E09C801B7010E948D380E945E356093A0
:10192000260959C02B813C814D815E81809111092E
:10193000882351F0CA01B90123E333E34BEC51E4AE
:101940000E94BF379B01AC012F83388749875A8794
:1019500091E0792A40C02B813C814D815E8180914C
:101960001109882351F0CA01B90123E333E34BEC99
:1019700051E40E94BF379B01AC012B873C874D8708
:101980005E87A2E07A2A27C02B813C814D815E814F
:1019900080911109882351F0CA01B90123E333E38F
:1019A0004BEC51E40E94BF379B01AC01CA01B90165
:1019B0002091FE0A3091FF0A4091000B5091010BDB
:1019C0000E94BF376F87788B898B9A8BB4E07B2A14
:1019D00002C0C0920E0925962FAD259726963FADE1
:1019E000269727964FAD279728965FAD2897C90170
:1019F000DA017C018D012596EFAE25972696FFAE84
:101A0000269727960FAF279728961FAF2897CE01C6
:101A10000296BE016D5F7F4FA40195010E942A09C5
:101A2000892B09F0A2CEB72C25962FAD25972696A7
:101A30003FAD269727964FAD279728965FAD2897FD
:101A4000C901DA018FAB98AFA9AFBAAF80910E0987
:101A5000882309F0D7C48091FE08873041F0809137
:101A600014090E945512809115090E94781224963B
:101A7000EEADFFAD2497F1FF13C08E01015E1F4F45
:101A800080912A09B8010E94BD1D882309F4B9C4B8
:101A9000ABE2B9E0F8018CE001900D928150E1F7E2
:101AA0002196FFAD2197F43009F469C1F53048F46F
:101AB000F23079F1F33008F0B6C0F13009F0B7C177
:101AC00010C021964FAD2197463009F458C14630D9
:101AD00008F4A9C0473009F45FC1483009F0A7C134
:101AE0009FC1C201B10120E030E040E050E00E941F
:101AF000EA34882324F486E080930E0998C180910B
:101B0000FE08873009F493C1C201B1010E94570455
:101B10008EC15BAD523011F0543149F4C201B101B4
:101B20000E948D380E9459356730710520F083E09E
:101B300080930E097EC1772021F48BAD823009F4A9
:101B40002DC1161617062CF44B0108948108910834
:101B500004C080912A09882E9924582C8E01015E98
:101B60001F4F882DB8010E94BD1D882309F449C468
:101B7000EAE1AE2EE9E0BE2E77E0C72ED12CCC0EE6
:101B8000DD1E780100E010E0672C7724C301002EF1
:101B900002C0959587950A94E2F780FF20C09BAD1F
:101BA000943199F4D5016D917D918D919C91F601BF
:101BB00020813181428153810E941034D7016D937D
:101BC0007D938D939C9313970AC0F6018081918138
:101BD000A281B381F70180839183A283B3830F5FD6
:101BE0001F4F44E050E0A40EB51EC40ED51EE40EF7
:101BF000F51E0330110551F68E01015E1F4F852D34
:101C0000B8010E94B21D80912A0990E088159905BB
:101C100009F00FC1ABE2B9E0F8018CE001900D9240
:101C20008150E1F706C1772009F478C08E01095F81
:101C30001F4F6AE1E62E69E0F62ECC24DD24A72CA6
:101C4000BB24C5010C2C02C0959587950A94E2F738
:101C500080FF35C0809112098823F9F0D701519691
:101C60006D917D918D919C9154975D962D913D91B3
:101C70004D915C9190970E9411349B01AC01F80149
:101C800060817181828193810E941134D8016D93AA
:101C90007D938D939C9313971CC0F8016081718193
:101CA00082819381D7012D913D914D915C910E944C
:101CB0001134F80160837183828393830AC0F70132
:101CC00080819181A281B381F80180839183A28375
:101CD000B3830894C11CD11C0C5F1F4F44E050E03B
:101CE000E40EF51E53E0C516D10409F0AACF6F81AA
:101CF000788589859A852B853C854D855E85EF8421
:101D0000F88809891A89A090D50AB090D60AC0909F
:101D1000D70AD090D80A88240E949504BE01655D38
:101D20007F4F21968FAD2197853011F487E001C058
:101D300086E00E94BD1D882309F463C36BA57CA5C2
:101D40008DA59EA52FA538A949A95AA9EBA8FCA83D
:101D50000DA91EA9A090D50AB090D60AC090D70AA6
:101D6000D090D80A88240E949504AAE1B9E0FE0127
:101D7000BB968CE001900D928150E1F75AC02196FC
:101D80009FAD2197963011F487E001C086E06AE1AB
:101D900079E00E94B21D4BC0772021F486E0809349
:101DA0000E0948C00AE119E057E0C52ED12CCC0E2F
:101DB000DD1EEE24FF24A72CBB24C5010E2C02C07F
:101DC000959587950A94E2F780FF1CC0D8016D9124
:101DD0007D918D919C91139751962D913D914D91AF
:101DE0005C9154970E941034F60120813181428128
:101DF00053810E941034D8015D966D937D938D932D
:101E00009C9390970894E11CF11C0C5F1F4FE4E039
:101E1000F0E0CE0EDF1EF3E0EF16F10471F609C01C
:101E20008CE0E7E3F9E0DF011D928A95E9F7B72C32
:101E300001C0BB242396BFAD2397B2FD03C0BB20D6
:101E400009F4CBC280911009882399F06FA978AD6D
:101E500089AD9AAD20E030E040E050E00E94EA34E5
:101E600088233CF480910F09843019F086E0809338
:101E70000E092296EFAD2297EE2339F080910F09DB
:101E8000823018F086E080930E0980910E09882335
:101E900009F0B8C28E01095F1F4F4AE1E42E49E004
:101EA000F42ECC24DD248B2C9924C4010C2C02C0EC
:101EB000959587950A94E2F780FF3BC02296FFAD87
:101EC0002297FF2309F03FC0809112098823F9F07F
:101ED000D70151966D917D918D919C9154975D960E
:101EE0002D913D914D915C9190970E9411349B01F1
:101EF000AC01F80160817181828193810E9411346B
:101F0000D8016D937D938D939C9313971CC0F8011A
:101F10006081718182819381D7012D913D914D9195
:101F20005C910E941134F8016083718382839383F2
:101F30000AC0F70180819181A281B381F801808379
:101F40009183A283B3830894C11CD11C0C5F1F4FE3
:101F500044E050E0E40EF51E53E0C516D10409F04C
:101F6000A4CF80910F09843048F4823008F05EC01D
:101F7000882359F0813009F023C220C0843009F051
:101F80001FC2BB2009F41CC299C0BB2009F496C033
:101F90006F81788589859A852B853C854D855E8501
:101FA000EF84F88809891A89A090D50AB090D60ADA
:101FB000C090D70AD090D80A882435C0BB2009F435
:101FC0007DC06F81788589859A852B853C854D8577
:101FD0005E85EF84F88809891A8980901009882025
:101FE000A1F4A09116092596AFAF2597B0911709D6
:101FF0002696BFAF2697E09118092796EFAF27974F
:10200000F09119092896FFAF28972596EFAD2597EF
:102010002696FFAD26972796AFAD27972896BFAD9A
:1020200028975F016D010E949504CAC181E090E08C
:102030000090290902C0880F991F0A94E2F7809541
:102040008B21E1F16CAD7DAD8EAD9FAD20E030E038
:1020500040E050E00E94EA348823A1F5E09127098E
:10206000F0E0EE0FFF1FEE0FFF1F8E010F5F1F4FFF
:10207000E00FF11F628973898489958920E030E03F
:1020800040E050E00E94EA348823E1F4809128097E
:1020900090E0880F991F880F991F080F191FD8010A
:1020A00052966D917D918D919C91559720E030E0F5
:1020B00040E050E00E94EA34882321F486E08093D7
:1020C0000E097EC16CAD7DAD8EAD9FAD20E030E0E0
:1020D00040E050E00E94EA348E010F5F1F4F8823DA
:1020E00009F4F5C0E0912709F0E0EE0FFF1FEE0FB5
:1020F000FF1FD801AE0FBF1FE65EF64F16966D911B
:102100007D918D919C9119972081318142815381DC
:102110000E9410341B012C01E0912809F0E0EE0F21
:10212000FF1FEE0FFF1F0E0F1F1FE65EF64FD801B9
:1021300016966D917D918D919C9119972081318199
:10214000428153810E9410343B014C018CE0FE011E
:102150007396DF011D928A95E9F76CAD7DAD8EAD6A
:102160009FAD20E030E040E850E40E94BF372CAD46
:102170003DAD4EAD5FAD0E94BF377B018C01C2010A
:10218000B101A20191010E94BF379B01AC01C801BE
:10219000B7010E9410347B018C01C401B301A4017A
:1021A00093010E94BF379B01AC01C801B7010E9497
:1021B00010347B018C0120E030E040E050E00E94D0
:1021C000EA34882324F484E080930E091BC1C801FB
:1021D000B7010E944C387B018C01C201B101A401FE
:1021E00093010E94FA369B01AC0117FB109517F979
:1021F0001095C801B7010E94F1346B017C018091F8
:102200000F09833021F4F7FAF094F7F8F0946CADED
:102210007DAD8EAD9FAD20E030E040E050E00E940B
:10222000EA3488236CF4F7FAF094F7F8F0944CADA4
:102230005DAD6EAD7FAD70584CAF5DAF6EAF7FAF33
:1022400000912709A02EBB24AA0CBB1CAA0CBB1C06
:102250008E010F5F1F4FA00EB11EC401B301A70175
:1022600096010E94BF379B01AC01C201B1010E94DF
:10227000103420E030E040E05FE30E94BF37D5013A
:1022800052966D937D938D939C93559780912809D9
:1022900090E0880F991F880F991F080F191FC2011E
:1022A000B101A70196010E94BF379B01AC01C40197
:1022B000B3010E94113420E030E040E05FE30E946F
:1022C000BF37F801628B738B848B958B23C0E091B1
:1022D0002709F0E0EE0FFF1FEE0FFF1FE00FF11FC9
:1022E00062897389848995892091280930E0220FB9
:1022F000331F220F331F020F131FD80152962D9147
:102300003D914D915C9155970E94FA366CAF7DAF2F
:102310008EAF9FAF90910F09209127090091280956
:10232000E0902909809010098820A1F4B091160945
:102330002596BFAF2597E09117092696EFAF269710
:10234000F09118092796FFAF279740911909289611
:102350004FAF289700D000D00F92EDB7FEB731965F
:102360004CAD5DAD6EAD7FADADB7BEB711964D93C3
:102370005D936D937C93149780E0923009F481E033
:1023800084838AE199E0BE01695F7F4FAE014D5EB3
:102390005F4F25963FAD25972696EFAD269727965A
:1023A000FFAD27972896AFAD2897A32EBE2ECF2E30
:1023B000DA2E0E949E050F900F900F900F900F90B5
:1023C00080910E098823F1F4AAE1B9E0FE01379665
:1023D0008CE001900D928150E1F7809113098823E0
:1023E00069F00E94A42510920C0980911309823093
:1023F00019F40E943D0402C01092130980910E0945
:1024000001C08AE0C95BDF4F0FB6F894DEBF0FBE94
:10241000CDBFCF91DF911F910F91FF90EF90DF9093
:10242000CF90BF90AF909F908F907F906F905F9074
:102430004F903F902F900895EEE0F9E085E3DF01A3
:102440001D928A95E9F78091D10A9091D20AA091C4
:10245000D30AB091D40A8093160990931709A093D8
:102460001809B09319091092270991E0909328094F
:1024700082E0809329099093120980912A09BF0173
:10248000635E7F4F0E94BD1D882319F48AE00E947D
:10249000592B0895109200013F9A479810920D0908
:1024A0000895479810920D0908951F93182F282F0B
:1024B000332727FD30958091000190E028173907D8
:1024C00071F00E94A425112329F0479A81E080939E
:1024D0000D0903C0479810920D09109300011F9138
:1024E0000895109201013E9A4698089546980895DD
:1024F0001F93182F80910101181749F00E94A425FD
:10250000113011F4469A01C04698109301011F91B1
:102510000895E0ECF0E080818D7F80831092C5000B
:1025200083E38093C400E1ECF0E0808180618083EC
:102530008081886080838081806880830895282FCF
:10254000E09104019E2F9F5F04C08091FF0884FDED
:102550000FC0809105019817C1F3F0E0ED53F64FDD
:102560002083909304018091C10080628093C10018
:1025700008951F920F920FB60F9211248F939F937D
:10258000EF93FF9390910501E92FF0E0ED53F64FA3
:1025900080818093C6009F5F909305018091040124
:1025A000981729F48091C1008F7D8093C100FF911D
:1025B000EF919F918F910F900FBE0F901F901895E4
:1025C0009091030180910201891711F48FEF089512
:1025D000E92FF0E0ED5BF64F8081E92FEF5FE03807
:1025E00009F4E0E0E09303010895809102018093F3
:1025F000030108951F920F920FB60F9211242F938B
:102600003F934F935F936F937F938F939F93AF937A
:10261000BF93EF93FF932091C6002132A1F02232A5
:1026200018F42831B9F413C02F3319F02E3791F470
:1026300004C08091FF08816003C08091FF08826020
:102640008093FF0818C08091FF088860F9CF0E942E
:102650003D0411C0E09102019E2F9F5F903809F464
:1026600090E080910301981731F0F0E0ED5BF64FB8
:10267000208390930201FF91EF91BF91AF919F91C1
:102680008F917F916F915F914F913F912F910F901B
:102690000FBE0F901F9018951F920F920FB60F92BA
:1026A00011242F933F934F935F936F937F938F9357
:1026B0009F93AF93BF93EF93FF9386B190E0809584
:1026C000909587709070892B91F0309903C00E948B
:1026D0003D040DC0319904C08091FF08886005C099
:1026E000329905C08091FF0882608093FF08FF91B6
:1026F000EF91BF91AF919F918F917F916F915F917A
:102700004F913F912F910F900FBE0F901F901895F2
:10271000CF93DF938091FF08882309F457C08091FD
:10272000FF08C82FD0E0CE0180769070892BE9F0A9
:1027300086E08093FE08C6FF10C08FEF0E946730CE
:1027400081E00E942F2B8091FF088F7E8093FF08ED
:102750008091FF0884FFFCCF03C08EEF0E9467309A
:102760008091FF088F798093FF08C4FF04C081E047
:102770008093FD082BC0C0FF07C00E94B42B80913E
:10278000FF088E7F8093FF08C3FF07C00E945F167B
:102790008091FF08877F8093FF08C2FF07C00E94D7
:1027A00069168091FF088B7F8093FF08C1FF0EC0E0
:1027B0000E9455168091E60A81FF03C081E0809354
:1027C0000C098091FF088D7F8093FF08DF91CF91E6
:1027D000089580E066E071E00E94291E882369F078
:1027E00080910601882361F086E091E00E94182B19
:1027F00086E091E00E94560901C08AE00E94592BB0
:1028000081E066E071E00E94291E882321F48AE0BD
:102810000E94592B089580910601882351F086E08B
:1028200091E00E94182B86E091E00E9456090E94D8
:10283000592B0895DF92EF92FF920F931F93DF932E
:10284000CF93CDB7DEB729970FB6F894DEBF0FBE92
:10285000CDBF7C01FC018081843209F009C181E097
:1028600089838181873481F1883474F48432C1F0A2
:10287000853234F4882389F0833209F097C01AC076
:10288000833409F093C02AC08E3409F469C08835B6
:10289000F1F1883409F08AC04CC00E94252BF3C0A6
:1028A00082E08983F7018281882309F0E6C00E94D3
:1028B000DF2EE9C082E08983F7018281882309F055
:1028C000DCC00E94212EDFC082E08983F701828173
:1028D000882309F0D2C00E94352DD5C082E08983BB
:1028E000F7018281882309F0C8C08091FE088730F3
:1028F00021F40E943D0485E007C0882309F0BFC091
:1029000087E08093FE0884E00E942F2BBCC082E009
:102910008983F7018281882309F0AFC08091FE0886
:10292000863009F0B0C083E00E942F2B1092FE0881
:10293000AAC08091E60A84FD02C017E0A5C080917C
:10294000FE08882319F0863009F099C00E94E5043A
:102950008091FD08882309F096C00E94E91393C076
:1029600082E08983F7018281882319F0DD24D394E2
:102970001EC080E0B7010E94291E882329F080E054
:10298000B7010E94FC2D03C08AE00E94592B81E010
:10299000B7010E94291E882321F48AE00E94592B46
:1029A00072C081E0B7010E94FC2D6DC0DD24C7011B
:1029B0008E010F5F1F4FB801AE014E5F5F4F0E9447
:1029C000D525892B09F45DC09981F701E90FF11D27
:1029D00080818D3309F051C0892F8F5F8983DD207D
:1029E00041F1482F50E02981822F90E0FC01E41B47
:1029F000F50BEE0DFF1DD701A80FB91F8C91808339
:102A00008C912F5F2983882371F7C7010E94560993
:102A1000182F8823C9F56A817B818C819D810E9452
:102A20008D380E945E35DC01CB01B7010E941E1E6D
:102A30002BC0C701B801AE014A5F5F4F0E94D52588
:102A4000892BF9F08981E80EF11CF7018081882338
:102A5000A1F46A817B818C819D810E945935DC01C2
:102A6000CB014E815F81688579850E94721B03C00E
:102A7000C7010E945609182F07C013E005C01BE0CC
:102A800003C011E001C010E0812F29960FB6F89421
:102A9000DEBF0FBECDBFCF91DF911F910F91FF9091
:102AA000EF90DF9008951F9311E046C02A3011F097
:102AB0002D30B1F40E9488138091FD08882309F01D
:102AC00041C0E0914601EE2349F0F0E0EA5FFE4F9D
:102AD000108286E091E00E941A1417C080E015C0B1
:102AE00080914701882319F0293231F512C0213233
:102AF00018F12F3209F1283219F4109347011CC044
:102B0000909146019F3340F08DE00E94592B109226
:102B100046011092470110C0822F8156E92FF0E044
:102B20009F5F8A3120F4EA5FFE4F205202C0EA5FC5
:102B3000FE4F2083909346010E94E012282F8F3F82
:102B400009F0B4CF1F9108951092460110924701E9
:102B50000E942A2B87B1887F87B988B1876088B99E
:102B6000EDE6F0E0808187608083E8E6F0E0808138
:102B700084608083089544988091E60A82FF02C0B1
:102B8000289801C0289A8091FE088330B1F41092F1
:102B900070018091D00A90E0A0E0B0E00297A10916
:102BA000B109880F991FAA1FBB1F819580936F01E0
:102BB00080916F00826080936F0008951F920F9242
:102BC0000FB60F9211248F938BB18B7A8BB9109221
:102BD000B1008F910F900FBE0F901F9018959B0121
:102BE000AC01203283E0380780E0480780E05807D6
:102BF00020F420E233E040E050E060E070E788E35A
:102C000099E30E94CB38C901DA01803020E09207B5
:102C100021E0A20720E0B20730F4BC019C0140E0B3
:102C200050E091E02FC0803020E0920728E0A2071A
:102C300020E0B207A0F423E0B695A7959795879575
:102C40002A95D1F7BC019C0140E050E0A3E0220F9F
:102C5000331F441F551FAA95D1F792E013C0F6E029
:102C6000B695A79597958795FA95D1F7BC019C01E4
:102C700040E050E0E6E0220F331F441F551FEA9565
:102C8000D1F793E080918100887F982B9093810009
:102C9000709389006093880020935D0130935E01FA
:102CA00040935F015093600108958091FE08823047
:102CB00029F483E08093FE080E94BB15089580915B
:102CC000FE08833029F484E08093FE0810920C09FA
:102CD0000895E0916D01F0916E013097C1F1658525
:102CE0007685878590892091590130915A014091CC
:102CF0005B0150915C01621B730B840B950B0E946E
:102D0000AF21109265011092660110926701109236
:102D1000680160E070E080E090E00E94EF1580E0E4
:102D200091E7A2E0B0E08093610190936201A093EB
:102D30006301B09364011092590110925A011092EC
:102D40005B0110925C0182E08093FE08089510926E
:102D5000FE08089584E2E9E4F1E0DF011D928A951E
:102D6000E9F760E273E080E090E00E94EF151092D6
:102D70006E0110926D01109271010895449A809134
:102D80006F008D7F80936F009091020B9F3F21F425
:102D90008091FF0885FF0BC0892F90E00E9490264C
:102DA0008091E60A82FF02C0289A08952898089523
:102DB0008AB18C6F8AB98BB183708BB9209AE1E8A4
:102DC000F0E080818F7E8083808188608083E0E86E
:102DD000F0E080818D7F808380818E7F8083808101
:102DE0008F73808380818F7C80831092B0001092DB
:102DF000B100E0E7F0E08081816080830E94BB1534
:102E00000E94BE1608951F920F920FB60F921124C2
:102E1000EF92FF920F931F932F933F934F935F93E4
:102E20006F937F938F939F93AF93BF93CF93DF93D2
:102E3000EF93FF9380917101882309F084C39BB1C4
:102E400020917001822F887A9775892B8BB983B175
:102E50009091D90A89278E7080934801809148010A
:102E600081FF05C027FF03C0922F9F7B01C0922FD7
:102E70008091480182FF02C025FD9F7E809148011C
:102E800083FF02C023FD9B7F8BB18B7A982B9BB96C
:102E900080916F018093B20082E08093B10081E065
:102EA00080937101789480916D0190916E01892BCE
:102EB00009F07FC00E945B1EEC0190936E0180932D
:102EC0006D01009709F46EC08091FE088330D1F443
:102ED0006BA17CA18DA19EA1609365017093660199
:102EE00080936701909368010E94EF1580E091E75D
:102EF000A2E0B0E08093610190936201A09363012E
:102F0000B09364012BA53CA54DA55EA5DA01C901CE
:102F1000B595A79597958795820F931FA41FB51F09
:102F20008093690190936A01A0936B01B0936C0147
:102F30002D853E854F855889DA01C901B595A7953C
:102F400097958795B095A095909581959F4FAF4F98
:102F5000BF4F8093490190934A01A0934B01B093D6
:102F60004C0180934D0190934E01A0934F01B0937B
:102F700050018093510190935201A0935301B0935B
:102F800054012093550130935601409357015093BB
:102F900058011092590110925A0110925B0110923F
:102FA0005C0107C00E94BE168091FF088460809378
:102FB000FF08E0916D01F0916E01309709F4C1C2F4
:102FC0002081209370014091490150914A01609104
:102FD0004B0170914C0181819281A381B481480F92
:102FE000591F6A1F7B1F4093490150934A01609308
:102FF0004B0170934C011416150616061706C4F5FE
:103000002064209370018091550190915601A09108
:103010005701B0915801481B590B6A0B7B0B409329
:10302000490150934A0160934B0170934C0127FF73
:103030000CC08091000990910109A0910209B09102
:1030400003090197A109B1090BC080910009909172
:103050000109A0910209B09103090196A11DB11DBA
:103060008093000990930109A0930209B09303098A
:1030700040914D0150914E0160914F01709150016E
:1030800085819681A781B085480F591F6A1F7B1FD4
:1030900040934D0150934E0160934F017093500146
:1030A0001416150616061706D4F520917001206136
:1030B000209370018091550190915601A091570184
:1030C000B0915801481B590B6A0B7B0B40934D0183
:1030D00050934E0160934F017093500125FF0CC037
:1030E0008091040990910509A0910609B091070902
:1030F0000197A109B1090BC08091040990910509BC
:10310000A0910609B09107090196A11DB11D8093F8
:10311000040990930509A0930609B093070940910B
:103120005101509152016091530170915401818578
:103130009285A385B485480F591F6A1F7B1F409352
:10314000510150935201609353017093540114162E
:10315000150616061706D4F52091700124602093F9
:1031600070018091550190915601A0915701B09145
:103170005801481B590B6A0B7B0B4093510150932C
:103180005201609353017093540123FF0CC080914E
:10319000080990910909A0910A09B0910B090197BA
:1031A000A109B1090BC08091080990910909A0916A
:1031B0000A09B0910B090196A11DB11D8093080960
:1031C00090930909A0930A09B0930B092091590122
:1031D00030915A0140915B0150915C012F5F3F4F4C
:1031E0004F4F5F4F2093590130935A0140935B0139
:1031F00050935C0185859685A785B0892817390786
:103200004A075B0708F097C18091FE08843009F0F7
:103210005BC020915D0130915E0140915F01509152
:1032200060018091610190916201A0916301B09170
:103230006401280F391F4A1F5B1F209361013093DF
:1032400062014093630150936401213002EE300724
:1032500004E0400700E0500708F473C12050324EEC
:1032600044405040209361013093620140936301D8
:10327000509364012091650130916601409167018E
:103280005091680163A574A585A596A5621773077B
:103290008407950740F00E94BE168091FF08846065
:1032A0008093FF084EC179018A01E61AF70A080BDC
:1032B000190BC801B701E0926501F0926601009315
:1032C0006701109368016CC087A590A9A1A9B2A954
:1032D000281739074A075B0708F065C020915D0190
:1032E00030915E0140915F015091600180916101D8
:1032F00090916201A0916301B0916401280F391F80
:103300004A1F5B1F20936101309362014093630168
:1033100050936401213002EE300704E0400700E0E2
:10332000500708F40EC12050324E444050402093C4
:10333000610130936201409363015093640183A55E
:1033400094A5A5A5B6A5209165013091660140918F
:10335000670150916801820F931FA41FB51F8093CE
:10336000650190936601A0936701B093680127A956
:1033700030AD41AD52AD82179307A407B50740F0B9
:103380002093650130936601409367015093680173
:10339000609165017091660180916701909168016B
:1033A0000E94EF15CEC083A994A9A5A9B6A9281794
:1033B00039074A075B0708F4A2C0281739074A07EC
:1033C0005B0779F5209165013091660140916701B5
:1033D0005091680187A990ADA1ADB2AD281739070A
:1033E0004A075B0729F480E091E7A2E0B0E010C053
:1033F00080E092EEA4E0B0E02091610130916201A2
:103400004091630150916401821B930BA40BB50B97
:103410008093610190936201A0936301B093640172
:1034200090C020915D0130915E0140915F0150910B
:1034300060018091610190916201A0916301B0915E
:103440006401280F391F4A1F5B1F209361013093CD
:1034500062014093630150936401213012EE310701
:1034600014E0410710E0510708F46BC02050324EC1
:1034700044405040209361013093620140936301C6
:10348000509364012091650130916601409167017C
:10349000509168018091690190916A01A0916B013E
:1034A000B0916C0182179307A407B50748F483A570
:1034B00094A5A5A5B6A5281B390B4A0B5B0B04C028
:1034C000569547953795279520936501309366016A
:1034D000409367015093680127A130A541A552A5EB
:1034E0008091650190916601A0916701B09168019A
:1034F00082179307A407B50708F04ACF41CF27A941
:1035000030AD41AD52AD8091650190916601A091C1
:103510006701B091680182179307A407B50789F086
:1035200020936501309366014093670150936801D1
:10353000CA01B90135CF10926E0110926D010E943F
:103540004C1E10927101FF91EF91DF91CF91BF91CD
:10355000AF919F918F917F916F915F914F913F912B
:103560002F911F910F91FF90EF900F900FBE0F9032
:103570001F901895F999FECF92BD81BD81E08FBB58
:1035800080B50895F894F999FECF92BD81BD81E090
:103590008FBB40B54627842F992787FD9095262F0E
:1035A00030E082239323892B39F06F3F19F060BDFF
:1035B00084E006C084E104C0442321F060BD84E2BD
:1035C0008FBBF99A789408958F929F92AF92BF9291
:1035D000CF92DF92EF92FF920F93DF93CF9300D0C1
:1035E000CDB7DEB75C016B017A014A0100E01EC075
:1035F000002319F021E030E008C0202F332727FDF9
:1036000030952227330F221F3327F60161916F0176
:10361000062F020F9C012F5F3F4F3A8329830E94A0
:10362000C21A08948108910889819A8181149104B1
:10363000F9F6C7018A0D9B1D602F0E94C21A0F90D8
:103640000F90CF91DF910F91FF90EF90DF90CF908F
:10365000BF90AF909F908F900895CF93DF93EC0130
:10366000FB019A0190E0B1E019C0F999FECFF2BDDB
:10367000E1BDBFBBA0B5992319F081E090E008C07F
:10368000892F992787FD90958827990F881F99275B
:1036900031969A2F980FA99321503040211531056A
:1036A00021F7460F571FF999FECF52BD41BD81E06A
:1036B0008FBB80B520E030E0981711F421E030E0B6
:1036C000C901DF91CF91089580E090E065E00E940C
:1036D000C21A81E090E063EC7AE042E450E00E949C
:1036E000E41A0895EF92FF920F931F93CF93DF9305
:1036F000EC017A018B01FC018A31910540F4E25C16
:10370000FF4FEE0FFF1F0590F491E02D099486E026
:103710003AC1CB01BA0120E030E040E050E00E9425
:10372000EA34181614F088E02EC1CC0FDD1FCC0F40
:10373000DD1FCD53D54FE882F9820A831B8320C158
:10374000CB01BA0120E030E040E450E40E94EA34CA
:10375000882314F489E017C1C801B7010E942238F8
:103760000E945E356093D00A0BC14093D10A5093FA
:10377000D20A6093D30A7093D40A02C14093D50A47
:103780005093D60A6093D70A7093D80AF9C0CB0138
:10379000BA010E948D380E945E356093D90AF0C04C
:1037A000CB01BA010E9422380E945E356093020B61
:1037B000E7C0CB01BA0120E030E040E752E40E94CC
:1037C000BF3720E030E040E752E40E94BF3760930B
:1037D000DE0A7093DF0A8093E00A9093E10AD0C07A
:1037E000DB01CA01BF778093E20A9093E30AA093BA
:1037F000E40AB093E50AC4C04093DA0A5093DB0AA6
:103800006093DC0A7093DD0ABBC0CB01BA010E9451
:1038100022380E945E356093040BB2C0CB01BA011E
:103820000E9422380E945E356093030BA9C0CB0131
:10383000BA0120E030E040E050E00E94EA34882302
:1038400021F08091E60A816011C08091E60A8E7FA6
:103850000DC0CB01BA0120E030E040E050E00E9412
:10386000EA34882331F08091E60A82608093E60A88
:1038700087C08091E60A8D7FF9CFCB01BA0120E0A5
:1038800030E040E050E00E94EA34882321F080914B
:10389000E60A8460EBCF8091E60A8B7FE7CFCB010D
:1038A000BA0120E030E040E050E00E94EA34882392
:1038B00021F08091E60A886003C08091E60A877F44
:1038C0008093E60A0E9417275BC0CB01BA0120E073
:1038D00030E040E050E00E94EA34882321F08091FB
:1038E000E60A8061C3CF8091E60A8F7EBFCFCB010D
:1038F000BA010E948D380E945E356093E70A40C08D
:103900004093E80A5093E90A6093EA0A7093EB0A3D
:1039100037C04093EC0A5093ED0A6093EE0A70931F
:10392000EF0A2EC0CB01BA010E9422380E945E35F8
:103930007093F10A6093F00A23C04093F20A509307
:10394000F30A6093F40A7093F50A1AC04093F60ADA
:103950005093F70A6093F80A7093F90A11C04093E4
:10396000FA0A5093FB0A6093FC0A7093FD0A08C0A0
:103970004093FE0A5093FF0A6093000B7093010B73
:103980000E94641B80E0DF91CF911F910F91FF9007
:10399000EF900895882309F461C080E090E0A0EAE8
:1039A000B2E48093C30A9093C40AA093C50AB0936B
:1039B000C60A8093C70A9093C80AA093C90AB09315
:1039C000CA0A8DE495E5A5EDB2E48093CB0A909305
:1039D000CC0AA093CD0AB093CE0A8AE08093D00A95
:1039E00080E090E0A8ECB3E48093D10A9093D20AEF
:1039F000A093D30AB093D40A80E090E4ACE9B5E494
:103A00008093D50A9093D60AA093D70AB093D80A88
:103A100080E098ECAFE2B9E48093DE0A9093DF0A8D
:103A2000A093E00AB093E10A8DEC9CECACE4BEE319
:103A30008093DA0A9093DB0AA093DC0AB093DD0A44
:103A40001092D90A8DEC9CECACECBDE38093E20AB9
:103A50009093E30AA093E40AB093E50A82E180938D
:103A6000E60A80EA8093E70A80E090E8ABEBB4E4F2
:103A70008093E80A9093E90AA093EA0AB093EB0ACC
:103A800080E090E0A8E4B3E48093EC0A9093ED0A20
:103A9000A093EE0AB093EF0A84E690E09093F10AC7
:103AA0008093F00A20E030E040EA50E42093F20AEC
:103AB0003093F30A4093F40A5093F50A80E090E0C3
:103AC000A0E0B0E08093F60A9093F70AA093F80A7A
:103AD000B093F90A80E090E0A0E2B1E48093FA0AA2
:103AE0009093FB0AA093FC0AB093FD0A2093FE0A70
:103AF0003093FF0A4093000B5093010B99E1909390
:103B0000020B82E08093030B9093040B0E94641BD2
:103B1000089580E090E00E94BA1A853079F483EC31
:103B20009AE061E070E042E450E00E942D1B20E04A
:103B3000892B09F421E081E0282712C0853078F430
:103B400083EC9AE061E070E043E250E00E942D1BBC
:103B5000892B29F080E00E94CA1C21E001C020E0EE
:103B6000822F08959DE0899FC001112480509E4FAF
:103B70004CE050E00E94E41A08950F931F93CF93F6
:103B8000DF93162F072F9DE0899FE0011124C0507D
:103B9000DE4F862F972FBE014CE050E00E942D1B78
:103BA000892B11F081E00FC0E12FF02F8CE0DF01B5
:103BB0001D928A95E9F7CE01612F702F4CE050E0FD
:103BC0000E94E41A80E0DF91CF911F910F91089538
:103BD000EF92FF921F93DF93CF93CDB7DEB72C9771
:103BE0000FB6F894DEBF0FBECDBF0E94891D88239B
:103BF00041F48AE00E94592B81E00E94CA1C0E9475
:103C0000DF2E10E07E010894E11CF11C812FB7012A
:103C10000E94BD1D882319F48AE00E94592B1F5F62
:103C20001830A1F72C960FB6F894DEBF0FBECDBFAB
:103C3000CF91DF911F91FF90EF90089591E4899FBC
:103C4000C001112480509D4F40E450E00E94E41ACE
:103C500008950F931F93CF93DF938B0191E4899F76
:103C6000E0011124C050DD4FCB01BE0140E450E023
:103C70000E942D1B892B11F081E009C0F8011082F0
:103C8000CE01B80140E450E00E94E41A80E0DF91E8
:103C9000CF911F910F9108959091D2088091D308F0
:103CA000981741F08091D3088F5F803209F480E04B
:103CB0008093D30808959091D2088091D3089817E3
:103CC00019F420E030E008C09091D3088BE3989F6E
:103CD000900111242E583E4FC90108959091D308A8
:103CE00020E08091D408981709F421E0822F0895EC
:103CF000EF92FF920F931F936093D5087093D608AD
:103D00008093D7089093D8082093D9083093DA0885
:103D10004093DB085093DC08E092DD08F092DE0867
:103D20000093DF081093E0081F910F91FF90EF9030
:103D300008958F929F92AF92BF92CF92DF92EF92AF
:103D4000FF920F931F93CF93DF93EC016B010097CA
:103D500009F460C08AA1882309F05CC0ED88FE8860
:103D60000F89188DFB01B588A6889788808CC801BB
:103D7000B7012B2D3A2D492D582D0E94EA34882366
:103D80000CF048C0C801B701A80197010E94BF37D5
:103D90007B018C016091DE0A7091DF0A8091E00A5C
:103DA0009091E10A905820E030E040E050EC0E9411
:103DB000BF372D8D3E8D4F8D58A10E94BF379B017F
:103DC000AC01C801B7010E9411340E944C387B013C
:103DD0008C016B2D7A2D892D982D9701A8010E94B9
:103DE000EA34882324F4EB2CFA2C092D182D6B2DA2
:103DF0007A2D892D982D9701A8010E94EA348823F5
:103E000049F0C701D801F601858B968BA78BB08F3F
:103E100081E081A3DF91CF911F910F91FF90EF90EF
:103E2000DF90CF90BF90AF909F908F9008952F928A
:103E30003F924F925F926F927F928F929F92AF923A
:103E4000BF92CF92DF92EF92FF920F931F93DF9377
:103E5000CF93CDB7DEB768970FB6F894DEBF0FBE2D
:103E6000CDBF1C016A017B0128013901DC01D79615
:103E70006D917D918D919C91DA970E948A354B01CD
:103E80005C01A70196010E94BF370E94D7340E94AF
:103E90005E357B018C01F10163A374A385A396A316
:103EA000C501B401A30192010E94BF370E94D7341B
:103EB0000E945E3569877A878B879C87D1019796A8
:103EC0006D937D938D939C939A979B966D917D9125
:103ED0008D919C919E9722E330E040E050E00E945B
:103EE000AC380E948C3520E030E040E752E40E947C
:103EF000BF370E9459352B013C01C801B7010E9410
:103F00008A357B018C01C301B2010E948C356D831F
:103F10007E838F839887C501B401A50194010E9417
:103F2000BF375B016C01C801B701A80197010E946E
:103F3000BF376D877E878F87988B6D817E818F815C
:103F400098859B01AC010E941134698B7A8B8B8B15
:103F50009C8BC601B5012D853E854F8558890E94F1
:103F6000103429893A894B895C890E94F1340E9476
:103F7000D7340E94593569837A838B839C83698502
:103F80007A858B859C850E948A359B01AC010E94B5
:103F9000BF376D8B7E8B8F8B988FA60195010E940A
:103FA00010347B018C017094609450944094411CB7
:103FB000511C611C711CC301B2010E948C359B0114
:103FC000AC010E9411349B01AC01C801B7010E94F1
:103FD000F1340E94C735F101A584B684C784D08826
:103FE0008601750129813A814B815C81E21AF30ACD
:103FF000040B150B0E945935A8019701261B370B9E
:10400000480B590BDA01C90157FF4AC0C601B50177
:104010000E948C359B01AC0169897A898B899C89C6
:104020000E94BF372D853E854F8558890E941034E8
:104030002D893E894F89588D0E9411347B018C0156
:104040006D817E818F81988520E030E040E850E4EA
:104050000E94BF379B01AC01C801B7010E94F13437
:104060000E94D7340E945935AC01CB01DA01BC0162
:10407000CD0197FF04C060E070E080E090E06983CC
:104080007A838B839C83A616B706C806D90624F4C8
:10409000A982BA82CB82DC8280E090E0A0E0B0E02E
:1040A00029813A814B815C81F10127A730AB41AB7B
:1040B00052AB820F931FA41FB51F83AB94ABA5AB6C
:1040C000B6AB68960FB6F894DEBF0FBECDBFCF91EA
:1040D000DF911F910F91FF90EF90DF90CF90BF90F5
:1040E000AF909F908F907F906F905F904F903F9098
:1040F0002F9008952F923F924F925F927F928F92CE
:104100009F92AF92BF92CF92DF92EF92FF920F9366
:104110001F93CF93DF93D090D2088091DE0A9091C5
:10412000DF0AA091E00AB091E10A1C012D0157FAC3
:10413000509457F8509400E010E0C0E0D0E0BB2469
:10414000B3943BE3C32E72C0DD2011F420E2D22EE3
:10415000DA94209709F463C00115110509F45FC0D2
:10416000A98C9A8C8B8C7C8C6D897E898F89988D9B
:104170002A2D392D482D572D0E94EA34882309F421
:104180004EC08AA1882309F041C0F801E588F6886D
:104190000789108D6A2D792D882D972DA8019701FB
:1041A0000E94ED36181694F5C801B701A8019701D1
:1041B0000E94BF377B018C01C201B10120E030E0D9
:1041C00040E050EC0E94BF372D8D3E8D4F8D58A1A1
:1041D0000E94BF379B01AC01C801B7010E94113496
:1041E0000E944C38162F072FF82EE92E6A2D792DB4
:1041F000882D972D212F302F4F2D5E2D0E94EA34D0
:1042000087FD04C0A12E902E8F2C7E2C8A2D992DF7
:10421000A82DB72D8D8B9E8BAF8BB88FB9A2DC9C50
:10422000C00111248E01EC01CE58DE4F8091D308DD
:10423000D81609F089CFF090D30820E030E000E0F4
:1042400010E09BE3E92E11C0FE9CE0011124CE5842
:10425000DE4FC901B801AE010E94991EF394F0E24D
:10426000FF1609F4FF2498018E018091D208F816F8
:1042700059F7C901B80140E050E00E94991E7090C2
:10428000D308C0E0D0E08BE3582E35C0759C4001C8
:10429000112482E791E0880E991E209731F189A1BF
:1042A000882321F4F40181A18823F9F0E988FA88B0
:1042B0000B891C896D897E898F89988DA80197014A
:1042C0000E94F1345B016C01F4016589768987896C
:1042D000908DA80197010E94F1348B019C01CE01C1
:1042E000B601A5010E94171F19A27394F0E27F1670
:1042F00009F47724E4018091D208781639F6E98828
:10430000FA880B891C896D897E898F89988DA8010F
:1043100097010E94F1345B016C0160E070E080E085
:1043200090E0A80197010E94F1348B019C01CE011D
:10433000B601A5010E94171F19A2DF91CF911F910D
:104340000F91FF90EF90DF90CF90BF90AF909F9034
:104350008F907F905F904F903F902F900895AF92F5
:10436000BF92CF92DF92EF92FF920F931F93CF9362
:10437000DF935B016C019091D3088BE3989FE00180
:104380001124CE58DE4FC601B5010E948C352D8D0B
:104390003E8D4F8D58A10E94BF377B018C016D85EA
:1043A0007E858F8598890E948C359B01AC01C80160
:1043B000B7010E94F1346D8F7E8F8F8F98A3AD86E9
:1043C000BE86CF86D88A80E090E0A0E0B0E08D8BFA
:1043D0009E8BAF8BB88F898F9A8FAB8FBC8F1AA2B1
:1043E00081E089A30E947A20DF91CF911F910F91E4
:1043F000FF90EF90DF90CF90BF90AF9008952F92F5
:104400003F924F925F926F927F928F929F92AF9264
:10441000BF92CF92DF92EF92FF920F931F93DF93A1
:10442000CF93CDB7DEB7AF970FB6F894DEBF0FBE10
:10443000CDBF29013A01ADA2BEA2CFA2D8A689A6BE
:104440003091D2082BE3329F1001112422E731E092
:10445000220E331E2091C30A3091C40A4091C50A2E
:104460005091C60A0E94BF370E948F3769837A83B2
:104470008B839C83C301B2012091C70A3091C80A83
:104480004091C90A5091CA0A0E94BF370E948F37D3
:104490006D837E838F839887C801B7012091CB0AF3
:1044A0003091CC0A4091CD0A5091CE0A0E94BF377C
:1044B0000E948F3769877A878B879C87D1011C92EE
:1044C00029813A814B815C818091D5089091D608F1
:1044D000A091D708B091D808281739074A075B0779
:1044E0001CF480E8F10180832D813E814F81588545
:1044F0008091D9089091DA08A091DB08B091DC088E
:10450000281739074A075B0724F4D1018C91806290
:104510008C9329853A854B855C858091DD08909147
:10452000DE08A091DF08B091E008281739074A0794
:104530005B0724F4F10180818860808329813A81BE
:104540004B815C818091D5089091D608A091D708C5
:10455000B091D808281B390B4A0B5B0B57FF07C0DB
:1045600050954095309521953F4F4F4F5F4FD1016A
:1045700011962D933D934D935C931497AD80BE801F
:10458000CF80D8848091D9089091DA08A091DB0877
:10459000B091DC08A81AB90ACA0ADB0AF101A5829F
:1045A000B682C782D086D7FE0BC088279927DC0148
:1045B0008A199B09AC09BD0985839683A783B087B7
:1045C00029853A854B855C858091DD089091DE08D0
:1045D000A091DF08B091E008281B390B4A0B5B0B58
:1045E00057FF07C050954095309521953F4F4F4F4D
:1045F0005F4FD10119962D933D934D935C931C977A
:104600001596ED90FD900D911C91189711968D9136
:104610009D910D90BC91A02D8E159F05A007B1070F
:1046200010F4D801C70182179307A407B50710F447
:10463000DA01C901F10185879687A787B08B0097BA
:10464000A105B10509F467C269817A818B819C81DA
:104650002091D5083091D6084091D7085091D808BC
:10466000621B730B840B950B0E948C352091C30A3F
:104670003091C40A4091C50A5091C60A0E94F13493
:1046800069A37AA38BA39CA3C601B5010E948C35B4
:104690002091C70A3091C80A4091C90A5091CA0AAC
:1046A0000E94F1346D8F7E8F8F8F98A369857A85F4
:1046B0008B859C852091DD083091DE084091DF08D4
:1046C0005091E008621B730B840B950B0E948C3594
:1046D0002091CB0A3091CC0A4091CD0A5091CE0A5C
:1046E0000E94F134698F7A8F8B8F9C8F69A17AA198
:1046F0008BA19CA19B01AC010E94BF377B018C0167
:104700006D8D7E8D8F8D98A19B01AC010E94BF376E
:104710009B01AC01C801B7010E9411347B018C01DF
:10472000698D7A8D8B8D9C8D9B01AC010E94BF376A
:104730009B01AC01C801B7010E9411340E944C38A2
:104740007B018C01D1015D966D937D938D939C933C
:10475000909760E070E080E89FE3A80197010E94D5
:10476000F1343B014C01B9A5BB2349F46DA17EA1F5
:104770008FA198A5A40193010E94BF370AC060E0F1
:1047800070E080E89FE32DA13EA14FA158A50E94B3
:10479000F1345B016C01C801B701A60195010E94CB
:1047A000BF376AA77BA78CA79DA7F101618B728B8E
:1047B000838B948B65857685878590890E948C355F
:1047C0007B018C01A60195010E94BF370E94D7345E
:1047D0000E945E35D101D7966D937D938D939C9306
:1047E000DA97C801B701A40193010E94BF37209155
:1047F000DE0A3091DF0A4091E00A5091E10A0E94FE
:10480000BF3720E030E84BE355E40E94F1340E94CA
:10481000D7340E945935F10163A774A785A796A7DD
:1048200069A17AA18BA19CA1A40193010E94BF3729
:104830007B018C016D877E878F87988B6D8D7E8D38
:104840008F8D98A1A40193010E94BF375B016C0179
:10485000698B7A8B8B8B9C8B698D7A8D8B8D9C8DE4
:10486000A40193010E94BF373B014C016D8B7E8BED
:104870008F8B988F9091D2088091D308981709F464
:10488000BDC0F091ED08FEA72091EE082FA7509033
:10489000EF084090F0086F2F722F852D942D20E0A7
:1048A00030E040E050E00E94ED3618160CF0A6C053
:1048B0006091E1087091E2088091E3089091E4082A
:1048C0009058A80197010E94BF377B018C0160912D
:1048D000E5087091E6088091E7089091E808A60144
:1048E00095010E94BF379B01AC01C801B7010E942E
:1048F00010347B018C01C401B3012091E90830918F
:10490000EA084091EB085091EC080E94BF379B01E8
:10491000AC01C801B7010E9410347B018C0123E374
:1049200033E343E75FE30E94EA3488230CF066C078
:104930006EA57FA5852D942D2AA53BA54CA55DA52B
:104940000E94EA3487FD08C08AA59BA5ACA5BDA539
:104950008EA79FA75A2E4B2EC801B70123E333E33E
:1049600043E75FEB0E94ED3618160CF04CC060E098
:1049700070E080E89FE3A80197010E94103420E0D6
:1049800030E040E05FE30E94BF370E944C385B019B
:104990006C016091DE0A7091DF0A8091E00A9091CB
:1049A000E10A2091E20A3091E30A4091E40A509131
:1049B000E50A0E94BF37A60195010E94BF377B011F
:1049C0008C0160E070E080E89FE3A60195010E9401
:1049D00010349B01AC01C801B7010E94F1340E9460
:1049E0004C387B018C016EA57FA5852D942D9701F8
:1049F000A8010E94EA3487FD06C009C0EE24FF2406
:104A000000E010E004C0EEA4FFA4052D142DC701A2
:104A1000D801F101818F928FA38FB48F6091DE0A4C
:104A20007091DF0A8091E00A9091E10A905820E0AD
:104A300030E040E050EC0E94BF37D1015D962D91EF
:104A40003D914D915C9190970E94BF3720E030E0FE
:104A500040E050E00E9411340E944C38D62EC72E00
:104A6000B82EA92EB701C8012D2D3C2D4B2D5A2D46
:104A70000E94EA3487FD04C0ED2CFC2C0B2D1A2D6E
:104A8000C701D801F101858B968BA78BB08F618907
:104A90007289838994892D2D3C2D4B2D5A2D0E948E
:104AA000EA3418162CF081E0D10192968C9302C062
:104AB000F10112A281E0D10191968C93A1EEB8E0B0
:104AC000FE013D968CE001900D928150E1F7F101DD
:104AD00081899289A389B4898093ED089093EE0827
:104AE000A093EF08B093F0088091D4088093D20887
:104AF0008091D2088F5F803209F480E08093D408DF
:104B0000A5EDB8E0FE0131968CE001900D92815048
:104B1000E1F70E947A20AF960FB6F894DEBF0FBE81
:104B2000CDBFCF91DF911F910F91FF90EF90DF905C
:104B3000CF90BF90AF909F908F907F906F905F903D
:104B40004F903F902F9008951F931BE306C00E9443
:104B500088138091FD08882391F49091D208809168
:104B6000D308981741F08091D308819FC001112488
:104B70008E589E4F61F78091FE08833041F31F915C
:104B800008958091D2088093D3088091D2088F5FD6
:104B9000803209F480E08093D4088CE1E5EDF8E000
:104BA000DF011D928A95E9F708956F927F928F92A7
:104BB0009F92AF92BF92CF92DF92EF92FF920F93AC
:104BC0001F93CF93DF934C013B015A01FB0180817E
:104BD000F401E80FF11DEF0189918D3229F48181F3
:104BE0002196CC24C39405C08B3211F48181219687
:104BF000CC2420E030E040E050E0DD24E0E070E054
:104C0000682F60536A30F8F4EF5FE930C0F4711137
:104C1000DA94DA01C901F2E0880F991FAA1FBB1FBD
:104C2000FA95D1F7280F391F4A1F5B1F220F331F38
:104C3000441F551F260F311D411D511D09C07723EB
:104C400039F4D39405C06E3F29F4772319F471E049
:104C50008991D6CFEE2319F420E030E051C0CA018B
:104C6000B9010E948A357B018C0120E030E040E0F0
:104C700050E00E94EA34882369F42BC0C801B701D0
:104C80002AE037ED43E25CE30E94BF377B018C01F1
:104C9000F2E0DF0E8FEFD8168CF3D81659F4C80166
:104CA000B7012DEC3CEC4CEC5DE30E94BF377B017F
:104CB0008C010FC0DD2069F0C801B70120E030E0B1
:104CC00040E251E40E94BF377B018C01DA941D144D
:104CD0009CF3CC2049F0D801C701B058F50180837E
:104CE0009183A283B38305C0F501E082F182028340
:104CF0001383882D80958C0FF301808321E030E0B1
:104D0000C901DF91CF911F910F91FF90EF90DF903C
:104D1000CF90BF90AF909F908F907F906F900895AD
:104D200020EA3FE004C0F9013197F1F701970097BD
:104D3000D1F708951F93A0EABFE040E951E015E3E1
:104D400035E031C06A3071058105910540F4232FAB
:104D50002A95F1F7615070408040904024C064363D
:104D600071058105910540F4212F2A95F1F76A50CC
:104D700070408040904017C0683E23E0720720E0FA
:104D8000820720E0920740F4FA013197F1F7645668
:104D900070408040904007C0FD013197F1F7685E98
:104DA000734080409040611571058105910551F671
:104DB0001F910895EF92FF920F931F936091000946
:104DC00070910109809102099091030920910409D1
:104DD000309105094091060950910709E0900809B2
:104DE000F090090900910A0910910B090E94781EA0
:104DF0006091000970910109809102099091030965
:104E00002091040930910509409106095091070944
:104E1000E0900809F090090900910A0910910B0926
:104E20000E94D7081F910F91FF90EF90089584B1D1
:104E3000817F84B985B19091D90A89238E7085B913
:104E40008091E60A83FF09C080916C008E60809398
:104E50006C0080916800826008C080916C00817F46
:104E600080936C00809168008D7F80936800089526
:104E70002F923F924F925F926F927F928F929F926A
:104E8000AF92BF92CF92DF92EF92FF920F931F9358
:104E9000DF93CF93CDB7DEB7A8970FB6F894DEBFF8
:104EA0000FBECDBF8EA36FA339014A01FE0131961B
:104EB0008CE0DF011D928A95E9F70EA100FD02C08A
:104EC00010E00FC06091C30A7091C40A8091C50AB6
:104ED0009091C60A0E948F3769837A838B839C8363
:104EE00011E001FF0FC01F5F6091C70A7091C80AEF
:104EF0008091C90A9091CA0A0E948F376D837E8380
:104F00008F83988702FF0FC01F5F6091CB0A70915B
:104F1000CC0A8091CD0A9091CE0A0E948F37698782
:104F20007A878B879C8789859A85AB85BC852D8000
:104F30003E804F805884281639064A065B0610F4D6
:104F40001C012D0189819A81AB81BC81281639060B
:104F50004A065B0610F41C012D01612F70E080E011
:104F600090E00E948A350E944C385B016C01C201BE
:104F7000B1010E948A35A60195010E94F1347B019E
:104F80008C012091DE0A3091DF0A4091E00A5091B5
:104F9000E10A0E94BF3720E030E84BE355E40E946D
:104FA000F1340E94D7340E945E356AA37BA38CA3A0
:104FB0009DA3C401B301A60195010E94BF379B01C7
:104FC000AC01C801B7010E94BF379B01AC0160EC86
:104FD00071EE84E69CE40E94F1340E948F377B01DD
:104FE0008C01B8EFEB16B4E2FB06B1E00B07B0E0C2
:104FF0001B0718F45701680107C038EFA32E34E2ED
:10500000B32E31E0C32ED12C2091E70A2095287AC7
:1050100029A33FA1332319F088EA282729A3D20125
:10502000C101B695A7959795879566247724430186
:10503000681A790A8A0A9B0A8091D00AB601A501EA
:10504000481B5109610971094D8B5E8B6F8B788FFD
:105050006D8E7E8E8F8E98A2698E7A8E8B8E9C8EB0
:10506000198A1A8A1B8A1C8A60E177E280E090E044
:105070006D877E878F87988B79A1706478A733B10D
:105080008091D90A38273E708FA1811130959EA159
:1050900090FF1AC089819A81AB81BC81680E791E0C
:1050A0008A1E9B1E16141704180419046CF431FF91
:1050B00002C028A504C0AEA1AE7FAEA329A162188C
:1050C00073088408950801C029A1BEA1B1FF29C0B9
:1050D0008D819E81AF81B8854D8D5E8D6F8D78A15C
:1050E000480F591F6A1F7B1F4D8F5E8F6F8F78A3EC
:1050F0001416150616061706A4F432FF03C050E175
:10510000252703C06EA16D7F6EA38D8D9E8DAF8D03
:10511000B8A182199309A409B5098D8F9E8FAF8F0D
:10512000B8A39EA192FF29C089859A85AB85BC85CD
:10513000498D5A8D6B8D7C8D480F591F6A1F7B1FBF
:10514000498F5A8F6B8F7C8F14161506160617061B
:10515000C4F433FF03C054E0252703C06EA16B7F66
:105160006EA3898D9A8DAB8DBC8D82199309A4098C
:10517000B509898F9A8FAB8FBC8F9EA1992309F4B3
:105180006DC08091FF0884FD69C08BB124758B7A56
:10519000282B2BB96091D00A70E080E090E00E944B
:1051A0009A26A9A1ABB96D897E898F89988D0E94B5
:1051B0009A26EA14FB040C051D0508F060CF2D8526
:1051C0003E854F8558892A0D3B1D4C1D5D1D2D8741
:1051D0003E874F87588B21326EE4360760E04607E2
:1051E00060E0560708F44BCF20523E444040504008
:1051F0002D873E874F87588B89899A89AB89BC89CF
:105200002AA13BA14CA15DA1820F931FA41FB51F32
:10521000898B9A8BAB8BBC8B60E077E883E993E05A
:1052200029893A894B895C890E94CB38C901DA0106
:105230005C016D01AE14BF04C006D10610F4570125
:1052400068018091D00AB601A501481B5109610986
:1052500071094D8B5E8B6F8B788F11CFA8960FB62F
:10526000F894DEBF0FBECDBFCF91DF911F910F919C
:10527000FF90EF90DF90CF90BF90AF909F908F9076
:105280007F906F905F904F903F902F9008950E9475
:10529000BB152091E80A3091E90A4091EA0A509141
:1052A000EB0A84E061E00E9438272091E80A3091FF
:1052B000E90A4091EA0A5091EB0A82E061E00E941B
:1052C00038272091E80A3091E90A4091EA0A509182
:1052D000EB0A81E061E00E9438278091F00A90910A
:1052E000F10A0E9490262091EC0A3091ED0A40913B
:1052F000EE0A5091EF0A87E060E00E943827809123
:10530000F00A9091F10A0E9490260E94BE1608951C
:105310001F920F920FB60F9211242F933F934F932A
:105320005F936F937F938F939F93AF93BF93EF930D
:10533000FF938091FE08863059F08091FF0885FD2B
:1053400007C00E943D048091FF0880648093FF089D
:10535000FF91EF91BF91AF919F918F917F916F914D
:105360005F914F913F912F910F900FBE0F901F9023
:1053700018958F929F92AF92BF92CF92DF92EF9249
:10538000FF920F931F93DF93CF93CDB7DEB72A978A
:105390000FB6F894DEBF0FBECDBF7B018C0120E0BD
:1053A00030E040E050E00E94EA3488233CF48DE293
:1053B0000E949F1217FB109517F91095A090030BF0
:1053C000DA2C0CC0C801B70120E030E048EC52E410
:1053D0000E94BF377B018C018EEFD80EE1E0ED1506
:1053E00088F3A0FE0AC0C801B70120E030E040E227
:1053F00051E40E94BF377B018C01C801B70120E056
:1054000030E040E05FE30E9411340E9459356B01A7
:105410007C019E012F5F3F4FF901EA0DF11D8EE2E5
:105420008083BB2449011EC0BA1409F4B3948401DB
:105430000B0D111DC701B6012AE030E040E050E03D
:105440000E94CB38605DF8016083B394C701B60158
:105450002AE030E040E050E00E94CB38C901DA0198
:105460006C017D01C114D104E104F104E9F606C028
:10547000FC01EB0DF11D2083B39403C0CE01019616
:1054800020E3BA14A8F3BA1489F48B2D8F5FFE01C0
:10549000E80FF11D90E39183B82EB39407C0FE018D
:1054A000EB0DF11D80810E949F12BA94BB20B9F7C9
:1054B0002A960FB6F894DEBF0FBECDBFCF91DF9115
:1054C0001F910F91FF90EF90DF90CF90BF90AF9022
:1054D0009F908F9008958F929F92BF92CF92DF926C
:1054E000EF92FF920F931F93DF93CF93CDB7DEB769
:1054F0002A970FB6F894DEBF0FBECDBF7B018C019B
:1055000097FF0BC08DE20E949F1210950095F094BA
:10551000E094E11CF11C011D111D67017801C1140B
:10552000D104E104F10421F480E30E949F122FC012
:10553000BB244E010894811C911C84010B0D111D8C
:10554000C701B6012AE030E040E050E00E94CB38CD
:10555000605DF8016083B394C701B6012AE030E0D2
:1055600040E050E00E94CB38C901DA016C017D01B6
:10557000C114D104E104F10401F707C0FE01EB0DF1
:10558000F11D80810E949F12BA94BB20B9F72A9620
:105590000FB6F894DEBF0FBECDBFCF91DF911F9144
:1055A0000F91FF90EF90DF90CF90BF909F908F90E2
:1055B00008950F931F93DF93CF93CDB7DEB728974E
:1055C0000FB6F894DEBF0FBECDBF982FFE01319607
:1055D0009E01275F3F4F892F817081939695E21737
:1055E000F307C9F78E01085F1F4FF8018081805DC6
:1055F0000E949F12015010400C171D07B1F728960A
:105600000FB6F894DEBF0FBECDBFCF91DF911F91D3
:105610000F910895CF93DF93EC0102C00E949F1277
:10562000FE01219684918823C9F7DF91CF910895D7
:10563000CF93DF93EC0103C021960E949F128881D3
:105640008823D1F7DF91CF9108958CEC94E00E94EC
:105650000A2B08958AEF95E00E940A2B08951F9364
:10566000182F8AE696E00E940A2B133091F014302E
:1056700028F4113041F01230B1F408C0143061F058
:10568000153089F40CC088E596E00BC084E496E000
:1056900008C082E396E005C08AE296E002C081E29B
:1056A00096E00E940A2B8DE196E00E940A2B1F9142
:1056B00008951F93182F882319F483E997E050C0A9
:1056C0008BE897E00E940A2B173091F1183070F4A4
:1056D000133011F1143028F41130C1F01230F1F50B
:1056E00018C01530F9F0163000F519C01A3049F11C
:1056F0001B3028F41830F9F0193081F51FC01C3028
:1057000031F11C3008F11D3049F524C089E797E0DC
:1057100023C081E697E020C08BE497E01DC08CE3B6
:1057200097E01AC086E297E017C084E197E014C0C2
:1057300083E097E011C087EF96E00EC088EE96E018
:105740000BC087EC96E008C088EB96E005C08DEAB8
:1057500096E002C08FE996E00E940A2B8CE996E061
:105760000E940A2B1F9108958F929F92BF92CF9211
:10577000DF92EF92FF920F931F93DF93CF93CDB7FA
:10578000DEB72C970FB6F894DEBF0FBECDBFDE019B
:105790001196E0E0F9E08CE001900D928150E1F784
:1057A0008091FE088430D9F0853038F4823089F059
:1057B000833090F4882351F022C08630B1F08630D7
:1057C00088F08730A9F08830D1F415C083E391E0E8
:1057D00014C08DE291E011C089E291E00EC084E234
:1057E00091E00BC08FE191E008C089E191E005C034
:1057F00083E191E002C08FE091E00E940A2B88E0F3
:1058000091E00E940A2B81EFC82E88E0D82E8601F5
:10581000BB24EE24FF244E010894811C911CF4014A
:10582000EE0DFF1D60817181828193810E948C3514
:10583000F701ED53F54F20813181428153810E9460
:10584000F134F8016083718382839383F2E0BF16A1
:1058500079F42091FE0A3091FF0A4091000B50919B
:10586000010B0E94F134F80160837183828393837A
:105870008091E60A80FF10C0F80160817181828109
:1058800093812BE832E441E25DE30E94BF37F801E7
:105890006083718382839383F80161917191819117
:1058A00091918F010E94B92986E091E00E940A2B14
:1058B000B39484E090E0E80EF91E93E0B91609F085
:1058C000AECF80E091E00E940A2B0BE219E0FF24AA
:1058D0008091E60A80FF4DC0E2E0FE1679F5609106
:1058E00033097091340980913509909136092091DE
:1058F0003F093091400940914109509142090E946D
:1059000011342BE832E441E25DEB0E94BF37209175
:10591000FE0A3091FF0A4091000B5091010B0E944A
:10592000F1349B01AC016091F9087091FA08809103
:10593000FB089091FC080E94113446C0F801608178
:1059400071818281938124853585468557850E94A2
:1059500011342BE832E441E25DEB0E94BF379B013A
:10596000AC01F60160817181828193810E941134C2
:1059700048C0F2E0FF1689F560913309709134094F
:10598000809135099091360920913F093091400965
:1059900040914109509142090E9411342091FE0A20
:1059A0003091FF0A4091000B5091010B0E94F1349D
:1059B0009B01AC016091F9087091FA088091FB0895
:1059C0009091FC080E9410346093F9087093FA08D3
:1059D0008093FB089093FC0819C0F80160817181E5
:1059E0008281938124853585468557850E941134AF
:1059F0009B01AC01F60160817181828193810E94DB
:105A00001034F6016083718382839383F601608191
:105A10007181828193810E94B929F2E0FF1621F001
:105A20008EEF90E00E940A2BF39484E090E0C80E81
:105A3000D91E0C5F1F4F93E0F91609F049CF8BEF89
:105A400090E00E940A2B2C960FB6F894DEBF0FBE92
:105A5000CDBFCF91DF911F910F91FF90EF90DF901D
:105A6000CF90BF909F908F90089580910F098230C2
:105A700091F0833028F4882341F08130B1F408C0DC
:105A8000833061F0843089F40CC08BEA91E00BC064
:105A900087EA91E008C083EA91E005C08FE991E0D0
:105AA00002C08AE991E00E940A2B87E991E00E94F6
:105AB0000A2B60912A0970E06A5C7F4F882777FD86
:105AC0008095982F0E946B2A80912709882351F492
:105AD00080912809813019F482E991E005C08DE8B0
