:100000000C94F8030C9415040C9415040C9415042A
:100010000C9415040C945D2A0C94A7370C941504C9
:100020000C9415040C9415040C9415040C941504EC
:100030000C9415040C94B41D0C9415040C94150424
:100040000C945D160C9415040C9443160C94150432
:100050000C94D5130C9490130C9415040C94150463
:100060000C9415040C9415040C9415040C941504AC
:100070000C9415040C9415040C9415045F2166214E
:1000800069216C2171217B218721FC21FC21FC212C
:10009000912194219D21A621FC21FC21FC21FC2100
:1000A000FC21FC21B021BE21CC21D621D921E22185
:1000B000EB21F021084AD73B3BCE016E84BCBFFD4B
:1000C000C12F3D6C74319ABD56833DDA3D00C77F28
:1000D00011BED9E4BB4C3E916BAAAABE00000080C1
:1000E0003F05A84CCDB2D44EB93836A9020C50B950
:1000F000918688083CA6AAAA2ABE000000803F3E3E
:100100000D0A002C4C696D3A002C52583A002C42D2
:1001100075663A002C002C57506F733A002C002C57
:100120004D506F733A003C446F6F72003C436865FA
:10013000636B003C416C61726D003C486F6D650003
:100140003C486F6C64003C52756E003C49646C65C1
:10015000005D0D0A005B6563686F3A20005D0D0A63
:10016000005B302E396A2E32303135303831313A39
:10017000000D0A003D00244E005D0D0A00204600DF
:10018000205400204D3800204D3900204D350020EE
:100190004D3400204D3300204D3200204D310020E1
:1001A0004D3000204739340020473933002047398B
:1001B00031002047393000204732300020473231AB
:1001C00000204731390020473138002047313700BF
:1001D0002047004733382E00473830004733004768
:1001E00032004731004730005B005D0D0A005B5470
:1001F0004C4F3A005D0D0A002C005B4739323A0043
:100200005D0D0A002C003A003330003238005B47A5
:10021000005D0D0A003A002C005B5052423A002962
:100220000D0A00206D61782074726176656C2C2057
:100230006D6D0020616363656C2C206D6D2F73659F
:10024000635E3200206D617820726174652C206DD0
:100250006D2F6D696E002C20737465702F6D6D00AD
:100260007A00790078002028003D002400202868CA
:100270006F6D696E672070756C6C2D6F66662C20D3
:100280006D6D290D0A002028686F6D696E67206406
:1002900065626F756E63652C206D736563290D0A49
:1002A0002432373D002028686F6D696E67207365C2
:1002B000656B2C206D6D2F6D696E290D0A24323609
:1002C0003D002028686F6D696E6720666565642C47
:1002D000206D6D2F6D696E290D0A2432353D002980
:1002E0000D0A2432343D002028686F6D696E672046
:1002F00064697220696E76657274206D61736B3A01
:10030000002028686F6D696E67206379636C652CC7
:1003100020626F6F6C290D0A2432333D002028685B
:10032000617264206C696D6974732C20626F6F6CEC
:10033000290D0A2432323D002028736F6674206C28
:10034000696D6974732C20626F6F6C290D0A2432F9
:10035000313D0020287265706F727420696E636889
:1003600065732C20626F6F6C290D0A2432303D00BA
:10037000202861726320746F6C6572616E63652CF6
:10038000206D6D290D0A2431333D0020286A756ED9
:100390006374696F6E20646576696174696F6E2C31
:1003A000206D6D290D0A2431323D00290D0A2431BA
:1003B000313D002028737461747573207265706F0D
:1003C0007274206D61736B3A00202870726F6265E1
:1003D0002070696E20696E766572742C20626F6F72
:1003E0006C290D0A2431303D0020286C696D697438
:1003F0002070696E7320696E766572742C20626F4E
:100400006F6C290D0A24363D002028737465702016
:10041000656E61626C6520696E766572742C20620F
:100420006F6F6C290D0A24353D00290D0A24343DD7
:1004300000202864697220706F727420696E76657E
:100440007274206D61736B3A00290D0A24333D00EC
:1004500020287374657020706F727420696E7665E1
:100460007274206D61736B3A00202873746570207C
:1004700069646C652064656C61792C206D736563BB
:10048000290D0A24323D0020287374657020707590
:100490006C73652C2075736563290D0A24313D004A
:1004A00024303D0024242028766965772047726235
:1004B0006C2073657474696E6773290D0A24232098
:1004C0002876696577202320706172616D65746597
:1004D0007273290D0A244720287669657720706198
:1004E00072736572207374617465290D0A24492042
:1004F0002876696577206275696C6420696E666F1D
:10050000290D0A244E20287669657720737461725C
:1005100074757020626C6F636B73290D0A24783DCB
:1005200076616C7565202873617665204772626C10
:100530002073657474696E67290D0A244E783D6CCA
:10054000696E6520287361766520737461727475B5
:100550007020626C6F636B290D0A24432028636846
:1005600065636B2067636F6465206D6F6465290D3B
:100570000A245820286B696C6C20616C61726D20B4
:100580006C6F636B290D0A2448202872756E2068F1
:100590006F6D696E67206379636C65290D0A7E2033
:1005A000286379636C65207374617274290D0A2164
:1005B00020286665656420686F6C64290D0A3F20F9
:1005C0002863757272656E74207374617475732913
:1005D0000D0A6374726C2D7820287265736574201F
:1005E0004772626C290D0A000D0A4772626C203056
:1005F0002E396A205B27242720666F722068656C7D
:10060000705D0D0A005D0D0A00526573746F7269AA
:100610006E672064656661756C74730050676D2049
:10062000456E6400436865636B20446F6F720044DD
:10063000697361626C656400456E61626C6564003B
:1006400043617574696F6E3A20556E6C6F636B65AC
:100650006400272448277C2724582720746F20759E
:100660006E6C6F636B00526573657420746F2063EA
:100670006F6E74696E7565005B000D0A00486F6DE2
:10068000696E67206661696C0050726F62652066F2
:1006900061696C0041626F727420647572696E6783
:1006A000206379636C6500536F6674206C696D69B3
:1006B000740048617264206C696D697400414C413A
:1006C000524D3A20000D0A00496E76616C69642033
:1006D00067636F64652049443A00556E64656669D6
:1006E0006E65642066656564207261746500556E90
:1006F000737570706F7274656420636F6D6D616E79
:1007000064004D6F64616C2067726F75702076694C
:100710006F6C6174696F6E004C696E65206F7665F1
:1007200072666C6F7700486F6D696E67206E6F74CC
:1007300020656E61626C656400416C61726D206C55
:100740006F636B004E6F742069646C6500454550A3
:10075000524F4D2072656164206661696C2E205590
:1007600073696E672064656661756C7473005661A9
:100770006C7565203C203320757365630053657488
:1007800074696E672064697361626C6564005661A8
:100790006C7565203C203000496E76616C69642080
:1007A00073746174656D656E7400426164206E756A
:1007B0006D62657220666F726D6174004578706558
:1007C0006374656420636F6D6D616E64206C657425
:1007D000746572006572726F723A20006F6B0D0A59
:1007E000003C4A6F67003C4A6F67463E0D0A0000B6
:1007F00011241FBECFEFD0E1DEBFCDBF11E0A0E0DE
:10080000B1E0EAEFFBE702C005900D92A030B1071E
:10081000D9F716E0A0E0B1E001C01D92AC3FB107EE
:10082000E1F70E9417040C94FB3D0C9400000E9419
:100830005D130E9451230E9470160E945F3780E270
:10084000EFE3F5E0DF011D928A95E9F781E08093FF
:100850003F0578948091E20684FF03C081E0809395
:1008600040050E94D0130E94F8120E940C130E94AF
:1008700038130E94DA290E9438330E94FA2D0E9410
:100880009E280E94841D0E94DC230E94F112109277
:100890003F051092420510924305109241050E94B7
:1008A0008915DFCF8091420584FD27C08FB7F8946A
:1008B000909142059061909342058FBF0E94101362
:1008C0000E943B1390914005892F8C7021F48091F8
:1008D0004105813091F4943031F49FB7F8948091C0
:1008E0004305806205C09FB7F894809143058860F6
:1008F000809343059FBF0E94581D08950E94F829C8
:1009000084E00E94C22A83E00E94C22A0E943F140F
:1009100080913F05882321F40E94F1120E94DA2978
:100920000895EF92FF920F931F93CF93DF937B0174
:100930008C0180914005823009F447C0C801B7019D
:1009400020E030E040EA51E40E94C13C0E94603B5C
:100950000E94F73AEB010E947215C801B70120E02E
:1009600030E04AE754E40E94C13C7B018C0182E301
:1009700090E0C89FB001C99F700DD89F700D1124E1
:1009800080E090E00E94233B9B01AC01C801B701CD
:100990000E94A9390E94603B0E94F73ADC01CB011A
:1009A0000E94672900E911E00EC00E943F14809167
:1009B0003F05882351F484EF91E0F8013197F1F776
:1009C0000197D9F72197209781F7DF91CF911F9158
:1009D0000F91FF90EF900895DF92EF92FF920F93A7
:1009E0001F93CF93DF93EC017A018B01D22E80917C
:1009F000E20685FF03C0CE010E94032A80914005D4
:100A0000823099F00E943F1480913F05882369F459
:100A10000E94D223882319F00E943614F3CFCE010E
:100A2000B801A7012D2D0E946225DF91CF911F9162
:100A30000F91FF90EF90DF900895AF92BF92CF9209
:100A4000DF92EF920F931F93CF93DF93EC015A0144
:100A50006B01122F80914005823009F466C00E941C
:100A6000721510925E05802F0E94FD2D0E94102E9F
:100A7000882351F09FB7F89480914305806180935B
:100A800043059FBF0E943F1480913F05882309F0D2
:100A90004CC0CE01B601A501212F0E94EC0481E0DB
:100AA000809351059FB7F8948091420582608093AE
:100AB00042059FBF0E943F1480913F058823A9F5FE
:100AC000809140058823B1F7809151058130A9F4C8
:100AD000EE2051F0E2E5F5E0DF011E978CE00D908D
:100AE00001928150E1F70CC09FB7F89480914305C3
:100AF0008061809343059FBF03C081E080935E05C2
:100B0000109251050E943F1480913F05882369F49B
:100B10000E94841D0E949E280E94DC23CE0164E472
:100B200075E00E948E370E94C430DF91CF911F91F3
:100B30000F91EF90DF90CF90BF90AF9008952F92DC
:100B40003F924F925F926F927F928F929F92AF925D
:100B5000BF92CF92DF92EF92FF920F931F93DF939A
:100B6000CF93CDB7DEB7EF970FB6F894DEBF0FBEC9
:100B7000CDBF9CAB8BAB7EAB6DAB3A010FAB18AF6F
:100B800029AF3AAFCBAEDCAEEDAEFEAEAFAE992440
:100B9000880C991C880C991C880D991D9AAB89ABFF
:100BA0009A01280D391D38AB2FA7D901AD90BD9002
:100BB000CD90DC90C601B501E9A9FAA92081318167
:100BC000428153810E94AA396DA37EA38FA398A767
:100BD00065966FAD6597462E5524440C551C440C04
:100BE000551C2BA93CA9240D351D3EA72DA7C301DB
:100BF000840D951D9CA78BA7DC01ED90FD900D91B8
:100C00001C91C801B701F9012081318142815381D2
:100C10000E94AA3969A37AA38BA39CA3D601C5011C
:100C2000B0588D8F9E8FAF8FB8A3D801C701B05831
:100C3000898F9A8FAB8FBC8FADA9BEA98A0E9B1EE0
:100C4000F40160817181828193812DA13EA14FA128
:100C500058A50E94A9393B014C012DA93EA9420E7D
:100C6000531ED2016D917D918D919C9129A13AA144
:100C70004BA15CA10E94A9395B016C016D8D7E8D39
:100C80008F8D98A1A60195010E94C13C7B018C012A
:100C9000698D7A8D8B8D9C8DA40193010E94C13C3E
:100CA0009B01AC01C801B7010E94A9391B012C01AD
:100CB0006D8D7E8D8F8D98A1A40193010E94C13C02
:100CC0007B018C01698D7A8D8B8D9C8DA6019501A0
:100CD0000E94C13C9B01AC01C801B7010E94AA3926
:100CE0009B01AC01C201B1010E941D3A5B016C0184
:100CF00067968FAD6797882399F0C601B5012DEBF4
:100D000037E346E055EB0E94863C8823ECF0C601B1
:100D1000B5012BED3FE049EC50E40E94A93912C027
:100D2000C601B5012DEB37E346E055E30E94833A57
:100D3000181654F0C601B5012BED3FE049EC50E424
:100D40000E94AA395B016C01E090DE06F090DF069C
:100D50000091E0061091E1066FA978AD89AD9AADDA
:100D60009B01AC010E94AA39A80197010E94A939F0
:100D70009B01AC01C801B7010E94C13C0E944E3DDD
:100D80007B018C01C601B50120E030E040E05FE36B
:100D90000E94C13C2FA938AD49AD5AAD0E94C13C5B
:100DA0009F77A80197010E948A3A0E94603B0E94A7
:100DB000F73A788F6F8B6115710509F487C1BFAD64
:100DC000BB2381F080E090E00E94233B9B01AC01BB
:100DD0006BAD7CAD8DAD9EAD0E94C13C6BAF7CAF69
:100DE0008DAF9EAF2F89388DB90180E090E00E94D1
:100DF000233B7B018C01C601B501A80197010E942C
:100E00008A3A6B8B7C8B8D8B9E8B6696EFAD66974B
:100E1000F0E0EE0FFF1FEE0FFF1F8BA99CA98E0FB6
:100E20009F1F9AA789A7ADA9BEA9EA0FFB1F6081E2
:100E3000718182819381E9A5FAA520813181428166
:100E400053810E94A939A80197010E948A3A6F87AD
:100E5000788B898B9A8B6B897C898D899E899B0184
:100E6000AC010E94C13C9B01AC0160E070E080E0FD
:100E700090E40E94A9395B016C016B897C898D89A2
:100E80009E892BEA3AEA4AE25EE30E94C13C7B017A
:100E90008C01C601B50120E030E040E850E40E943A
:100EA000AA399B01AC01C801B7010E94C13C6B8704
:100EB0007C878D879E87C601B50120E030E040E049
:100EC0005FE30E94C13C69837A838B839C8321E02A
:100ED00030E03E832D839924F1C03BE0391508F4BE
:100EE00046C06D8D7E8D8F8D98A12B853C854D855F
:100EF0005E850E94C13C7B018C01698D7A8D8B8D52
:100F00009C8D29813A814B815C810E94C13C9B016F
:100F1000AC01C801B7010E94AA397B018C016D8D1B
:100F20007E8D8F8D98A129813A814B815C810E94B1
:100F3000C13C5B016C01698D7A8D8B8D9C8D2B85FD
:100F40003C854D855E850E94C13C9B01AC01C6017C
:100F5000B5010E94A9396D8F7E8F8F8F98A39394CE
:100F6000C701D801898F9A8FAB8FBC8F61C0AD81CB
:100F7000BE81BD0180E090E00E94233B2B893C892B
:100F80004D895E890E94C13C7B018C01C8010E9491
:100F9000873A6F83788789879A87B701C8010E944B
:100FA000443D3B014C01EFA5F8A9E080F1800281AE
:100FB000138117FB109517F91095ABA5BCA52D90C3
:100FC0003D904D905C90C801B7012F8138854985CF
:100FD0005A850E94C13C5B016C01C201B101A401B0
:100FE00093010E94C13C9B01AC01C601B5010E9466
:100FF000AA396D8F7E8F8F8F98A3C801B701A40186
:1010000093010E94C13C7B018C01C201B1012F817F
:10101000388549855A850E94C13C9B01AC01C801B5
:10102000B7010E94A939698F7A8F8B8F9C8F992481
:101030006DA17EA18FA198A52D8D3E8D4F8D58A1BC
:101040000E94AA39E9A9FAA96083718382839383F4
:1010500069A17AA18BA19CA1298D3A8D4B8D5C8DC4
:101060000E94AA39ADA5BEA56D937D938D939C93E7
:101070001397E9A5FAA560817181828193812F85FB
:10108000388949895A890E94AA39A9A5BAA56D93B8
:101090007D938D939C9313978BA99CA94BAD5CADCD
:1010A0006DAD7EAD2FAD0E94EC0480913F0588238D
:1010B000B1F4ED81FE813196FE83ED832D813E8179
:1010C0008F89988D2817390708F407CF8DA99EA915
:1010D0004BAD5CAD6DAD7EAD2FAD0E94EC04EF96D7
:1010E0000FB6F894DEBF0FBECDBFCF91DF911F9139
:1010F0000F91FF90EF90DF90CF90BF90AF909F90B7
:101100008F907F906F905F904F903F902F900895B9
:101110002F923F924F925F926F927F928F929F9207
:10112000AF92BF92CF92DF92EF92FF920F931F93F5
:10113000DF93CF93CDB7DEB7A8970FB6F894DEBF95
:101140000FBECDBF1C01EBEAF5E089E3DF011D9284
:101150008A95E9F73196ACE6B5E08AE00D90019208
:101160008150E1F71982AA24BB24772466241CA2AB
:101170001F8E1E8E61E0462E512C9924939452E0CE
:10118000852EBBC2802F81548A3118F081E00C94E7
:10119000D2129F5F9983C101BE016F5F7F4FAE0185
:1011A0004E5F5F4F0E94AF28882319F482E00C94B1
:1011B000D212CA80DB80EC80FD80C701B6010E949C
:1011C0008F3D0E94F73A162F70E0882777FD8095B3
:1011D000982F0E94253B9B01AC01C701B6010E94DC
:1011E000A93920E030E048EC52E40E94C13C0E9462
:1011F000243D0E94F73A9B01073421F00D3409F099
:101200009AC14EC1183209F446C1193200F51431A1
:1012100070F4113108F0E3C0143009F449C01430FF
:1012200008F495C01A3011F00C94C11237C01C316B
:10123000A9F11D3128F4163110F00C94C112FFC031
:101240001E3161F1163211F00C94C11280C01D33B1
:1012500009F41BC11E3388F4153351F1163340F4E1
:101260001B3209F4F5C0113311F00C94C112F0C017
:101270001C3310F00C94C11203C11C3540F41A3514
:1012800008F0BDC0103511F00C94C11267C01C35B8
:1012900029F01F3510F00C94C112C8C0211531057A
:1012A00039F4BCA1BB2311F00C94BF12E1E0ECA314
:1012B0001C31A9F01D3128F4143051F01A3069F4B2
:1012C0000AC0153371F11C3581F11E3131F418C09B
:1012D0009092AB0502C08092AB0580E0DDC0211585
:1012E000310531F02A30310511F00C94C11204C0DF
:1012F000F3E0F093AB0529C024E02093AB0525C0B3
:101300002115310531F02A30310511F00C94C1124C
:1013100004C085E08093AB0518C096E09093AB05C0
:1013200014C0A7E0A093AB05D8CF2115310531F04B
:101330002A30310511F00C94C11204C0B8E0B0930A
:10134000AB0503C0E9E0E093AB0580E0E4C0FCA19D
:10135000FF2311F00C94BF1282E08CA3123089F0AD
:10136000133028F4112351F0113069F40AC01632F9
:1013700061F0103581F1133031F403C01092AC05E7
:1013800002C01093AC0581E087C02E313105B1F069
:101390002F31310530F42431310511F00C94C11294
:1013A00009C02832310571F02233310511F00C9457
:1013B000C1120DC094E09093AC0507C0A5E0A093C6
:1013C000AC0503C0B6E0B093AC0581E0A4C0E7E093
:1013D000E093AC05FACFF8E0F093AC05D4CF12312E
:1013E00039F0133149F0113129F41092B00502C0DF
:1013F0009092B00582E050C08092B005FBCF61159D
:10140000710549F41A3519F41092AF0502C0909293
:10141000AF0583E080C06A30710511F00C94C112F1
:101420001A3511F00C94EB120C94C1121D3519F4FD
:101430009092AD0502C01092AD0585E02DC014312B
:1014400019F49092AE0502C01092AE0586E024C059
:101450008CA1882311F00C94BF12113331F4109237
:10146000B10588E093E09CA356C02A30310511F005
:101470000C94C1129092B10588E0A3E0ACA34BC0DC
:1014800016531093B20589E007C0672B11F40C9432
:10149000EE120C94C11287E0232BE9F10C94C312D5
:1014A000672B11F00C94C312163018F41330C0F4EB
:1014B0000AC0183010F40C94C1121A3008F11E3111
:1014C00011F00C94C112123041F01E3131F0112391
:1014D00011F49092B3058BE01EC08092B305FBCF50
:1014E000143039F0153041F0133041F49092B505C5
:1014F00005C08092B50502C01092B5058CE00BC006
:10150000183019F0193031F403C08092B40502C0CC
:101510001092B4058DE0920102C0220F331F8A950C
:10152000E2F7C9018A219B21892B11F00C94C51285
:10153000A22AB32AE2C0003509F472C00135BCF416
:101540000A3409F443C00B343CF4063449F109343D
:1015500011F00C94C1122EC00C3409F44FC00C349D
:101560000CF440C00E3411F00C94C1124BC0043581
:10157000A9F0053544F4023509F45CC0033511F0D7
:101580000C94C11261C0093509F474C00A3509F41C
:101590007DC0083511F00C94C11260C029E081C0F3
:1015A000C092B605D092B705E092B805F092B905A1
:1015B00020E077C0C092BA05D092BB05E092BC058E
:1015C000F092BD05B1E06B2A21E06BC0C092BE0570
:1015D000D092BF05E092C005F092C105E2E06E2A0C
:1015E00022E05FC0C092C205D092C305E092C4055C
:1015F000F092C505F4E06F2A23E053C01093C605AE
:1016000024E04FC0C701B6010E94F23A6093C705BB
:101610007093C8058093C9059093CA0525E041C021
:10162000C092CB05D092CC05E092CD05F092CE05CC
:1016300026E037C0C092CF05D092D005E092D10508
:10164000F092D20527E02DC0C092D305D092D405E8
:10165000E092D505F092D60528E023C0C092D805C7
:10166000D092D905E092DA05F092DB0521E0722AEA
:101670002AE017C0C092DC05D092DD05E092DE05BD
:10168000F092DF0582E0782A2BE00BC0C092E005E3
:10169000D092E105E092E205F092E30594E0792A28
:1016A0002CE08201022E02C0000F111F0A94E2F703
:1016B0008E8D9F8D80239123892B11F089E172C734
:1016C00081E693E002C0959587952A95E2F780FF21
:1016D0000EC06A817B818C819D8120E030E040E0FA
:1016E00050E00E94833A882314F484E05BC7AE8DF7
:1016F000BF8DA02BB12BBF8FAE8F9981F101E90F68
:10170000F11D0081002309F03DCD772029F0BCA117
:10171000BB2311F4E2E0ECA3FE8DF5FF0FC0809136
:10172000C7059091C805A091C905B091CA05805818
:101730009649A849B04014F08BE134C78091AD05BB
:10174000813039F48CA18230B1F59E8D90FD33C08B
:101750001EC780916D05882371F5AE8DA0FF1BC05B
:101760008091AE05813039F56091B6057091B7056D
:101770008091B8059091B90523E333E34BEC51E434
:101780000E94C13C6093B6057093B7058093B8057D
:101790009093B90510C080917A0590917B05A09136
:1017A0007C05B0917D058093B6059093B705A09315
:1017B000B805B093B905EE8DFF8DF0FD10C0809196
:1017C000760590917705A0917805B0917905809381
:1017D000D3059093D405A093D505B093D6058091F9
:1017E000AB05813041F4FE8DF6FFD3C68E8D9F8D03
:1017F0008F7B9F8F8E8F8091B005882341F0813041
:1018000061F41AA292E09BA3A1E0A9A30BC0B1E0EE
:10181000BAA31BA2E2E0E9A305C0F2E0FAA321E02B
:101820002BA319A28091AE05813051F548EDE42E2D
:1018300045E0F42E00E010E0C72CDD24C601002EA8
:1018400002C0959587950A94E2F780FF10C0D701F2
:101850006D917D918D919C9123E333E34BEC51E4A9
:101860000E94C13CF70160837183828393830F5F81
:101870001F4F84E090E0E80EF91E03301105F1F6E9
:101880009CA1933049F48091B105813029F4A4E002
:101890007A1611F085E286C6DE011696EFE8F5E0CD
:1018A0008CE001900D928150E1F7B1FE12C0909151
:1018B000B205973008F06FC680917205891749F01C
:1018C000892FBE016A5F7F4F0E940F22882309F48F
:1018D00064C68091AB05823021F0883009F0FDC0EC
:1018E0009AC0772009F45BC68E8D9F8D80759070AD
:1018F000892B09F44EC66091CB057091CC0580917F
:10190000CD059091CE050E948F3D0E94F73A673039
:1019100008F041C62091C605243131F0223009F08B
:1019200030C6BE8DB7FD2DC6662319F0615068A381
:1019300003C0E091B205E8A38E010E5E1F4F88A19F
:10194000B8010E940F22882309F427C6780138EDD8
:10195000832E35E0932E23E8C22E25E0D22E00E020
:1019600010E0A72CBB24C501002E02C095958795D9
:101970000A94E2F780FF3BC08091C605843169F587
:10198000D6016D917D918D919C91139758962D91D3
:101990003D914D915C915B970E94A939F4012081A2
:1019A0003181428153810E94A939D7016D937D9382
:1019B0008D939C9313970230D1F42091A705309119
:1019C000A8054091A9055091AA050E94A939F701DF
:1019D00060837183828393830AC0F4018081918143
:1019E000A281B381F70180839183A283B3830F5FC8
:1019F0001F4F84E090E0E80EF91E880E991EC80E75
:101A0000D91E0330110509F0AECFAE8DBF8DAF7A70
:101A1000BF8FAE8F02C1772009F4C1C508ED15E074
:101A200093E8C92E95E0D92E86E0882E912C8C0E55
:101A30009D1EEE24FF24A72CBB24C5010E2C02C042
:101A4000959587950A94E2F780FF2CC0F601608196
:101A5000718182819381D4012D913D914D915C9151
:101A60000E94A939F80120813181428153810E946D
:101A7000A939D8016D937D938D939C931397B2E010
:101A8000EB16D1F42091A7053091A8054091A90546
:101A90005091AA050E94A939F8016083718382835D
:101AA00093830AC0F601808D918DA28DB38DF801CC
:101AB00080839183A283B3830894E11CF11C0C5FA3
:101AC0001F4F84E090E0C80ED91E880E991E93E047
:101AD000E916F10409F0B1CF9FC0ACA1A33009F41D
:101AE0007CC0772009F479C013E8C12E15E0D12E0F
:101AF00008ED15E0B6E0AB2EB12CAC0EBD1EEE2409
:101B0000FF24872C9924C4010E2C02C0959587953B
:101B10000A94E2F780FD0BC0F60180819181A281D9
:101B2000B381F80180839183A283B38346C08091FF
:101B3000AB05873009F441C08091AF05882361F57A
:101B4000D5016D917D918D919C91F601208D318D06
:101B5000428D538D0E94AA39D8012D913D914D910E
:101B60005C910E94AA39F801608371838283938318
:101B7000F2E0EF1611F52091A7053091A8054091EC
:101B8000A9055091AA050E94AA39D8016D937D93A9
:101B90008D939C93139711C0F801608171818281AC
:101BA0009381D6012D913D914D915C910E94AA396E
:101BB000F80160837183828393830894E11CF11C94
:101BC00084E090E0C80ED91E0C5F1F4FA80EB91E0E
:101BD00093E0E916F10409F096CF8091AB058530CA
:101BE00049F0873099F08330B9F4772009F41CA2CA
:101BF00086E004C0772009F41CA287E0BE016E5E77
:101C00007F4F0E940F22882339F4C7C48091AC050E
:101C1000823010F08EE1C6C418A21091AC051830C5
:101C200049F4772009F45FC2ACA1A13009F45BC28A
:101C30008FE1B8C4BCA1B23009F055C21123E9F05C
:101C40006091B6057091B7058091B8059091B9057E
:101C500020E030E040E050E00E94833A882309F41D
:101C600096C4143030F4123060F4113009F03BC2E5
:101C700004C0183008F037C213C2772009F432C20A
:101C800032C2772009F48BC4FBA1EF2FF0E0F8A754
:101C9000EFA39AA1892F90E09EA38DA381E090E00D
:101CA0008C010DA002C0000F111F0A94E2F70FA0D3
:101CB00002C0880F991F0A94E2F7082B192B872D71
:101CC00090E080239123892B11F480E26BC4EFA173
:101CD000F8A5EE0FFF1FEE0FFF1FDF01A459BA4F4B
:101CE000E555FA4F65A576A587A590A957962D913C
:101CF0003D914D915C915A970E94A9395B016C010D
:101D0000EDA1FEA1EE0FFF1FEE0FFF1FDF01A45993
:101D1000BA4FE555FA4F65A576A587A590A95796C0
:101D20002D913D914D915C915A970E94A9391B01CB
:101D30002C01AE8DA7FF02C103E815E068EDE62E89
:101D400065E0F62EF8016081718182819381D7016F
:101D50002D913D914D915C910E94833A882359F4D5
:101D60000C5F1F4FE4E0F0E0EE0EFF1EF5E00F38D1
:101D70001F0741F716C48091AE058130B1F4609120
:101D8000CF057091D0058091D1059091D20523E3C4
:101D900033E34BEC51E40E94C13C6093CF05709358
:101DA000D0058093D1059093D205E090CF05F090B7
:101DB000D0050091D1051091D205C801B70120E0EE
:101DC00030E040E850E40E94C13CA80197010E9425
:101DD000C13C7B018C01C601B501A60195010E94A1
:101DE000C13C9B01AC01C801B7010E94A9397B012C
:101DF0008C01C201B101A20191010E94C13C9B0171
:101E0000AC01C801B7010E94A9397B018C0120E017
:101E100030E040E050E00E94833A882314F482E2EC
:101E2000C1C3C801B7010E944E3D7B018C01C601B0
:101E3000B501A20191010E94B1299B01AC0117FBE0
:101E4000109517F91095C801B7010E948A3A7B01D5
:101E50008C018091AC05833021F417FB109517F9A4
:101E600010956090CF057090D0058090D10590902E
:101E7000D205C401B30120E030E040E050E00E9410
:101E8000833A88237CF417FB109517F91095D40139
:101E9000C301B0588093CF059093D005A093D1058E
:101EA000B093D2058E8D9F8D8F779F8F8E8FAFA130
:101EB000B8A5AA0FBB1FAA0FBB1FA155BA4FB8A741
:101EC000AFA3C201B101A80197010E94C13C9B01CF
:101ED000AC01C601B5010E94A93920E030E040E024
:101EE0005FE30E94C13CEFA1F8A5638774878587F3
:101EF00096878DA19EA1880F991F880F991F8155E4
:101F00009A4F9EA38DA3C601B501A80197010E9417
:101F1000C13C9B01AC01C201B1010E94AA3920E081
:101F200030E040E05FE30E94C13CADA1BEA11B9642
:101F30006D937D938D939C931E97D5C0862C992489
:101F400008211921012B11F483E22CC3EE8DFF8DA2
:101F5000E17FFF8FEE8F8091AE05813041F53AEB46
:101F6000E32E35E0F32E00E010E0C401002E02C0A5
:101F7000959587950A94E2F780FF10C0D7016D917F
:101F80007D918D919C9123E333E34BEC51E40E94CE
:101F9000C13CF70160837183828393830F5F1F4F7E
:101FA00084E090E0E80EF91E03301105F1F6EFA091
:101FB000F8A4EE0CFF1CEE0CFF1CAFEAB5E0EA0E35
:101FC000FB1EC601B501F70123853485458556857D
:101FD0000E94A9395B016C010DA11EA1000F111F08
:101FE000000F111F01551A4FC201B101D8011B96F4
:101FF0002D913D914D915C911E970E94A9399B01B5
:10200000AC01C601B5010E94B1295B016C01F70169
:102010006385748585859685D8011B962D913D91A4
:102020004D915C911E970E94B1293B014C01609338
:10203000CF057093D0058093D1059093D205C6014A
:10204000B501A40193010E94A9397B018C01E89498
:1020500017F9C801B7012AE037ED43EA5BE30E94B4
:10206000863C18160CF03FC0C801B70120E030E0F4
:1020700040E05FE30E94863C18160CF492C2C40153
:10208000B3012FE632E143E85AE30E94C13C9B01D1
:10209000AC01C801B7010E94863C181624F581C224
:1020A000772009F47CC203E815E088EDE82E85E08E
:1020B000F82EF8016081718182819381D7012D9181
:1020C0003D914D915C910E94833A882361F40C5FAD
:1020D0001F4FE4E0F0E0EE0EFF1EF5E00F381F07A3
:1020E00041F75FC21CA28E8D9F8D8E7D9C7F2CA19F
:1020F000222321F08E8D9F8D8E7D907E892B11F075
:1021000084E250C28091C7059091C805A091C9058D
:10211000B091CA0580937F0590938005A0938105B7
:10212000B09382058091AD0580936D058091B605D1
:102130009091B705A091B805B091B90580937A0543
:1021400090937B05A0937C05B0937D05E090D3052B
:10215000F090D4050091D5051091D60560917605D3
:10216000709177058091780590917905A801970184
:102170000E94833A8823C1F080917505882321F05D
:10218000B801A7010E941F138091D3059091D40537
:10219000A091D505B091D6058093760590937705EB
:1021A000A0937805B09379058091D70580937E053B
:1021B0009091B50580917505891779F04091760564
:1021C000509177056091780570917905892F0E946B
:1021D0001F138091B505809375059091B40580918A
:1021E0007405891739F0892F0E9443138091B40533
:1021F000809374058091AB05813051F46091CB05DB
:102200007091CC058091CD059091CE050E949104EE
:102210008091B005809370058091AE0580936E0526
:102220008CA18330D9F48091B10580937105813000
:1022300049F48091E0059091E105A091E205B0910B
:10224000E30504C080E090E0A0E0B0E08093A70543
:102250009093A805A093A905B093AA059091B20503
:1022600080917205891759F090937205AFE8B5E037
:10227000FE0136968CE001900D928150E1F780913D
:10228000AF0580936F058091AB05853059F186309D
:1022900048F4833039F1843008F044C0823009F0CA
:1022A0005AC00AC0883009F445C0893009F44CC0CE
:1022B000863009F050C038C08E010E5E1F4F88A1D5
:1022C000B8010E9404228091720598A1891709F033
:1022D00042C0AFE8B5E0F8018CE001900D9281506A
:1022E000E1F739C0ACA1AA2349F088ED95E040E0C0
:1022F00050E060E87FEB20E00E94EC048E010E5E6F
:102300001F4FC80140E050E060E87FEB20E00E94F2
:10231000EC04A3E8B5E0F8018CE001900D92815047
:10232000E1F719C086E001C087E063E875E00E942C
:10233000042211C0ABE9B5E0E8EDF5E08CE00190D6
:102340000D928150E1F707C08CE0EBE9F5E0DF0189
:102350001D928A95E9F78091AC0580936C058830D1
:1023600009F4C2C0BCA1B23009F0BEC0833009F488
:102370004AC0843028F48130C1F0823028F50DC085
:10238000853009F47AC0853008F469C0863009F4D4
:1023900082C0873009F09FC08DC088ED95E040E095
:1023A00050E060E87FEB20E00CC040917A0550914E
:1023B0007B0560917C0570917D0588ED95E020910D
:1023C0006D050E94EC0487C000D00F92EDB7FEB7F8
:1023D00031960091CF051091D0052091D105309113
:1023E000D205C0907A05D0907B05E0907C05F090F6
:1023F0007D058AA1ADB7BEB711968C9399A1918343
:1024000081E082831DC000D00F92EDB7FEB73196F8
:102410000091CF051091D0052091D1053091D205C2
:10242000C0907A05D0907B05E0907C05F0907D050A
:102430008AA1ADB7BEB711968C9399A191831282F0
:1024400083E895E068ED75E04AEB55E0A0906D05F6
:102450008BA00E949F050F900F900F903CC0409161
:102460007A0550917B0560917C0570917D0588ED22
:1024700095E020916D0500E01BC040917A055091D8
:102480007B0560917C0570917D0588ED95E020913C
:102490006D0500E01CC040917A0550917B0560916C
:1024A0007C0570917D0588ED95E020916D0501E03A
:1024B000EE240FC040917A0550917B0560917C0518
:1024C00070917D0588ED95E020916D0501E0EE2489
:1024D000E3940E941D05A3E8B5E0E8EDF5E08CE08B
:1024E00001900D928150E1F78091B30580937305BF
:1024F000882309F457C00E947215809173058130BA
:1025000079F4809140058230B1F19FB7F8948091C1
:1025100042058860809342059FBF0E943F142BC0F4
:1025200081E080936C051092700510926F051092F7
:102530006D051092720510927505109274058091C8
:1025400040058230A9F08E010A5F1F4F80E0B8017C
:102550000E940F22882309F1AFE8B5E0F8018CE072
:1025600001900D928150E1F70E9410130E943B13DD
:1025700087E00E943B2E1092730580E013C088E133
:1025800011C084E10FC087E10DC085E10BC086E179
:1025900009C08CE107C08DE105C087E003C08AE176
:1025A00001C081E2A8960FB6F894DEBF0FBECDBF82
:1025B000CF91DF911F910F91FF90EF90DF90CF901F
:1025C000BF90AF909F908F907F906F905F904F9053
:1025D0003F902F90089584E00C948B0A8AE00C942D
:1025E0008B0A83E895E064E475E00E948E370895D5
:1025F000ECE6F5E08FE3DF011D928A95E9F7809123
:102600007205BF016D5D7F4F0E940F22882319F470
:1026100087E00E94742E08953F9A3F9A4798089544
:102620004798089580936B05882311F4479808957F
:10263000813011F4479801C0479A479A0895DF9274
:10264000EF92FF920F931F93D82E7A018B01809106
:102650004005823039F00E9472158D2DB801A70116
:102660000E9412131F910F91FF90EF90DF90089539
:102670003E9A4698089546980895823011F4469AF5
:102680000895469808951F93182F80914005823031
:1026900039F00E947215123011F4469A01C0469822
:1026A0001F9108959091010180910001891710F008
:1026B000891B08958058891B0895E0ECF0E0808123
:1026C000826080831092C50080E18093C400E1ECB9
:1026D000F0E0808180618083808188608083808158
:1026E000806880830895282FE09102019E2F9F5FCC
:1026F000903431F490E004C08091420584FD0FC015
:10270000809103019817C1F3F0E0EC51FA4F208358
:10271000909302018091C10080628093C10008956E
:102720001F920F920FB60F9211248F939F93EF93E6
:10273000FF9380910301E82FF0E0EC51FA4F908174
:102740009093C600982F9F5F903409F490E0909387
:10275000030180910201981729F48091C1008F7DB7
:102760008093C100FF91EF919F918F910F900FBEC9
:102770000F901F9018959091010180910001891789
:1027800011F48FEF0895E92FF0E0EC5DF94F8081AF
:10279000E92FEF5FE03809F4E0E0E09301010895EC
:1027A000809100018093010108951F920F920FB64E
:1027B0000F9211242F933F934F935F936F937F93C7
:1027C0008F939F93AF93BF93EF93FF939091C60026
:1027D0009F3361F0903428F4983119F1913221F54A
:1027E00014C09034C1F09E37F9F406C09FB7F89436
:1027F00080914205816005C09FB7F89480914205A1
:102800008260809342059FBF20C09FB7F89480915B
:1028100042058860F6CF9FB7F894809142058062A8
:10282000F0CF0E94520411C0E09100012E2F2F5FC3
:10283000203809F420E080910101281731F0F0E000
:10284000EC5DF94F908320930001FF91EF91BF91D0
:10285000AF919F918F917F916F915F914F913F9138
:102860002F910F900FBE0F901F9018959FB7F8945F
:10287000809142058260809342059FBF0895CF9268
:10288000DF92EF92FF920F931F93CF93DF93FF247A
:10289000F39428E0C22E90E2E92E00E180E4D82EE5
:1028A0000E944D3480914305882381F1F0924005C8
:1028B000182F81FF02C081E00FC082FF02C082E0BA
:1028C0000BC083FF02C083E007C084FF02C084E026
:1028D00003C085FF03C085E00E940A3310FF0FC0CC
:1028E00081E00E943B2E9FB7F894809142058F7E35
:1028F000809342059FBF8091420584FFFCCF8FB734
:10290000F89490914305109243058FBF10914205B2
:10291000112309F4C5C0C12FD0E014FF04C081E029
:1029200080933F05D6C010FF0AC00E94DB2E9FB7E0
:10293000F894809142058E7F809342059FBFCE011F
:1029400088769070892B09F43DC0909140059923B9
:1029500049F0892F8C7771F1983021F40E949516F7
:10296000F092410590914005992319F482E08093FB
:102970004105C6FF09C0983011F4D09240058091FE
:102980004105886080934105C3FF06C080914005E2
:1029900085FD02C000934005C5FF0CC086E00E9483
:1029A0003B2E8091410581FD146084608093410538
:1029B000E09240059FB7F894809142058779809313
:1029C00042059FBFC12FD0E011FF4AC0CE018876DB
:1029D0009070892BE9F580914005882331F080754E
:1029E000B9F18091410581FF33C08091410582FF9B
:1029F0001CC080917505882371F040917605509137
:102A0000770560917805709179050E94121380EA2C
:102A10009FE00E94672980917405882331F00E940D
:102A20003D1388EE93E00E9467290E94C123892B01
:102A300059F08091410583FD07C0C09240050E9476
:102A4000B7160E94131602C010924005109241055D
:102A50009FB7F894809142058D7F809342059FBF78
:102A6000C2FF1EC080914005807371F080914105C6
:102A700082FF04C00E9410130E943B138091410505
:102A800082608093410504C0109241051092400578
:102A90009FB7F894809142058B7F809342059FBF3A
:102AA000809140058C7711F00E94B7168091400507
:102AB000803251F48091410581FF06C00E94703739
:102AC000882311F40093400580914105882309F083
:102AD000E7CEDF91CF911F910F91FF90EF90DF90A4
:102AE000CF9008959FB7F8948091420582608093BB
:102AF00042059FBF0E943F1480913F05882341F407
:102B00000E94C123892BB1F780914005883091F351
:102B100008950F931F930E94362E809140058130B7
:102B200021F482E00E943B2E28C00E947037882347
:102B300041F0809142058062809342050E943F14DB
:102B400002C01092400584E091E00E94DF3715C07A
:102B50009A3011F09D3029F5E12FF0E0EC5FFE4F47
:102B600010820E943F1480913F05882331F48091A8
:102B70000401882321F40E94742E00E02BC08432CB
:102B800029F484E091E00E940B38F5CF8091400554
:102B9000813011F489E0EFCF84E091E00E94880851
:102BA000EACF002331F0993239F5013029F500E000
:102BB00023C0913208F19F32F9F0983211F401E00C
:102BC0001BC09B3311F402E017C01F3428F08BE0C8
:102BD0000E94742E10E010C0892F8156A12FB0E002
:102BE000E12FEF5F8A3120F4AC5FBE4F905202C0FC
:102BF000AC5FBE4F9C931E2F0E94BB13982F8F3F3C
:102C000009F0A6CF8FB7F894909142059260909307
:102C100042058FBF0E943F1480913F05882361F3D6
:102C20001F910F9108958091E20682FF02C0289AB9
:102C300001C02898809140058C7021F18091F501A8
:102C40008093DD018091F4018093DC012091D50611
:102C500030E040E050E0DA01C9010896A11DB11D45
:102C6000880F991FAA1FBB1F81958093DB01220F3C
:102C7000331F441F551F219527BD80916F0082602F
:102C800080936F0008951F920F920FB60F92112438
:102C90008F939F9315BC8091A406882339F49BB130
:102CA0008091F40184759B7A892B8BB99F918F91C8
:102CB0000F900FBE0F901F9018951F920F920FB696
:102CC0000F9211248F938091A406882319F4809188
:102CD000D9018BB98F910F900FBE0F901F9018954F
:102CE0008AB184658AB9209A8AB1886A8AB9E1E88A
:102CF000F0E080818F7E8083808188608083E0E83F
:102D0000F0E080818C7F808380818F708083EEE60D
:102D1000F0E08081887F808314BC15BC8081816055
:102D200080838081826080830895CF93DF93C091F8
:102D3000F701D091F8012097B9F081E08093FC0170
:102D40002091120230911302409114025091150209
:102D5000CA01B9010E94C13C698B7A8B8B8B9C8B19
:102D60001092F8011092F701DF91CF9108952F9200
:102D70003F924F925F926F927F928F929F92AF920B
:102D8000BF92CF92DF92EF92FF920F931F93DF9348
:102D9000CF93CDB7DEB7E9970FB6F894DEBF0FBE7D
:102DA000CDBF80914005807709F426C6609112025C
:102DB00070911302809114029091150220E030E08E
:102DC00040E050E00E94833A882309F015C61BC6F4
:102DD0008091F7019091F801892B09F07EC20E9441
:102DE000C1239093F8018093F701892B09F40BC656
:102DF0008091FC01882319F01092FC01CAC08091D7
:102E0000FB018F5F8093FB01853011F41092FB0171
:102E1000E091FB0121E1E29FF0011124EC5AFE4F09
:102E2000F093FA01E093F9010091F7011091F80194
:102E3000D8018C91808311962D913D914D915C919B
:102E4000149763E0220F331F441F551F6A95D1F773
:102E5000218332834383548315962D913D914D9167
:102E60005C91189793E0220F331F441F551F9A95CA
:102E7000D1F7258336834783508719962D913D914D
:102E80004D915C911C9783E0220F331F441F551F07
:102E90008A95D1F721873287438754871D962D91D4
:102EA0003D914D915C91509773E0220F331F441F69
:102EB000551F7A95D1F7258736874787508B1D9602
:102EC0006D917D918D919C9150970E94233B6093D1
:102ED000FD017093FE018093FF0190930002F801C1
:102EE00025A136A147A150A50E948A3A9B01AC01B9
:102EF0006093010270930202809303029093040294
:102F000060E070E080EA9FE30E948A3A60930502E5
:102F100070930602809307029093080280E090E08D
:102F2000A0E0B0E08093090290930A02A0930B0204
:102F3000B0930C02809140058077E1F020911A0255
:102F400030911B0240911C0250911D0220931202ED
:102F5000309313024093140250931502CA01B90131
:102F60000E94C13CD80151966D937D938D939C93A3
:102F700054970FC0F80161897289838994890E94EE
:102F80004E3D60931202709313028093140290934B
:102F9000150280E090E0A0E0B0E080930E029093F4
:102FA0000F02A0931002B09311020091F70110914B
:102FB000F801D80191968D919D910D90BC91A02D15
:102FC00088AB99ABAAABBBAB60E070E080E09FE35D
:102FD00028A939A94AA95BA90E948A3A1B012C0198
:102FE00080914005807709F456C0B2E0B0930D029D
:102FF000F801A5A0B6A0C7A0D0A461887288838874
:103000009488C201B101A40193010E94C13C9B01BB
:10301000AC01C601B5010E94A9397B018C0120E0F9
:1030200030E040E050E00E94833A8823FCF468A935
:1030300079A98AA99BA920E030E040E050EC0E94E9
:10304000C13CA60195010E94C13C9B01AC01C40199
:10305000B3010E94AA390E944E3D60931A027093F8
:103060001B0280931C0290931D0237C1E0920E0256
:10307000F0920F02009310021093110280E090E092
:10308000A0E0B0E080931A0290931B02A0931C0270
:10309000B0931D0222C110920D02F80185A196A1E4
:1030A000A7A1B0A580931E0290931F02A0932002B7
:1030B000B09321020E9440255B016C0160931A02CB
:1030C00070931B0280931C0290931D02A601950130
:1030D0000E94C13C3B014C012091F7013091F80165
:1030E00039AF28AFD90195968D919D910D90BC91E6
:1030F000A02D8B8F9C8FAD8FBE8FF9016189728956
:1031000083899489A40193010E94A9399B01AC0190
:10311000C201B1010E94C13C9B01AC016B8D7C8D51
:103120008D8D9E8D0E94AA3920E030E040E05FE363
:103130000E94C13C7B018C0120E030E040E050E087
:103140000E94863C18160CF0B4C0C801B7012B8D44
:103150003C8D4D8D5E8D0E94833A88230CF095C086
:10316000A8ADB9AD5D966D917D918D919C91909733
:10317000A40193010E94A9399B01AC01C201B101D4
:103180000E94C13C60932202709323028093240228
:1031900090932502A80197010E94833A88230CF09E
:1031A00047C0E8ADF9ADE58CF68C078D10A1C801DC
:1031B000B7010E944E3D60931602709317028093F0
:1031C000180290931902A8ADB9AD5196AD90BD907B
:1031D000CD90DC905497C601B501A80197010E94DB
:1031E000833A882321F4B1E0B0930D0276C0C80180
:1031F000B701A60195010E94A9399B01AC01C2014A
:10320000B1010E94C13C9B01AC0160911E02709112
:103210001F0280912002909121020E94A93960939F
:103220001E0270931F02809320029093210255C0CA
:10323000E0921E02F0921F020093200210932102DE
:10324000E0922202F09223020093240210932502BE
:10325000E8ADF9AD21A132A143A154A1CA01B90140
:103260000E94AA39A80197010E94C13CA4019301C0
:103270000E94AA390E944E3D609316027093170275
:10328000809318029093190228C0F2E0F0930D0287
:103290008091120290911302A0911402B091150234
:1032A0008093160290931702A0931802B09319020C
:1032B00014C080E090E0A0E0B0E080931E02909304
:1032C0001F02A0932002B0932102A0921602B09296
:1032D0001702C0921802D09219028091F201B6E052
:1032E0008B9FD0011124A755BE4FB9AFA8AF8091D5
:1032F000FB0112968C93E091F701F091F801FA8F9F
:10330000E98F85A196A1A7A1B0A58D8B9E8BAF8BD0
:10331000B88FBC01CD012091050230910602409189
:103320000702509108020E94A9396CA37DA38EA3C5
:103330009FA320E030E040E050E00E94833A8823E1
:1033400044F480E090E0A0E0B0E08CA39DA3AEA3A5
:10335000BFA380911E0290911F02A0912002B09104
:103360002102898B9A8BAB8BBC8B8091160290913A
:103370001702A0911802B09119028D879E87AF871E
:10338000B88B8091220290912302A0912402B091E7
:10339000250289879A87AB87BC8780910E0290911E
:1033A0000F02A0911002B09111028D839E83AF8312
:1033B000B88780911A0290911B02A0911C02B091D3
:1033C0001D0289839A83AB83BC8380911202909102
:1033D0001302A0911402B091150288A399A3AAA385
:1033E000BBA390910D029F8FAD88BE88CF88D88CEB
:1033F0008EE393ECAEE2B9E38CA79DA7AEA7BFA77F
:1034000080E090E0A0E0B0E088A799A7AAA7BBA7BA
:103410000F2EFEE36F2EF3EC7F2EFEE28F2EF9E3EC
:103420009F2EF02D9F8D992321F0913009F0B3C08C
:1034300080C0C401B301A98DBA8D91962D913D91A3
:103440004D915C9194970E94C13C7B018C0120E0DE
:1034500030E040E05FE30E94C13C9B01AC0168A109
:1034600079A18AA19BA10E94AA399B01AC01C40148
:10347000B3010E94C13C9B01AC01C601B5010E9491
:10348000A9395B016C0129893A894B895C890E94C1
:10349000833A88230CF040C069897A898B899C899A
:1034A00029853A854B855C850E94833A882319F4E7
:1034B000B2E0BF8F02C0E1E0EF8F6D897E898F8916
:1034C000988D29893A894B895C890E94A9399B0189
:1034D000AC010E94AA397B018C0168A179A18AA163
:1034E0009BA12D853E854F8558890E94AA399B0155
:1034F000AC01C801B7010E948A3A3B014C01A9887E
:10350000BA88CB88DC888D859E85AF85B88988A3ED
:1035100099A3AAA3BBA3B0C068A179A18AA19BA1CA
:10352000A80197010E94AA3968A379A38AA39BA343
:10353000A3C06D857E858F859889A40193010E9423
:10354000C13C9B01AC01C601B5010E94A9397B01B8
:103550008C0129853A854B855C850E94833A87FDDD
:1035600003C05701680188C0C601B50129853A85A5
:103570004B855C850E94A9392D853E854F855889EC
:103580000E948A3A3B014C01A984BA84CB84DC8432
:1035900092E09F8F71C0C401B301A98DBA8D91963D
:1035A0002D913D914D915C9194970E94C13C7B017E
:1035B0008C0168A179A18AA19BA1A80197010E9411
:1035C000863C1816ACF5C801B70120E030E040E0B9
:1035D0005FEB0E94C13C9B01AC0168A179A18AA16B
:1035E0009BA10E94AA399B01AC01C401B3010E94B6
:1035F000C13C9B01AC01C601B5010E94A9391B0168
:103600002C012D813E814F8158850E94863C1816E1
:103610007CF468A179A18AA19BA1A80197010E94CD
:10362000A93968A379A38AA39BA36201510124C08D
:10363000C601B5012D813E814F8158850E94A9396F
:103640009B01AC010E94AA397B018C0168A179A180
:103650008AA19BA129813A814B815C810E94AA3970
:103660009B01AC01C801B7010E948A3A3B014C01A1
:10367000AD80BE80CF80D88468A579A58AA59BA59A
:10368000A40193010E94AA3968A779A78AA79BA7DA
:103690002CA53DA54EA55FA50E94833A88232CF456
:1036A0006CA57DA58EA59FA518C0C601B5012CA14E
:1036B0003DA14EA15FA10E94863C18160CF56CA599
:1036C0007DA58EA59FA52EE333EC4EE259E30E9423
:1036D000AA396CA77DA78EA79FA728A539A54AA5BB
:1036E0005BA50E94A9393B014C01C601B5012D81A2
:1036F0003E814F8158850E94863C18160CF492CE6C
:1037000088A199A1AAA1BBA1809312029093130250
:10371000A0931402B09315029F8D90930D02C601E1
:10372000B5012091010230910202409103025091B3
:1037300004020E94C13C6CAB7DAB8EAB9FAB0E9480
:10374000703A1B012C016091FD017091FE01809186
:10375000FF01909100020E94703A3B014C01A201CE
:1037600091010E94A9390E94F73AA8ADB9AD6D93B5
:103770007C93672BB1F580914005807791F180E0D3
:1037800090E0A0E0B0E08093120290931302A09327
:103790001402B09315028093090290930A02A09339
:1037A0000B02B0930C022092FD013092FE01409278
:1037B000FF01509200020091F7011091F801C2013F
:1037C000B101209101023091020240910302509117
:1037D00004020E948A3AF80165A376A387A390A702
:1037E00002C168A579A58AA59BA5209109023091FF
:1037F0000A0240910B0250910C020E94AA397B01EF
:103800008C01C401B3012CA93DA94EA95FA90E9456
:10381000A9399B01AC01C801B7010E948A3A7B011A
:103820008C01C201B1012CA93DA94EA95FA90E943A
:10383000A939A80197010E94C13C609309027093C5
:103840000A0280930B0290930C02C801B70120EC8E
:1038500031EE44E65EE40E94C13C0E94703A0E9450
:10386000F73AAB01BC01403DF7E05F07F0E06F07BE
:10387000F0E07F0728F4A8ADB9AD15961C9233C0CF
:10388000403ABFE05B07B0E06B07B0E07B0728F48D
:1038900021E0E8ADF9AD25830FC040343FE1530787
:1038A00030E0630730E0730710F4E2E001C0E3E0CA
:1038B000A8ADB9AD1596EC93A8ADB9AD15962C9100
:1038C0001597022E04C076956795579547950A94EB
:1038D000D2F78D919C91119702C0880F991F2A955C
:1038E000E2F78D939C934030B0E05B07B1E06B074B
:1038F000B0E07B0728F4E8ADF9AD5483438308C0FA
:10390000EFEFFFEFA8ADB9AD1496FC93EE931397CC
:103910008091F3018093F2018F5F8093F3018630F1
:1039200011F41092F301C601B50120910E023091FD
:103930000F0240911002509111020E94863C18160D
:10394000ACF4E091F701F091F801A5A2B6A2C7A2EC
:10395000D0A68CA99DA9AEA9BFA98093FD01909383
:10396000FE01A093FF01B093000246C0C601B5015D
:1039700020E030E040E050E00E94863C1816B4F5AC
:1039800080E090E0A0E0B0E08093120290931302F8
:10399000A0931402B09315028093090290930A0237
:1039A000A0930B02B0930C022092FD013092FE0115
:1039B0004092FF01509200020091F7011091F8012E
:1039C000C201B10120910102309102024091030233
:1039D000509104020E948A3AD80195966D937D9386
:1039E0008D939C9398970E9437250DC01092F801F3
:1039F0001092F7010E94AD239091F1018091F301A3
:103A0000981709F0E5C9E9960FB6F894DEBF0FBE26
:103A1000CDBFCF91DF911F910F91FF90EF90DF907D
:103A2000CF90BF90AF909F908F907F906F905F905E
:103A30004F903F902F900895FF920F931F93CF9335
:103A4000DF931092F4011092F501C0E0D0E00C2F4A
:103A5000FC2E8091D60690E00C2E02C0959587959D
:103A60000A94E2F780FF08C01091F4018C2F0E94A5
:103A70009820182B1093F4018091D70690E002C093
:103A800095958795FA94E2F780FF08C01091F501AB
:103A9000802F0E94A220182B1093F5012196C3308D
:103AA000D105A9F6DF91CF911F910F91FF90089555
:103AB00080916F008D7F80936F0080918100887F5F
:103AC0008160809381001092F6019091D8069F3F0B
:103AD00021F480914305882351F080914005843082
:103AE00031F0892F90E00E94672991E001C090E0B9
:103AF0008091E20682FF02C081E09827992311F0AD
:103B0000289A0895289808950E94581D8BE2EBEF9B
:103B1000F1E0DF011D928A95E9F784E2EDECF1E036
:103B2000DF011D928A95E9F71092F0011092EF01E2
:103B30001092F8011092F7011092F1011092F20127
:103B400081E08093F3011092F6010E941C1D8BB15D
:103B50008B7A9091F401892B8BB98BB187759091F9
:103B6000F501892B8BB908951F920F920FB60F9212
:103B700011242F933F934F935F936F937F938F9372
:103B80009F93AF93BF93CF93DF93EF93FF93809176
:103B9000A406882319F00E944D330DC28091F601CE
:103BA000882309F008C29BB18091DD01887A97755E
:103BB000892B8BB98BB18B7A9091DC01892B809307
:103BC000D9018091DB0186BD82E085BD81E08093D3
:103BD000F60178948091EF019091F001892B09F022
:103BE000A2C09091F1018091F201891709F490C06F
:103BF0009091F10186E0989FE0011124C755DE4FB6
:103C0000D093F001C093EF018B819C819093890048
:103C100080938800888199819093EB018093EA01D9
:103C20009A818091EC01891761F19093EC01E1E1B7
:103C30009E9FF0011124EC5AFE4FF093EE01E093A9
:103C4000ED0185859685A785B089B695A795979549
:103C500087958093D5019093D601A093D701B09317
:103C6000D8018093D1019093D201A093D301B09356
:103C7000D4018093CD019093CE01A093CF01B09356
:103C8000D001E091ED01F091EE018091F50190817C
:103C900089278093DD012D8181819281A381B48167
:103CA000022E04C0B695A795979587950A94D2F7EA
:103CB0008093DE019093DF01A093E001B093E101D6
:103CC00085819681A781B085022E04C0B695A795FF
:103CD000979587950A94D2F78093E2019093E30138
:103CE000A093E401B093E50181859285A385B48515
:103CF00004C0B695A795979587952A95D2F7809396
:103D0000E6019093E701A093E801B093E9010BC0AD
:103D10000E94581D9FB7F89480914205846080935B
:103D200042059FBF48C10E94162E1092DC012091CF
:103D3000DE013091DF014091E0015091E10180917D
:103D4000CD019091CE01A091CF01B091D001280F6B
:103D5000391F4A1F5B1F2093CD013093CE01409342
:103D6000CF015093D001E091ED01F091EE018585F6
:103D70009685A785B08982179307A407B507A8F58C
:103D800080E48093DC0185859685A785B089281B12
:103D9000390B4A0B5B0B2093CD013093CE0140933E
:103DA000CF015093D001808187FF0CC080914405E2
:103DB00090914505A0914605B09147050197A1094D
:103DC000B1090BC08091440590914505A09146052D
:103DD000B09147050196A11DB11D809344059093B4
:103DE0004505A0934605B09347052091E201309127
:103DF000E3014091E4015091E5018091D10190915E
:103E0000D201A091D301B091D401280F391F4A1FCC
:103E10005B1F2093D1013093D2014093D301509383
:103E2000D40185859685A785B08982179307A40755
:103E3000B507B8F58091DC0180618093DC01858550
:103E40009685A785B089281B390B4A0B5B0B2093FD
:103E5000D1013093D2014093D3015093D40180819A
:103E600085FF0CC08091480590914905A0914A05B5
:103E7000B0914B050197A109B1090BC0809148058C
:103E800090914905A0914A05B0914B050196A11D5D
:103E9000B11D8093480590934905A0934A05B093BE
:103EA0004B052091E6013091E7014091E8015091E6
:103EB000E9018091D5019091D601A091D701B091EF
:103EC000D801280F391F4A1F5B1F2093D50130935B
:103ED000D6014093D7015093D80185859685A78553
:103EE000B08982179307A407B507B8F58091DC0164
:103EF00084608093DC0185859685A785B089281B21
:103F0000390B4A0B5B0B2093D5013093D6014093BC
:103F1000D7015093D801808183FF0CC080914C055C
:103F200090914D05A0914E05B0914F050197A109C3
:103F3000B1090BC080914C0590914D05A0914E05A3
:103F4000B0914F050196A11DB11D80934C05909332
:103F50004D05A0934E05B0934F05809140058430E8
:103F600039F4809150059091DC0189238093DC0124
:103F70008091EA019091EB0101979093EB0180937E
:103F8000EA01892B79F41092F0011092EF018091EF
:103F9000F1018F5F8093F1018091F101863011F47E
:103FA0001092F1018091F4019091DC0189278093B6
:103FB000DC011092F601FF91EF91DF91CF91BF915B
:103FC000AF919F918F917F916F915F914F913F91B1
:103FD0002F910F900FBE0F901F901895F999FECF5B
:103FE00092BD81BD81E08FBB80B50895F894F999A9
:103FF000FECF92BD81BD81E08FBB40B54627842FA7
:10400000992787FD9095262F30E082239323892BD3
:1040100039F06F3F19F060BD84E006C084E104C050
:10402000442321F060BD84E28FBBF99A789408950F
:104030008F929F92AF92BF92CF92DF92EF92FF92B8
:104040000F93DF93CF9300D0CDB7DEB75C016B0148
:104050007A014A0100E01EC0002319F021E030E09F
:1040600008C0202F332727FD30952227330F221F2A
:104070003327F60161916F01062F020F9C012F5F1C
:104080003F4F3A8329830E94F61F089481089108C4
:1040900089819A8181149104F9F6C7018A0D9B1DCB
:1040A000602F0E94F61F0F900F90CF91DF910F911C
:1040B000FF90EF90DF90CF90BF90AF909F908F9048
:1040C0000895CF93DF93EC01FB019A0190E0B1E0FA
:1040D00019C0F999FECFF2BDE1BDBFBBA0B59923D0
:1040E00019F081E090E008C0892F992787FD90950D
:1040F0008827990F881F992731969A2F980FA9938F
:10410000215030402115310521F7460F571FF999ED
:10411000FECF52BD41BD81E08FBB80B520E030E0D5
:10412000981711F421E030E0C901DF91CF91089593
:10413000882311F480E40895813011F084E008951B
:1041400080E10895882311F480E80895813011F00A
:1041500088E0089580E20895882311F482E00895AC
:10416000813011F088E0089584E0089580E090E0C7
:104170000E94EE1F893011F020E00CC085EA96E025
:1041800061E070E04DE450E00E94612020E0892B66
:1041900009F021E0822F089580E090E069E00E941C
:1041A000F61F81E090E065EA76E04DE450E00E9481
:1041B00018200895CF92DF92EF92FF920F931F93F2
:1041C000082F6A017B01CB01BA0120E030E040E01A
:1041D00050E00E94833A882314F484E00EC1043630
:1041E00008F459C0045690E0033008F04BC09130F9
:1041F00089F0913030F09230D1F0933009F0F8C06E
:1042000031C0E02FF0E0EE0FFF1FEE0FFF1FEB5568
:10421000F94F08C0E02FF0E0EE0FFF1FEE0FFF1F79
:10422000EF54F94FC082D182E282F382E1C010E004
:10423000000F111F000F111F0354194FC701B601C2
:1042400020E030E040E752E40E94C13C20E030E052
:1042500040E752E40E94C13CF8016083718382838D
:104260009383C6C0E02FF0E0EE0FFF1FEE0FFF1F9D
:10427000E753F94FD701C601B05880839183A283D9
:10428000B383B6C00A3008F4B7C09F5F943009F416
:10429000B3C00A50A9CFC701B6010E948F3D0E944A
:1042A000F73AE02FF0E0EC31F10508F0A5C0E25C50
:1042B000FF4FEE0FFF1F0590F491E02D099463303E
:1042C00010F486E09AC06093D50692C06093D80639
:1042D0008FC06093D60602C06093D7060E941C1D53
:1042E00087C0662321F08091E206846009C0809136
:1042F000E2068B7F05C0662331F08091E206806480
:104300008093E20675C08091E2068F7BF9CF662329
:1043100021F08091E2068068F3CF8091E2068F77EA
:10432000EFCF6093D90664C0C092DA06D092DB0664
:10433000E092DC06F092DD065BC0C092DE06D09211
:10434000DF06E092E006F092E10652C0662321F01B
:104350008091E2068160D4CF8091E2068E7FD0CF3B
:10436000662341F08091E20684FD02C08AE045C0E8
:104370008062C6CF8091E2068F7DC2CF662321F096
:104380008091E206886003C08091E206877F809377
:10439000E2060E94DA292CC0662321F08091E20611
:1043A0008061AECF8091E2068F7CAACF6093E30656
:1043B0001FC0C092E406D092E506E092E606F092B5
:1043C000E70616C0C092E806D092E906E092EA0637
:1043D000F092EB060DC06093EC061092ED0608C05B
:1043E000C092EE06D092EF06E092F006F092F1064F
:1043F0000E94CC2080E001C083E01F910F91FF90CC
:10440000EF90DF90CF9008959DE0899FC001112427
:1044100080509E4F4CE050E00E94182008950F936A
:104420001F93CF93DF93162F072F9DE0899FE00105
:104430001124C050DE4F862F972FBE014CE050E074
:104440000E946120892B11F081E00FC0E12FF02F35
:104450008CE0DF011D928A95E9F7CE01612F702F64
:104460004CE050E00E94182080E0DF91CF911F9136
:104470000F910895CF92DF92EF92FF920F931F93C7
:10448000DF93CF93CDB7DEB72C970FB6F894DEBF8E
:104490000FBECDBFE82E80FFCAC08AE08093D5064C
:1044A00089E18093D8061092D6061092D70683E051
:1044B0008093D9068AE097EDA3EABCE38093DA06FD
:1044C0009093DB06A093DC06B093DD068AE097EDBF
:1044D000A3EABBE38093DE069093DF06A093E00699
:1044E000B093E1061092E30680E090E0A8E4B2E425
:1044F0008093E4069093E506A093E606B093E70662
:1045000080E090E0AAE7B4E48093E8069093E9069F
:10451000A093EA06B093EB068AEF90E09093ED0645
:104520008093EC0680E090E0A0E8BFE38093EE0685
:104530009093EF06A093F006B093F10684E0809389
:10454000E20680E090E0A8ECB3E48093A5069093A7
:10455000A606A093A706B093A8068093A9069093F9
:10456000AA06A093AB06B093AC068093AD069093D9
:10457000AE06A093AF06B093B00680E090E4ACE145
:10458000B5E48093B1069093B206A093B306B093BE
:10459000B4068093B5069093B606A093B706B09381
:1045A000B8068093B9069093BA06A093BB06B09361
:1045B000BC0680E098ECAFEAB8E48093BD06909327
:1045C000BE06A093BF06B093C0068093C106909329
:1045D000C206A093C306B093C4068093C506909309
:1045E000C606A093C706B093C80680E090E0A6E98F
:1045F000B3EC8093C9069093CA06A093CB06B09300
:10460000CC0680E090E0A8E4B3EC8093CD069093D4
:10461000CE06A093CF06B093D0068093D106909398
:10462000D206A093D306B093D4060E94CC20E1FE1C
:1046300016C0FE0131968CE0DF011D928A95E9F7E4
:1046400000E012E06F01C801B6014CE050E00E94AA
:104650001820035F1F4FB2E008361B07A1F7E2FEE8
:104660000AC080E093E060E00E94F61F81E593E0DD
:1046700060E00E94F61FE3FE05C08EEA93E060E072
:104680000E94F61F2C960FB6F894DEBF0FBECDBF6A
:10469000CF91DF911F910F91FF90EF90DF90CF901E
:1046A00008950E94B620882341F487E00E94742E6A
:1046B0008FEF0E943A220E948C310895BC018EEA4D
:1046C00093E040E550E00E9418200895CF93DF93D7
:1046D000EC016EEA73E040E550E00E946120892B16
:1046E00011F081E009C018828EEA93E0BE0140E536
:1046F00050E00E94182080E0DF91CF91089591E56D
:10470000899FC001112480509D4F40E550E00E94D8
:10471000182008950F931F93CF93DF938B0191E59A
:10472000899FE0011124C050DD4FCB01BE0140E55F
:1047300050E00E946120892B11F081E009C0F8014E
:104740001082CE01B80140E550E00E94182080E0C0
:10475000DF91CF911F910F910895209108058091CD
:104760000905821769F0922F9F5F923109F490E05A
:1047700080910B05281711F490930B059093080571
:1047800008959091080580910905891719F420E092
:1047900030E006C089E2989F900111242A5D3D4FC8
:1047A000C901089520E09091080580910A059817A5
:1047B00009F421E0822F08958091440590914505E8
:1047C000A0914605B091470580930C0590930D0587
:1047D000A0930E05B0930F0580914805909149056F
:1047E000A0914A05B0914B05809310059093110557
:1047F000A0931205B093130580914C0590914D053F
:10480000A0914E05B0914F05809314059093150526
:10481000A0931605B093170508958091090590910E
:104820000805891710F0891B08958E5E891B08956D
:104830004F925F926F927F928F929F92AF92BF92B0
:10484000CF92DF92EF92FF920F931F93CF93DF935C
:1048500080910905882309F482E1782E7A9460908A
:104860000B05761409F4F2C089E2789E4001112408
:1048700086E292E0880E991EF401A588B688C78862
:10488000D08C21A132A143A154A1CA01B9010E9437
:10489000AA39F40125A136A147A150A50E94C13C27
:1048A0007B018C01B501C601A80197010E94833AE2
:1048B00087FD04C0D801C70157016D01C501D601AC
:1048C000F401818B928BA38BB48B772011F432E1AE
:1048D000732E7A94761409F04EC0809108056816FC
:1048E00009F050C00E9495164DC0769CE00111243D
:1048F000CA5DDD4F772011F422E1722E7A94809107
:104900000805781611F40E949516AD88BE88CF88E8
:10491000D88C69897A898B899C89A60195010E9426
:10492000833A882331F129A13AA14BA15CA1CA01A4
:10493000B9010E94AA392DA13EA14FA158A50E94FC
:10494000C13CF40121893289438954890E94AA39E2
:104950007B018C01A60195010E94833A88232CF4E7
:10496000E98AFA8A0B8B1C8B04C0A98ABA8ACB8A83
:10497000DC8A4E0102C099E2692E80910B057816FF
:1049800009F0B3CFA0900B05BA2CB394F2E1BF1697
:1049900009F4BB2489E2A89E800111240A5D1D4F01
:1049A0005090090589E2482E4CC0B49CE0011124C6
:1049B000CA5DDD4FF801C188D288E388F488698830
:1049C0007A888B889C88C701B601A40193010E9454
:1049D000833A88231CF5F80121A132A143A154A1F7
:1049E000CA01B9010E94AA39F80125A136A147A13F
:1049F00050A50E94C13C9B01AC01C701B6010E94B9
:104A0000AA397B018C01A40193010E94833A882377
:104A10002CF4E98AFA8A0B8B1C8BAB2C69897A8976
:104A20008B899C892D893E894F89588D0E94833AB4
:104A3000882309F4AB2CB394F2E1BF1609F4BB242C
:104A40008E01B51409F0B1CFA0920B05DF91CF9183
:104A50001F910F91FF90EF90DF90CF90BF90AF909C
:104A60009F908F907F906F905F904F9008950E94DD
:104A700095168091080580930B050E9418240895CF
:104A8000209108052F5F223109F420E0809109056B
:104A9000281729F460E070E080E090E012C030E078
:104AA00089E290E0289FF001299FF00D389FF00DDA
:104AB0001124EA5DFD4F61897289838994890E947E
:104AC0004E3D08952F923F924F925F926F927F9248
:104AD0008F929F92AF92BF92CF92DF92EF92FF920E
:104AE0000F931F93DF93CF93CDB7DEB7E6970FB643
:104AF000F894DEBF0FBECDBF9DA78CA74EA75FA7C2
:104B000068AB79AB2AAB9091090589E2989F400187
:104B1000112426E232E0820E931ED4011D961D92CE
:104B20001D921D921C92509780E090E0A0E0B0E0B2
:104B3000F40185A396A3A7A3B0A7108289E996E7FD
:104B4000A6E9BEE781A392A3A3A3B4A325EA36E016
:104B50003C8F2B8F1E010894211C311C4CE0442EED
:104B600045E0542E9A8E898E1BA666247724ECA5E8
:104B7000FDA5E60DF71D6081718182819381AB8D6A
:104B8000BC8D2D913D914D915C910E94C13C0E9444
:104B9000913C9B01AC01F10120833183428353831B
:104BA000F20180819181A281B381281B390B4A0BCC
:104BB0005B0B57FF07C050954095309521953F4FAF
:104BC0004F4F5F4FA98DBA8D11962D933D934D9305
:104BD0005C931497F40185859685A785B08928177D
:104BE00039074A075B0710F49C01AD01D4011D96FB
:104BF0002D933D934D935C935097F10160817181AA
:104C000082819381D2012D913D914D915C91621BE6
:104C1000730B840B950B0E94253BEB8DFC8D208143
:104C20003181428153810E948A3A5B016C01EDE03F
:104C3000F0E0EC0FFD1FE60DF71D608371838283AA
:104C4000938320E030E040E050E00E94833A8823E4
:104C500044F4D4011C918BA50E94A220182BF401CE
:104C60001083D4019596ED90FD900D911C9198972D
:104C7000C601B501A60195010E94C13C9B01AC0192
:104C8000C801B7010E94AA397B018C01CB01D80170
:104C9000F40185A396A3A7A3B0A7FBA5FF5FFBA77D
:104CA00024E030E0620E731E8B8D9C8D04969C8FE9
:104CB0008B8F220E331E420E531EA98DBA8D149671
:104CC000BA8FA98FF33009F052CFB701C8010E9403
:104CD0004E3D7B018C01F40165A376A387A390A7C9
:104CE00085859685A785B0890097A105B10509F44A
:104CF0000CC26EA57FA588A999A920E030E040E00C
:104D000050E00E94833A88232CF489E996E7A6E9CB
:104D1000BEE71FC09AA9992361F06EA57FA588A957
:104D200099A9A80197010E94C13C6EA77FA788ABF3
:104D300099AB6EA57FA588A999A920E030E040E84D
:104D40005FE30E94833A882344F480E090E0A0E887
:104D5000BFE38EA79FA7A8ABB9AB60E070E080E887
:104D60009FE3A80197010E948A3A6FA378A789A7B9
:104D70009AA7DE011D96BAA3A9A3E8E1F5E0F8A37E
:104D8000EF8F21EB36E03E8F2D8F80E090E0A0E0AA
:104D9000B0E08BA39CA3ADA3BEA3DE015996BEAB2E
:104DA000ADABE9A1FAA1E080F18002811381C801D5
:104DB000B70120E030E040E050E00E94833A8823D1
:104DC00009F47CC0C801B7012FA138A549A55AA58F
:104DD0000E94C13C2B013C01A9A1BAA16D937D9316
:104DE0008D939C93139760E070E080E89FE3A301AC
:104DF00092010E948A3A5B016C01E894D7F8C601DF
:104E0000B501ED8DFE8D20813181428153810E945B
:104E1000C13C7B018C016EA57FA588A999A9A80139
:104E200097010E94833A87FD04C0EEA6FFA608AB57
:104E300019ABD4019196BC91BBABF401F2A1FCABD0
:104E4000D40193962C90939794963C90C601B5010B
:104E5000ED8DFE8D24853585468557850E94C13CA4
:104E60007B018C016BA97CA9C101A80197010E945B
:104E7000833A87FD05C0D801C701EBAA9CAB1D0191
:104E80008BA99CA9D101F40181A392A3A3A3B4A3EC
:104E9000C301B201AF8DB8A12D913D914D915C91AF
:104EA0000E94C13C9B01AC016BA17CA18DA19EA184
:104EB0000E94A9396BA37CA38DA39EA3E9A1FAA1AB
:104EC0003496FAA3E9A32F8D38A12C5F3F4F38A366
:104ED0002F8F8D8D9E8D04969E8F8D8FADA9BEA92F
:104EE000EA17FB0709F05DCF90910905809108054D
:104EF000981751F480E090E0A0E0B0E0F401818BDD
:104F0000928BA38BB48B11C06BA17CA18DA19EA1B0
:104F100024EA30E74DE75FE30E94863C181654F41C
:104F200080E090E0A0E0B0E0F401818F928FA38F49
:104F3000B48F66C06BA17CA18DA19EA124EA30E74D
:104F40004DE75FEB0E94863C181644F084EA90E738
:104F5000ADE7BFEB8BA39CA3ADA3BEA360E070E065
:104F600080E89FE32BA13CA14DA15EA10E94A9393D
:104F700020E030E040E05FE30E94C13C0E944E3DF3
:104F80005B016C01D40191966D917D918D919C9105
:104F900094972091DA063091DB064091DC0650911F
:104FA000DD060E94C13CA60195010E94C13C7B0127
:104FB0008C0160E070E080E89FE3A60195010E940B
:104FC000A9399B01AC01C801B7010E948A3A7B0153
:104FD0008C0120E030E040E050E00E94833A8823DA
:104FE00054F40F2EF0E0EF2EF0E0FF2EF0E00F2F44
:104FF000F0E01F2FF02DF401E18EF28E038F148F5D
:105000006EA57FA588A999A99B01AC010E94C13C0E
:105010007B018C01D4015D966D937D938D939C9360
:10502000909759965C9059975A964C905A975B96E0
:105030003C905B975C962C90D0902405C090250501
:10504000B0902605A09027052D2D3C2D4B2D5A2DD7
:105050000E94833A87FD04C06D2C7C2CF50105C0AD
:10506000D801C7013701FA2FEB2F652D742D832D41
:10507000922D93014F2F5E2F0E94833A88232CF4A8
:10508000852D942DA32DB22D0EC0C801B7012D2D55
:105090003C2D4B2D5A2D0E94833A87FD06C08D2D45
:1050A0009C2DAB2DBA2D7C018D01F401E58AF68A89
:1050B000078B108FA8E1B5E0FE013D968CE00190D2
:1050C0000D928150E1F7F401858D968DA78DB0A1E9
:1050D0008093240590932505A0932605B09327057A
:1050E000ACE0B5E0FE0131968CE001900D9281506C
:1050F000E1F780910A05809309058F5F823109F4F9
:1051000080E080930A050E941824E6960FB6F89472
:10511000DEBF0FBECDBFCF91DF911F910F91FF90EA
:10512000EF90DF90CF90BF90AF909F908F907F9047
:105130006F905F904F903F902F9008958CE1ECE03E
:10514000F5E0DF011D928A95E9F7109208051092AB
:10515000090581E080930A0510920B0508956F926E
:105160007F928F929F92AF92BF92CF92DF92EF92F7
:10517000FF920F931F93CF93DF934C013B015A0192
:10518000FB018081F401E80FF11DEF0189918D325F
:1051900029F481812196CC24C39405C08B3211F46B
:1051A00081812196CC2420E030E040E050E0DD24F5
:1051B000E0E070E0682F60536A30F8F4EF5FE930A8
:1051C000C0F47111DA94DA01C901F2E0880F991F75
:1051D000AA1FBB1FFA95D1F7280F391F4A1F5B1F63
:1051E000220F331F441F551F260F311D411D511D16
:1051F00009C0772339F4D39405C06E3F29F477238F
:1052000019F471E08991D6CFEE2311F480E050C0FB
:10521000CA01B9010E94233B7B018C0120E030E0F0
:1052200040E050E00E94833A882369F42BC0C80113
:10523000B7012AE037ED43E25CE30E94C13C7B0109
:105240008C01F2E0DF0E8FEFD8168CF3D81659F4EC
:10525000C801B7012DEC3CEC4CEC5DE30E94C13C75
:105260007B018C010FC0DD2069F0C801B70120E08F
:1052700030E040E251E40E94C13C7B018C01DA94B1
:105280001D149CF3CC2049F0D801C701B058F5019A
:1052900080839183A283B38305C0F501E082F1820C
:1052A00002831383882D80958C0FF301808381E026
:1052B000DF91CF911F910F91FF90EF90DF90CF90F2
:1052C000BF90AF909F908F907F906F90089520EA4D
:1052D0003FE004C0F9013197F1F701970097D1F74A
:1052E00008951F93A0EABFE040E951E015E335E0DF
:1052F00031C06A3071058105910540F4232F2A954C
:10530000F1F7615070408040904024C064367105D0
:105310008105910540F4212F2A95F1F76A507040DC
:105320008040904017C0683E23E0720720E082076B
:1053300020E0920740F4FA013197F1F7645670408B
:105340008040904007C0FD013197F1F7685E7340DF
:1053500080409040611571058105910551F61F91BE
:105360000895AF92BF92CF92DF92EF92FF920F9388
:105370001F937B018C0159016A01A80197010E94CA
:10538000C13C7B018C01C601B501A60195010E94BB
:10539000C13C9B01AC01C801B7010E94AA390E941F
:1053A0004E3D1F910F91FF90EF90DF90CF90BF90F7
:1053B000AF90089584B1817F84B985B18E6085B93D
:1053C0008091E20683FF09C080916C008E6080931B
:1053D0006C0080916800826008C080916C00817FC1
:1053E00080936C00809168008D7F809368000895A1
:1053F000ECE6F0E08081817F8083E8E6F0E0808168
:105400008D7F80830895CF92DF92EF92FF920F936A
:105410001F93CF93DF936C01C0E0D0E0F601EC0F57
:10542000FD1FE080F18002811381C801B70120E0F7
:1054300030E040E050E00E94863C18166CF0FE011F
:10544000EB55F94FC801B70124A135A146A157A1D9
:105450000E94833A88231CF580914005883091F49E
:105460009FB7F894809142058860809342059FBF62
:105470000E943F1480913F058823B1F4809140053C
:105480008823B1F70E9452049FB7F8948091430596
:105490008560809343059FBF0E943F1405C02496FA
:1054A000CC30D10509F0BACFDF91CF911F910F9188
:1054B000FF90EF90DF90CF9008951F920F920FB65C
:1054C0000F9211242F933F934F935F936F937F938A
:1054D0008F939F93AF93BF93EF93FF93809140057A
:1054E000813071F080914305882351F40E94520469
:1054F0009FB7F894809143058360809343059FBFD5
:10550000FF91EF91BF91AF919F918F917F916F919B
:105510005F914F913F912F910F900FBE0F901F9071
:105520001895EF92FF920F931F93CF93DF9313B1D0
:105530001E708091E20686FD02C08EE018271123BE
:1055400011F400E017C000E0C0E0D0E081E0E82EF8
:10555000F12C8C2F0E94AC20812341F0C7010C2E2E
:1055600002C0880F991F0A94E2F7082B2196C330D6
:10557000D10579F7802FDF91CF911F910F91FF9087
:10558000EF9008952F923F924F925F926F927F9289
:105590008F929F92AF92BF92CF92DF92EF92FF9243
:1055A0000F931F93DF93CF93CDB7DEB765970FB6F9
:1055B000F894DEBF0FBECDBF8B8B80913F05882353
:1055C00009F0ABC129ECA22E26E0B22E6624772486
:1055D00088249924CC24DD242E010894411C511CDC
:1055E0003B89232F30E03D8B2C8B8C2D0E94982003
:1055F000F201EC0DFD1D80838C899D890C2C02C06D
:10560000959587950A94E2F780FF15C0F5016081B2
:1056100071818281938120E030E040EC5FEB0E9459
:10562000C13C7B018C01B301C401A80197010E9418
:10563000863C181624F4C301D4017C018D01089422
:10564000C11CD11C24E030E0A20EB31E33E0C3160F
:10565000D10429F0D801C70137014D01C6CFA09070
:10566000E806B090E906C090EA06D090EB06442424
:10567000439463E0688BCE01049664E475E00E9475
:105680008E378091E306E82FF0E0FA8BE98BDE019C
:10569000149694E4292E95E0392EB101552450E05A
:1056A00020E030E03701480197FA909497F8909401
:1056B0008C899D89022E02C0959587950A94E2F700
:1056C00080FF28C0FB011082118212821382898917
:1056D0009A89022E02C0959587950A94E2F780FF79
:1056E00003C0442019F008C0442031F0ED92FD922F
:1056F0000D931C93139705C06D927D928D929C9291
:1057000013975F5FE1E0F0E0EC0FFD1FE20FF31F86
:105710008081582A2F5F3F4F14966C5F7F4F233054
:10572000310531F6652F70E080E090E00E94233B68
:105730000E944E3D7B018C01509250050E94DC235B
:10574000C601B501A80197010E94C13CAB01BC0193
:10575000CE01049620E00E9462250E94B7160E94A6
:105760001316442011F10E94912A20E030E0482FC6
:1057700050E0E1E0F0E0EC0FFD1FE20FF31FE081ED
:10578000852D8E2359F0BA01022E02C075956795BA
:105790000A94E2F760FF02C0E0955E222F5F3F4F60
:1057A0002330310531F7509250050E94B716809191
:1057B00042058473D1F080914205807341F4442006
:1057C00009F0A6C00E94912A7B89872329F00E94B4
:1057D00052040E943F14A1C09FB7F89480914205E3
:1057E0008B7F809342059FBF04C0852D847509F08F
:1057F000B8CF0E94841D0E949E288091EC06909153
:10580000ED060E94672981E04826C9F06091EE0606
:105810007091EF068091F0069091F10620E030E063
:1058200040EA50E40E94C13C7B018C01A090E40658
:10583000B090E506C090E606D090E70610C0E09074
:10584000EE06F090EF060091F0061091F106A090A0
:10585000E806B090E906C090EA06D090EB06988979
:10586000992319F09150988B06CF8091E306482E2A
:105870005524A090EE06B090EF06C090F006D090B0
:10588000F1063501460197FA909497F8909405EA4D
:1058900016E0EE24FF248C899D890E2C02C095957C
:1058A00087950A94E2F780FF23C0C2010E2C02C044
:1058B000959587950A94E2F780FF0AC0C601B50165
:1058C000F80124A135A146A157A10E94AA3902C01E
:1058D000C401B301F80120813181428153810E94CA
:1058E000C13C0E94913CF101608371838283938368
:1058F0000894E11CF11C24E030E0220E331E0C5F02
:105900001F4F33E0E316F10431F60E94DC2305C09B
:105910008091420582FF60CF5ACF65960FB6F8940A
:10592000DEBF0FBECDBFCF91DF911F910F91FF90D2
:10593000EF90DF90CF90BF90AF909F908F907F902F
:105940006F905F904F903F902F9008958F929F920D
:10595000AF92BF92CF92DF92EF92FF920F931F937D
:10596000DF93CF93CDB7DEB72A970FB6F894DEBF9B
:105970000FBECDBF7B018C01A42E20E030E040E0C3
:1059800050E00E94833A88233CF48DE20E94731316
:1059900017FB109517F91095DA2C0CC0C801B70148
:1059A00020E030E048EC52E40E94C13C7B018C01D5
:1059B0008EEFD80EE1E0ED1588F3A0FE0AC0C80115
:1059C000B70120E030E040E251E40E94C13C7B019D
:1059D0008C01C801B70120E030E040E05FE30E94A5
:1059E000AA390E94F23A6B017C019E012F5F3F4F62
:1059F000F901EA0DF11D8EE28083BB2449011EC02E
:105A0000BA1409F4B39484010B0D111DC701B6013A
:105A10002AE030E040E050E00E94D93D605DF801AE
:105A20006083B394C701B6012AE030E040E050E063
:105A30000E94D93DC901DA016C017D01C114D10474
:105A4000E104F104E9F606C0FC01EB0DF11D208331
:105A5000B39403C0CE01019620E3BA14A8F3BA149C
:105A600089F48B2D8F5FFE01E80FF11D90E3918388
:105A7000B82EB39407C0FE01EB0DF11D80810E948A
:105A80007313BA94BB20B9F72A960FB6F894DEBF09
:105A90000FBECDBFCF91DF911F910F91FF90EF907F
:105AA000DF90CF90BF90AF909F908F90089543E08C
:105AB0000E94A62C08959B01AC018091E20680FF14
:105AC0000AC0CA01B9012BE832E441E25DE30E9459
:105AD000C13C41E003C0CA01B90140E00E94A62CCC
