:100000000C949D030C94BA030C94BA030C94BA0399
:100010000C94BA030C940D290C940F130C94BA038E
:100020000C94BA030C94BA030C94BA030C94A31561
:100030000C94BA030C94D1160C94BA030C94BA0322
:100040000C94BA030C94BA030C94BA030C94BA033C
:100050000C94BD120C947C120C94BA030C94BA0349
:100060000C94BA030C94BA030C94BA030C94BA031C
:100070000C94BA030C94BA030C94BA03411B411BB1
:10008000411B581B6D1B761B7F1B881B911BA81BDC
:10009000B41BBD1BC61BCF1BE11BF51B071C1D1C86
:1000A0002F1C381C411C4A1C551C084AD73B3BCE10
:1000B000016E84BCBFFDC12F3D6C74319ABD568367
:1000C0003DDA3D00C77F11BED9E4BB4C3E916BAA1F
:1000D000AABE000000803F05A84CCDB2D44EB9386E
:1000E00036A9020C50B9918688083CA6AAAA2ABE55
:1000F000000000803F0D0A002C0057506F732C0049
:100100002C002C4D506F732C004A6F6700436865BC
:10011000636B00416C61726D00486F6D6500486FE4
:100120006C640052756E0051756575650049646CAC
:1001300065000D0A003D00244E005D0D0A002046BA
:1001400000205400204D3800204D3900204D35004E
:10015000204D3400204D3300204D3200204D310021
:10016000204D3000204739340020473933002047E4
:1001700039310020473930002047323100204732E2
:1001800030002047313900204731380020473137CF
:10019000002047005B473830005B4733005B473245
:1001A000005B4731005B4730005D0D0A002C005BAF
:1001B0004739323A005D0D0A002C0033303A0032E4
:1001C000383A0035393A0035383A0035373A003593
:1001D000363A0035353A0035343A005B470020287E
:1001E000686F6D696E672070756C6C2D6F66662C1C
:1001F000206D6D290D0A002028686F6D696E6720DB
:100200006465626F756E63652C206D736563290D7F
:100210000A2432323D002028686F6D696E672073B2
:1002200065656B2C206D6D2F6D696E290D0A24326A
:10023000313D002028686F6D696E672066656564D2
:100240002C206D6D2F6D696E290D0A2432303D0012
:10025000290D0A2431393D002028686F6D696E67C9
:100260002064697220696E76657274206D61736BAB
:100270002C20696E743A002028686F6D696E6720C3
:100280006379636C652C20626F6F6C290D0A2431D1
:10029000383D00202868617264206C696D69747350
:1002A0002C20626F6F6C290D0A2431373D00202805
:1002B000696E76657274207374657020656E616214
:1002C0006C652C20626F6F6C290D0A2431363D005D
:1002D00020286175746F2073746172742C20626FB2
:1002E0006F6C290D0A2431353D0020287265706F2E
:1002F000727420696E636865732C20626F6F6C295D
:100300000D0A2431343D0020286E2D646563696D2B
:10031000616C732C20696E74290D0A2431333D0001
:1003200020286E2D61726320636F72726563746939
:100330006F6E2C20696E74290D0A2431323D002025
:10034000286172632C206D6D2F7365676D656E7407
:10035000290D0A2431313D0020286A756E637469C5
:100360006F6E20646576696174696F6E2C206D6DA7
:10037000290D0A2431303D002028616363656C65D6
:10038000726174696F6E2C206D6D2F7365635E32C0
:10039000290D0A24393D0020287374657020696492
:1003A0006C652064656C61792C206D736563290D23
:1003B0000A24383D00290D0A24373D002028737493
:1003C000657020706F727420696E76657274206D2E
:1003D00061736B2C20696E743A0020286465666135
:1003E000756C74207365656B2C206D6D2F6D696E57
:1003F000290D0A24363D00202864656661756C74F9
:1004000020666565642C206D6D2F6D696E290D0A5F
:1004100024353D002028737465702070756C7365F9
:100420002C2075736563290D0A24343D0020287A39
:100430002C20737465702F6D6D290D0A24333D00D7
:100440002028792C20737465702F6D6D290D0A2476
:10045000323D002028782C20737465702F6D6D2933
:100460000D0A24313D0024303D00242420287669E3
:100470006577204772626C2073657474696E677368
:10048000290D0A24232028766965772023207061AE
:1004900072616D6574657273290D0A244720287690
:1004A0006965772070617273657220737461746519
:1004B000290D0A244E2028766965772073746172AD
:1004C00074757020626C6F636B73290D0A24783D1C
:1004D00076616C7565202873617665204772626C61
:1004E0002073657474696E67290D0A244E783D6C1B
:1004F000696E652028736176652073746172747506
:100500007020626C6F636B290D0A24432028636896
:1005100065636B2067636F6465206D6F6465290D8B
:100520000A245820286B696C6C20616C61726D2004
:100530006C6F636B290D0A2448202872756E206841
:100540006F6D696E67206379636C65290D0A7E2083
:10055000286379636C65207374617274290D0A21B4
:1005600020286665656420686F6C64290D0A3F2049
:100570002863757272656E74207374617475732963
:100580000D0A6374726C2D7820287265736574206F
:100590004772626C290D0A000D0A4772626C2030A6
:1005A0002E38632F6A6F67205B27242720666F72BF
:1005B0002068656C705D0D0A005D0D0A004469736A
:1005C00061626C656400456E61626C6564004361E4
:1005D0007574696F6E3A20556E6C6F636B6564005D
:1005E000272448277C2724582720746F20756E6C99
:1005F0006F636B00526573657420746F20636F6E58
:1006000074696E7565005B002E204D506F733F0D51
:100610000A0041626F727420647572696E672063AC
:1006200079636C650048617264206C696D6974005F
:10063000414C41524D3A20000D0A004C696E652034
:100640006F766572666C6F7700416C61726D206CBD
:100650006F636B0042757379206F722071756575D9
:10066000656400454550524F4D20726561642066B7
:1006700061696C2E205573696E67206465666175CB
:100680006C74730056616C7565203C203320757363
:1006900065630056616C7565203C20302E30005338
:1006A000657474696E672064697361626C65640067
:1006B000496E76616C69642073746174656D656EF2
:1006C00074004D6F64616C2067726F75702076697D
:1006D0006F6C6174696F6E00496E76616C6964203D
:1006E00072616469757300556E737570706F7274A2
:1006F00065642073746174656D656E74004578700F
:10070000656374656420636F6D6D616E64206C65F4
:100710007474657200426164206E756D626572204A
:10072000666F726D6174006572726F723A20006F4D
:100730006B0D0A004A6F670D0A0011241FBECFEF30
:10074000D0E1DEBFCDBF11E0A0E0B1E0E6EBFDE619
:1007500002C005900D92A030B107D9F71BE0A0E0D0
:10076000B1E001C01D92AA3CB107E1F70E94BC03B1
:100770000C94D9360C9400001F930E944C120E94D6
:10078000661D0E94A316789480E1EEECF9E0DF018B
:100790001D928A95E9F781E08093CE098093CF0975
:1007A00011E08091CE09882351F10E94B8120E9475
:1007B0003F250E94DF110E9467150E940D120E94C2
:1007C00034120E9495260E94B82F0E9475160E942E
:1007D00058261092CE091092D0098091B70B81FF54
:1007E00002C01093DD098091CF09863021F482E0A8
:1007F0000E94B42A04C01092CF090E94AC130E9438
:10080000E22F0E944B130E941615CBCF8091D00986
:1008100084FD15C08091D00980618093D0090E9429
:1008200014120E9439128091CF098350833038F41A
:100830008091D00980628093D0090E948916089522
:10084000EF92FF920F931F93CF93DF937B018C0165
:1008500020E030E040EA51E40E94AB350E94B3331F
:100860000E944A33EB010E942225C801B70120E013
:1008700030E04AE754E40E94AB357B018C0182E30F
:1008800090E0C89FB001C99F700DD89F700D1124D2
:1008900080E090E00E9476339B01AC01C801B70173
:1008A0000E94FC310E94B3330E944A33DC01CB0129
:1008B0000E940E2600E911E00EC00E944B138091A9
:1008C000CE09882351F484EF91E0F8013197F1F7D4
:1008D0000197D9F72197209781F7DF91CF911F9149
:1008E0000F91FF90EF9008954F925F926F927F92D9
:1008F0008F92AF92BF92CF92DF92EF92FF920F93BF
:100900001F93DF93CF9300D000D0CDB7DEB72B017C
:100910003C0129833A834B835C838091CF098730E4
:10092000F9F00E944B138091CE098823C9F40E94EC
:10093000EC1D8823B1F7C301B20129813A814B81B3
:100940005C810E947D218091CF09882319F482E087
:100950008093CF098091DD09882311F00E94201631
:100960000F900F900F900F90CF91DF911F910F91EB
:10097000FF90EF90DF90CF90BF90AF908F907F90DF
:100980006F905F904F9008952F923F924F925F9299
:100990006F927F928F929F92AF92BF92CF92DF928F
:1009A000EF92FF920F931F9385E08093CF09809180
:1009B0006C00817F80936C000E94C4280E944B13BE
:1009C0008091CE09882309F06FC08CE0E1EDF9E059
:1009D000DF011D928A95E9F70E9458261092CF09EF
:1009E0002091B80B27FD02C06FEF01C061E025FD2B
:1009F00003C0DD24DA9402C0DD24D39423FD03C0B8
:100A0000CC24CA9402C0CC24C394E090C30BF090D1
:100A1000C40B0091C50B1091C60B772767FD70952D
:100A2000872F972F0E947833A80197010E94AB353A
:100A30001B012C016D2D772767FD7095872F972F50
:100A40000E947833A80197010E94AB353B014C010D
:100A50006C2D772767FD7095872F972F0E9478332D
:100A6000A80197010E94AB357B018C01A090BD0BC2
:100A7000B090BE0BC090BF0BD090C00BC201B101B3
:100A8000A401930188240E9474040E9420160E94ED
:100A900022250E9458268091B70B83FF05C08091C4
:100AA0006C008E6080936C001F910F91FF90EF900F
:100AB000DF90CF90BF90AF909F908F907F906F907E
:100AC0005F904F903F902F9008952F923F924F92BA
:100AD0005F926F927F928F929F92AF92BF92CF92CE
:100AE000DF92EF92FF920F931F93DF93CF93CDB7D7
:100AF000DEB7CE54D0400FB6F894DEBF0FBECDBFE8
:100B00003C017EAF6DAF21965FAF4EAF219722962D
:100B10002FAF229723960FAF23972496EFAE2497FB
:100B20002896ACAEBDAECEAEDFAE289729968FAE7E
:100B30002997E22EFF24EE0CFF1CEE0CFF1C4E0D3D
:100B40005F1D5CAF4BAFDA012D903D904D905C90F6
:100B5000FC01EE0DFF1DC201B101208131814281F6
:100B600053810E94FD3169AB7AAB8BAB9CAB10E03B
:100B7000000F111F000F111F2196EEADFFAD219741
:100B8000E00FF11FFAAFE9AFA080B180C280D3803F
:100B9000F301E00FF11FC601B501208131814281CF
:100BA00053810E94FD316DA77EA78FA798AB249635
:100BB0002FAD2497E22FF0E0EE0FFF1FEE0FFF1F87
:100BC0006E0E7F1ED3018D919D910D90BC91A02D35
:100BD0008DAB9EABAFABB8AF2DAD3EADE20FF31F0B
:100BE00060817181828193812DA93EA94FA958AD61
:100BF0000E94FC3169A77AA78BA79CA7D201C101EB
:100C0000B0588DA39EA3AFA3B8A7A60195015058D5
:100C100029A33AA34BA35CA34DAD5EADE40EF51E34
:100C2000D7016D917D918D919C9129A93AA94BA9EC
:100C30005CA90E94FC313B014C01EDADFEAD0E0FF5
:100C40001F1FD8016D917D918D919C912DA53EA581
:100C50004FA558A90E94FC315B016C016DA17EA1DA
:100C60008FA198A5A60195010E94AB357B018C014F
:100C700069A17AA18BA19CA1A40193010E94AB352B
:100C80009B01AC01C801B7010E94FC311B012C0182
:100C90006DA17EA18FA198A5A40193010E94AB35FF
:100CA0007B018C0169A17AA18BA19CA1A601950170
:100CB0000E94AB359B01AC01C801B7010E94FD3118
:100CC0009B01AC01C201B1010E9470325B016C0159
:100CD000A8968FADA897882399F0C601B50120E0AA
:100CE00030E040E050E00E94D9348823ECF0C601A7
:100CF000B5012BED3FE049EC50E40E94FC3112C0FD
:100D0000C601B50120E030E040E050E00E94D6325C
:100D1000181654F0C601B5012BED3FE049EC50E444
:100D20000E94FD315B016C01C601B501A7962CAD97
:100D30003DAD4EAD5FADA7970E94AB3529A53AA555
:100D40004BA55CA50E94E6347B018C0120E030E0DD
:100D500040E050E00E94D632882309F4D5C1C80192
:100D6000B7012091AB0B3091AC0B4091AD0B509182
:100D7000AE0B0E94DD320E94B3330E944A3378A347
:100D80006F8F2996BFAD2997BB23A1F080E090E03B
:100D90000E9476339B01AC0128966CAD7DAD8EAD83
:100DA0009FAD28970E94AB3528966CAF7DAF8EAF74
:100DB0009FAF28972F8D38A1B90180E090E00E9465
:100DC00076337B018C01C601B501A80197010E9411
:100DD000DD326B8F7C8F8D8F9E8F69A57AA58BA559
:100DE0009CA5A80197010E94DD326F8B788F898FB7
:100DF0009A8F6B8D7C8D8D8D9E8D20E030E040E054
:100E00005FEB0E94AB352B8D3C8D4D8D5E8D0E942E
:100E1000AB3520E030E040E85FE30E94FD316B8BB2
:100E20007C8B8D8B9E8B24963FAD2497E32FF0E037
:100E3000EE0FFF1FEE0FFF1FCE010196E80FF91F07
:100E40002DA93EA94FA958AD2083318342835383F6
:100E500041E050E05E874D8766242296BFAD229721
:100E6000AB2FB0E0AA0FBB1FAA0FBB1FA80FB91F63
:100E70002B96BFAFAEAF2B9723963FAD2397232F73
:100E800030E0220F331F220F331F280F391F2D96FA
:100E90003FAF2EAF2D972F96FFAFEEAF2F970EC11E
:100EA000262D332727FD30958091C90B90E0281718
:100EB00039070CF046C06DA17EA18FA198A52B8D9E
:100EC0003C8D4D8D5E8D0E94AB357B018C0169A1FF
:100ED0007AA18BA19CA12B893C894D895E890E94B6
:100EE000AB359B01AC01C801B7010E94FD317B010C
:100EF0008C016DA17EA18FA198A52B893C894D897C
:100F00005E890E94AB355B016C0169A17AA18BA15E
:100F10009CA12B8D3C8D4D8D5E8D0E94AB359B0130
:100F2000AC01C601B5010E94FC316DA37EA38FA365
:100F300098A76394C701D80189A39AA3ABA3BCA3C4
:100F400061C04D855E85BA0180E090E00E947633F5
:100F50002B8D3C8D4D8D5E8D0E94AB357B018C01C0
:100F6000C8010E94DA326F87788B898B9A8BB70120
:100F7000C8010E942E363B014C01ABADBCADED90DB
:100F8000FD900D911C9117FB109517F91095E9AD87
:100F9000FAAD2080318042805380C801B7012F858F
:100FA000388949895A890E94AB355B016C01C201BD
:100FB000B101A40193010E94AB359B01AC01C601B4
:100FC000B5010E94FD316DA37EA38FA398A7C80130
:100FD000B701A40193010E94AB357B018C01C201D2
:100FE000B1012F85388949895A890E94AB359B0107
:100FF000AC01C801B7010E94FC3169A37AA38BA39D
:101000009CA3662469A97AA98BA99CA92DA13EA1BC
:101010004FA158A50E94FD312B96AEADBFAD2B97C9
:101020006D937D938D939C9313976DA57EA58FA54E
:1010300098A929A13AA14BA15CA10E94FD312D964E
:10104000EEADFFAD2D9760837183828393832F96DE
:10105000AEADBFAD2F976D917D918D919C912F89F4
:10106000388D498D5A8D0E94FD312F96EEADFFAD22
:101070002F97608371838283938369817A818B81C7
:101080009C812D813E814F815885E984FA840B85AE
:101090001C852896ACACBDACCEACDFAC28972996AD
:1010A0008FAC29970E9474048091CE09882361F542
:1010B0002D853E852F5F3F4F3E872D874D855E8571
:1010C0008F8D98A14817590708F4EACEADADBEAD93
:1010D0006D917D918D919C91139714962D913D91D9
:1010E0004D915C9117971896ED90FD900D911C9184
:1010F0001B972896ACACBDACCEACDFAC289729963C
:101100008FAC29970E947404C25BDF4F0FB6F8942E
:10111000DEBF0FBECDBFCF91DF911F910F91FF902A
:10112000EF90DF90CF90BF90AF909F908F907F9087
:101130006F905F904F903F902F900895AF92BF9225
:10114000CF92DF92EF92FF920F931F9359016A01A2
:101150000E9478332091940B3091950B4091960B1F
:101160005091970B0E94DD326093EB097093EC096C
:101170008093ED099093EE09C601B5010E94783382
:101180002091980B3091990B40919A0B50919B0BA9
:101190000E94DD326093EF097093F0098093F109AA
:1011A0009093F209C801B7010E94783320919C0BFB
:1011B00030919D0B40919E0B50919F0B0E94DD3210
:1011C0006093F3097093F4098093F5099093F609FD
:1011D0001F910F91FF90EF90DF90CF90BF90AF9055
:1011E00008950F931F93CF93DF93EC018B01D901E7
:1011F0008C91FA01E80FF11DE081EE23B1F0E88354
:10120000E154EA3110F082E00EC08C918F5F8C9334
:10121000CA01B901A8010E945325892B19F021E0C8
:1012200030E005C081E08093DF0920E030E0C901B3
:10123000DF91CF911F910F9108952F923F924F927E
:101240005F926F927F928F929F92AF92BF92CF9256
:10125000DF92EF92FF920F931F93DF93CF93CDB75F
:10126000DEB7C754D0400FB6F894DEBF0FBECDBF77
:101270004C018091CF09863019F48CE00C94C51193
:1012800019828CE0FE013796DF01482F1D924A95A6
:10129000E9F7FE017396DF011D928A95E9F7109236
:1012A000DF0924961FAE1EAE249722961FAE22970A
:1012B00021961FAE219712E0612E712C6C0E7D1EBF
:1012C000B3E04B2E512C4C0E5D1E1E010894211CC8
:1012D000311CA3E0AA2ECC24C394F2E0BF2ED6C1C9
:1012E000EB80FC800D811E81C801B7010E94793618
:1012F0000E9445339B014A81473421F04D3409F067
:10130000C5C153C16E317105C9F16F317105D4F496
:101310006431710584F461317105B4F5643071058F
:1013200069F1653071051CF477235CF525C06A30DE
:10133000710511F523C0663171057CF16C317105C1
:10134000D9F41CC06C3571058CF46A357105FCF458
:101350006C3371053CF46633710514F56533710522
:1013600059F40CC06035710539F40BC06C3571054A
:1013700029F06F35710574F0DD2414C0DD24D39499
:1013800011C0E2E0DE2E0EC073E0D72E0BC064E089
:10139000D62E08C056E0D52E05C047E0D42E02C098
:1013A00099E0D92E2531310509F494C02631310553
:1013B000A4F52430310509F467C025303105A4F4C3
:1013C0002130310509F465C02230310524F4232B86
:1013D00009F45CC03AC12230310509F45DC0233004
:1013E000310509F032C15BC02231310509F461C019
:1013F000233131054CF42A30310509F443C0213141
:10140000310509F022C14EC02331310509F458C01D
:101410002431310509F019C15AC02035310509F4CC
:1014200096C021353105ACF42533310509F485C06A
:10143000263331054CF42C31310509F44EC02E31E0
:10144000310509F002C149C02C3331050CF0FDC053
:1014500079C02C35310509F484C02D3531054CF4A3
:101460002A35310509F477C02B35310509F0EDC077
:1014700075C02D35310509F492C02E35310509F0BE
:10148000E4C090C0B2E087C0E1E04EC01092E00935
:10149000DEC0C092E009DBC0B092E009D8C0A092E3
:1014A000E009D5C01092F809C092F909B092FA0982
:1014B000CEC0B092F8091092F909C092FA09C7C0DB
:1014C000C092F809B092F9091092FA09C0C0C0920E
:1014D000E209BDC01092E209BAC0C801B70120E01C
:1014E00030E040E251E40E94AB350E9479360E9420
:1014F0004533F1E069317F0791F041E06A317407CB
:101500002CF46851714009F0A0C00BC081E06C322E
:10151000780749F06D52714009F097C009C0A4E006
:1015200035C0B3E038C0E5E02196EFAF21978FC01A
:10153000F6E02196FFAF21978AC041E022964FAF97
:10154000229785C0822F86538093FB0980C054E088
:101550005093E0097CC0C092E30979C01092E3097E
:1015600076C0C801B70120E030E040E251E40E94BB
:10157000AB350E9479360E94453383E0683978079D
:1015800049F06959734009F060C0A8E02196AFAFF7
:1015900021975DC0B7E02196BFAF219758C0C09298
:1015A000E10955C01092E10952C06630710534F46A
:1015B000633071055CF4772334F403C06E31710538
:1015C00011F0DD2405C085E0D82E02C008E0D02E41
:1015D0002430310569F12530310584F4213031059D
:1015E000B1F1223031051CF4232BC9F02EC022307A
:1015F0003105C1F02330310541F517C028303105E0
:10160000F1F02930310524F425303105F1F414C00E
:1016100029303105B9F02E313105B9F403C0C0923B
:10162000E40915C0B092E40912C0C092E5090FC0E8
:10163000EFEFE093E5090BC01092E50908C0C092F6
:10164000E60905C01092E60902C0A092DF09DD207C
:10165000E9F021E030E002C0220F331FDA94E2F714
:1016600024968EAD9FAD249782239323892B21F05E
:10167000F5E0F093DF090AC024964EAD5FAD2497E4
:10168000422B532B24965FAF4EAF2497C301B20178
:10169000A40191010E94F108892B09F021CE8091CB
:1016A000DF09882309F071C61982772425961FAEB9
:1016B000259726961FAE269750E827965FAF279767
:1016C0006FEB28966FAF28970F2EF0E02F2EF0E0EB
:1016D0003F2EF0E04F2EF0E05F2EF02D2CAE3DAE11
:1016E0004EAE5FAE1BAE5E010894A11CB11C13E0B0
:1016F000C12EB6E0DB2E4EC11A811F347CF41D349E
:101700000CF048C11C340CF080C019340CF05AC0E5
:101710001634E9F0173409F01FC13CC1143509F43F
:10172000AFC0153554F4123509F47EC013350CF0F2
:1017300097C0103509F010C172C0193509F4D2C034
:101740001A3509F4E8C0183509F006C1B2C0EB80BB
:10175000FC800D811E81C801B70120E030E040E02F
:1017600050E00E94D632181614F0D092DF09809112
:10177000E109882381F08091E209882309F4FEC001
:10178000C801B70123E333E34BEC51E40E94AB35CE
:101790007B018C01F3C08091E209882351F0C801DC
:1017A000B70123E333E34BEC51E40E94AB357B01FB
:1017B0008C01E092E709F092E8090093E90910939F
:1017C000EA09CCC02B813C814D815E818091E20988
:1017D000882351F0CA01B90123E333E34BEC51E410
:1017E0000E94AB359B01AC01E12FFF27E7FDF0958F
:1017F000E954F040EE0FFF1FEE0FFF1FEA0DFB1D37
:10180000228B338B448B558BA9C06B817C818D815E
:101810009E810E9479360E944A336BAF9FC02B8015
:101820003C804D805E809AC08B819C81AD81BE8161
:101830008CAF9DAFAEAFBFAF8091E209882309F4B2
:101840008DC06CAD7DAD8EAD9FAD23E333E34BEC2E
:1018500051E40E94AB356CAF7DAF8EAF9FAF7EC0C1
:101860006B817C818D819E8120E030E040E050E002
:101870000E94D63288230CF071C0D092DF096EC06E
:10188000EB80FC800D811E81C801B70120E030E0B3
:1018900040E050E00E94D632882314F4D092DF0951
:1018A000C801B7010E9479360E944A336093F70954
:1018B00055C02B813C814D815E818091E209882356
:1018C00051F0CA01B90123E333E34BEC51E40E9428
:1018D000AB359B01AC012F83388749875A8791E04C
:1018E000792A3CC02B813C814D815E818091E20947
:1018F000882351F0CA01B90123E333E34BEC51E4EF
:101900000E94AB359B01AC012B873C874D875E87DE
:10191000A2E07A2A23C02B813C814D815E81809197
:10192000E209882351F0CA01B90123E333E34BEC08
:1019300051E40E94AB359B01AC01CA01B90120E022
:1019400030E040EA50E40E94AB356F87788B898B9A
:101950009A8BB4E07B2A02C0C092DF0925962FAD96
:10196000259726963FAD269727964FAD2797289621
:101970005FAD2897C901DA017C018D012596EFAE94
:1019800025972696FFAE269727960FAF279728967E
:101990001FAF2897CE010296BE016D5F7F4FA40155
:1019A00095010E94F108892B09F0A6CEB72C259647
:1019B0002FAD259726963FAD269727964FAD2797B3
:1019C00028965FAD2897C901DA018FAB98AFA9AF10
:1019D000BAAF8091DF09882309F0D7C48091CF097D
:1019E000873041F08091E5090E9418128091E60944
:1019F0000E943B122496EEADFFAD2497F1FF13C079
:101A00008E01015E1F4F8091FB09B8010E943B1DB2
:101A1000882309F4B9C4ACEFB9E0F8018CE0019077
:101A20000D928150E1F72196FFAD2197F43009F432
:101A300069C1F53048F4F23079F1F33008F0B6C0FE
:101A4000F13009F0B7C110C021964FAD2197463053
:101A500009F458C1463008F4A9C0473009F45FC101
:101A6000483009F0A7C19FC1C201B10120E030E0B8
:101A700040E050E00E94D632882324F486E0809330
:101A8000DF0998C18091CF09873009F493C1C20161
:101A9000B1010E9420048EC15BAD523011F054316F
:101AA00049F4C201B1010E9479360E944533673082
:101AB000710520F083E08093DF097EC1772021F457
:101AC0008BAD823009F42DC1161617062CF44B018C
:101AD00008948108910804C08091FB09882E9924FC
:101AE000582C8E01015E1F4F882DB8010E943B1DAE
:101AF000882309F449C4EBEEAE2EE9E0BE2E77E070
:101B0000C72ED12CCC0EDD1E780100E010E0672C32
:101B10007724C301002E02C0959587950A94E2F7B9
:101B200080FF20C09BAD943199F4D5016D917D91DA
:101B30008D919C91F60120813181428153810E94D7
:101B4000FC31D7016D937D938D939C9313970AC0BD
:101B5000F60180819181A281B381F7018083918315
:101B6000A283B3830F5F1F4F44E050E0A40EB51E65
:101B7000C40ED51EE40EF51E0330110551F68E017C
:101B8000015E1F4F852DB8010E94301D8091FB0919
:101B900090E08815990509F00FC1ACEFB9E0F801A4
:101BA0008CE001900D928150E1F706C1772009F495
:101BB00078C08E01095F1F4F6BEEE62E69E0F62EAE
:101BC000CC24DD24A72CBB24C5010C2C02C0959588
:101BD00087950A94E2F780FF35C08091E309882356
:101BE000F9F0D70151966D917D918D919C9154970B
:101BF0005D962D913D914D915C9190970E94FD31A4
:101C00009B01AC01F80160817181828193810E9406
:101C1000FD31D8016D937D938D939C9313971CC0D8
:101C2000F8016081718182819381D7012D913D916D
:101C30004D915C910E94FD31F80160837183828334
:101C400093830AC0F70180819181A281B381F80159
:101C500080839183A283B3830894C11CD11C0C5F41
:101C60001F4F44E050E0E40EF51E53E0C516D104CA
:101C700009F0AACF6F81788589859A852B853C8567
:101C80004D855E85EF84F88809891A89A090A60B96
:101C9000B090A70BC090A80BD090A90B88240E94ED
:101CA0007404BE01655D7F4F21968FAD219785300D
:101CB00011F487E001C086E00E943B1D882309F4EF
:101CC00063C36BA57CA58DA59EA52FA538A949A9A1
:101CD0005AA9EBA8FCA80DA91EA9A090A60BB0902C
:101CE000A70BC090A80BD090A90B88240E94740465
:101CF000ABEEB9E0FE01BB968CE001900D928150F5
:101D0000E1F75AC021969FAD2197963011F487E0F4
:101D100001C086E06BEE79E00E94301D4BC0772059
:101D200021F486E08093DF0948C00BEE19E057E00C
:101D3000C52ED12CCC0EDD1EEE24FF24A72CBB24F7
:101D4000C5010E2C02C0959587950A94E2F780FF95
:101D50001CC0D8016D917D918D919C9113975196E6
:101D60002D913D914D915C9154970E94FC31F6016B
:101D700020813181428153810E94FC31D8015D96DE
:101D80006D937D938D939C9390970894E11CF11C27
:101D90000C5F1F4FE4E0F0E0CE0EDF1EF3E0EF1625
:101DA000F10471F609C08CE0E8E0FAE0DF011D9271
:101DB0008A95E9F7B72C01C0BB242396BFAD2397C2
:101DC000B2FD03C0BB2009F4CBC28091E109882396
:101DD00099F06FA978AD89AD9AAD20E030E040E090
:101DE00050E00E94D63288233CF48091E009843090
:101DF00019F086E08093DF092296EFAD2297EE235B
:101E000039F08091E009823018F086E08093DF0994
:101E10008091DF09882309F0B8C28E01095F1F4F46
:101E20004BEEE42E49E0F42ECC24DD248B2C9924B7
:101E3000C4010C2C02C0959587950A94E2F780FFA7
:101E40003BC02296FFAD2297FF2309F03FC080914F
:101E5000E3098823F9F0D70151966D917D918D9119
:101E60009C9154975D962D913D914D915C919097E9
:101E70000E94FD319B01AC01F8016081718182817A
:101E800093810E94FD31D8016D937D938D939C9336
:101E900013971CC0F8016081718182819381D70101
:101EA0002D913D914D915C910E94FD31F80160832F
:101EB0007183828393830AC0F70180819181A2811B
:101EC000B381F80180839183A283B3830894C11CFA
:101ED000D11C0C5F1F4F44E050E0E40EF51E53E0B0
:101EE000C516D10409F0A4CF8091E009843048F4EC
:101EF000823008F05EC0882359F0813009F023C297
:101F000020C0843009F01FC2BB2009F41CC299C054
:101F1000BB2009F496C06F81788589859A852B85C9
:101F20003C854D855E85EF84F88809891A89A090E3
:101F3000A60BB090A70BC090A80BD090A90B88243B
:101F400035C0BB2009F47DC06F81788589859A856D
:101F50002B853C854D855E85EF84F88809891A8933
:101F60008090E1098820A1F4A091E7092596AFAF00
:101F70002597B091E8092696BFAF2697E091E90929
:101F80002796EFAF2797F091EA092896FFAF289799
:101F90002596EFAD25972696FFAD26972796AFADF0
:101FA00027972896BFAD28975F016D010E947404A2
:101FB000CAC181E090E00090FA0902C0880F991F21
:101FC0000A94E2F780958B21E1F16CAD7DAD8EAD89
:101FD0009FAD20E030E040E050E00E94D632882300
:101FE000A1F5E091F809F0E0EE0FFF1FEE0FFF1FE3
:101FF0008E010F5F1F4FE00FF11F62897389848983
:10200000958920E030E040E050E00E94D6328823FD
:10201000E1F48091F90990E0880F991F880F991FCA
:10202000080F191FD80152966D917D918D919C9149
:10203000559720E030E040E050E00E94D6328823FF
:1020400021F486E08093DF097EC16CAD7DAD8EAD5D
:102050009FAD20E030E040E050E00E94D6328E019B
:102060000F5F1F4F882309F4F5C0E091F809F0E0F5
:10207000EE0FFF1FEE0FFF1FD801AE0FBF1FE55180
:10208000F64F16966D917D918D919C9119972081B7
:102090003181428153810E94FC311B012C01E0916E
:1020A000F909F0E0EE0FFF1FEE0FFF1F0E0F1F1FCD
:1020B000E551F64FD80116966D917D918D919C91C9
:1020C000199720813181428153810E94FC313B016B
:1020D0004C018CE0FE017396DF011D928A95E9F7B1
:1020E0006CAD7DAD8EAD9FAD20E030E040E850E4BA
:1020F0000E94AB352CAD3DAD4EAD5FAD0E94AB3512
:102100007B018C01C201B101A20191010E94AB359A
:102110009B01AC01C801B7010E94FC317B018C011D
:10212000C401B301A40193010E94AB359B01AC0132
:10213000C801B7010E94FC317B018C0120E030E036
:1021400040E050E00E94D632882324F484E080935B
:10215000DF091BC1C801B7010E9438367B018C0121
:10216000C201B101A40193010E94E6349B01AC01BC
:1021700017FB109517F91095C801B7010E94DD32C1
:102180006B017C018091E009833021F4F7FAF0942F
:10219000F7F8F0946CAD7DAD8EAD9FAD20E030E0F2
:1021A00040E050E00E94D63288236CF4F7FAF094B5
:1021B000F7F8F0944CAD5DAD6EAD7FAD70584CAF9F
:1021C0005DAF6EAF7FAF0091F809A02EBB24AA0CC3
:1021D000BB1CAA0CBB1C8E010F5F1F4FA00EB11EB3
:1021E000C401B301A70196010E94AB359B01AC016C
:1021F000C201B1010E94FC3120E030E040E05FE329
:102200000E94AB35D50152966D937D938D939C932F
:1022100055978091F90990E0880F991F880F991FB1
:10222000080F191FC201B101A70196010E94AB3529
:102230009B01AC01C401B3010E94FD3120E030E0FC
:1022400040E05FE30E94AB35F801628B738B848BB7
:10225000958B23C0E091F809F0E0EE0FFF1FEE0F21
:10226000FF1FE00FF11F628973898489958920918E
:10227000F90930E0220F331F220F331F020F131F03
:10228000D80152962D913D914D915C9155970E94A8
:10229000E6346CAF7DAF8EAF9FAF9091E009209197
:1022A000F8090091F909E090FA098090E109882085
:1022B000A1F4B091E7092596BFAF2597E091E80911
:1022C0002696EFAF2697F091E9092796FFAF27975B
:1022D0004091EA0928964FAF289700D000D00F927E
:1022E000EDB7FEB731964CAD5DAD6EAD7FADADB720
:1022F000BEB711964D935D936D937C93149780E0D8
:10230000923009F481E084838BEE99E0BE01695F2D
:102310007F4FAE014D5E5F4F25963FAD25972696C8
:10232000EFAD26972796FFAD27972896AFAD289754
:10233000A32EBE2ECF2EDA2E0E9465050F900F9091
:102340000F900F900F908091DF098823F1F4ABEE8E
:10235000B9E0FE0137968CE001900D928150E1F7D3
:102360008091E409882369F00E9422251092DD09FA
:102370008091E409823019F40E94060402C0109290
:10238000E4098091DF0901C08AE0C95BDF4F0FB625
:10239000F894DEBF0FBECDBFCF91DF911F910F919B
:1023A000FF90EF90DF90CF90BF90AF909F908F9075
:1023B0007F906F905F904F903F902F900895EFED3A
:1023C000F9E085E3DF011D928A95E9F78091A20B80
:1023D0009091A30BA091A40BB091A50B8093E7095A
:1023E0009093E809A093E909B093EA091092F809DB
:1023F00091E09093F90982E08093FA099093E309C0
:102400008091FB09BF01635E7F4F0E943B1D8823C3
:1024100019F48AE00E94DE2A0895109200013F9A82
:1024200047981092DE09089547981092DE090895A2
:102430001F93182F282F332727FD309580910001F7
:1024400090E02817390771F00E942225112329F006
:10245000479A81E08093DE0903C047981092DE0915
:10246000109300011F910895109201013E9A469821
:102470000895469808951F93182F80910101181709
:1024800049F00E942225113011F4469A01C0469865
:10249000109301011F910895E0ECF0E080818D7FA1
:1024A00080831092C50083E38093C400E1ECF0E0E8
:1024B0008081806180838081886080838081806862
:1024C00080830895282FE09104019E2F9F5F04C010
:1024D0008091D00984FD0FC0809105019817C1F348
:1024E000F0E0EC56F54F2083909304018091C100F9
:1024F00080628093C10008951F920F920FB60F92D1
:1025000011248F939F93EF93FF9390910501E92FEF
:10251000F0E0EC56F54F80818093C6009F5F90936A
:10252000050180910401981729F48091C1008F7DE5
:102530008093C100FF91EF919F918F910F900FBEFB
:102540000F901F90189590910301809102018917B7
:1025500011F48FEF0895E92FF0E0EC5EF54F8081E4
:10256000E92FEF5FE03809F4E0E0E093030108951C
:10257000809102018093030108951F920F920FB67C
:102580000F9211242F933F934F935F936F937F93F9
:102590008F939F93AF93BF93EF93FF932091C600C8
:1025A0002132A1F0223218F42831B9F413C02F33AC
:1025B00019F02E3791F404C08091D009816003C0D6
:1025C0008091D00982608093D00918C08091D00991
:1025D0008860F9CF0E94060411C0E09102019E2F8D
:1025E0009F5F903809F490E080910301981731F0D3
:1025F000F0E0EC5EF54F208390930201FF91EF91A4
:10260000BF91AF919F918F917F916F915F914F910A
:102610003F912F910F900FBE0F901F9018951F9212
:102620000F920FB60F9211242F933F934F935F9306
:102630006F937F938F939F93AF93BF93EF93FF938A
:1026400086B190E08095909587709070892B91F07D
:10265000309903C00E9406040DC0319904C08091D6
:10266000D009886005C0329905C08091D009826088
:102670008093D009FF91EF91BF91AF919F918F917E
:102680007F916F915F914F913F912F910F900FBE6E
:102690000F901F901895CF93DF938091D0098823D6
:1026A00009F457C08091D009C82FD0E0CE018076C0
:1026B0009070892BE9F086E08093CF09C6FF10C0A7
:1026C0008FEF0E949D2F81E00E94B42A8091D00953
:1026D0008F7E8093D0098091D00984FFFCCF03C006
:1026E0008EEF0E949D2F8091D0098F798093D00921
:1026F000C4FF04C081E08093CE092BC0C0FF07C097
:102700000E94392B8091D0098E7F8093D009C3FF1E
:1027100007C00E942A168091D009877F8093D00934
:10272000C2FF07C00E9434168091D0098B7F80932E
:10273000D009C1FF0EC00E9420168091B70B81FF07
:1027400003C081E08093DD098091D0098D7F809363
:10275000D009DF91CF91089580E066E071E00E949A
:10276000A71D882369F080910601882361F086E027
:1027700091E00E949D2A86E091E00E941D0901C01F
:102780008AE00E94DE2A81E066E071E00E94A71DD7
:10279000882321F48AE00E94DE2A089580910601B0
:1027A000882351F086E091E00E949D2A86E091E026
:1027B0000E941D090E94DE2A0895DF92EF92FF9287
:1027C0000F931F93DF93CF93CDB7DEB729970FB643
:1027D000F894DEBF0FBECDBF7C01FC018081843246
:1027E00009F009C181E089838181873481F18834CE
:1027F00074F48432C1F0853234F4882389F0833252
:1028000009F097C01AC0833409F093C02AC08E34EF
:1028100009F469C08835F1F1883409F08AC04CC0E8
:102820000E94AA2AF3C082E08983F701828188236B
:1028300009F0E6C00E943F2EE9C082E08983F701DB
:102840008281882309F0DCC00E94812DDFC082E0F4
:102850008983F7018281882309F0D2C00E94952CD8
:10286000D5C082E08983F7018281882309F0C8C03E
:102870008091CF09873021F40E94060485E007C0CB
:10288000882309F0BFC087E08093CF0984E00E94CD
:10289000B42ABCC082E08983F7018281882309F0D1
:1028A000AFC08091CF09863009F0B0C083E00E94AC
:1028B000B42A1092CF09AAC08091B70B84FD02C040
:1028C00017E0A5C08091CF09882319F0863009F060
:1028D00099C00E94C4048091CE09882309F096C053
:1028E0000E94AC1393C082E08983F7018281882320
:1028F00019F0DD24D3941EC080E0B7010E94A71D0B
:10290000882329F080E0B7010E945C2D03C08AE093
:102910000E94DE2A81E0B7010E94A71D882321F4CE
:102920008AE00E94DE2A72C081E0B7010E945C2D1D
:102930006DC0DD24C7018E010F5F1F4FB801AE01CE
:102940004E5F5F4F0E945325892B09F45DC099812A
:10295000F701E90FF11D80818D3309F051C0892FF6
:102960008F5F8983DD2041F1482F50E02981822F3C
:1029700090E0FC01E41BF50BEE0DFF1DD701A80F45
:10298000B91F8C9180838C912F5F2983882371F7E5
:10299000C7010E941D09182F8823C9F56A817B8110
:1029A0008C819D810E9479360E944A33DC01CB01E3
:1029B000B7010E949C1D2BC0C701B801AE014A5F40
:1029C0005F4F0E945325892BF9F08981E80EF11C95
:1029D000F70180818823A1F46A817B818C819D81AC
:1029E0000E944533DC01CB014E815F81688579858A
:1029F0000E942A1B03C0C7010E941D09182F07C08F
:102A000013E005C01BE003C011E001C010E0812FFE
:102A100029960FB6F894DEBF0FBECDBFCF91DF91E0
:102A20001F910F91FF90EF90DF9008951F9311E099
:102A300046C02A3011F02D30B1F40E944B13809122
:102A4000CE09882309F041C0E0913801EE2349F016
:102A5000F0E0EA5FFE4F108286E091E00E94DD1315
:102A600017C080E015C080913901882319F0293200
:102A700031F512C0213218F12F3209F1283219F440
:102A8000109339011CC090913801913340F08DE0D2
:102A90000E94DE2A109238011092390110C0822F54
:102AA0008156E92FF0E09F5F8A3120F4EA5FFE4F04
:102AB000205202C0EA5FFE4F2083909338010E94AB
:102AC000A312282F8F3F09F0B4CF1F9108951092C1
:102AD0003801109239010E94AF2A87B1887F87B9E7
:102AE00088B1876088B9EDE6F0E0808187608083F7
:102AF000E8E6F0E0808184608083089544988091C6
:102B0000B70B82FF02C0289A01C028988091CF0994
:102B10008330C1F48091AA0B809361018091A10B55
:102B200090E0A0E0B0E00297A109B109880F991FD9
:102B3000AA1FBB1F81958093600180916F00826006
:102B400080936F0008951F920F920FB60F92112479
:102B50008F939F939BB18091AA0B84759B7A892B4D
:102B60008BB91092B1009F918F910F900FBE0F9073
:102B70001F9018959B01AC01203283E0380780E05C
:102B8000480780E0580720F420E233E040E050E0BE
:102B900060E070E788E399E30E94B736C901DA0183
:102BA000803020E0920721E0A20720E0B20730F455
:102BB000BC019C0140E050E091E02FC0803020E05B
:102BC000920728E0A20720E0B207A0F423E0B69520
:102BD000A795979587952A95D1F7BC019C0140E070
:102BE00050E0A3E0220F331F441F551FAA95D1F7D1
:102BF00092E013C0F6E0B695A79597958795FA955C
:102C0000D1F7BC019C0140E050E0E6E0220F331F09
:102C1000441F551FEA95D1F793E080918100887F8A
:102C2000982B909381007093890060938800209383
:102C30004E0130934F01409350015093510108953C
:102C40008091CF09823029F483E08093CF090E94DC
:102C50007E1508958091CF09833029F484E0809314
:102C6000CF091092DD090895E0915E01F0915F01B6
:102C70003097C1F1658576858785908920914A01D5
:102C800030914B0140914C0150914D01621B730BEF
:102C9000840B950B0E942D21109256011092570122
:102CA000109258011092590160E070E080E090E0CD
:102CB0000E94BA1580E091E7A2E0B0E08093520153
:102CC00090935301A0935401B093550110924A017F
:102CD00010924B0110924C0110924D0182E08093B2
:102CE000CF0908951092CF09089584E2EAE3F1E054
:102CF000DF011D928A95E9F760E273E080E090E0E1
:102D00000E94BA1510925F0110925E01109262014A
:102D10000895449A80916F008D7F80936F00909109
:102D2000C70B9F3F21F48091D00985FF0BC0892FED
:102D300090E00E940E268091B70B82FF02C0289877
:102D40000895289A08958AB18C6F8AB98BB18370DF
:102D50009091AA0B892B8BB9209AE1E8F0E0808151
:102D60008F7E8083808188608083E0E8F0E08081CE
:102D70008D7F808380818E7F808380818F7380832D
:102D800080818F7C80831092B0001092B100E0E7C8
:102D9000F0E08081816080830E947E150E94891608
:102DA00008951F920F920FB60F921124EF92FF9287
:102DB0000F931F932F933F934F935F936F937F9343
:102DC0008F939F93AF93BF93CF93DF93EF93FF9333
:102DD00080916201882309F06EC39BB1209161014B
:102DE000822F887A9775892B8BB98BB18B7A822B3E
:102DF0008BB9809160018093B20082E08093B10032
:102E000081E080936201789480915E0190915F01EE
:102E1000892B09F07FC00E94D91DEC0190935F01BE
:102E200080935E01009709F46EC08091CF098330D2
:102E3000D1F46BA17CA18DA19EA1609356017093EA
:102E4000570180935801909359010E94BA1580E070
:102E500091E7A2E0B0E08093520190935301A093D8
:102E60005401B09355012BA53CA54DA55EA5DA01F3
:102E7000C901B595A79597958795820F931FA41FB4
:102E8000B51F80935A0190935B01A0935C01B093AE
:102E90005D012D853E854F855889DA01C901B595BB
:102EA000A79597958795B095A095909581959F4FFB
:102EB000AF4FBF4F80933A0190933B01A0933C01E9
:102EC000B0933D0180933E0190933F01A093400158
:102ED000B09341018093420190934301A093440138
:102EE000B093450120934601309347014093480138
:102EF0005093490110924A0110924B0110924C01DB
:102F000010924D0107C00E9489168091D0098460FB
:102F10008093D009E0915E01F0915F01309709F450
:102F2000C1C220812093610140913A0150913B013F
:102F300060913C0170913D0181819281A381B481B6
:102F4000480F591F6A1F7B1F40933A0150933B0162
:102F500060933C0170933D01141615061606170682
:102F6000C4F520642093610180914601909147014E
:102F7000A0914801B0914901481B590B6A0B7B0B8A
:102F800040933A0150933B0160933C0170933D01A3
:102F900027FF0CC08091D1099091D209A091D3094B
:102FA000B091D4090197A109B1090BC08091D10951
:102FB0009091D209A091D309B091D4090196A11D95
:102FC000B11D8093D1099093D209A093D309B093F6
:102FD000D40940913E0150913F01609140017091B0
:102FE000410185819681A781B085480F591F6A1FCD
:102FF0007B1F40933E0150933F01609340017093CB
:1030000041011416150616061706D4F52091610124
:103010002061209361018091460190914701A09128
:103020004801B0914901481B590B6A0B7B0B409337
:103030003E0150933F01609340017093410125FF91
:103040000CC08091D5099091D609A091D709B09173
:10305000D8090197A109B1090BC08091D5099091B8
:10306000D609A091D709B091D8090196A11DB11D2B
:103070008093D5099093D609A093D709B093D80926
:10308000409142015091430160914401709145018A
:1030900081859285A385B485480F591F6A1F7B1FC0
:1030A0004093420150934301609344017093450162
:1030B0001416150616061706D4F520916101246032
:1030C000209361018091460190914701A0914801B0
:1030D000B0914901481B590B6A0B7B0B409342018D
:1030E00050934301609344017093450123FF0CC04A
:1030F0008091D9099091DA09A091DB09B091DC099E
:103100000197A109B1090BC08091D9099091DA0901
:10311000A091DB09B091DC090196A11DB11D80933E
:10312000D9099093DA09A093DB09B093DC092091C7
:103130004A0130914B0140914C0150914D012F5F5C
:103140003F4F4F4F5F4F20934A0130934B014093C5
:103150004C0150934D0185859685A785B089281728
:1031600039074A075B0708F097C18091CF0984307F
:1031700009F05BC020914E0130914F014091500108
:10318000509151018091520190915301A0915401AD
:10319000B0915501280F391F4A1F5B1F2093520120
:1031A000309353014093540150935501213002EE66
:1031B000300704E0400700E0500708F473C12050D6
:1031C000324E44405040209352013093530140937B
:1031D000540150935501209156013091570140916F
:1031E00058015091590163A574A585A596A562174C
:1031F00073078407950740F00E9489168091D009D3
:1032000084608093D0094EC179018A01E61AF70AD9
:10321000080B190BC801B701E0925601F092570153
:1032200000935801109359016CC087A590A9A1A9DA
:10323000B2A9281739074A075B0708F065C0209133
:103240004E0130914F0140915001509151018091B8
:10325000520190915301A0915401B0915501280F52
:10326000391F4A1F5B1F2093520130935301409333
:10327000540150935501213002EE300704E040071D
:1032800000E0500708F40EC12050324E4440504038
:1032900020935201309353014093540150935501B0
:1032A00083A594A5A5A5B6A52091560130915701F7
:1032B0004091580150915901820F931FA41FB51FCF
:1032C0008093560190935701A0935801B0935901F0
:1032D00027A930AD41AD52AD82179307A407B507BA
:1032E00040F020935601309357014093580150937A
:1032F0005901609156017091570180915801909148
:1033000059010E94BA15CEC083A994A9A5A9B6A94E
:10331000281739074A075B0708F4A2C0281739079E
:103320004A075B0779F5209156013091570140918A
:1033300058015091590187A990ADA1ADB2AD2817A0
:1033400039074A075B0729F480E091E7A2E0B0E083
:1033500010C080E092EEA4E0B0E0209152013091E4
:1033600053014091540150915501821B930BA40BC2
:10337000B50B8093520190935301A0935401B093E5
:10338000550190C020914E0130914F014091500164
:10339000509151018091520190915301A09154019B
:1033A000B0915501280F391F4A1F5B1F209352010E
:1033B000309353014093540150935501213012EE44
:1033C000310714E0410710E0510708F46BC02050AA
:1033D000324E444050402093520130935301409369
:1033E000540150935501209156013091570140915D
:1033F00058015091590180915A0190915B01A0911F
:103400005C01B0915D0182179307A407B50748F4EA
:1034100083A594A5A5A5B6A5281B390B4A0B5B0B64
:1034200004C05695479537952795209356013093BC
:103430005701409358015093590127A130A541A548
:1034400052A58091560190915701A0915801B091D9
:10345000590182179307A407B50708F04ACF41CF57
:1034600027A930AD41AD52AD8091560190915701E1
:10347000A0915801B091590182179307A407B5078D
:1034800089F020935601309357014093580150938F
:103490005901CA01B90135CF10925F0110925E0146
:1034A0000E94CA1D809161019091AA0B8927809387
:1034B000610110926201FF91EF91DF91CF91BF9175
:1034C000AF919F918F917F916F915F914F913F91BC
:1034D0002F911F910F91FF90EF900F900FBE0F90C3
:1034E0001F901895F999FECF92BD81BD81E08FBBE9
:1034F00080B50895F894F999FECF92BD81BD81E021
:103500008FBB40B54627842F992787FD9095262F9E
:1035100030E082239323892B39F06F3F19F060BD8F
:1035200084E006C084E104C0442321F060BD84E24D
:103530008FBBF99A789408958F929F92AF92BF9221
:10354000CF92DF92EF92FF920F93DF93CF9300D051
:10355000CDB7DEB75C016B017A014A0100E01EC005
:10356000002319F021E030E008C0202F332727FD89
:1035700030952227330F221F3327F60161916F0107
:10358000062F020F9C012F5F3F4F3A8329830E9431
:103590007A1A08948108910889819A81811491048A
:1035A000F9F6C7018A0D9B1D602F0E947A1A0F90B1
:1035B0000F90CF91DF910F91FF90EF90DF90CF9020
:1035C000BF90AF909F908F900895CF93DF93EC01C1
:1035D000FB019A0190E0B1E019C0F999FECFF2BD6C
:1035E000E1BDBFBBA0B5992319F081E090E008C010
:1035F000892F992787FD90958827990F881F9927EC
:1036000031969A2F980FA9932150304021153105FA
:1036100021F7460F571FF999FECF52BD41BD81E0FA
:103620008FBB80B520E030E0981711F421E030E046
:10363000C901DF91CF91089580E090E065E00E949C
:103640007A1A81E090E064E97BE046E350E00E9472
:103650009C1A0895EF92FF920F931F93CF93DF93DD
:10366000EC017A018B01FC018731910540F4E25CA9
:10367000FF4FEE0FFF1F0590F491E02D099486E0B7
:103680001FC1CB01BA0120E030E040E050E00E94D1
:10369000D632181614F088E013C1CC0FDD1FCC0F02
:1036A000DD1FCC56D44FE882F9820A831B8305C103
:1036B000CB01BA0120E030E040E450E40E94D63271
:1036C000882314F489E0FCC0C801B7010E940E36BB
:1036D0000E944A336093A10BF0C04093A20B509319
:1036E000A30B6093A40B7093A50BE7C04093A60BAC
:1036F0005093A70B6093A80B7093A90BDEC0CB016E
:10370000BA010E9479360E944A336093AA0BD5C051
:10371000CB01BA010E940E360E944A336093C70B58
:10372000CCC0CB01BA0120E030E040E752E40E9477
:10373000AB3520E030E040E752E40E94AB356093C7
:10374000AF0B7093B00B8093B10B9093B20BB5C0DD
:10375000DB01CA01BF778093B30B9093B40BA093A6
:10376000B50BB093B60BA9C04093AB0B5093AC0B09
:103770006093AD0B7093AE0BA0C0CB01BA010E9459
:103780000E360E944A336093C90B97C0CB01BA0131
:103790000E940E360E944A336093C80B8EC0CB0144
:1037A000BA0120E030E040E050E00E94D6328823A9
:1037B00021F08091B70B816011C08091B70B8E7F93
:1037C0000DC0CB01BA0120E030E040E050E00E94A3
:1037D000D632882331F08091B70B82608093B70B8B
:1037E0006CC08091B70B8D7FF9CFCB01BA0120E07F
:1037F00030E040E050E00E94D632882321F08091F2
:10380000B70B8460EBCF8091B70B8B7FE7CFCB01F9
:10381000BA0120E030E040E050E00E94D632882338
:1038200021F08091B70B886003C08091B70B877F30
:103830008093B70B0E94952640C0CB01BA0120E0CF
:1038400030E040E050E00E94D632882321F08091A1
:10385000B70B8061C3CF8091B70B8F7EBFCFCB01F9
:10386000BA010E9479360E944A336093B80B25C092
:103870004093B90B5093BA0B6093BB0B7093BC0B86
:103880001CC04093BD0B5093BE0B6093BF0B709355
:10389000C00B13C0CB01BA010E940E360E944A33FE
:1038A0007093C20B6093C10B08C04093C30B50933D
:1038B000C40B6093C50B7093C60B0E941C1B80E069
:1038C000DF91CF911F910F91FF90EF900895882382
:1038D00009F462C080E090E0A0EAB2E48093940B27
:1038E0009093950BA093960BB093970B8093980BA6
:1038F0009093990BA0939A0BB0939B0B8DE495E555
:10390000A5EDB2E480939C0B90939D0BA0939E0B2E
:10391000B0939F0B8AE08093A10B80E090E0A8EC2D
:10392000B3E48093A20B9093A30BA093A40BB0934A
:10393000A50B80E090E4ACE9B5E48093A60B9093EE
:10394000A70BA093A80BB093A90B80E098ECAFE273
:10395000B9E48093AF0B9093B00BA093B10BB093ED
:10396000B20B8DEC9CECACE4BEE38093AB0B90937C
:10397000AC0BA093AD0BB093AE0B88E08093AA0B79
:103980008DEC9CECACECBDE38093B30B9093B40B4B
:10399000A093B50BB093B60B86E18093B70B80EA8A
:1039A0008093B80B80E090E0A8ECB2E48093B90B70
:1039B0009093BA0BA093BB0BB093BC0B80E090E844
:1039C000ABEBB4E48093BD0B9093BE0BA093BF0B05
:1039D000B093C00B84E690E09093C20B8093C10B30
:1039E00080E090E0A0EAB0E48093C30B9093C40B16
:1039F000A093C50BB093C60B99E19093C70B82E0DF
:103A00008093C80B9093C90B0E941C1B089580E003
:103A100090E00E94721A853079F484E99BE061E0BD
:103A200070E046E350E00E94E51A20E0892B09F49B
:103A300021E081E0282712C0853078F484E99BE0FA
:103A400061E070E043E250E00E94E51A892B29F022
:103A500080E00E94671C21E001C020E0822F0895D1
:103A60009DE0899FC001112480509E4F4CE050E0A2
:103A70000E949C1A08950F931F93CF93DF93162FE4
:103A8000072F9DE0899FE0011124C050DE4F862F53
:103A9000972FBE014CE050E00E94E51A892B11F0EF
:103AA00081E00FC0E12FF02F8CE0DF011D928A959D
:103AB000E9F7CE01612F702F4CE050E00E949C1A74
:103AC00080E0DF91CF911F910F910895EF92FF92C7
:103AD0001F93DF93CF93CDB7DEB72C970FB6F89433
:103AE000DEBF0FBECDBF0E94071D882341F48AE0D0
:103AF0000E94DE2A81E00E94671C0E943F2E10E097
:103B00007E010894E11CF11C812FB7010E943B1D2E
:103B1000882319F48AE00E94DE2A1F5F1830A1F77B
:103B20002C960FB6F894DEBF0FBECDBFCF91DF91BC
:103B30001F91FF90EF90089593E3899FC001112496
:103B400080509D4F42E350E00E949C1A08950F93CD
:103B50001F93CF93DF938B0193E3899FE00111249F
:103B6000C050DD4FCB01BE0142E350E00E94E51A98
:103B7000892B11F081E009C0F8011082CE01B80153
:103B800042E350E00E949C1A80E0DF91CF911F91A8
:103B90000F9108959091AF098091B009981741F065
:103BA0008091B0098F5F843209F480E08093B0097E
:103BB00008959091AF098091B009981719F420E009
:103BC00030E008C09091B0098BE3989F90011124D8
:103BD0002D593E4FC90108959091B00920E0809180
:103BE000B109981709F421E0822F0895EF92FF920E
:103BF0000F931F936093B2097093B3098093B40934
:103C00009093B5092093B6093093B7094093B8094A
:103C10005093B909E092BA09F092BB090093BC092C
:103C20001093BD091F910F91FF90EF9008958F920F
:103C30009F92AF92BF92CF92DF92EF92FF920F933B
:103C40001F93CF93DF93EC016B01009709F460C0E1
:103C50008AA1882309F05CC0ED88FE880F89188D41
:103C6000FB01B588A6889788808CC801B7012B2DE9
:103C70003A2D492D582D0E94D63288230CF048C089
:103C8000C801B701A80197010E94AB357B018C01E7
:103C90006091AF0B7091B00B8091B10B9091B20B12
:103CA000905820E030E040E050EC0E94AB352D8D84
:103CB0003E8D4F8D58A10E94AB359B01AC01C801D0
:103CC000B7010E94FD310E9438367B018C016B2DBB
:103CD0007A2D892D982D9701A8010E94D63288232C
:103CE00024F4EB2CFA2C092D182D6B2D7A2D892D0F
:103CF000982D9701A8010E94D632882349F0C70168
:103D0000D801F601858B968BA78BB08F81E081A3BC
:103D1000DF91CF911F910F91FF90EF90DF90CF90A7
:103D2000BF90AF909F908F9008952F923F924F92A7
:103D30005F926F927F928F929F92AF92BF92CF923B
:103D4000DF92EF92FF920F931F93DF93CF93CDB744
:103D5000DEB768970FB6F894DEBF0FBECDBF1C016B
:103D60006A017B0128013901DC01D7966D917D91B3
:103D70008D919C91DA970E9476334B015C01A701EB
:103D800096010E94AB350E94C3320E944A337B01E8
:103D90008C01F10163A374A385A396A3C501B401AB
:103DA000A30192010E94AB350E94C3320E944A33A4
:103DB00069877A878B879C87D10197966D937D93CE
:103DC0008D939C939A979B966D917D918D919C91EB
:103DD0009E9722E330E040E050E00E9498360E9437
:103DE000783320E030E040E752E40E94AB350E9497
:103DF00045332B013C01C801B7010E9476337B019A
:103E00008C01C301B2010E9478336D837E838F835E
:103E10009887C501B401A50194010E94AB355B01EF
:103E20006C01C801B701A80197010E94AB356D87ED
:103E30007E878F87988B6D817E818F8198859B018E
:103E4000AC010E94FD31698B7A8B8B8B9C8BC601F8
:103E5000B5012D853E854F8558890E94FC31298901
:103E60003A894B895C890E94DD320E94C3320E94EC
:103E7000453369837A838B839C8369857A858B85B7
:103E80009C850E9476339B01AC010E94AB356D8B03
:103E90007E8B8F8B988FA60195010E94FC317B0150
:103EA0008C017094609450944094411C511C611C8E
:103EB000711CC301B2010E9478339B01AC010E94C6
:103EC000FD319B01AC01C801B7010E94DD320E94A7
:103ED000B333F101A584B684C784D0888601750107
:103EE00029813A814B815C81E21AF30A040B150B9C
:103EF0000E944533A8019701261B370B480B590B2D
:103F0000DA01C90157FF4AC0C601B5010E947833E2
:103F10009B01AC0169897A898B899C890E94AB35A8
:103F20002D853E854F8558890E94FC312D893E891B
:103F30004F89588D0E94FD317B018C016D817E81FE
:103F40008F81988520E030E040E850E40E94AB3556
:103F50009B01AC01C801B7010E94DD320E94C3324F
:103F60000E944533AC01CB01DA01BC01CD0197FFC2
:103F700004C060E070E080E090E069837A838B8326
:103F80009C83A616B706C806D90624F4A982BA826D
:103F9000CB82DC8280E090E0A0E0B0E029813A8131
:103FA0004B815C81F10127A730AB41AB52AB820F53
:103FB000931FA41FB51F83AB94ABA5ABB6AB68969C
:103FC0000FB6F894DEBF0FBECDBFCF91DF911F912A
:103FD0000F91FF90EF90DF90CF90BF90AF909F90A8
:103FE0008F907F906F905F904F903F902F900895AB
:103FF0002F923F924F925F927F928F929F92AF92B9
:10400000BF92CF92DF92EF92FF920F931F93CF93C5
:10401000DF93D090AF098091AF0B9091B00BA0913E
:10402000B10BB091B20B1C012D0157FA509457F807
:10403000509400E010E0C0E0D0E0BB24B3943BE338
:10404000C32E72C0DD2011F424E2D22EDA94209720
:1040500009F463C00115110509F45FC0A98C9A8C9D
:104060008B8C7C8C6D897E898F89988D2A2D392D3A
:10407000482D572D0E94D632882309F44EC08AA1BC
:10408000882309F041C0F801E588F6880789108D7A
:104090006A2D792D882D972DA80197010E94D9347A
:1040A000181694F5C801B701A80197010E94AB3515
:1040B0007B018C01C201B10120E030E040E050EC16
:1040C0000E94AB352D8D3E8D4F8D58A10E94AB3592
:1040D0009B01AC01C801B7010E94FD310E94383636
:1040E000162F072FF82EE92E6A2D792D882D972D62
:1040F000212F302F4F2D5E2D0E94D63287FD04C018
:10410000A12E902E8F2C7E2C8A2D992DA82DB72D87
:104110008D8B9E8BAF8BB88FB9A2DC9CC001112414
:104120008E01EC01CD59DE4F8091B009D81609F00F
:1041300089CFF090B00920E030E000E010E09BE390
:10414000E92E11C0FE9CE0011124CD59DE4FC901BA
:10415000B801AE010E94171EF394F4E2FF1609F4B1
:10416000FF2498018E018091AF09F81659F7C90113
:10417000B80140E050E00E94171E7090B009C0E006
:10418000D0E08BE3582E35C0759C4001112483E6A6
:1041900091E0880E991E209731F189A1882321F49E
:1041A000F40181A18823F9F0E988FA880B891C8938
:1041B0006D897E898F89988DA80197010E94DD32D3
:1041C0005B016C01F401658976898789908DA8016E
:1041D00097010E94DD328B019C01CE01B601A50141
:1041E0000E94951E19A27394F4E27F1609F47724B5
:1041F000E4018091AF09781639F6E988FA880B89CD
:104200001C896D897E898F89988DA80197010E94EC
:10421000DD325B016C0160E070E080E090E0A801BD
:1042200097010E94DD328B019C01CE01B601A501F0
:104230000E94951E19A2DF91CF911F910F91FF90BF
:10424000EF90DF90CF90BF90AF909F908F907F9036
:104250005F904F903F902F900895AF92BF92CF9272
:10426000DF92EF92FF920F931F93CF93DF935B0147
:104270006C019091B0098BE3989FE0011124CD5916
:10428000DE4FC601B5010E9478332D8D3E8D4F8DD6
:1042900058A10E94AB357B018C016D857E858F8591
:1042A00098890E9478339B01AC01C801B7010E9434
:1042B000DD326D8F7E8F8F8F98A3AD86BE86CF86C1
:1042C000D88A80E090E0A0E0B0E08D8B9E8BAF8B31
:1042D000B88F898F9A8FAB8FBC8F1AA281E089A388
:1042E0000E94F81FDF91CF911F910F91FF90EF90E7
:1042F000DF90CF90BF90AF9008952F923F924F9252
:104300005F926F927F928F929F92AF92BF92CF9265
:10431000DF92EF92FF920F931F93DF93CF93CDB76E
:10432000DEB7AF970FB6F894DEBF0FBECDBF290141
:104330003A01ADA2BEA2CFA2D8A689A63091AF09FC
:104340002BE3329F1001112423E631E0220E331EAD
:104350002091940B3091950B4091960B5091970BB7
:104360000E94AB350E947B3569837A838B839C8363
:10437000C301B2012091980B3091990B40919A0B97
:1043800050919B0B0E94AB350E947B356D837E83E1
:104390008F839887C801B70120919C0B30919D0BAA
:1043A00040919E0B50919F0B0E94AB350E947B3534
:1043B00069877A878B879C87D1011C9229813A81F2
:1043C0004B815C818091B2099091B309A091B409AD
:1043D000B091B509281739074A075B071CF480E834
:1043E000F10180832D813E814F8158858091B609EE
:1043F0009091B709A091B809B091B9092817390768
:104400004A075B0724F4D1018C9180628C93298543
:104410003A854B855C858091BA099091BB09A09142
:10442000BC09B091BD09281739074A075B0724F476
:10443000F10180818860808329813A814B815C8190
:104440008091B2099091B309A091B409B091B509D6
:10445000281B390B4A0B5B0B57FF07C05095409543
:10446000309521953F4F4F4F5F4FD10111962D93BE
:104470003D934D935C931497AD80BE80CF80D884DC
:104480008091B6099091B709A091B809B091B90986
:10449000A81AB90ACA0ADB0AF101A582B682C78244
:1044A000D086D7FE0BC088279927DC018A199B0983
:1044B000AC09BD0985839683A783B08729853A8592
:1044C0004B855C858091BA099091BB09A091BC098C
:1044D000B091BD09281B390B4A0B5B0B57FF07C076
:1044E00050954095309521953F4F4F4F5F4FD101EB
:1044F00019962D933D934D935C931C971596ED90D3
:10450000FD900D911C91189711968D919D910D9094
:10451000BC91A02D8E159F05A007B10710F4D801FE
:10452000C70182179307A407B50710F4DA01C90180
:10453000F10185879687A787B08B0097A105B10504
:1045400009F467C269817A818B819C812091B209CB
:104550003091B3094091B4095091B509621B730BB6
:10456000840B950B0E9478332091940B3091950B1E
:104570004091960B5091970B0E94DD3269A37AA36C
:104580008BA39CA3C601B5010E9478332091980BA0
:104590003091990B40919A0B50919B0B0E94DD3208
:1045A0006D8F7E8F8F8F98A369857A858B859C858B
:1045B0002091BA093091BB094091BC095091BD09C5
:1045C000621B730B840B950B0E94783320919C0B1C
:1045D00030919D0B40919E0B50919F0B0E94DD32BC
:1045E000698F7A8F8B8F9C8F69A17AA18BA19CA1F7
:1045F0009B01AC010E94AB357B018C016D8D7E8DE2
:104600008F8D98A19B01AC010E94AB359B01AC0141
:10461000C801B7010E94FD317B018C01698D7A8D43
:104620008B8D9C8D9B01AC010E94AB359B01AC0135
:10463000C801B7010E94FD310E9438367B018C0110
:10464000D1015D966D937D938D939C93909760E0DF
:1046500070E080E89FE3A80197010E94DD323B01F2
:104660004C01B9A5BB2349F46DA17EA18FA198A5EA
:10467000A40193010E94AB350AC060E070E080E8BD
:104680009FE32DA13EA14FA158A50E94DD325B0101
:104690006C01C801B701A60195010E94AB356AA75C
:1046A0007BA78CA79DA7F101618B728B838B948B69
:1046B00065857685878590890E9478337B018C019A
:1046C000A60195010E94AB350E94C3320E944A3375
:1046D000D101D7966D937D938D939C93DA97C80102
:1046E000B701A40193010E94AB352091AF0B30912B
:1046F000B00B4091B10B5091B20B0E94AB3520E052
:1047000030E84BE355E40E94DD320E94C3320E9440
:104710004533F10163A774A785A796A769A17AA17C
:104720008BA19CA1A40193010E94AB357B018C015C
:104730006D877E878F87988B6D8D7E8D8F8D98A1ED
:10474000A40193010E94AB355B016C01698B7A8BEC
:104750008B8B9C8B698D7A8D8B8D9C8DA4019301A5
:104760000E94AB353B014C016D8B7E8B8F8B988FFC
:104770009091AF098091B009981709F4BDC0F091EC
:10478000CA09FEA72091CB092FA75090CC094090D1
:10479000CD096F2F722F852D942D20E030E040E061
:1047A00050E00E94D93418160CF0A6C06091BE09E2
:1047B0007091BF098091C0099091C1099058A801DA
:1047C00097010E94AB357B018C016091C209709109
:1047D000C3098091C4099091C509A60195010E9461
:1047E000AB359B01AC01C801B7010E94FC317B01D4
:1047F0008C01C401B3012091C6093091C7094091D1
:10480000C8095091C9090E94AB359B01AC01C80190
:10481000B7010E94FC317B018C0123E333E343E7C2
:104820005FE30E94D63288230CF066C06EA57FA598
:10483000852D942D2AA53BA54CA55DA50E94D632B9
:1048400087FD08C08AA59BA5ACA5BDA58EA79FA77F
:104850005A2E4B2EC801B70123E333E343E75FEB46
:104860000E94D93418160CF04CC060E070E080E86B
:104870009FE3A80197010E94FC3120E030E040E076
:104880005FE30E94AB350E9438365B016C0160919A
:10489000AF0B7091B00B8091B10B9091B20B209146
:1048A000B30B3091B40B4091B50B5091B60B0E94F5
:1048B000AB35A60195010E94AB357B018C0160E010
:1048C00070E080E89FE3A60195010E94FC319B0106
:1048D000AC01C801B7010E94DD320E9438367B016D
:1048E0008C016EA57FA5852D942D9701A8010E94AE
:1048F000D63287FD06C009C0EE24FF2400E010E098
:1049000004C0EEA4FFA4052D142DC701D801F101A8
:10491000818F928FA38FB48F6091AF0B7091B00B8A
:104920008091B10B9091B20B905820E030E040E0C4
:1049300050EC0E94AB35D1015D962D913D914D918A
:104940005C9190970E94AB3520E030E040E050E071
:104950000E94FD310E943836D62EC72EB82EA92EC1
:10496000B701C8012D2D3C2D4B2D5A2D0E94D6325A
:1049700087FD04C0ED2CFC2C0B2D1A2DC701D8018E
:10498000F101858B968BA78BB08F618972898389A2
:1049900094892D2D3C2D4B2D5A2D0E94D632181660
:1049A0002CF081E0D10192968C9302C0F10112A209
:1049B00081E0D10191968C93AEEBB9E0FE013D967A
:1049C0008CE001900D928150E1F7F101818992898B
:1049D000A389B4898093CA099093CB09A093CC0989
:1049E000B093CD098091B1098093AF098091AF094F
:1049F0008F5F843209F480E08093B109A2EBB9E0C3
:104A0000FE0131968CE001900D928150E1F70E94F9
:104A1000F81FAF960FB6F894DEBF0FBECDBFCF9193
:104A2000DF911F910F91FF90EF90DF90CF90BF909B
:104A3000AF909F908F907F906F905F904F903F903E
:104A40002F9008951F931BE306C00E944B13809183
:104A5000CE09882391F49091AF098091B0099817FD
:104A600041F08091B009819FC00111248D599E4F62
:104A700061F78091CF09833041F31F9108958091B0
:104A8000AF098093B0098091AF098F5F843209F438
:104A900080E08093B1098CE1E2EBF9E0DF011D9247
:104AA0008A95E9F708956F927F928F929F92AF92C5
:104AB000BF92CF92DF92EF92FF920F931F93CF930B
:104AC000DF934C013B015A01FB018081F401E80FA7
:104AD000F11DEF0189918D3229F481812196CC2439
:104AE000C39405C08B3211F481812196CC2420E03F
:104AF00030E040E050E0DD24E0E070E0682F6053FB
:104B00006A30F8F4EF5FE930C0F47111DA94DA0139
:104B1000C901F2E0880F991FAA1FBB1FFA95D1F7B0
:104B2000280F391F4A1F5B1F220F331F441F551FB9
:104B3000260F311D411D511D09C0772339F4D3942F
:104B400005C06E3F29F4772319F471E08991D6CF1F
:104B5000EE2319F420E030E051C0CA01B9010E94EF
:104B600076337B018C0120E030E040E050E00E9491
:104B7000D632882369F42BC0C801B7012AE037ED8B
:104B800043E25CE30E94AB357B018C01F2E0DF0E77
:104B90008FEFD8168CF3D81659F4C801B7012DEC55
:104BA0003CEC4CEC5DE30E94AB357B018C010FC00B
:104BB000DD2069F0C801B70120E030E040E251E4B7
:104BC0000E94AB357B018C01DA941D149CF3CC2040
:104BD00049F0D801C701B058F50180839183A283C1
:104BE000B38305C0F501E082F18202831383882D2F
:104BF00080958C0FF301808321E030E0C901DF91C3
:104C0000CF911F910F91FF90EF90DF90CF90BF90C9
:104C1000AF909F908F907F906F90089520EA3FE033
:104C200004C0F9013197F1F701970097D1F7089582
:104C30001F93A0EABFE040E951E015E335E031C041
:104C40006A3071058105910540F4232F2A95F1F70B
:104C5000615070408040904024C0643671058105E9
:104C6000910540F4212F2A95F1F76A507040804059
:104C7000904017C0683E23E0720720E0820720E0E2
:104C8000920740F4FA013197F1F764567040804082
:104C9000904007C0FD013197F1F7685E7340804096
:104CA0009040611571058105910551F61F91089598
:104CB000EF92FF920F931F936091D1097091D209E7
:104CC0008091D3099091D4092091D5093091D609CA
:104CD0004091D7095091D809E090D909F090DA09AC
:104CE0000091DB091091DC090E94F61D6091D10949
:104CF0007091D2098091D3099091D4092091D5095E
:104D00003091D6094091D7095091D809E090D9093E
:104D1000F090DA090091DB091091DC090E949E08ED
:104D20001F910F91FF90EF90089584B1817F84B916
:104D300085B1817F85B98091B70B83FF09C08091D0
:104D40006C008E6080936C0080916800826008C067
:104D500080916C00817F80936C00809168008D7FD2
:104D60008093680008952F923F924F925F926F92C6
:104D70007F928F929F92AF92BF92CF92DF92EF92EB
:104D8000FF920F931F93DF93CF93CDB7DEB7A99711
:104D90000FB6F894DEBF0FBECDBF8EA36FA348A79A
:104DA00038014901FE0131968CE0DF011D928A95A0
:104DB000E9F70EA100FD02C010E00FC06091940B56
:104DC0007091950B8091960B9091970B0E947B357B
:104DD00069837A838B839C8311E001FF0FC01F5F7F
:104DE0006091980B7091990B80919A0B90919B0B0D
:104DF0000E947B356D837E838F83988702FF0FC06F
:104E00001F5F60919C0B70919D0B80919E0B909108
:104E10009F0B0E947B3569877A878B879C87898562
:104E20009A85AB85BC852D803E804F80588428169E
:104E300039064A065B0610F41C012D0189819A810E
:104E4000AB81BC81281639064A065B0610F41C01AA
:104E50002D01612F70E080E090E00E9476330E9487
:104E600038365B016C01C201B1010E947633A601A4
:104E700095010E94DD327B018C012091AF0B3091B6
:104E8000B00B4091B10B5091B20B0E94AB3520E0BA
:104E900030E84BE355E40E94DD320E94C3320E94A9
:104EA0004A336AA37BA38CA39DA3C401B301A601CB
:104EB00095010E94AB359B01AC01C801B7010E946E
:104EC000AB359B01AC0160EC71EE84E69CE40E9482
:104ED000DD320E947B357B018C01B8EFEB16B4E22A
:104EE000FB06B1E00B07B0E01B0718F4570168019F
:104EF00007C038EFA32E34E2B32E31E0C32ED12CFD
:104F00002091B80B287A8091AA0B282729A33FA1CA
:104F1000332319F488EA282729A3D201C101B695C1
:104F2000A79597958795662477244301681A790A8F
:104F30008A0A9B0A8091A10BB601A501481B510961
:104F4000610971094D8B5E8B6F8B788F6D8E7E8EB4
:104F50008F8E98A2698E7A8E8B8E9C8E198A1A8A71
:104F60001B8A1C8A60E177E280E090E06D877E8793
:104F70008F87988B70E489A1872789A733B198A57B
:104F8000992311F4AEE03A27BEA1B0FF1AC089817F
:104F90009A81AB81BC81680E791E8A1E9B1E1614F5
:104FA0001704180419046CF431FF02C029A504C0C9
:104FB0002EA12E7F2EA329A16218730884089508BC
:104FC00001C029A14EA141FF29C08D819E81AF81E1
:104FD000B8854D8D5E8D6F8D78A1480F591F6A1F62
:104FE0007B1F4D8F5E8F6F8F78A3141615061606E4
:104FF0001706A4F432FF03C050E1252703C06EA1B9
:105000006D7F6EA38D8D9E8DAF8DB8A18219930992
:10501000A409B5098D8F9E8FAF8FB8A39EA192FF73
:1050200029C089859A85AB85BC85498D5A8D6B8D44
:105030007C8D480F591F6A1F7B1F498F5A8F6B8FBA
:105040007C8F1416150616061706C4F433FF03C02A
:1050500054E0252703C06EA16B7F6EA3898D9A8DC6
:10506000AB8DBC8D82199309A409B509898F9A8FDC
:10507000AB8FBC8F9EA1992309F46DC08091D0099C
:1050800084FD69C08BB124758B7A282B2BB9609174
:10509000A10B70E080E090E00E941826A9A1ABB9B6
:1050A0006D897E898F89988D0E941826EA14FB04E9
:1050B0000C051D0508F062CF2D853E854F8558896A
:1050C0002A0D3B1D4C1D5D1D2D873E874F87588B3C
:1050D00021326EE4360760E0460760E0560708F4C8
:1050E0004DCF20523E44404050402D873E874F8751
:1050F000588B89899A89AB89BC892AA13BA14CA18B
:105100005DA1820F931FA41FB51F898B9A8BAB8B58
:10511000BC8B60E077E883E993E029893A894B8981
:105120005C890E94B736C901DA015C016D01AE14D9
:10513000BF04C006D10610F4570168018091A10B8D
:10514000B601A501481B5109610971094D8B5E8BA0
:105150006F8B788F13CFA9960FB6F894DEBF0FBE72
:10516000CDBFCF91DF911F910F91FF90EF90DF9016
:10517000CF90BF90AF909F908F907F906F905F90F7
:105180004F903F902F9008950F931F930E947E158C
:105190000091BD0B1091BE0B2091BF0B3091C00B45
:1051A00084E061E040E00E94B3260091BD0B1091C5
:1051B000BE0B2091BF0B3091C00B82E061E040E05C
:1051C0000E94B3260091BD0B1091BE0B2091BF0B26
:1051D0003091C00B81E061E040E00E94B3268091F5
:1051E000C10B9091C20B0E940E260091B90B109139
:1051F000BA0B2091BB0B3091BC0B87E060E041E023
:105200000E94B3268091C10B9091C20B0E940E2682
:105210000E9489161F910F9108951F920F920FB649
:105220000F9211242F933F934F935F936F937F932C
:105230008F939F93AF93BF93EF93FF938091CF0989
:10524000863059F08091D00985FD07C00E94060480
:105250008091D00980648093D009FF91EF91BF9134
:10526000AF919F918F917F916F915F914F913F91FE
:105270002F910F900FBE0F901F9018958F929F92B5
:10528000AF92BF92CF92DF92EF92FF920F931F9354
:10529000DF93CF93CDB7DEB72A970FB6F894DEBF72
:1052A0000FBECDBF7B018C0120E030E040E050E03C
:1052B0000E94D63288233CF48DE20E94621217FBD2
:1052C000109517F91095A090C80BDA2C0CC0C801E6
:1052D000B70120E030E048EC52E40E94AB357B019E
:1052E0008C018EEFD80EE1E0ED1588F3A0FE0AC028
:1052F000C801B70120E030E040E251E40E94AB3544
:105300007B018C01C801B70120E030E040E05FE3A1
:105310000E94FD310E9445336B017C019E012F5F8D
:105320003F4FF901EA0DF11D8EE28083BB24490154
:105330001EC0BA1409F4B39484010B0D111DC701EA
:10534000B6012AE030E040E050E00E94B736605DF0
:10535000F8016083B394C701B6012AE030E040E071
:1053600050E00E94B736C901DA016C017D01C11419
:10537000D104E104F104E9F606C0FC01EB0DF11DD6
:105380002083B39403C0CE01019620E3BA14A8F39E
:10539000BA1489F48B2D8F5FFE01E80FF11D90E3A5
:1053A0009183B82EB39407C0FE01EB0DF11D8081EF
:1053B0000E946212BA94BB20B9F72A960FB6F894ED
:1053C000DEBF0FBECDBFCF91DF911F910F91FF9038
:1053D000EF90DF90CF90BF90AF909F908F90089507
:1053E0008F929F92BF92CF92DF92EF92FF920F9394
:1053F0001F93DF93CF93CDB7DEB72A970FB6F894FC
:10540000DEBF0FBECDBF7B018C0197FF0BC08DE2CD
:105410000E94621210950095F094E094E11CF11C3A
:10542000011D111D67017801C114D104E104F104CB
:1054300021F480E30E9462122FC0BB244E01089425
:10544000811C911C84010B0D111DC701B6012AE0BE
:1054500030E040E050E00E94B736605DF8016083C4
:10546000B394C701B6012AE030E040E050E00E946A
:10547000B736C901DA016C017D01C114D104E10420
:10548000F10401F707C0FE01EB0DF11D80810E94C0
:105490006212BA94BB20B9F72A960FB6F894DEBF11
:1054A0000FBECDBFCF91DF911F910F91FF90EF9075
:1054B000DF90CF90BF909F908F9008950F931F9390
:1054C000DF93CF93CDB7DEB728970FB6F894DEBF42
:1054D0000FBECDBF982FFE0131969E01275F3F4F33
:1054E000892F817081939695E217F307C9F78E0192
:1054F000085F1F4FF8018081805D0E946212015099
:1055000010400C171D07B1F728960FB6F894DEBFB0
:105510000FBECDBFCF91DF911F910F910895CF9313
:10552000DF93EC0102C00E946212FE012196849179
:105530008823C9F7DF91CF910895CF93DF93EC01D2
:1055400003C021960E94621288818823D1F7DF91DF
:10555000CF9108958AE694E00E948F2A089588E901
:1055600095E00E948F2A08951F93182F86E096E0F9
:105570000E948F2A133091F0143028F4113041F03A
:105580001230B1F408C0143061F0153089F40CC049
:1055900084EF95E00BC080EE95E008C08EEC95E0BE
:1055A00005C086EC95E002C08DEB95E00E948F2A45
:1055B00089EB95E00E948F2A1F9108951F93182F61
:1055C000882319F48FE297E050C087E297E00E94A9
:1055D0008F2A173091F1183070F4133011F1143014
:1055E00028F41130C1F01230F1F518C01530F9F07F
:1055F000163000F519C01A3049F11B3028F4183064
:10560000F9F0193081F51FC01C3031F11C3008F160
:105610001D3049F524C085E197E023C08DEF96E069
:1056200020C087EE96E01DC088ED96E01AC082EC9F
:1056300096E017C080EB96E014C08FE996E011C0A9
:1056400083E996E00EC084E896E00BC083E696E01E
:1056500008C084E596E005C089E496E002C08BE3CB
:1056600096E00E948F2A88E396E00E948F2A1F917D
:1056700008958F929F92BF92CF92DF92EF92FF9206
:105680000F931F93DF93CF93CDB7DEB768970FB615
:10569000F894DEBF0FBECDBFDE011196E1EDF9E05B
:1056A0008CE001900D928150E1F78091CF09843018
:1056B000D9F0853038F4823089F0833090F4882333
:1056C00051F022C08630B1F0863088F08730A9F0E2
:1056D0008830D1F415C08DE291E014C087E291E0EA
:1056E00011C083E291E00EC08EE191E00BC089E130
:1056F00091E008C083E191E005C08DE091E002C037
:1057000089E091E00E948F2A82E091E00E948F2A36
:105710008DE0C82ED12CCC0EDD1E8601BB24EE24DC
:10572000FF244E010894811C911CF401EE0DFF1D15
:1057300060817181828193810E947833F701EC56F8
:10574000F44F20813181428153810E94DD32F80182
:105750006083718382839383F2E0BF1659F420E063
:1057600030E040EA50E40E94DD32F801608371834A
:10577000828393838091B70B80FF10C0F801608112
:105780007181828193812BE832E441E25DE30E94E2
:10579000AB35F8016083718382839383F801619153
:1057A0007191819191918F010E943E2980E091E059
:1057B0000E948F2AB39484E090E0E80EF91E93E0F3
:1057C000B91609F0B2CF8AEF90E00E948F2A0CEF51
:1057D00019E0FF248091B70B80FF37C0E2E0FE168E
:1057E000C9F46091040A7091050A8091060A9091AB
:1057F000070A2091100A3091110A4091120A509123
:10580000130A0E94FD312BE832E441E25DE30E947D
:10581000AB3530C0F801608171818281938124852C
:105820003585468557850E94FD312BE832E441E2FB
:105830005DEB0E94AB359B01AC01F601608171818B
:10584000828193810E94FD313CC0F2E0FF1629F570
:105850006091040A7091050A8091060A9091070AE6
:105860002091100A3091110A4091120A5091130AA6
:105870000E94FD3120E030E040EA50EC0E94DD3231
:105880009B01AC016D897E898F89988D0E94FD31C5
:105890006D8B7E8B8F8B988F19C0F8016081718121
:1058A0008281938124853585468557850E94FD3107
:1058B0009B01AC01F60160817181828193810E941C
:1058C000FC31F6016083718382839383F6016081EA
:1058D0007181828193810E943E29F2E0FF1621F0BE
:1058E00088EF90E00E948F2AF39484E090E0C80E45
:1058F000D91E0C5F1F4F93E0F91609F06BCF85EFAF
:1059000090E00E948F2A68960FB6F894DEBF0FBE13
:10591000CDBFCF91DF911F910F91FF90EF90DF905E
:10592000CF90BF909F908F9008958091E009823032
:1059300091F0833028F4882341F08130B1F408C01D
:10594000833061F0843089F40CC085EA91E00BC0AB
:1059500081EA91E008C08DE991E005C089E991E014
:1059600002C084E991E00E948F2A81E991E00E94BF
:105970008F2A6091FB0970E06A5C7F4F882777FD72
:105980008095982F0E94F0298091F809882351F47E
:105990008091F909813019F48CE891E005C087E81D
:1059A00091E002C082E891E00E948F2A8091E20992
:1059B000882319F08DE791E002C088E791E00E940A
:1059C0008F2A8091E309882319F083E791E002C0D0
:1059D0008EE691E00E948F2A8091E109882319F0D8
:1059E00089E691E002C084E691E00E948F2A8091CE
:1059F000E409813041F0813018F0823059F406C05A
:105A000080E691E005C08CE591E002C088E591E078
:105A10000E948F2A8091E509882359F0813019F07E
:105A20008F3F59F403C084E591E005C080E591E023
:105A300002C08CE491E00E948F2A8091E6098823BD
:105A400019F0813041F403C088E491E002C084E49D
:105A500091E00E948F2A81E491E00E948F2A609158
:105A6000F70970E080E090E00E94F0298EE391E079
:105A70000E948F2A8091E209882379F06091E709DA
:105A80007091E8098091E9099091EA092BE832E4E4
:105A900041E25DE30E94AB3508C06091E709709177
:105AA000E8098091E9099091EA090E943E298AE378
:105AB00091E00E948F2A0895CF92DF92EF92FF9299
:105AC0000F931F93E82E6B0187E391E00E948F2ACA
:105AD000FF2400E010E0C801B7010E94F02985E32F
